{
	"contracts/test_work/TodoList.sol": {
		"TodoList": {
			"abi": [
				{
					"inputs": [
						{
							"internalType": "string",
							"name": "_name",
							"type": "string"
						},
						{
							"internalType": "bool",
							"name": "_isComplated",
							"type": "bool"
						}
					],
					"name": "createTodo",
					"outputs": [],
					"stateMutability": "nonpayable",
					"type": "function"
				},
				{
					"inputs": [
						{
							"internalType": "uint256",
							"name": "_index",
							"type": "uint256"
						}
					],
					"name": "getTodo",
					"outputs": [
						{
							"components": [
								{
									"internalType": "string",
									"name": "name",
									"type": "string"
								},
								{
									"internalType": "bool",
									"name": "isComplated",
									"type": "bool"
								}
							],
							"internalType": "struct TodoList.Todo",
							"name": "",
							"type": "tuple"
						}
					],
					"stateMutability": "view",
					"type": "function"
				},
				{
					"inputs": [
						{
							"internalType": "uint256",
							"name": "_index",
							"type": "uint256"
						},
						{
							"internalType": "string",
							"name": "_name",
							"type": "string"
						}
					],
					"name": "moditfyV1",
					"outputs": [],
					"stateMutability": "nonpayable",
					"type": "function"
				},
				{
					"inputs": [
						{
							"internalType": "uint256",
							"name": "_index",
							"type": "uint256"
						},
						{
							"internalType": "string",
							"name": "_name",
							"type": "string"
						}
					],
					"name": "moditfyV2",
					"outputs": [],
					"stateMutability": "nonpayable",
					"type": "function"
				}
			],
			"devdoc": {
				"kind": "dev",
				"methods": {},
				"version": 1
			},
			"evm": {
				"assembly": "    /* \"contracts/test_work/TodoList.sol\":58:1018  contract TodoList {... */\n  mstore(0x40, 0x80)\n  callvalue\n  dup1\n  iszero\n  tag_1\n  jumpi\n  0x00\n  dup1\n  revert\ntag_1:\n  pop\n  dataSize(sub_0)\n  dup1\n  dataOffset(sub_0)\n  0x00\n  codecopy\n  0x00\n  return\nstop\n\nsub_0: assembly {\n        /* \"contracts/test_work/TodoList.sol\":58:1018  contract TodoList {... */\n      mstore(0x40, 0x80)\n      callvalue\n      dup1\n      iszero\n      tag_1\n      jumpi\n      0x00\n      dup1\n      revert\n    tag_1:\n      pop\n      jumpi(tag_2, lt(calldatasize, 0x04))\n      shr(0xe0, calldataload(0x00))\n      dup1\n      0x13e72293\n      eq\n      tag_3\n      jumpi\n      dup1\n      0x44964d17\n      eq\n      tag_4\n      jumpi\n      dup1\n      0x8e3a413d\n      eq\n      tag_5\n      jumpi\n      dup1\n      0xdd68afb6\n      eq\n      tag_6\n      jumpi\n    tag_2:\n      0x00\n      dup1\n      revert\n        /* \"contracts/test_work/TodoList.sol\":462:634  function moditfyV1(uint256 _index,string memory _name) public  {... */\n    tag_3:\n      tag_7\n      0x04\n      dup1\n      calldatasize\n      sub\n      dup2\n      add\n      swap1\n      tag_8\n      swap2\n      swap1\n      tag_9\n      jump\t// in\n    tag_8:\n      tag_10\n      jump\t// in\n    tag_7:\n      stop\n        /* \"contracts/test_work/TodoList.sol\":641:839  function moditfyV2(uint256 _index,string memory _name) external  {... */\n    tag_4:\n      tag_11\n      0x04\n      dup1\n      calldatasize\n      sub\n      dup2\n      add\n      swap1\n      tag_12\n      swap2\n      swap1\n      tag_9\n      jump\t// in\n    tag_12:\n      tag_13\n      jump\t// in\n    tag_11:\n      stop\n        /* \"contracts/test_work/TodoList.sol\":183:456  function createTodo(string memory _name,bool _isComplated) public  {... */\n    tag_5:\n      tag_14\n      0x04\n      dup1\n      calldatasize\n      sub\n      dup2\n      add\n      swap1\n      tag_15\n      swap2\n      swap1\n      tag_16\n      jump\t// in\n    tag_15:\n      tag_17\n      jump\t// in\n    tag_14:\n      stop\n        /* \"contracts/test_work/TodoList.sol\":852:1016  function getTodo(uint256 _index) public view  returns (Todo memory) {... */\n    tag_6:\n      tag_18\n      0x04\n      dup1\n      calldatasize\n      sub\n      dup2\n      add\n      swap1\n      tag_19\n      swap2\n      swap1\n      tag_20\n      jump\t// in\n    tag_19:\n      tag_21\n      jump\t// in\n    tag_18:\n      mload(0x40)\n      tag_22\n      swap2\n      swap1\n      tag_23\n      jump\t// in\n    tag_22:\n      mload(0x40)\n      dup1\n      swap2\n      sub\n      swap1\n      return\n        /* \"contracts/test_work/TodoList.sol\":462:634  function moditfyV1(uint256 _index,string memory _name) public  {... */\n    tag_10:\n        /* \"contracts/test_work/TodoList.sol\":550:555  todos */\n      0x00\n        /* \"contracts/test_work/TodoList.sol\":550:562  todos.length */\n      dup1\n      sload\n      swap1\n      pop\n        /* \"contracts/test_work/TodoList.sol\":543:549  _index */\n      dup3\n        /* \"contracts/test_work/TodoList.sol\":543:562  _index<todos.length */\n      lt\n        /* \"contracts/test_work/TodoList.sol\":535:584  require(_index<todos.length,\"index out of range\") */\n      tag_25\n      jumpi\n      mload(0x40)\n      0x08c379a000000000000000000000000000000000000000000000000000000000\n      dup2\n      mstore\n      0x04\n      add\n      tag_26\n      swap1\n      tag_27\n      jump\t// in\n    tag_26:\n      mload(0x40)\n      dup1\n      swap2\n      sub\n      swap1\n      revert\n    tag_25:\n        /* \"contracts/test_work/TodoList.sol\":613:618  _name */\n      dup1\n        /* \"contracts/test_work/TodoList.sol\":594:599  todos */\n      0x00\n        /* \"contracts/test_work/TodoList.sol\":600:606  _index */\n      dup4\n        /* \"contracts/test_work/TodoList.sol\":594:607  todos[_index] */\n      dup2\n      sload\n      dup2\n      lt\n      tag_28\n      jumpi\n      tag_29\n      tag_30\n      jump\t// in\n    tag_29:\n    tag_28:\n      swap1\n      0x00\n      mstore\n      keccak256(0x00, 0x20)\n      swap1\n      0x02\n      mul\n      add\n        /* \"contracts/test_work/TodoList.sol\":594:612  todos[_index].name */\n      0x00\n      add\n        /* \"contracts/test_work/TodoList.sol\":594:618  todos[_index].name=_name */\n      swap1\n      dup2\n      tag_32\n      swap2\n      swap1\n      tag_33\n      jump\t// in\n    tag_32:\n      pop\n        /* \"contracts/test_work/TodoList.sol\":462:634  function moditfyV1(uint256 _index,string memory _name) public  {... */\n      pop\n      pop\n      jump\t// out\n        /* \"contracts/test_work/TodoList.sol\":641:839  function moditfyV2(uint256 _index,string memory _name) external  {... */\n    tag_13:\n        /* \"contracts/test_work/TodoList.sol\":731:736  todos */\n      0x00\n        /* \"contracts/test_work/TodoList.sol\":731:743  todos.length */\n      dup1\n      sload\n      swap1\n      pop\n        /* \"contracts/test_work/TodoList.sol\":724:730  _index */\n      dup3\n        /* \"contracts/test_work/TodoList.sol\":724:743  _index<todos.length */\n      lt\n        /* \"contracts/test_work/TodoList.sol\":716:765  require(_index<todos.length,\"index out of range\") */\n      tag_35\n      jumpi\n      mload(0x40)\n      0x08c379a000000000000000000000000000000000000000000000000000000000\n      dup2\n      mstore\n      0x04\n      add\n      tag_36\n      swap1\n      tag_27\n      jump\t// in\n    tag_36:\n      mload(0x40)\n      dup1\n      swap2\n      sub\n      swap1\n      revert\n    tag_35:\n        /* \"contracts/test_work/TodoList.sol\":775:792  Todo storage todo */\n      0x00\n        /* \"contracts/test_work/TodoList.sol\":793:798  todos */\n      dup1\n        /* \"contracts/test_work/TodoList.sol\":799:805  _index */\n      dup4\n        /* \"contracts/test_work/TodoList.sol\":793:806  todos[_index] */\n      dup2\n      sload\n      dup2\n      lt\n      tag_37\n      jumpi\n      tag_38\n      tag_30\n      jump\t// in\n    tag_38:\n    tag_37:\n      swap1\n      0x00\n      mstore\n      keccak256(0x00, 0x20)\n      swap1\n      0x02\n      mul\n      add\n        /* \"contracts/test_work/TodoList.sol\":775:806  Todo storage todo=todos[_index] */\n      swap1\n      pop\n        /* \"contracts/test_work/TodoList.sol\":826:831  _name */\n      dup2\n        /* \"contracts/test_work/TodoList.sol\":816:820  todo */\n      dup2\n        /* \"contracts/test_work/TodoList.sol\":816:825  todo.name */\n      0x00\n      add\n        /* \"contracts/test_work/TodoList.sol\":816:831  todo.name=_name */\n      swap1\n      dup2\n      tag_40\n      swap2\n      swap1\n      tag_33\n      jump\t// in\n    tag_40:\n      pop\n        /* \"contracts/test_work/TodoList.sol\":706:839  {... */\n      pop\n        /* \"contracts/test_work/TodoList.sol\":641:839  function moditfyV2(uint256 _index,string memory _name) external  {... */\n      pop\n      pop\n      jump\t// out\n        /* \"contracts/test_work/TodoList.sol\":183:456  function createTodo(string memory _name,bool _isComplated) public  {... */\n    tag_17:\n        /* \"contracts/test_work/TodoList.sol\":290:291  0 */\n      0x00\n        /* \"contracts/test_work/TodoList.sol\":274:279  _name */\n      dup3\n        /* \"contracts/test_work/TodoList.sol\":268:287  bytes(_name).length */\n      mload\n        /* \"contracts/test_work/TodoList.sol\":268:291  bytes(_name).length > 0 */\n      gt\n        /* \"contracts/test_work/TodoList.sol\":260:315  require(bytes(_name).length > 0,\"name cannot be empty\") */\n      tag_42\n      jumpi\n      mload(0x40)\n      0x08c379a000000000000000000000000000000000000000000000000000000000\n      dup2\n      mstore\n      0x04\n      add\n      tag_43\n      swap1\n      tag_44\n      jump\t// in\n    tag_43:\n      mload(0x40)\n      dup1\n      swap2\n      sub\n      swap1\n      revert\n    tag_42:\n        /* \"contracts/test_work/TodoList.sol\":325:330  todos */\n      0x00\n        /* \"contracts/test_work/TodoList.sol\":349:439  Todo({... */\n      mload(0x40)\n      dup1\n      0x40\n      add\n      0x40\n      mstore\n      dup1\n        /* \"contracts/test_work/TodoList.sol\":377:382  _name */\n      dup5\n        /* \"contracts/test_work/TodoList.sol\":349:439  Todo({... */\n      dup2\n      mstore\n      0x20\n      add\n        /* \"contracts/test_work/TodoList.sol\":412:424  _isComplated */\n      dup4\n        /* \"contracts/test_work/TodoList.sol\":349:439  Todo({... */\n      iszero\n      iszero\n      dup2\n      mstore\n      pop\n        /* \"contracts/test_work/TodoList.sol\":325:449  todos.push(... */\n      swap1\n      dup1\n      0x01\n      dup2\n      sload\n      add\n      dup1\n      dup3\n      sstore\n      dup1\n      swap2\n      pop\n      pop\n      0x01\n      swap1\n      sub\n      swap1\n      0x00\n      mstore\n      keccak256(0x00, 0x20)\n      swap1\n      0x02\n      mul\n      add\n      0x00\n      swap1\n      swap2\n      swap1\n      swap2\n      swap1\n      swap2\n      pop\n      0x00\n      dup3\n      add\n      mload\n      dup2\n      0x00\n      add\n      swap1\n      dup2\n      tag_46\n      swap2\n      swap1\n      tag_33\n      jump\t// in\n    tag_46:\n      pop\n      0x20\n      dup3\n      add\n      mload\n      dup2\n      0x01\n      add\n      exp(0x0100, 0x00)\n      dup2\n      sload\n      dup2\n      0xff\n      mul\n      not\n      and\n      swap1\n      dup4\n      iszero\n      iszero\n      mul\n      or\n      swap1\n      sstore\n      pop\n      pop\n      pop\n        /* \"contracts/test_work/TodoList.sol\":183:456  function createTodo(string memory _name,bool _isComplated) public  {... */\n      pop\n      pop\n      jump\t// out\n        /* \"contracts/test_work/TodoList.sol\":852:1016  function getTodo(uint256 _index) public view  returns (Todo memory) {... */\n    tag_21:\n        /* \"contracts/test_work/TodoList.sol\":907:918  Todo memory */\n      tag_47\n      tag_48\n      jump\t// in\n    tag_47:\n        /* \"contracts/test_work/TodoList.sol\":945:950  todos */\n      0x00\n        /* \"contracts/test_work/TodoList.sol\":945:957  todos.length */\n      dup1\n      sload\n      swap1\n      pop\n        /* \"contracts/test_work/TodoList.sol\":938:944  _index */\n      dup3\n        /* \"contracts/test_work/TodoList.sol\":938:957  _index<todos.length */\n      lt\n        /* \"contracts/test_work/TodoList.sol\":930:979  require(_index<todos.length,\"index out of range\") */\n      tag_50\n      jumpi\n      mload(0x40)\n      0x08c379a000000000000000000000000000000000000000000000000000000000\n      dup2\n      mstore\n      0x04\n      add\n      tag_51\n      swap1\n      tag_27\n      jump\t// in\n    tag_51:\n      mload(0x40)\n      dup1\n      swap2\n      sub\n      swap1\n      revert\n    tag_50:\n        /* \"contracts/test_work/TodoList.sol\":996:1001  todos */\n      0x00\n        /* \"contracts/test_work/TodoList.sol\":1002:1008  _index */\n      dup3\n        /* \"contracts/test_work/TodoList.sol\":996:1009  todos[_index] */\n      dup2\n      sload\n      dup2\n      lt\n      tag_52\n      jumpi\n      tag_53\n      tag_30\n      jump\t// in\n    tag_53:\n    tag_52:\n      swap1\n      0x00\n      mstore\n      keccak256(0x00, 0x20)\n      swap1\n      0x02\n      mul\n      add\n        /* \"contracts/test_work/TodoList.sol\":989:1009  return todos[_index] */\n      mload(0x40)\n      dup1\n      0x40\n      add\n      0x40\n      mstore\n      swap1\n      dup2\n      0x00\n      dup3\n      add\n      dup1\n      sload\n      tag_55\n      swap1\n      tag_56\n      jump\t// in\n    tag_55:\n      dup1\n      0x1f\n      add\n      0x20\n      dup1\n      swap2\n      div\n      mul\n      0x20\n      add\n      mload(0x40)\n      swap1\n      dup2\n      add\n      0x40\n      mstore\n      dup1\n      swap3\n      swap2\n      swap1\n      dup2\n      dup2\n      mstore\n      0x20\n      add\n      dup3\n      dup1\n      sload\n      tag_57\n      swap1\n      tag_56\n      jump\t// in\n    tag_57:\n      dup1\n      iszero\n      tag_58\n      jumpi\n      dup1\n      0x1f\n      lt\n      tag_59\n      jumpi\n      0x0100\n      dup1\n      dup4\n      sload\n      div\n      mul\n      dup4\n      mstore\n      swap2\n      0x20\n      add\n      swap2\n      jump(tag_58)\n    tag_59:\n      dup3\n      add\n      swap2\n      swap1\n      0x00\n      mstore\n      keccak256(0x00, 0x20)\n      swap1\n    tag_60:\n      dup2\n      sload\n      dup2\n      mstore\n      swap1\n      0x01\n      add\n      swap1\n      0x20\n      add\n      dup1\n      dup4\n      gt\n      tag_60\n      jumpi\n      dup3\n      swap1\n      sub\n      0x1f\n      and\n      dup3\n      add\n      swap2\n    tag_58:\n      pop\n      pop\n      pop\n      pop\n      pop\n      dup2\n      mstore\n      0x20\n      add\n      0x01\n      dup3\n      add\n      0x00\n      swap1\n      sload\n      swap1\n      0x0100\n      exp\n      swap1\n      div\n      0xff\n      and\n      iszero\n      iszero\n      iszero\n      iszero\n      dup2\n      mstore\n      pop\n      pop\n      swap1\n      pop\n        /* \"contracts/test_work/TodoList.sol\":852:1016  function getTodo(uint256 _index) public view  returns (Todo memory) {... */\n      swap2\n      swap1\n      pop\n      jump\t// out\n    tag_48:\n      mload(0x40)\n      dup1\n      0x40\n      add\n      0x40\n      mstore\n      dup1\n      0x60\n      dup2\n      mstore\n      0x20\n      add\n      iszero(iszero(0x00))\n      dup2\n      mstore\n      pop\n      swap1\n      jump\t// out\n        /* \"#utility.yul\":7:82   */\n    tag_61:\n        /* \"#utility.yul\":40:46   */\n      0x00\n        /* \"#utility.yul\":73:75   */\n      0x40\n        /* \"#utility.yul\":67:76   */\n      mload\n        /* \"#utility.yul\":57:76   */\n      swap1\n      pop\n        /* \"#utility.yul\":7:82   */\n      swap1\n      jump\t// out\n        /* \"#utility.yul\":88:205   */\n    tag_62:\n        /* \"#utility.yul\":197:198   */\n      0x00\n        /* \"#utility.yul\":194:195   */\n      dup1\n        /* \"#utility.yul\":187:199   */\n      revert\n        /* \"#utility.yul\":211:328   */\n    tag_63:\n        /* \"#utility.yul\":320:321   */\n      0x00\n        /* \"#utility.yul\":317:318   */\n      dup1\n        /* \"#utility.yul\":310:322   */\n      revert\n        /* \"#utility.yul\":334:411   */\n    tag_64:\n        /* \"#utility.yul\":371:378   */\n      0x00\n        /* \"#utility.yul\":400:405   */\n      dup2\n        /* \"#utility.yul\":389:405   */\n      swap1\n      pop\n        /* \"#utility.yul\":334:411   */\n      swap2\n      swap1\n      pop\n      jump\t// out\n        /* \"#utility.yul\":417:539   */\n    tag_65:\n        /* \"#utility.yul\":490:514   */\n      tag_113\n        /* \"#utility.yul\":508:513   */\n      dup2\n        /* \"#utility.yul\":490:514   */\n      tag_64\n      jump\t// in\n    tag_113:\n        /* \"#utility.yul\":483:488   */\n      dup2\n        /* \"#utility.yul\":480:515   */\n      eq\n        /* \"#utility.yul\":470:533   */\n      tag_114\n      jumpi\n        /* \"#utility.yul\":529:530   */\n      0x00\n        /* \"#utility.yul\":526:527   */\n      dup1\n        /* \"#utility.yul\":519:531   */\n      revert\n        /* \"#utility.yul\":470:533   */\n    tag_114:\n        /* \"#utility.yul\":417:539   */\n      pop\n      jump\t// out\n        /* \"#utility.yul\":545:684   */\n    tag_66:\n        /* \"#utility.yul\":591:596   */\n      0x00\n        /* \"#utility.yul\":629:635   */\n      dup2\n        /* \"#utility.yul\":616:636   */\n      calldataload\n        /* \"#utility.yul\":607:636   */\n      swap1\n      pop\n        /* \"#utility.yul\":645:678   */\n      tag_116\n        /* \"#utility.yul\":672:677   */\n      dup2\n        /* \"#utility.yul\":645:678   */\n      tag_65\n      jump\t// in\n    tag_116:\n        /* \"#utility.yul\":545:684   */\n      swap3\n      swap2\n      pop\n      pop\n      jump\t// out\n        /* \"#utility.yul\":690:807   */\n    tag_67:\n        /* \"#utility.yul\":799:800   */\n      0x00\n        /* \"#utility.yul\":796:797   */\n      dup1\n        /* \"#utility.yul\":789:801   */\n      revert\n        /* \"#utility.yul\":813:930   */\n    tag_68:\n        /* \"#utility.yul\":922:923   */\n      0x00\n        /* \"#utility.yul\":919:920   */\n      dup1\n        /* \"#utility.yul\":912:924   */\n      revert\n        /* \"#utility.yul\":936:1038   */\n    tag_69:\n        /* \"#utility.yul\":977:983   */\n      0x00\n        /* \"#utility.yul\":1028:1030   */\n      0x1f\n        /* \"#utility.yul\":1024:1031   */\n      not\n        /* \"#utility.yul\":1019:1021   */\n      0x1f\n        /* \"#utility.yul\":1012:1017   */\n      dup4\n        /* \"#utility.yul\":1008:1022   */\n      add\n        /* \"#utility.yul\":1004:1032   */\n      and\n        /* \"#utility.yul\":994:1032   */\n      swap1\n      pop\n        /* \"#utility.yul\":936:1038   */\n      swap2\n      swap1\n      pop\n      jump\t// out\n        /* \"#utility.yul\":1044:1224   */\n    tag_70:\n        /* \"#utility.yul\":1092:1169   */\n      0x4e487b7100000000000000000000000000000000000000000000000000000000\n        /* \"#utility.yul\":1089:1090   */\n      0x00\n        /* \"#utility.yul\":1082:1170   */\n      mstore\n        /* \"#utility.yul\":1189:1193   */\n      0x41\n        /* \"#utility.yul\":1186:1187   */\n      0x04\n        /* \"#utility.yul\":1179:1194   */\n      mstore\n        /* \"#utility.yul\":1213:1217   */\n      0x24\n        /* \"#utility.yul\":1210:1211   */\n      0x00\n        /* \"#utility.yul\":1203:1218   */\n      revert\n        /* \"#utility.yul\":1230:1511   */\n    tag_71:\n        /* \"#utility.yul\":1313:1340   */\n      tag_122\n        /* \"#utility.yul\":1335:1339   */\n      dup3\n        /* \"#utility.yul\":1313:1340   */\n      tag_69\n      jump\t// in\n    tag_122:\n        /* \"#utility.yul\":1305:1311   */\n      dup2\n        /* \"#utility.yul\":1301:1341   */\n      add\n        /* \"#utility.yul\":1443:1449   */\n      dup2\n        /* \"#utility.yul\":1431:1441   */\n      dup2\n        /* \"#utility.yul\":1428:1450   */\n      lt\n        /* \"#utility.yul\":1407:1425   */\n      0xffffffffffffffff\n        /* \"#utility.yul\":1395:1405   */\n      dup3\n        /* \"#utility.yul\":1392:1426   */\n      gt\n        /* \"#utility.yul\":1389:1451   */\n      or\n        /* \"#utility.yul\":1386:1474   */\n      iszero\n      tag_123\n      jumpi\n        /* \"#utility.yul\":1454:1472   */\n      tag_124\n      tag_70\n      jump\t// in\n    tag_124:\n        /* \"#utility.yul\":1386:1474   */\n    tag_123:\n        /* \"#utility.yul\":1494:1504   */\n      dup1\n        /* \"#utility.yul\":1490:1492   */\n      0x40\n        /* \"#utility.yul\":1483:1505   */\n      mstore\n        /* \"#utility.yul\":1273:1511   */\n      pop\n        /* \"#utility.yul\":1230:1511   */\n      pop\n      pop\n      jump\t// out\n        /* \"#utility.yul\":1517:1646   */\n    tag_72:\n        /* \"#utility.yul\":1551:1557   */\n      0x00\n        /* \"#utility.yul\":1578:1598   */\n      tag_126\n      tag_61\n      jump\t// in\n    tag_126:\n        /* \"#utility.yul\":1568:1598   */\n      swap1\n      pop\n        /* \"#utility.yul\":1607:1640   */\n      tag_127\n        /* \"#utility.yul\":1635:1639   */\n      dup3\n        /* \"#utility.yul\":1627:1633   */\n      dup3\n        /* \"#utility.yul\":1607:1640   */\n      tag_71\n      jump\t// in\n    tag_127:\n        /* \"#utility.yul\":1517:1646   */\n      swap2\n      swap1\n      pop\n      jump\t// out\n        /* \"#utility.yul\":1652:1960   */\n    tag_73:\n        /* \"#utility.yul\":1714:1718   */\n      0x00\n        /* \"#utility.yul\":1804:1822   */\n      0xffffffffffffffff\n        /* \"#utility.yul\":1796:1802   */\n      dup3\n        /* \"#utility.yul\":1793:1823   */\n      gt\n        /* \"#utility.yul\":1790:1846   */\n      iszero\n      tag_129\n      jumpi\n        /* \"#utility.yul\":1826:1844   */\n      tag_130\n      tag_70\n      jump\t// in\n    tag_130:\n        /* \"#utility.yul\":1790:1846   */\n    tag_129:\n        /* \"#utility.yul\":1864:1893   */\n      tag_131\n        /* \"#utility.yul\":1886:1892   */\n      dup3\n        /* \"#utility.yul\":1864:1893   */\n      tag_69\n      jump\t// in\n    tag_131:\n        /* \"#utility.yul\":1856:1893   */\n      swap1\n      pop\n        /* \"#utility.yul\":1948:1952   */\n      0x20\n        /* \"#utility.yul\":1942:1946   */\n      dup2\n        /* \"#utility.yul\":1938:1953   */\n      add\n        /* \"#utility.yul\":1930:1953   */\n      swap1\n      pop\n        /* \"#utility.yul\":1652:1960   */\n      swap2\n      swap1\n      pop\n      jump\t// out\n        /* \"#utility.yul\":1966:2112   */\n    tag_74:\n        /* \"#utility.yul\":2063:2069   */\n      dup3\n        /* \"#utility.yul\":2058:2061   */\n      dup2\n        /* \"#utility.yul\":2053:2056   */\n      dup4\n        /* \"#utility.yul\":2040:2070   */\n      calldatacopy\n        /* \"#utility.yul\":2104:2105   */\n      0x00\n        /* \"#utility.yul\":2095:2101   */\n      dup4\n        /* \"#utility.yul\":2090:2093   */\n      dup4\n        /* \"#utility.yul\":2086:2102   */\n      add\n        /* \"#utility.yul\":2079:2106   */\n      mstore\n        /* \"#utility.yul\":1966:2112   */\n      pop\n      pop\n      pop\n      jump\t// out\n        /* \"#utility.yul\":2118:2543   */\n    tag_75:\n        /* \"#utility.yul\":2196:2201   */\n      0x00\n        /* \"#utility.yul\":2221:2287   */\n      tag_134\n        /* \"#utility.yul\":2237:2286   */\n      tag_135\n        /* \"#utility.yul\":2279:2285   */\n      dup5\n        /* \"#utility.yul\":2237:2286   */\n      tag_73\n      jump\t// in\n    tag_135:\n        /* \"#utility.yul\":2221:2287   */\n      tag_72\n      jump\t// in\n    tag_134:\n        /* \"#utility.yul\":2212:2287   */\n      swap1\n      pop\n        /* \"#utility.yul\":2310:2316   */\n      dup3\n        /* \"#utility.yul\":2303:2308   */\n      dup2\n        /* \"#utility.yul\":2296:2317   */\n      mstore\n        /* \"#utility.yul\":2348:2352   */\n      0x20\n        /* \"#utility.yul\":2341:2346   */\n      dup2\n        /* \"#utility.yul\":2337:2353   */\n      add\n        /* \"#utility.yul\":2386:2389   */\n      dup5\n        /* \"#utility.yul\":2377:2383   */\n      dup5\n        /* \"#utility.yul\":2372:2375   */\n      dup5\n        /* \"#utility.yul\":2368:2384   */\n      add\n        /* \"#utility.yul\":2365:2390   */\n      gt\n        /* \"#utility.yul\":2362:2474   */\n      iszero\n      tag_136\n      jumpi\n        /* \"#utility.yul\":2393:2472   */\n      tag_137\n      tag_68\n      jump\t// in\n    tag_137:\n        /* \"#utility.yul\":2362:2474   */\n    tag_136:\n        /* \"#utility.yul\":2483:2537   */\n      tag_138\n        /* \"#utility.yul\":2530:2536   */\n      dup5\n        /* \"#utility.yul\":2525:2528   */\n      dup3\n        /* \"#utility.yul\":2520:2523   */\n      dup6\n        /* \"#utility.yul\":2483:2537   */\n      tag_74\n      jump\t// in\n    tag_138:\n        /* \"#utility.yul\":2202:2543   */\n      pop\n        /* \"#utility.yul\":2118:2543   */\n      swap4\n      swap3\n      pop\n      pop\n      pop\n      jump\t// out\n        /* \"#utility.yul\":2563:2903   */\n    tag_76:\n        /* \"#utility.yul\":2619:2624   */\n      0x00\n        /* \"#utility.yul\":2668:2671   */\n      dup3\n        /* \"#utility.yul\":2661:2665   */\n      0x1f\n        /* \"#utility.yul\":2653:2659   */\n      dup4\n        /* \"#utility.yul\":2649:2666   */\n      add\n        /* \"#utility.yul\":2645:2672   */\n      slt\n        /* \"#utility.yul\":2635:2757   */\n      tag_140\n      jumpi\n        /* \"#utility.yul\":2676:2755   */\n      tag_141\n      tag_67\n      jump\t// in\n    tag_141:\n        /* \"#utility.yul\":2635:2757   */\n    tag_140:\n        /* \"#utility.yul\":2793:2799   */\n      dup2\n        /* \"#utility.yul\":2780:2800   */\n      calldataload\n        /* \"#utility.yul\":2818:2897   */\n      tag_142\n        /* \"#utility.yul\":2893:2896   */\n      dup5\n        /* \"#utility.yul\":2885:2891   */\n      dup3\n        /* \"#utility.yul\":2878:2882   */\n      0x20\n        /* \"#utility.yul\":2870:2876   */\n      dup7\n        /* \"#utility.yul\":2866:2883   */\n      add\n        /* \"#utility.yul\":2818:2897   */\n      tag_75\n      jump\t// in\n    tag_142:\n        /* \"#utility.yul\":2809:2897   */\n      swap2\n      pop\n        /* \"#utility.yul\":2625:2903   */\n      pop\n        /* \"#utility.yul\":2563:2903   */\n      swap3\n      swap2\n      pop\n      pop\n      jump\t// out\n        /* \"#utility.yul\":2909:3563   */\n    tag_9:\n        /* \"#utility.yul\":2987:2993   */\n      0x00\n        /* \"#utility.yul\":2995:3001   */\n      dup1\n        /* \"#utility.yul\":3044:3046   */\n      0x40\n        /* \"#utility.yul\":3032:3041   */\n      dup4\n        /* \"#utility.yul\":3023:3030   */\n      dup6\n        /* \"#utility.yul\":3019:3042   */\n      sub\n        /* \"#utility.yul\":3015:3047   */\n      slt\n        /* \"#utility.yul\":3012:3131   */\n      iszero\n      tag_144\n      jumpi\n        /* \"#utility.yul\":3050:3129   */\n      tag_145\n      tag_62\n      jump\t// in\n    tag_145:\n        /* \"#utility.yul\":3012:3131   */\n    tag_144:\n        /* \"#utility.yul\":3170:3171   */\n      0x00\n        /* \"#utility.yul\":3195:3248   */\n      tag_146\n        /* \"#utility.yul\":3240:3247   */\n      dup6\n        /* \"#utility.yul\":3231:3237   */\n      dup3\n        /* \"#utility.yul\":3220:3229   */\n      dup7\n        /* \"#utility.yul\":3216:3238   */\n      add\n        /* \"#utility.yul\":3195:3248   */\n      tag_66\n      jump\t// in\n    tag_146:\n        /* \"#utility.yul\":3185:3248   */\n      swap3\n      pop\n        /* \"#utility.yul\":3141:3258   */\n      pop\n        /* \"#utility.yul\":3325:3327   */\n      0x20\n        /* \"#utility.yul\":3314:3323   */\n      dup4\n        /* \"#utility.yul\":3310:3328   */\n      add\n        /* \"#utility.yul\":3297:3329   */\n      calldataload\n        /* \"#utility.yul\":3356:3374   */\n      0xffffffffffffffff\n        /* \"#utility.yul\":3348:3354   */\n      dup2\n        /* \"#utility.yul\":3345:3375   */\n      gt\n        /* \"#utility.yul\":3342:3459   */\n      iszero\n      tag_147\n      jumpi\n        /* \"#utility.yul\":3378:3457   */\n      tag_148\n      tag_63\n      jump\t// in\n    tag_148:\n        /* \"#utility.yul\":3342:3459   */\n    tag_147:\n        /* \"#utility.yul\":3483:3546   */\n      tag_149\n        /* \"#utility.yul\":3538:3545   */\n      dup6\n        /* \"#utility.yul\":3529:3535   */\n      dup3\n        /* \"#utility.yul\":3518:3527   */\n      dup7\n        /* \"#utility.yul\":3514:3536   */\n      add\n        /* \"#utility.yul\":3483:3546   */\n      tag_76\n      jump\t// in\n    tag_149:\n        /* \"#utility.yul\":3473:3546   */\n      swap2\n      pop\n        /* \"#utility.yul\":3268:3556   */\n      pop\n        /* \"#utility.yul\":2909:3563   */\n      swap3\n      pop\n      swap3\n      swap1\n      pop\n      jump\t// out\n        /* \"#utility.yul\":3569:3659   */\n    tag_77:\n        /* \"#utility.yul\":3603:3610   */\n      0x00\n        /* \"#utility.yul\":3646:3651   */\n      dup2\n        /* \"#utility.yul\":3639:3652   */\n      iszero\n        /* \"#utility.yul\":3632:3653   */\n      iszero\n        /* \"#utility.yul\":3621:3653   */\n      swap1\n      pop\n        /* \"#utility.yul\":3569:3659   */\n      swap2\n      swap1\n      pop\n      jump\t// out\n        /* \"#utility.yul\":3665:3781   */\n    tag_78:\n        /* \"#utility.yul\":3735:3756   */\n      tag_152\n        /* \"#utility.yul\":3750:3755   */\n      dup2\n        /* \"#utility.yul\":3735:3756   */\n      tag_77\n      jump\t// in\n    tag_152:\n        /* \"#utility.yul\":3728:3733   */\n      dup2\n        /* \"#utility.yul\":3725:3757   */\n      eq\n        /* \"#utility.yul\":3715:3775   */\n      tag_153\n      jumpi\n        /* \"#utility.yul\":3771:3772   */\n      0x00\n        /* \"#utility.yul\":3768:3769   */\n      dup1\n        /* \"#utility.yul\":3761:3773   */\n      revert\n        /* \"#utility.yul\":3715:3775   */\n    tag_153:\n        /* \"#utility.yul\":3665:3781   */\n      pop\n      jump\t// out\n        /* \"#utility.yul\":3787:3920   */\n    tag_79:\n        /* \"#utility.yul\":3830:3835   */\n      0x00\n        /* \"#utility.yul\":3868:3874   */\n      dup2\n        /* \"#utility.yul\":3855:3875   */\n      calldataload\n        /* \"#utility.yul\":3846:3875   */\n      swap1\n      pop\n        /* \"#utility.yul\":3884:3914   */\n      tag_155\n        /* \"#utility.yul\":3908:3913   */\n      dup2\n        /* \"#utility.yul\":3884:3914   */\n      tag_78\n      jump\t// in\n    tag_155:\n        /* \"#utility.yul\":3787:3920   */\n      swap3\n      swap2\n      pop\n      pop\n      jump\t// out\n        /* \"#utility.yul\":3926:4574   */\n    tag_16:\n        /* \"#utility.yul\":4001:4007   */\n      0x00\n        /* \"#utility.yul\":4009:4015   */\n      dup1\n        /* \"#utility.yul\":4058:4060   */\n      0x40\n        /* \"#utility.yul\":4046:4055   */\n      dup4\n        /* \"#utility.yul\":4037:4044   */\n      dup6\n        /* \"#utility.yul\":4033:4056   */\n      sub\n        /* \"#utility.yul\":4029:4061   */\n      slt\n        /* \"#utility.yul\":4026:4145   */\n      iszero\n      tag_157\n      jumpi\n        /* \"#utility.yul\":4064:4143   */\n      tag_158\n      tag_62\n      jump\t// in\n    tag_158:\n        /* \"#utility.yul\":4026:4145   */\n    tag_157:\n        /* \"#utility.yul\":4212:4213   */\n      0x00\n        /* \"#utility.yul\":4201:4210   */\n      dup4\n        /* \"#utility.yul\":4197:4214   */\n      add\n        /* \"#utility.yul\":4184:4215   */\n      calldataload\n        /* \"#utility.yul\":4242:4260   */\n      0xffffffffffffffff\n        /* \"#utility.yul\":4234:4240   */\n      dup2\n        /* \"#utility.yul\":4231:4261   */\n      gt\n        /* \"#utility.yul\":4228:4345   */\n      iszero\n      tag_159\n      jumpi\n        /* \"#utility.yul\":4264:4343   */\n      tag_160\n      tag_63\n      jump\t// in\n    tag_160:\n        /* \"#utility.yul\":4228:4345   */\n    tag_159:\n        /* \"#utility.yul\":4369:4432   */\n      tag_161\n        /* \"#utility.yul\":4424:4431   */\n      dup6\n        /* \"#utility.yul\":4415:4421   */\n      dup3\n        /* \"#utility.yul\":4404:4413   */\n      dup7\n        /* \"#utility.yul\":4400:4422   */\n      add\n        /* \"#utility.yul\":4369:4432   */\n      tag_76\n      jump\t// in\n    tag_161:\n        /* \"#utility.yul\":4359:4432   */\n      swap3\n      pop\n        /* \"#utility.yul\":4155:4442   */\n      pop\n        /* \"#utility.yul\":4481:4483   */\n      0x20\n        /* \"#utility.yul\":4507:4557   */\n      tag_162\n        /* \"#utility.yul\":4549:4556   */\n      dup6\n        /* \"#utility.yul\":4540:4546   */\n      dup3\n        /* \"#utility.yul\":4529:4538   */\n      dup7\n        /* \"#utility.yul\":4525:4547   */\n      add\n        /* \"#utility.yul\":4507:4557   */\n      tag_79\n      jump\t// in\n    tag_162:\n        /* \"#utility.yul\":4497:4557   */\n      swap2\n      pop\n        /* \"#utility.yul\":4452:4567   */\n      pop\n        /* \"#utility.yul\":3926:4574   */\n      swap3\n      pop\n      swap3\n      swap1\n      pop\n      jump\t// out\n        /* \"#utility.yul\":4580:4909   */\n    tag_20:\n        /* \"#utility.yul\":4639:4645   */\n      0x00\n        /* \"#utility.yul\":4688:4690   */\n      0x20\n        /* \"#utility.yul\":4676:4685   */\n      dup3\n        /* \"#utility.yul\":4667:4674   */\n      dup5\n        /* \"#utility.yul\":4663:4686   */\n      sub\n        /* \"#utility.yul\":4659:4691   */\n      slt\n        /* \"#utility.yul\":4656:4775   */\n      iszero\n      tag_164\n      jumpi\n        /* \"#utility.yul\":4694:4773   */\n      tag_165\n      tag_62\n      jump\t// in\n    tag_165:\n        /* \"#utility.yul\":4656:4775   */\n    tag_164:\n        /* \"#utility.yul\":4814:4815   */\n      0x00\n        /* \"#utility.yul\":4839:4892   */\n      tag_166\n        /* \"#utility.yul\":4884:4891   */\n      dup5\n        /* \"#utility.yul\":4875:4881   */\n      dup3\n        /* \"#utility.yul\":4864:4873   */\n      dup6\n        /* \"#utility.yul\":4860:4882   */\n      add\n        /* \"#utility.yul\":4839:4892   */\n      tag_66\n      jump\t// in\n    tag_166:\n        /* \"#utility.yul\":4829:4892   */\n      swap2\n      pop\n        /* \"#utility.yul\":4785:4902   */\n      pop\n        /* \"#utility.yul\":4580:4909   */\n      swap3\n      swap2\n      pop\n      pop\n      jump\t// out\n        /* \"#utility.yul\":4915:5014   */\n    tag_80:\n        /* \"#utility.yul\":4967:4973   */\n      0x00\n        /* \"#utility.yul\":5001:5006   */\n      dup2\n        /* \"#utility.yul\":4995:5007   */\n      mload\n        /* \"#utility.yul\":4985:5007   */\n      swap1\n      pop\n        /* \"#utility.yul\":4915:5014   */\n      swap2\n      swap1\n      pop\n      jump\t// out\n        /* \"#utility.yul\":5020:5179   */\n    tag_81:\n        /* \"#utility.yul\":5094:5105   */\n      0x00\n        /* \"#utility.yul\":5128:5134   */\n      dup3\n        /* \"#utility.yul\":5123:5126   */\n      dup3\n        /* \"#utility.yul\":5116:5135   */\n      mstore\n        /* \"#utility.yul\":5168:5172   */\n      0x20\n        /* \"#utility.yul\":5163:5166   */\n      dup3\n        /* \"#utility.yul\":5159:5173   */\n      add\n        /* \"#utility.yul\":5144:5173   */\n      swap1\n      pop\n        /* \"#utility.yul\":5020:5179   */\n      swap3\n      swap2\n      pop\n      pop\n      jump\t// out\n        /* \"#utility.yul\":5185:5431   */\n    tag_82:\n        /* \"#utility.yul\":5266:5267   */\n      0x00\n        /* \"#utility.yul\":5276:5389   */\n    tag_170:\n        /* \"#utility.yul\":5290:5296   */\n      dup4\n        /* \"#utility.yul\":5287:5288   */\n      dup2\n        /* \"#utility.yul\":5284:5297   */\n      lt\n        /* \"#utility.yul\":5276:5389   */\n      iszero\n      tag_172\n      jumpi\n        /* \"#utility.yul\":5375:5376   */\n      dup1\n        /* \"#utility.yul\":5370:5373   */\n      dup3\n        /* \"#utility.yul\":5366:5377   */\n      add\n        /* \"#utility.yul\":5360:5378   */\n      mload\n        /* \"#utility.yul\":5356:5357   */\n      dup2\n        /* \"#utility.yul\":5351:5354   */\n      dup5\n        /* \"#utility.yul\":5347:5358   */\n      add\n        /* \"#utility.yul\":5340:5379   */\n      mstore\n        /* \"#utility.yul\":5312:5314   */\n      0x20\n        /* \"#utility.yul\":5309:5310   */\n      dup2\n        /* \"#utility.yul\":5305:5315   */\n      add\n        /* \"#utility.yul\":5300:5315   */\n      swap1\n      pop\n        /* \"#utility.yul\":5276:5389   */\n      jump(tag_170)\n    tag_172:\n        /* \"#utility.yul\":5423:5424   */\n      0x00\n        /* \"#utility.yul\":5414:5420   */\n      dup5\n        /* \"#utility.yul\":5409:5412   */\n      dup5\n        /* \"#utility.yul\":5405:5421   */\n      add\n        /* \"#utility.yul\":5398:5425   */\n      mstore\n        /* \"#utility.yul\":5247:5431   */\n      pop\n        /* \"#utility.yul\":5185:5431   */\n      pop\n      pop\n      pop\n      jump\t// out\n        /* \"#utility.yul\":5437:5794   */\n    tag_83:\n        /* \"#utility.yul\":5515:5518   */\n      0x00\n        /* \"#utility.yul\":5543:5582   */\n      tag_174\n        /* \"#utility.yul\":5576:5581   */\n      dup3\n        /* \"#utility.yul\":5543:5582   */\n      tag_80\n      jump\t// in\n    tag_174:\n        /* \"#utility.yul\":5598:5659   */\n      tag_175\n        /* \"#utility.yul\":5652:5658   */\n      dup2\n        /* \"#utility.yul\":5647:5650   */\n      dup6\n        /* \"#utility.yul\":5598:5659   */\n      tag_81\n      jump\t// in\n    tag_175:\n        /* \"#utility.yul\":5591:5659   */\n      swap4\n      pop\n        /* \"#utility.yul\":5668:5733   */\n      tag_176\n        /* \"#utility.yul\":5726:5732   */\n      dup2\n        /* \"#utility.yul\":5721:5724   */\n      dup6\n        /* \"#utility.yul\":5714:5718   */\n      0x20\n        /* \"#utility.yul\":5707:5712   */\n      dup7\n        /* \"#utility.yul\":5703:5719   */\n      add\n        /* \"#utility.yul\":5668:5733   */\n      tag_82\n      jump\t// in\n    tag_176:\n        /* \"#utility.yul\":5758:5787   */\n      tag_177\n        /* \"#utility.yul\":5780:5786   */\n      dup2\n        /* \"#utility.yul\":5758:5787   */\n      tag_69\n      jump\t// in\n    tag_177:\n        /* \"#utility.yul\":5753:5756   */\n      dup5\n        /* \"#utility.yul\":5749:5788   */\n      add\n        /* \"#utility.yul\":5742:5788   */\n      swap2\n      pop\n        /* \"#utility.yul\":5519:5794   */\n      pop\n        /* \"#utility.yul\":5437:5794   */\n      swap3\n      swap2\n      pop\n      pop\n      jump\t// out\n        /* \"#utility.yul\":5800:5899   */\n    tag_84:\n        /* \"#utility.yul\":5871:5892   */\n      tag_179\n        /* \"#utility.yul\":5886:5891   */\n      dup2\n        /* \"#utility.yul\":5871:5892   */\n      tag_77\n      jump\t// in\n    tag_179:\n        /* \"#utility.yul\":5866:5869   */\n      dup3\n        /* \"#utility.yul\":5859:5893   */\n      mstore\n        /* \"#utility.yul\":5800:5899   */\n      pop\n      pop\n      jump\t// out\n        /* \"#utility.yul\":5957:6552   */\n    tag_85:\n        /* \"#utility.yul\":6064:6067   */\n      0x00\n        /* \"#utility.yul\":6100:6104   */\n      0x40\n        /* \"#utility.yul\":6095:6098   */\n      dup4\n        /* \"#utility.yul\":6091:6105   */\n      add\n        /* \"#utility.yul\":6187:6191   */\n      0x00\n        /* \"#utility.yul\":6180:6185   */\n      dup4\n        /* \"#utility.yul\":6176:6192   */\n      add\n        /* \"#utility.yul\":6170:6193   */\n      mload\n        /* \"#utility.yul\":6240:6243   */\n      dup5\n        /* \"#utility.yul\":6234:6238   */\n      dup3\n        /* \"#utility.yul\":6230:6244   */\n      sub\n        /* \"#utility.yul\":6223:6227   */\n      0x00\n        /* \"#utility.yul\":6218:6221   */\n      dup7\n        /* \"#utility.yul\":6214:6228   */\n      add\n        /* \"#utility.yul\":6207:6245   */\n      mstore\n        /* \"#utility.yul\":6266:6339   */\n      tag_181\n        /* \"#utility.yul\":6334:6338   */\n      dup3\n        /* \"#utility.yul\":6320:6332   */\n      dup3\n        /* \"#utility.yul\":6266:6339   */\n      tag_83\n      jump\t// in\n    tag_181:\n        /* \"#utility.yul\":6258:6339   */\n      swap2\n      pop\n        /* \"#utility.yul\":6115:6350   */\n      pop\n        /* \"#utility.yul\":6439:6443   */\n      0x20\n        /* \"#utility.yul\":6432:6437   */\n      dup4\n        /* \"#utility.yul\":6428:6444   */\n      add\n        /* \"#utility.yul\":6422:6445   */\n      mload\n        /* \"#utility.yul\":6458:6515   */\n      tag_182\n        /* \"#utility.yul\":6509:6513   */\n      0x20\n        /* \"#utility.yul\":6504:6507   */\n      dup7\n        /* \"#utility.yul\":6500:6514   */\n      add\n        /* \"#utility.yul\":6486:6498   */\n      dup3\n        /* \"#utility.yul\":6458:6515   */\n      tag_84\n      jump\t// in\n    tag_182:\n        /* \"#utility.yul\":6360:6525   */\n      pop\n        /* \"#utility.yul\":6542:6546   */\n      dup1\n        /* \"#utility.yul\":6535:6546   */\n      swap2\n      pop\n        /* \"#utility.yul\":6069:6552   */\n      pop\n        /* \"#utility.yul\":5957:6552   */\n      swap3\n      swap2\n      pop\n      pop\n      jump\t// out\n        /* \"#utility.yul\":6558:6907   */\n    tag_23:\n        /* \"#utility.yul\":6689:6693   */\n      0x00\n        /* \"#utility.yul\":6727:6729   */\n      0x20\n        /* \"#utility.yul\":6716:6725   */\n      dup3\n        /* \"#utility.yul\":6712:6730   */\n      add\n        /* \"#utility.yul\":6704:6730   */\n      swap1\n      pop\n        /* \"#utility.yul\":6776:6785   */\n      dup2\n        /* \"#utility.yul\":6770:6774   */\n      dup2\n        /* \"#utility.yul\":6766:6786   */\n      sub\n        /* \"#utility.yul\":6762:6763   */\n      0x00\n        /* \"#utility.yul\":6751:6760   */\n      dup4\n        /* \"#utility.yul\":6747:6764   */\n      add\n        /* \"#utility.yul\":6740:6787   */\n      mstore\n        /* \"#utility.yul\":6804:6900   */\n      tag_184\n        /* \"#utility.yul\":6895:6899   */\n      dup2\n        /* \"#utility.yul\":6886:6892   */\n      dup5\n        /* \"#utility.yul\":6804:6900   */\n      tag_85\n      jump\t// in\n    tag_184:\n        /* \"#utility.yul\":6796:6900   */\n      swap1\n      pop\n        /* \"#utility.yul\":6558:6907   */\n      swap3\n      swap2\n      pop\n      pop\n      jump\t// out\n        /* \"#utility.yul\":6913:7082   */\n    tag_86:\n        /* \"#utility.yul\":6997:7008   */\n      0x00\n        /* \"#utility.yul\":7031:7037   */\n      dup3\n        /* \"#utility.yul\":7026:7029   */\n      dup3\n        /* \"#utility.yul\":7019:7038   */\n      mstore\n        /* \"#utility.yul\":7071:7075   */\n      0x20\n        /* \"#utility.yul\":7066:7069   */\n      dup3\n        /* \"#utility.yul\":7062:7076   */\n      add\n        /* \"#utility.yul\":7047:7076   */\n      swap1\n      pop\n        /* \"#utility.yul\":6913:7082   */\n      swap3\n      swap2\n      pop\n      pop\n      jump\t// out\n        /* \"#utility.yul\":7088:7256   */\n    tag_87:\n        /* \"#utility.yul\":7228:7248   */\n      0x696e646578206f7574206f662072616e67650000000000000000000000000000\n        /* \"#utility.yul\":7224:7225   */\n      0x00\n        /* \"#utility.yul\":7216:7222   */\n      dup3\n        /* \"#utility.yul\":7212:7226   */\n      add\n        /* \"#utility.yul\":7205:7249   */\n      mstore\n        /* \"#utility.yul\":7088:7256   */\n      pop\n      jump\t// out\n        /* \"#utility.yul\":7262:7628   */\n    tag_88:\n        /* \"#utility.yul\":7404:7407   */\n      0x00\n        /* \"#utility.yul\":7425:7492   */\n      tag_188\n        /* \"#utility.yul\":7489:7491   */\n      0x12\n        /* \"#utility.yul\":7484:7487   */\n      dup4\n        /* \"#utility.yul\":7425:7492   */\n      tag_86\n      jump\t// in\n    tag_188:\n        /* \"#utility.yul\":7418:7492   */\n      swap2\n      pop\n        /* \"#utility.yul\":7501:7594   */\n      tag_189\n        /* \"#utility.yul\":7590:7593   */\n      dup3\n        /* \"#utility.yul\":7501:7594   */\n      tag_87\n      jump\t// in\n    tag_189:\n        /* \"#utility.yul\":7619:7621   */\n      0x20\n        /* \"#utility.yul\":7614:7617   */\n      dup3\n        /* \"#utility.yul\":7610:7622   */\n      add\n        /* \"#utility.yul\":7603:7622   */\n      swap1\n      pop\n        /* \"#utility.yul\":7262:7628   */\n      swap2\n      swap1\n      pop\n      jump\t// out\n        /* \"#utility.yul\":7634:8053   */\n    tag_27:\n        /* \"#utility.yul\":7800:7804   */\n      0x00\n        /* \"#utility.yul\":7838:7840   */\n      0x20\n        /* \"#utility.yul\":7827:7836   */\n      dup3\n        /* \"#utility.yul\":7823:7841   */\n      add\n        /* \"#utility.yul\":7815:7841   */\n      swap1\n      pop\n        /* \"#utility.yul\":7887:7896   */\n      dup2\n        /* \"#utility.yul\":7881:7885   */\n      dup2\n        /* \"#utility.yul\":7877:7897   */\n      sub\n        /* \"#utility.yul\":7873:7874   */\n      0x00\n        /* \"#utility.yul\":7862:7871   */\n      dup4\n        /* \"#utility.yul\":7858:7875   */\n      add\n        /* \"#utility.yul\":7851:7898   */\n      mstore\n        /* \"#utility.yul\":7915:8046   */\n      tag_191\n        /* \"#utility.yul\":8041:8045   */\n      dup2\n        /* \"#utility.yul\":7915:8046   */\n      tag_88\n      jump\t// in\n    tag_191:\n        /* \"#utility.yul\":7907:8046   */\n      swap1\n      pop\n        /* \"#utility.yul\":7634:8053   */\n      swap2\n      swap1\n      pop\n      jump\t// out\n        /* \"#utility.yul\":8059:8239   */\n    tag_30:\n        /* \"#utility.yul\":8107:8184   */\n      0x4e487b7100000000000000000000000000000000000000000000000000000000\n        /* \"#utility.yul\":8104:8105   */\n      0x00\n        /* \"#utility.yul\":8097:8185   */\n      mstore\n        /* \"#utility.yul\":8204:8208   */\n      0x32\n        /* \"#utility.yul\":8201:8202   */\n      0x04\n        /* \"#utility.yul\":8194:8209   */\n      mstore\n        /* \"#utility.yul\":8228:8232   */\n      0x24\n        /* \"#utility.yul\":8225:8226   */\n      0x00\n        /* \"#utility.yul\":8218:8233   */\n      revert\n        /* \"#utility.yul\":8245:8425   */\n    tag_89:\n        /* \"#utility.yul\":8293:8370   */\n      0x4e487b7100000000000000000000000000000000000000000000000000000000\n        /* \"#utility.yul\":8290:8291   */\n      0x00\n        /* \"#utility.yul\":8283:8371   */\n      mstore\n        /* \"#utility.yul\":8390:8394   */\n      0x22\n        /* \"#utility.yul\":8387:8388   */\n      0x04\n        /* \"#utility.yul\":8380:8395   */\n      mstore\n        /* \"#utility.yul\":8414:8418   */\n      0x24\n        /* \"#utility.yul\":8411:8412   */\n      0x00\n        /* \"#utility.yul\":8404:8419   */\n      revert\n        /* \"#utility.yul\":8431:8751   */\n    tag_56:\n        /* \"#utility.yul\":8475:8481   */\n      0x00\n        /* \"#utility.yul\":8512:8513   */\n      0x02\n        /* \"#utility.yul\":8506:8510   */\n      dup3\n        /* \"#utility.yul\":8502:8514   */\n      div\n        /* \"#utility.yul\":8492:8514   */\n      swap1\n      pop\n        /* \"#utility.yul\":8559:8560   */\n      0x01\n        /* \"#utility.yul\":8553:8557   */\n      dup3\n        /* \"#utility.yul\":8549:8561   */\n      and\n        /* \"#utility.yul\":8580:8598   */\n      dup1\n        /* \"#utility.yul\":8570:8651   */\n      tag_195\n      jumpi\n        /* \"#utility.yul\":8636:8640   */\n      0x7f\n        /* \"#utility.yul\":8628:8634   */\n      dup3\n        /* \"#utility.yul\":8624:8641   */\n      and\n        /* \"#utility.yul\":8614:8641   */\n      swap2\n      pop\n        /* \"#utility.yul\":8570:8651   */\n    tag_195:\n        /* \"#utility.yul\":8698:8700   */\n      0x20\n        /* \"#utility.yul\":8690:8696   */\n      dup3\n        /* \"#utility.yul\":8687:8701   */\n      lt\n        /* \"#utility.yul\":8667:8685   */\n      dup2\n        /* \"#utility.yul\":8664:8702   */\n      sub\n        /* \"#utility.yul\":8661:8745   */\n      tag_196\n      jumpi\n        /* \"#utility.yul\":8717:8735   */\n      tag_197\n      tag_89\n      jump\t// in\n    tag_197:\n        /* \"#utility.yul\":8661:8745   */\n    tag_196:\n        /* \"#utility.yul\":8482:8751   */\n      pop\n        /* \"#utility.yul\":8431:8751   */\n      swap2\n      swap1\n      pop\n      jump\t// out\n        /* \"#utility.yul\":8757:8898   */\n    tag_90:\n        /* \"#utility.yul\":8806:8810   */\n      0x00\n        /* \"#utility.yul\":8829:8832   */\n      dup2\n        /* \"#utility.yul\":8821:8832   */\n      swap1\n      pop\n        /* \"#utility.yul\":8852:8855   */\n      dup2\n        /* \"#utility.yul\":8849:8850   */\n      0x00\n        /* \"#utility.yul\":8842:8856   */\n      mstore\n        /* \"#utility.yul\":8886:8890   */\n      0x20\n        /* \"#utility.yul\":8883:8884   */\n      0x00\n        /* \"#utility.yul\":8873:8891   */\n      keccak256\n        /* \"#utility.yul\":8865:8891   */\n      swap1\n      pop\n        /* \"#utility.yul\":8757:8898   */\n      swap2\n      swap1\n      pop\n      jump\t// out\n        /* \"#utility.yul\":8904:8997   */\n    tag_91:\n        /* \"#utility.yul\":8941:8947   */\n      0x00\n        /* \"#utility.yul\":8988:8990   */\n      0x20\n        /* \"#utility.yul\":8983:8985   */\n      0x1f\n        /* \"#utility.yul\":8976:8981   */\n      dup4\n        /* \"#utility.yul\":8972:8986   */\n      add\n        /* \"#utility.yul\":8968:8991   */\n      div\n        /* \"#utility.yul\":8958:8991   */\n      swap1\n      pop\n        /* \"#utility.yul\":8904:8997   */\n      swap2\n      swap1\n      pop\n      jump\t// out\n        /* \"#utility.yul\":9003:9110   */\n    tag_92:\n        /* \"#utility.yul\":9047:9055   */\n      0x00\n        /* \"#utility.yul\":9097:9102   */\n      dup3\n        /* \"#utility.yul\":9091:9095   */\n      dup3\n        /* \"#utility.yul\":9087:9103   */\n      shl\n        /* \"#utility.yul\":9066:9103   */\n      swap1\n      pop\n        /* \"#utility.yul\":9003:9110   */\n      swap3\n      swap2\n      pop\n      pop\n      jump\t// out\n        /* \"#utility.yul\":9116:9509   */\n    tag_93:\n        /* \"#utility.yul\":9185:9191   */\n      0x00\n        /* \"#utility.yul\":9235:9236   */\n      0x08\n        /* \"#utility.yul\":9223:9233   */\n      dup4\n        /* \"#utility.yul\":9219:9237   */\n      mul\n        /* \"#utility.yul\":9258:9355   */\n      tag_202\n        /* \"#utility.yul\":9288:9354   */\n      0xffffffffffffffffffffffffffffffffffffffffffffffffffffffffffffffff\n        /* \"#utility.yul\":9277:9286   */\n      dup3\n        /* \"#utility.yul\":9258:9355   */\n      tag_92\n      jump\t// in\n    tag_202:\n        /* \"#utility.yul\":9376:9415   */\n      tag_203\n        /* \"#utility.yul\":9406:9414   */\n      dup7\n        /* \"#utility.yul\":9395:9404   */\n      dup4\n        /* \"#utility.yul\":9376:9415   */\n      tag_92\n      jump\t// in\n    tag_203:\n        /* \"#utility.yul\":9364:9415   */\n      swap6\n      pop\n        /* \"#utility.yul\":9448:9452   */\n      dup1\n        /* \"#utility.yul\":9444:9453   */\n      not\n        /* \"#utility.yul\":9437:9442   */\n      dup5\n        /* \"#utility.yul\":9433:9454   */\n      and\n        /* \"#utility.yul\":9424:9454   */\n      swap4\n      pop\n        /* \"#utility.yul\":9497:9501   */\n      dup1\n        /* \"#utility.yul\":9487:9495   */\n      dup7\n        /* \"#utility.yul\":9483:9502   */\n      and\n        /* \"#utility.yul\":9476:9481   */\n      dup5\n        /* \"#utility.yul\":9473:9503   */\n      or\n        /* \"#utility.yul\":9463:9503   */\n      swap3\n      pop\n        /* \"#utility.yul\":9192:9509   */\n      pop\n      pop\n        /* \"#utility.yul\":9116:9509   */\n      swap4\n      swap3\n      pop\n      pop\n      pop\n      jump\t// out\n        /* \"#utility.yul\":9515:9575   */\n    tag_94:\n        /* \"#utility.yul\":9543:9546   */\n      0x00\n        /* \"#utility.yul\":9564:9569   */\n      dup2\n        /* \"#utility.yul\":9557:9569   */\n      swap1\n      pop\n        /* \"#utility.yul\":9515:9575   */\n      swap2\n      swap1\n      pop\n      jump\t// out\n        /* \"#utility.yul\":9581:9723   */\n    tag_95:\n        /* \"#utility.yul\":9631:9640   */\n      0x00\n        /* \"#utility.yul\":9664:9717   */\n      tag_206\n        /* \"#utility.yul\":9682:9716   */\n      tag_207\n        /* \"#utility.yul\":9691:9715   */\n      tag_208\n        /* \"#utility.yul\":9709:9714   */\n      dup5\n        /* \"#utility.yul\":9691:9715   */\n      tag_64\n      jump\t// in\n    tag_208:\n        /* \"#utility.yul\":9682:9716   */\n      tag_94\n      jump\t// in\n    tag_207:\n        /* \"#utility.yul\":9664:9717   */\n      tag_64\n      jump\t// in\n    tag_206:\n        /* \"#utility.yul\":9651:9717   */\n      swap1\n      pop\n        /* \"#utility.yul\":9581:9723   */\n      swap2\n      swap1\n      pop\n      jump\t// out\n        /* \"#utility.yul\":9729:9804   */\n    tag_96:\n        /* \"#utility.yul\":9772:9775   */\n      0x00\n        /* \"#utility.yul\":9793:9798   */\n      dup2\n        /* \"#utility.yul\":9786:9798   */\n      swap1\n      pop\n        /* \"#utility.yul\":9729:9804   */\n      swap2\n      swap1\n      pop\n      jump\t// out\n        /* \"#utility.yul\":9810:10079   */\n    tag_97:\n        /* \"#utility.yul\":9920:9959   */\n      tag_211\n        /* \"#utility.yul\":9951:9958   */\n      dup4\n        /* \"#utility.yul\":9920:9959   */\n      tag_95\n      jump\t// in\n    tag_211:\n        /* \"#utility.yul\":9981:10072   */\n      tag_212\n        /* \"#utility.yul\":10030:10071   */\n      tag_213\n        /* \"#utility.yul\":10054:10070   */\n      dup3\n        /* \"#utility.yul\":10030:10071   */\n      tag_96\n      jump\t// in\n    tag_213:\n        /* \"#utility.yul\":10022:10028   */\n      dup5\n        /* \"#utility.yul\":10015:10019   */\n      dup5\n        /* \"#utility.yul\":10009:10020   */\n      sload\n        /* \"#utility.yul\":9981:10072   */\n      tag_93\n      jump\t// in\n    tag_212:\n        /* \"#utility.yul\":9975:9979   */\n      dup3\n        /* \"#utility.yul\":9968:10073   */\n      sstore\n        /* \"#utility.yul\":9886:10079   */\n      pop\n        /* \"#utility.yul\":9810:10079   */\n      pop\n      pop\n      pop\n      jump\t// out\n        /* \"#utility.yul\":10085:10158   */\n    tag_98:\n        /* \"#utility.yul\":10130:10133   */\n      0x00\n        /* \"#utility.yul\":10085:10158   */\n      swap1\n      jump\t// out\n        /* \"#utility.yul\":10164:10353   */\n    tag_99:\n        /* \"#utility.yul\":10241:10273   */\n      tag_216\n      tag_98\n      jump\t// in\n    tag_216:\n        /* \"#utility.yul\":10282:10347   */\n      tag_217\n        /* \"#utility.yul\":10340:10346   */\n      dup2\n        /* \"#utility.yul\":10332:10338   */\n      dup5\n        /* \"#utility.yul\":10326:10330   */\n      dup5\n        /* \"#utility.yul\":10282:10347   */\n      tag_97\n      jump\t// in\n    tag_217:\n        /* \"#utility.yul\":10217:10353   */\n      pop\n        /* \"#utility.yul\":10164:10353   */\n      pop\n      pop\n      jump\t// out\n        /* \"#utility.yul\":10359:10545   */\n    tag_100:\n        /* \"#utility.yul\":10419:10539   */\n    tag_219:\n        /* \"#utility.yul\":10436:10439   */\n      dup2\n        /* \"#utility.yul\":10429:10434   */\n      dup2\n        /* \"#utility.yul\":10426:10440   */\n      lt\n        /* \"#utility.yul\":10419:10539   */\n      iszero\n      tag_221\n      jumpi\n        /* \"#utility.yul\":10490:10529   */\n      tag_222\n        /* \"#utility.yul\":10527:10528   */\n      0x00\n        /* \"#utility.yul\":10520:10525   */\n      dup3\n        /* \"#utility.yul\":10490:10529   */\n      tag_99\n      jump\t// in\n    tag_222:\n        /* \"#utility.yul\":10463:10464   */\n      0x01\n        /* \"#utility.yul\":10456:10461   */\n      dup2\n        /* \"#utility.yul\":10452:10465   */\n      add\n        /* \"#utility.yul\":10443:10465   */\n      swap1\n      pop\n        /* \"#utility.yul\":10419:10539   */\n      jump(tag_219)\n    tag_221:\n        /* \"#utility.yul\":10359:10545   */\n      pop\n      pop\n      jump\t// out\n        /* \"#utility.yul\":10551:11094   */\n    tag_101:\n        /* \"#utility.yul\":10652:10654   */\n      0x1f\n        /* \"#utility.yul\":10647:10650   */\n      dup3\n        /* \"#utility.yul\":10644:10655   */\n      gt\n        /* \"#utility.yul\":10641:11087   */\n      iszero\n      tag_224\n      jumpi\n        /* \"#utility.yul\":10686:10724   */\n      tag_225\n        /* \"#utility.yul\":10718:10723   */\n      dup2\n        /* \"#utility.yul\":10686:10724   */\n      tag_90\n      jump\t// in\n    tag_225:\n        /* \"#utility.yul\":10770:10799   */\n      tag_226\n        /* \"#utility.yul\":10788:10798   */\n      dup5\n        /* \"#utility.yul\":10770:10799   */\n      tag_91\n      jump\t// in\n    tag_226:\n        /* \"#utility.yul\":10760:10768   */\n      dup2\n        /* \"#utility.yul\":10756:10800   */\n      add\n        /* \"#utility.yul\":10953:10955   */\n      0x20\n        /* \"#utility.yul\":10941:10951   */\n      dup6\n        /* \"#utility.yul\":10938:10956   */\n      lt\n        /* \"#utility.yul\":10935:10984   */\n      iszero\n      tag_227\n      jumpi\n        /* \"#utility.yul\":10974:10982   */\n      dup2\n        /* \"#utility.yul\":10959:10982   */\n      swap1\n      pop\n        /* \"#utility.yul\":10935:10984   */\n    tag_227:\n        /* \"#utility.yul\":10997:11077   */\n      tag_228\n        /* \"#utility.yul\":11053:11075   */\n      tag_229\n        /* \"#utility.yul\":11071:11074   */\n      dup6\n        /* \"#utility.yul\":11053:11075   */\n      tag_91\n      jump\t// in\n    tag_229:\n        /* \"#utility.yul\":11043:11051   */\n      dup4\n        /* \"#utility.yul\":11039:11076   */\n      add\n        /* \"#utility.yul\":11026:11037   */\n      dup3\n        /* \"#utility.yul\":10997:11077   */\n      tag_100\n      jump\t// in\n    tag_228:\n        /* \"#utility.yul\":10656:11087   */\n      pop\n      pop\n        /* \"#utility.yul\":10641:11087   */\n    tag_224:\n        /* \"#utility.yul\":10551:11094   */\n      pop\n      pop\n      pop\n      jump\t// out\n        /* \"#utility.yul\":11100:11217   */\n    tag_102:\n        /* \"#utility.yul\":11154:11162   */\n      0x00\n        /* \"#utility.yul\":11204:11209   */\n      dup3\n        /* \"#utility.yul\":11198:11202   */\n      dup3\n        /* \"#utility.yul\":11194:11210   */\n      shr\n        /* \"#utility.yul\":11173:11210   */\n      swap1\n      pop\n        /* \"#utility.yul\":11100:11217   */\n      swap3\n      swap2\n      pop\n      pop\n      jump\t// out\n        /* \"#utility.yul\":11223:11392   */\n    tag_103:\n        /* \"#utility.yul\":11267:11273   */\n      0x00\n        /* \"#utility.yul\":11300:11351   */\n      tag_232\n        /* \"#utility.yul\":11348:11349   */\n      0x00\n        /* \"#utility.yul\":11344:11350   */\n      not\n        /* \"#utility.yul\":11336:11341   */\n      dup5\n        /* \"#utility.yul\":11333:11334   */\n      0x08\n        /* \"#utility.yul\":11329:11342   */\n      mul\n        /* \"#utility.yul\":11300:11351   */\n      tag_102\n      jump\t// in\n    tag_232:\n        /* \"#utility.yul\":11296:11352   */\n      not\n        /* \"#utility.yul\":11381:11385   */\n      dup1\n        /* \"#utility.yul\":11375:11379   */\n      dup4\n        /* \"#utility.yul\":11371:11386   */\n      and\n        /* \"#utility.yul\":11361:11386   */\n      swap2\n      pop\n        /* \"#utility.yul\":11274:11392   */\n      pop\n        /* \"#utility.yul\":11223:11392   */\n      swap3\n      swap2\n      pop\n      pop\n      jump\t// out\n        /* \"#utility.yul\":11397:11692   */\n    tag_104:\n        /* \"#utility.yul\":11473:11477   */\n      0x00\n        /* \"#utility.yul\":11619:11648   */\n      tag_234\n        /* \"#utility.yul\":11644:11647   */\n      dup4\n        /* \"#utility.yul\":11638:11642   */\n      dup4\n        /* \"#utility.yul\":11619:11648   */\n      tag_103\n      jump\t// in\n    tag_234:\n        /* \"#utility.yul\":11611:11648   */\n      swap2\n      pop\n        /* \"#utility.yul\":11681:11684   */\n      dup3\n        /* \"#utility.yul\":11678:11679   */\n      0x02\n        /* \"#utility.yul\":11674:11685   */\n      mul\n        /* \"#utility.yul\":11668:11672   */\n      dup3\n        /* \"#utility.yul\":11665:11686   */\n      or\n        /* \"#utility.yul\":11657:11686   */\n      swap1\n      pop\n        /* \"#utility.yul\":11397:11692   */\n      swap3\n      swap2\n      pop\n      pop\n      jump\t// out\n        /* \"#utility.yul\":11697:13092   */\n    tag_33:\n        /* \"#utility.yul\":11814:11851   */\n      tag_236\n        /* \"#utility.yul\":11847:11850   */\n      dup3\n        /* \"#utility.yul\":11814:11851   */\n      tag_80\n      jump\t// in\n    tag_236:\n        /* \"#utility.yul\":11916:11934   */\n      0xffffffffffffffff\n        /* \"#utility.yul\":11908:11914   */\n      dup2\n        /* \"#utility.yul\":11905:11935   */\n      gt\n        /* \"#utility.yul\":11902:11958   */\n      iszero\n      tag_237\n      jumpi\n        /* \"#utility.yul\":11938:11956   */\n      tag_238\n      tag_70\n      jump\t// in\n    tag_238:\n        /* \"#utility.yul\":11902:11958   */\n    tag_237:\n        /* \"#utility.yul\":11982:12020   */\n      tag_239\n        /* \"#utility.yul\":12014:12018   */\n      dup3\n        /* \"#utility.yul\":12008:12019   */\n      sload\n        /* \"#utility.yul\":11982:12020   */\n      tag_56\n      jump\t// in\n    tag_239:\n        /* \"#utility.yul\":12067:12134   */\n      tag_240\n        /* \"#utility.yul\":12127:12133   */\n      dup3\n        /* \"#utility.yul\":12119:12125   */\n      dup3\n        /* \"#utility.yul\":12113:12117   */\n      dup6\n        /* \"#utility.yul\":12067:12134   */\n      tag_101\n      jump\t// in\n    tag_240:\n        /* \"#utility.yul\":12161:12162   */\n      0x00\n        /* \"#utility.yul\":12185:12189   */\n      0x20\n        /* \"#utility.yul\":12172:12189   */\n      swap1\n      pop\n        /* \"#utility.yul\":12217:12219   */\n      0x1f\n        /* \"#utility.yul\":12209:12215   */\n      dup4\n        /* \"#utility.yul\":12206:12220   */\n      gt\n        /* \"#utility.yul\":12234:12235   */\n      0x01\n        /* \"#utility.yul\":12229:12847   */\n      dup2\n      eq\n      tag_242\n      jumpi\n        /* \"#utility.yul\":12891:12892   */\n      0x00\n        /* \"#utility.yul\":12908:12914   */\n      dup5\n        /* \"#utility.yul\":12905:12982   */\n      iszero\n      tag_243\n      jumpi\n        /* \"#utility.yul\":12957:12966   */\n      dup3\n        /* \"#utility.yul\":12952:12955   */\n      dup8\n        /* \"#utility.yul\":12948:12967   */\n      add\n        /* \"#utility.yul\":12942:12968   */\n      mload\n        /* \"#utility.yul\":12933:12968   */\n      swap1\n      pop\n        /* \"#utility.yul\":12905:12982   */\n    tag_243:\n        /* \"#utility.yul\":13008:13075   */\n      tag_244\n        /* \"#utility.yul\":13068:13074   */\n      dup6\n        /* \"#utility.yul\":13061:13066   */\n      dup3\n        /* \"#utility.yul\":13008:13075   */\n      tag_104\n      jump\t// in\n    tag_244:\n        /* \"#utility.yul\":13002:13006   */\n      dup7\n        /* \"#utility.yul\":12995:13076   */\n      sstore\n        /* \"#utility.yul\":12864:13086   */\n      pop\n        /* \"#utility.yul\":12199:13086   */\n      jump(tag_241)\n        /* \"#utility.yul\":12229:12847   */\n    tag_242:\n        /* \"#utility.yul\":12281:12285   */\n      0x1f\n        /* \"#utility.yul\":12277:12286   */\n      not\n        /* \"#utility.yul\":12269:12275   */\n      dup5\n        /* \"#utility.yul\":12265:12287   */\n      and\n        /* \"#utility.yul\":12315:12352   */\n      tag_245\n        /* \"#utility.yul\":12347:12351   */\n      dup7\n        /* \"#utility.yul\":12315:12352   */\n      tag_90\n      jump\t// in\n    tag_245:\n        /* \"#utility.yul\":12374:12375   */\n      0x00\n        /* \"#utility.yul\":12388:12596   */\n    tag_246:\n        /* \"#utility.yul\":12402:12409   */\n      dup3\n        /* \"#utility.yul\":12399:12400   */\n      dup2\n        /* \"#utility.yul\":12396:12410   */\n      lt\n        /* \"#utility.yul\":12388:12596   */\n      iszero\n      tag_248\n      jumpi\n        /* \"#utility.yul\":12481:12490   */\n      dup5\n        /* \"#utility.yul\":12476:12479   */\n      dup10\n        /* \"#utility.yul\":12472:12491   */\n      add\n        /* \"#utility.yul\":12466:12492   */\n      mload\n        /* \"#utility.yul\":12458:12464   */\n      dup3\n        /* \"#utility.yul\":12451:12493   */\n      sstore\n        /* \"#utility.yul\":12532:12533   */\n      0x01\n        /* \"#utility.yul\":12524:12530   */\n      dup3\n        /* \"#utility.yul\":12520:12534   */\n      add\n        /* \"#utility.yul\":12510:12534   */\n      swap2\n      pop\n        /* \"#utility.yul\":12579:12581   */\n      0x20\n        /* \"#utility.yul\":12568:12577   */\n      dup6\n        /* \"#utility.yul\":12564:12582   */\n      add\n        /* \"#utility.yul\":12551:12582   */\n      swap5\n      pop\n        /* \"#utility.yul\":12425:12429   */\n      0x20\n        /* \"#utility.yul\":12422:12423   */\n      dup2\n        /* \"#utility.yul\":12418:12430   */\n      add\n        /* \"#utility.yul\":12413:12430   */\n      swap1\n      pop\n        /* \"#utility.yul\":12388:12596   */\n      jump(tag_246)\n    tag_248:\n        /* \"#utility.yul\":12624:12630   */\n      dup7\n        /* \"#utility.yul\":12615:12622   */\n      dup4\n        /* \"#utility.yul\":12612:12631   */\n      lt\n        /* \"#utility.yul\":12609:12788   */\n      iszero\n      tag_249\n      jumpi\n        /* \"#utility.yul\":12682:12691   */\n      dup5\n        /* \"#utility.yul\":12677:12680   */\n      dup10\n        /* \"#utility.yul\":12673:12692   */\n      add\n        /* \"#utility.yul\":12667:12693   */\n      mload\n        /* \"#utility.yul\":12725:12773   */\n      tag_250\n        /* \"#utility.yul\":12767:12771   */\n      0x1f\n        /* \"#utility.yul\":12759:12765   */\n      dup10\n        /* \"#utility.yul\":12755:12772   */\n      and\n        /* \"#utility.yul\":12744:12753   */\n      dup3\n        /* \"#utility.yul\":12725:12773   */\n      tag_103\n      jump\t// in\n    tag_250:\n        /* \"#utility.yul\":12717:12723   */\n      dup4\n        /* \"#utility.yul\":12710:12774   */\n      sstore\n        /* \"#utility.yul\":12632:12788   */\n      pop\n        /* \"#utility.yul\":12609:12788   */\n    tag_249:\n        /* \"#utility.yul\":12834:12835   */\n      0x01\n        /* \"#utility.yul\":12830:12831   */\n      0x02\n        /* \"#utility.yul\":12822:12828   */\n      dup9\n        /* \"#utility.yul\":12818:12832   */\n      mul\n        /* \"#utility.yul\":12814:12836   */\n      add\n        /* \"#utility.yul\":12808:12812   */\n      dup9\n        /* \"#utility.yul\":12801:12837   */\n      sstore\n        /* \"#utility.yul\":12236:12847   */\n      pop\n      pop\n      pop\n        /* \"#utility.yul\":12199:13086   */\n    tag_241:\n      pop\n        /* \"#utility.yul\":11789:13092   */\n      pop\n      pop\n      pop\n        /* \"#utility.yul\":11697:13092   */\n      pop\n      pop\n      jump\t// out\n        /* \"#utility.yul\":13098:13268   */\n    tag_105:\n        /* \"#utility.yul\":13238:13260   */\n      0x6e616d652063616e6e6f7420626520656d707479000000000000000000000000\n        /* \"#utility.yul\":13234:13235   */\n      0x00\n        /* \"#utility.yul\":13226:13232   */\n      dup3\n        /* \"#utility.yul\":13222:13236   */\n      add\n        /* \"#utility.yul\":13215:13261   */\n      mstore\n        /* \"#utility.yul\":13098:13268   */\n      pop\n      jump\t// out\n        /* \"#utility.yul\":13274:13640   */\n    tag_106:\n        /* \"#utility.yul\":13416:13419   */\n      0x00\n        /* \"#utility.yul\":13437:13504   */\n      tag_253\n        /* \"#utility.yul\":13501:13503   */\n      0x14\n        /* \"#utility.yul\":13496:13499   */\n      dup4\n        /* \"#utility.yul\":13437:13504   */\n      tag_86\n      jump\t// in\n    tag_253:\n        /* \"#utility.yul\":13430:13504   */\n      swap2\n      pop\n        /* \"#utility.yul\":13513:13606   */\n      tag_254\n        /* \"#utility.yul\":13602:13605   */\n      dup3\n        /* \"#utility.yul\":13513:13606   */\n      tag_105\n      jump\t// in\n    tag_254:\n        /* \"#utility.yul\":13631:13633   */\n      0x20\n        /* \"#utility.yul\":13626:13629   */\n      dup3\n        /* \"#utility.yul\":13622:13634   */\n      add\n        /* \"#utility.yul\":13615:13634   */\n      swap1\n      pop\n        /* \"#utility.yul\":13274:13640   */\n      swap2\n      swap1\n      pop\n      jump\t// out\n        /* \"#utility.yul\":13646:14065   */\n    tag_44:\n        /* \"#utility.yul\":13812:13816   */\n      0x00\n        /* \"#utility.yul\":13850:13852   */\n      0x20\n        /* \"#utility.yul\":13839:13848   */\n      dup3\n        /* \"#utility.yul\":13835:13853   */\n      add\n        /* \"#utility.yul\":13827:13853   */\n      swap1\n      pop\n        /* \"#utility.yul\":13899:13908   */\n      dup2\n        /* \"#utility.yul\":13893:13897   */\n      dup2\n        /* \"#utility.yul\":13889:13909   */\n      sub\n        /* \"#utility.yul\":13885:13886   */\n      0x00\n        /* \"#utility.yul\":13874:13883   */\n      dup4\n        /* \"#utility.yul\":13870:13887   */\n      add\n        /* \"#utility.yul\":13863:13910   */\n      mstore\n        /* \"#utility.yul\":13927:14058   */\n      tag_256\n        /* \"#utility.yul\":14053:14057   */\n      dup2\n        /* \"#utility.yul\":13927:14058   */\n      tag_106\n      jump\t// in\n    tag_256:\n        /* \"#utility.yul\":13919:14058   */\n      swap1\n      pop\n        /* \"#utility.yul\":13646:14065   */\n      swap2\n      swap1\n      pop\n      jump\t// out\n\n    auxdata: 0xa26469706673582212201e417c574da187499c4d27de50842309da2e6c3ffca436979e862645bf7802da64736f6c63430008180033\n}\n",
				"bytecode": {
					"linkReferences": {},
					"object": "608060405234801561000f575f80fd5b50610b498061001d5f395ff3fe608060405234801561000f575f80fd5b506004361061004a575f3560e01c806313e722931461004e57806344964d171461006a5780638e3a413d14610086578063dd68afb6146100a2575b5f80fd5b61006860048036038101906100639190610546565b6100d2565b005b610084600480360381019061007f9190610546565b61014b565b005b6100a0600480360381019061009b91906105d5565b6101c9565b005b6100bc60048036038101906100b7919061062f565b610283565b6040516100c9919061071d565b60405180910390f35b5f805490508210610118576040517f08c379a000000000000000000000000000000000000000000000000000000000815260040161010f90610797565b60405180910390fd5b805f838154811061012c5761012b6107b5565b5b905f5260205f2090600202015f01908161014691906109dc565b505050565b5f805490508210610191576040517f08c379a000000000000000000000000000000000000000000000000000000000815260040161018890610797565b60405180910390fd5b5f8083815481106101a5576101a46107b5565b5b905f5260205f209060020201905081815f0190816101c391906109dc565b50505050565b5f82511161020c576040517f08c379a000000000000000000000000000000000000000000000000000000000815260040161020390610af5565b60405180910390fd5b5f6040518060400160405280848152602001831515815250908060018154018082558091505060019003905f5260205f2090600202015f909190919091505f820151815f01908161025d91906109dc565b506020820151816001015f6101000a81548160ff02191690831515021790555050505050565b61028b6103ab565b5f8054905082106102d1576040517f08c379a00000000000000000000000000000000000000000000000000000000081526004016102c890610797565b60405180910390fd5b5f82815481106102e4576102e36107b5565b5b905f5260205f2090600202016040518060400160405290815f8201805461030a9061080f565b80601f01602080910402602001604051908101604052809291908181526020018280546103369061080f565b80156103815780601f1061035857610100808354040283529160200191610381565b820191905f5260205f20905b81548152906001019060200180831161036457829003601f168201915b50505050508152602001600182015f9054906101000a900460ff1615151515815250509050919050565b6040518060400160405280606081526020015f151581525090565b5f604051905090565b5f80fd5b5f80fd5b5f819050919050565b6103e9816103d7565b81146103f3575f80fd5b50565b5f81359050610404816103e0565b92915050565b5f80fd5b5f80fd5b5f601f19601f8301169050919050565b7f4e487b71000000000000000000000000000000000000000000000000000000005f52604160045260245ffd5b61045882610412565b810181811067ffffffffffffffff8211171561047757610476610422565b5b80604052505050565b5f6104896103c6565b9050610495828261044f565b919050565b5f67ffffffffffffffff8211156104b4576104b3610422565b5b6104bd82610412565b9050602081019050919050565b828183375f83830152505050565b5f6104ea6104e58461049a565b610480565b9050828152602081018484840111156105065761050561040e565b5b6105118482856104ca565b509392505050565b5f82601f83011261052d5761052c61040a565b5b813561053d8482602086016104d8565b91505092915050565b5f806040838503121561055c5761055b6103cf565b5b5f610569858286016103f6565b925050602083013567ffffffffffffffff81111561058a576105896103d3565b5b61059685828601610519565b9150509250929050565b5f8115159050919050565b6105b4816105a0565b81146105be575f80fd5b50565b5f813590506105cf816105ab565b92915050565b5f80604083850312156105eb576105ea6103cf565b5b5f83013567ffffffffffffffff811115610608576106076103d3565b5b61061485828601610519565b9250506020610625858286016105c1565b9150509250929050565b5f60208284031215610644576106436103cf565b5b5f610651848285016103f6565b91505092915050565b5f81519050919050565b5f82825260208201905092915050565b5f5b83811015610691578082015181840152602081019050610676565b5f8484015250505050565b5f6106a68261065a565b6106b08185610664565b93506106c0818560208601610674565b6106c981610412565b840191505092915050565b6106dd816105a0565b82525050565b5f604083015f8301518482035f8601526106fd828261069c565b915050602083015161071260208601826106d4565b508091505092915050565b5f6020820190508181035f83015261073581846106e3565b905092915050565b5f82825260208201905092915050565b7f696e646578206f7574206f662072616e676500000000000000000000000000005f82015250565b5f61078160128361073d565b915061078c8261074d565b602082019050919050565b5f6020820190508181035f8301526107ae81610775565b9050919050565b7f4e487b71000000000000000000000000000000000000000000000000000000005f52603260045260245ffd5b7f4e487b71000000000000000000000000000000000000000000000000000000005f52602260045260245ffd5b5f600282049050600182168061082657607f821691505b602082108103610839576108386107e2565b5b50919050565b5f819050815f5260205f209050919050565b5f6020601f8301049050919050565b5f82821b905092915050565b5f6008830261089b7fffffffffffffffffffffffffffffffffffffffffffffffffffffffffffffffff82610860565b6108a58683610860565b95508019841693508086168417925050509392505050565b5f819050919050565b5f6108e06108db6108d6846103d7565b6108bd565b6103d7565b9050919050565b5f819050919050565b6108f9836108c6565b61090d610905826108e7565b84845461086c565b825550505050565b5f90565b610921610915565b61092c8184846108f0565b505050565b5b8181101561094f576109445f82610919565b600181019050610932565b5050565b601f821115610994576109658161083f565b61096e84610851565b8101602085101561097d578190505b61099161098985610851565b830182610931565b50505b505050565b5f82821c905092915050565b5f6109b45f1984600802610999565b1980831691505092915050565b5f6109cc83836109a5565b9150826002028217905092915050565b6109e58261065a565b67ffffffffffffffff8111156109fe576109fd610422565b5b610a08825461080f565b610a13828285610953565b5f60209050601f831160018114610a44575f8415610a32578287015190505b610a3c85826109c1565b865550610aa3565b601f198416610a528661083f565b5f5b82811015610a7957848901518255600182019150602085019450602081019050610a54565b86831015610a965784890151610a92601f8916826109a5565b8355505b6001600288020188555050505b505050505050565b7f6e616d652063616e6e6f7420626520656d7074790000000000000000000000005f82015250565b5f610adf60148361073d565b9150610aea82610aab565b602082019050919050565b5f6020820190508181035f830152610b0c81610ad3565b905091905056fea26469706673582212201e417c574da187499c4d27de50842309da2e6c3ffca436979e862645bf7802da64736f6c63430008180033",
					"opcodes": "PUSH1 0x80 PUSH1 0x40 MSTORE CALLVALUE DUP1 ISZERO PUSH2 0xF JUMPI PUSH0 DUP1 REVERT JUMPDEST POP PUSH2 0xB49 DUP1 PUSH2 0x1D PUSH0 CODECOPY PUSH0 RETURN INVALID PUSH1 0x80 PUSH1 0x40 MSTORE CALLVALUE DUP1 ISZERO PUSH2 0xF JUMPI PUSH0 DUP1 REVERT JUMPDEST POP PUSH1 0x4 CALLDATASIZE LT PUSH2 0x4A JUMPI PUSH0 CALLDATALOAD PUSH1 0xE0 SHR DUP1 PUSH4 0x13E72293 EQ PUSH2 0x4E JUMPI DUP1 PUSH4 0x44964D17 EQ PUSH2 0x6A JUMPI DUP1 PUSH4 0x8E3A413D EQ PUSH2 0x86 JUMPI DUP1 PUSH4 0xDD68AFB6 EQ PUSH2 0xA2 JUMPI JUMPDEST PUSH0 DUP1 REVERT JUMPDEST PUSH2 0x68 PUSH1 0x4 DUP1 CALLDATASIZE SUB DUP2 ADD SWAP1 PUSH2 0x63 SWAP2 SWAP1 PUSH2 0x546 JUMP JUMPDEST PUSH2 0xD2 JUMP JUMPDEST STOP JUMPDEST PUSH2 0x84 PUSH1 0x4 DUP1 CALLDATASIZE SUB DUP2 ADD SWAP1 PUSH2 0x7F SWAP2 SWAP1 PUSH2 0x546 JUMP JUMPDEST PUSH2 0x14B JUMP JUMPDEST STOP JUMPDEST PUSH2 0xA0 PUSH1 0x4 DUP1 CALLDATASIZE SUB DUP2 ADD SWAP1 PUSH2 0x9B SWAP2 SWAP1 PUSH2 0x5D5 JUMP JUMPDEST PUSH2 0x1C9 JUMP JUMPDEST STOP JUMPDEST PUSH2 0xBC PUSH1 0x4 DUP1 CALLDATASIZE SUB DUP2 ADD SWAP1 PUSH2 0xB7 SWAP2 SWAP1 PUSH2 0x62F JUMP JUMPDEST PUSH2 0x283 JUMP JUMPDEST PUSH1 0x40 MLOAD PUSH2 0xC9 SWAP2 SWAP1 PUSH2 0x71D JUMP JUMPDEST PUSH1 0x40 MLOAD DUP1 SWAP2 SUB SWAP1 RETURN JUMPDEST PUSH0 DUP1 SLOAD SWAP1 POP DUP3 LT PUSH2 0x118 JUMPI PUSH1 0x40 MLOAD PUSH32 0x8C379A000000000000000000000000000000000000000000000000000000000 DUP2 MSTORE PUSH1 0x4 ADD PUSH2 0x10F SWAP1 PUSH2 0x797 JUMP JUMPDEST PUSH1 0x40 MLOAD DUP1 SWAP2 SUB SWAP1 REVERT JUMPDEST DUP1 PUSH0 DUP4 DUP2 SLOAD DUP2 LT PUSH2 0x12C JUMPI PUSH2 0x12B PUSH2 0x7B5 JUMP JUMPDEST JUMPDEST SWAP1 PUSH0 MSTORE PUSH1 0x20 PUSH0 KECCAK256 SWAP1 PUSH1 0x2 MUL ADD PUSH0 ADD SWAP1 DUP2 PUSH2 0x146 SWAP2 SWAP1 PUSH2 0x9DC JUMP JUMPDEST POP POP POP JUMP JUMPDEST PUSH0 DUP1 SLOAD SWAP1 POP DUP3 LT PUSH2 0x191 JUMPI PUSH1 0x40 MLOAD PUSH32 0x8C379A000000000000000000000000000000000000000000000000000000000 DUP2 MSTORE PUSH1 0x4 ADD PUSH2 0x188 SWAP1 PUSH2 0x797 JUMP JUMPDEST PUSH1 0x40 MLOAD DUP1 SWAP2 SUB SWAP1 REVERT JUMPDEST PUSH0 DUP1 DUP4 DUP2 SLOAD DUP2 LT PUSH2 0x1A5 JUMPI PUSH2 0x1A4 PUSH2 0x7B5 JUMP JUMPDEST JUMPDEST SWAP1 PUSH0 MSTORE PUSH1 0x20 PUSH0 KECCAK256 SWAP1 PUSH1 0x2 MUL ADD SWAP1 POP DUP2 DUP2 PUSH0 ADD SWAP1 DUP2 PUSH2 0x1C3 SWAP2 SWAP1 PUSH2 0x9DC JUMP JUMPDEST POP POP POP POP JUMP JUMPDEST PUSH0 DUP3 MLOAD GT PUSH2 0x20C JUMPI PUSH1 0x40 MLOAD PUSH32 0x8C379A000000000000000000000000000000000000000000000000000000000 DUP2 MSTORE PUSH1 0x4 ADD PUSH2 0x203 SWAP1 PUSH2 0xAF5 JUMP JUMPDEST PUSH1 0x40 MLOAD DUP1 SWAP2 SUB SWAP1 REVERT JUMPDEST PUSH0 PUSH1 0x40 MLOAD DUP1 PUSH1 0x40 ADD PUSH1 0x40 MSTORE DUP1 DUP5 DUP2 MSTORE PUSH1 0x20 ADD DUP4 ISZERO ISZERO DUP2 MSTORE POP SWAP1 DUP1 PUSH1 0x1 DUP2 SLOAD ADD DUP1 DUP3 SSTORE DUP1 SWAP2 POP POP PUSH1 0x1 SWAP1 SUB SWAP1 PUSH0 MSTORE PUSH1 0x20 PUSH0 KECCAK256 SWAP1 PUSH1 0x2 MUL ADD PUSH0 SWAP1 SWAP2 SWAP1 SWAP2 SWAP1 SWAP2 POP PUSH0 DUP3 ADD MLOAD DUP2 PUSH0 ADD SWAP1 DUP2 PUSH2 0x25D SWAP2 SWAP1 PUSH2 0x9DC JUMP JUMPDEST POP PUSH1 0x20 DUP3 ADD MLOAD DUP2 PUSH1 0x1 ADD PUSH0 PUSH2 0x100 EXP DUP2 SLOAD DUP2 PUSH1 0xFF MUL NOT AND SWAP1 DUP4 ISZERO ISZERO MUL OR SWAP1 SSTORE POP POP POP POP POP JUMP JUMPDEST PUSH2 0x28B PUSH2 0x3AB JUMP JUMPDEST PUSH0 DUP1 SLOAD SWAP1 POP DUP3 LT PUSH2 0x2D1 JUMPI PUSH1 0x40 MLOAD PUSH32 0x8C379A000000000000000000000000000000000000000000000000000000000 DUP2 MSTORE PUSH1 0x4 ADD PUSH2 0x2C8 SWAP1 PUSH2 0x797 JUMP JUMPDEST PUSH1 0x40 MLOAD DUP1 SWAP2 SUB SWAP1 REVERT JUMPDEST PUSH0 DUP3 DUP2 SLOAD DUP2 LT PUSH2 0x2E4 JUMPI PUSH2 0x2E3 PUSH2 0x7B5 JUMP JUMPDEST JUMPDEST SWAP1 PUSH0 MSTORE PUSH1 0x20 PUSH0 KECCAK256 SWAP1 PUSH1 0x2 MUL ADD PUSH1 0x40 MLOAD DUP1 PUSH1 0x40 ADD PUSH1 0x40 MSTORE SWAP1 DUP2 PUSH0 DUP3 ADD DUP1 SLOAD PUSH2 0x30A SWAP1 PUSH2 0x80F JUMP JUMPDEST DUP1 PUSH1 0x1F ADD PUSH1 0x20 DUP1 SWAP2 DIV MUL PUSH1 0x20 ADD PUSH1 0x40 MLOAD SWAP1 DUP2 ADD PUSH1 0x40 MSTORE DUP1 SWAP3 SWAP2 SWAP1 DUP2 DUP2 MSTORE PUSH1 0x20 ADD DUP3 DUP1 SLOAD PUSH2 0x336 SWAP1 PUSH2 0x80F JUMP JUMPDEST DUP1 ISZERO PUSH2 0x381 JUMPI DUP1 PUSH1 0x1F LT PUSH2 0x358 JUMPI PUSH2 0x100 DUP1 DUP4 SLOAD DIV MUL DUP4 MSTORE SWAP2 PUSH1 0x20 ADD SWAP2 PUSH2 0x381 JUMP JUMPDEST DUP3 ADD SWAP2 SWAP1 PUSH0 MSTORE PUSH1 0x20 PUSH0 KECCAK256 SWAP1 JUMPDEST DUP2 SLOAD DUP2 MSTORE SWAP1 PUSH1 0x1 ADD SWAP1 PUSH1 0x20 ADD DUP1 DUP4 GT PUSH2 0x364 JUMPI DUP3 SWAP1 SUB PUSH1 0x1F AND DUP3 ADD SWAP2 JUMPDEST POP POP POP POP POP DUP2 MSTORE PUSH1 0x20 ADD PUSH1 0x1 DUP3 ADD PUSH0 SWAP1 SLOAD SWAP1 PUSH2 0x100 EXP SWAP1 DIV PUSH1 0xFF AND ISZERO ISZERO ISZERO ISZERO DUP2 MSTORE POP POP SWAP1 POP SWAP2 SWAP1 POP JUMP JUMPDEST PUSH1 0x40 MLOAD DUP1 PUSH1 0x40 ADD PUSH1 0x40 MSTORE DUP1 PUSH1 0x60 DUP2 MSTORE PUSH1 0x20 ADD PUSH0 ISZERO ISZERO DUP2 MSTORE POP SWAP1 JUMP JUMPDEST PUSH0 PUSH1 0x40 MLOAD SWAP1 POP SWAP1 JUMP JUMPDEST PUSH0 DUP1 REVERT JUMPDEST PUSH0 DUP1 REVERT JUMPDEST PUSH0 DUP2 SWAP1 POP SWAP2 SWAP1 POP JUMP JUMPDEST PUSH2 0x3E9 DUP2 PUSH2 0x3D7 JUMP JUMPDEST DUP2 EQ PUSH2 0x3F3 JUMPI PUSH0 DUP1 REVERT JUMPDEST POP JUMP JUMPDEST PUSH0 DUP2 CALLDATALOAD SWAP1 POP PUSH2 0x404 DUP2 PUSH2 0x3E0 JUMP JUMPDEST SWAP3 SWAP2 POP POP JUMP JUMPDEST PUSH0 DUP1 REVERT JUMPDEST PUSH0 DUP1 REVERT JUMPDEST PUSH0 PUSH1 0x1F NOT PUSH1 0x1F DUP4 ADD AND SWAP1 POP SWAP2 SWAP1 POP JUMP JUMPDEST PUSH32 0x4E487B7100000000000000000000000000000000000000000000000000000000 PUSH0 MSTORE PUSH1 0x41 PUSH1 0x4 MSTORE PUSH1 0x24 PUSH0 REVERT JUMPDEST PUSH2 0x458 DUP3 PUSH2 0x412 JUMP JUMPDEST DUP2 ADD DUP2 DUP2 LT PUSH8 0xFFFFFFFFFFFFFFFF DUP3 GT OR ISZERO PUSH2 0x477 JUMPI PUSH2 0x476 PUSH2 0x422 JUMP JUMPDEST JUMPDEST DUP1 PUSH1 0x40 MSTORE POP POP POP JUMP JUMPDEST PUSH0 PUSH2 0x489 PUSH2 0x3C6 JUMP JUMPDEST SWAP1 POP PUSH2 0x495 DUP3 DUP3 PUSH2 0x44F JUMP JUMPDEST SWAP2 SWAP1 POP JUMP JUMPDEST PUSH0 PUSH8 0xFFFFFFFFFFFFFFFF DUP3 GT ISZERO PUSH2 0x4B4 JUMPI PUSH2 0x4B3 PUSH2 0x422 JUMP JUMPDEST JUMPDEST PUSH2 0x4BD DUP3 PUSH2 0x412 JUMP JUMPDEST SWAP1 POP PUSH1 0x20 DUP2 ADD SWAP1 POP SWAP2 SWAP1 POP JUMP JUMPDEST DUP3 DUP2 DUP4 CALLDATACOPY PUSH0 DUP4 DUP4 ADD MSTORE POP POP POP JUMP JUMPDEST PUSH0 PUSH2 0x4EA PUSH2 0x4E5 DUP5 PUSH2 0x49A JUMP JUMPDEST PUSH2 0x480 JUMP JUMPDEST SWAP1 POP DUP3 DUP2 MSTORE PUSH1 0x20 DUP2 ADD DUP5 DUP5 DUP5 ADD GT ISZERO PUSH2 0x506 JUMPI PUSH2 0x505 PUSH2 0x40E JUMP JUMPDEST JUMPDEST PUSH2 0x511 DUP5 DUP3 DUP6 PUSH2 0x4CA JUMP JUMPDEST POP SWAP4 SWAP3 POP POP POP JUMP JUMPDEST PUSH0 DUP3 PUSH1 0x1F DUP4 ADD SLT PUSH2 0x52D JUMPI PUSH2 0x52C PUSH2 0x40A JUMP JUMPDEST JUMPDEST DUP2 CALLDATALOAD PUSH2 0x53D DUP5 DUP3 PUSH1 0x20 DUP7 ADD PUSH2 0x4D8 JUMP JUMPDEST SWAP2 POP POP SWAP3 SWAP2 POP POP JUMP JUMPDEST PUSH0 DUP1 PUSH1 0x40 DUP4 DUP6 SUB SLT ISZERO PUSH2 0x55C JUMPI PUSH2 0x55B PUSH2 0x3CF JUMP JUMPDEST JUMPDEST PUSH0 PUSH2 0x569 DUP6 DUP3 DUP7 ADD PUSH2 0x3F6 JUMP JUMPDEST SWAP3 POP POP PUSH1 0x20 DUP4 ADD CALLDATALOAD PUSH8 0xFFFFFFFFFFFFFFFF DUP2 GT ISZERO PUSH2 0x58A JUMPI PUSH2 0x589 PUSH2 0x3D3 JUMP JUMPDEST JUMPDEST PUSH2 0x596 DUP6 DUP3 DUP7 ADD PUSH2 0x519 JUMP JUMPDEST SWAP2 POP POP SWAP3 POP SWAP3 SWAP1 POP JUMP JUMPDEST PUSH0 DUP2 ISZERO ISZERO SWAP1 POP SWAP2 SWAP1 POP JUMP JUMPDEST PUSH2 0x5B4 DUP2 PUSH2 0x5A0 JUMP JUMPDEST DUP2 EQ PUSH2 0x5BE JUMPI PUSH0 DUP1 REVERT JUMPDEST POP JUMP JUMPDEST PUSH0 DUP2 CALLDATALOAD SWAP1 POP PUSH2 0x5CF DUP2 PUSH2 0x5AB JUMP JUMPDEST SWAP3 SWAP2 POP POP JUMP JUMPDEST PUSH0 DUP1 PUSH1 0x40 DUP4 DUP6 SUB SLT ISZERO PUSH2 0x5EB JUMPI PUSH2 0x5EA PUSH2 0x3CF JUMP JUMPDEST JUMPDEST PUSH0 DUP4 ADD CALLDATALOAD PUSH8 0xFFFFFFFFFFFFFFFF DUP2 GT ISZERO PUSH2 0x608 JUMPI PUSH2 0x607 PUSH2 0x3D3 JUMP JUMPDEST JUMPDEST PUSH2 0x614 DUP6 DUP3 DUP7 ADD PUSH2 0x519 JUMP JUMPDEST SWAP3 POP POP PUSH1 0x20 PUSH2 0x625 DUP6 DUP3 DUP7 ADD PUSH2 0x5C1 JUMP JUMPDEST SWAP2 POP POP SWAP3 POP SWAP3 SWAP1 POP JUMP JUMPDEST PUSH0 PUSH1 0x20 DUP3 DUP5 SUB SLT ISZERO PUSH2 0x644 JUMPI PUSH2 0x643 PUSH2 0x3CF JUMP JUMPDEST JUMPDEST PUSH0 PUSH2 0x651 DUP5 DUP3 DUP6 ADD PUSH2 0x3F6 JUMP JUMPDEST SWAP2 POP POP SWAP3 SWAP2 POP POP JUMP JUMPDEST PUSH0 DUP2 MLOAD SWAP1 POP SWAP2 SWAP1 POP JUMP JUMPDEST PUSH0 DUP3 DUP3 MSTORE PUSH1 0x20 DUP3 ADD SWAP1 POP SWAP3 SWAP2 POP POP JUMP JUMPDEST PUSH0 JUMPDEST DUP4 DUP2 LT ISZERO PUSH2 0x691 JUMPI DUP1 DUP3 ADD MLOAD DUP2 DUP5 ADD MSTORE PUSH1 0x20 DUP2 ADD SWAP1 POP PUSH2 0x676 JUMP JUMPDEST PUSH0 DUP5 DUP5 ADD MSTORE POP POP POP POP JUMP JUMPDEST PUSH0 PUSH2 0x6A6 DUP3 PUSH2 0x65A JUMP JUMPDEST PUSH2 0x6B0 DUP2 DUP6 PUSH2 0x664 JUMP JUMPDEST SWAP4 POP PUSH2 0x6C0 DUP2 DUP6 PUSH1 0x20 DUP7 ADD PUSH2 0x674 JUMP JUMPDEST PUSH2 0x6C9 DUP2 PUSH2 0x412 JUMP JUMPDEST DUP5 ADD SWAP2 POP POP SWAP3 SWAP2 POP POP JUMP JUMPDEST PUSH2 0x6DD DUP2 PUSH2 0x5A0 JUMP JUMPDEST DUP3 MSTORE POP POP JUMP JUMPDEST PUSH0 PUSH1 0x40 DUP4 ADD PUSH0 DUP4 ADD MLOAD DUP5 DUP3 SUB PUSH0 DUP7 ADD MSTORE PUSH2 0x6FD DUP3 DUP3 PUSH2 0x69C JUMP JUMPDEST SWAP2 POP POP PUSH1 0x20 DUP4 ADD MLOAD PUSH2 0x712 PUSH1 0x20 DUP7 ADD DUP3 PUSH2 0x6D4 JUMP JUMPDEST POP DUP1 SWAP2 POP POP SWAP3 SWAP2 POP POP JUMP JUMPDEST PUSH0 PUSH1 0x20 DUP3 ADD SWAP1 POP DUP2 DUP2 SUB PUSH0 DUP4 ADD MSTORE PUSH2 0x735 DUP2 DUP5 PUSH2 0x6E3 JUMP JUMPDEST SWAP1 POP SWAP3 SWAP2 POP POP JUMP JUMPDEST PUSH0 DUP3 DUP3 MSTORE PUSH1 0x20 DUP3 ADD SWAP1 POP SWAP3 SWAP2 POP POP JUMP JUMPDEST PUSH32 0x696E646578206F7574206F662072616E67650000000000000000000000000000 PUSH0 DUP3 ADD MSTORE POP JUMP JUMPDEST PUSH0 PUSH2 0x781 PUSH1 0x12 DUP4 PUSH2 0x73D JUMP JUMPDEST SWAP2 POP PUSH2 0x78C DUP3 PUSH2 0x74D JUMP JUMPDEST PUSH1 0x20 DUP3 ADD SWAP1 POP SWAP2 SWAP1 POP JUMP JUMPDEST PUSH0 PUSH1 0x20 DUP3 ADD SWAP1 POP DUP2 DUP2 SUB PUSH0 DUP4 ADD MSTORE PUSH2 0x7AE DUP2 PUSH2 0x775 JUMP JUMPDEST SWAP1 POP SWAP2 SWAP1 POP JUMP JUMPDEST PUSH32 0x4E487B7100000000000000000000000000000000000000000000000000000000 PUSH0 MSTORE PUSH1 0x32 PUSH1 0x4 MSTORE PUSH1 0x24 PUSH0 REVERT JUMPDEST PUSH32 0x4E487B7100000000000000000000000000000000000000000000000000000000 PUSH0 MSTORE PUSH1 0x22 PUSH1 0x4 MSTORE PUSH1 0x24 PUSH0 REVERT JUMPDEST PUSH0 PUSH1 0x2 DUP3 DIV SWAP1 POP PUSH1 0x1 DUP3 AND DUP1 PUSH2 0x826 JUMPI PUSH1 0x7F DUP3 AND SWAP2 POP JUMPDEST PUSH1 0x20 DUP3 LT DUP2 SUB PUSH2 0x839 JUMPI PUSH2 0x838 PUSH2 0x7E2 JUMP JUMPDEST JUMPDEST POP SWAP2 SWAP1 POP JUMP JUMPDEST PUSH0 DUP2 SWAP1 POP DUP2 PUSH0 MSTORE PUSH1 0x20 PUSH0 KECCAK256 SWAP1 POP SWAP2 SWAP1 POP JUMP JUMPDEST PUSH0 PUSH1 0x20 PUSH1 0x1F DUP4 ADD DIV SWAP1 POP SWAP2 SWAP1 POP JUMP JUMPDEST PUSH0 DUP3 DUP3 SHL SWAP1 POP SWAP3 SWAP2 POP POP JUMP JUMPDEST PUSH0 PUSH1 0x8 DUP4 MUL PUSH2 0x89B PUSH32 0xFFFFFFFFFFFFFFFFFFFFFFFFFFFFFFFFFFFFFFFFFFFFFFFFFFFFFFFFFFFFFFFF DUP3 PUSH2 0x860 JUMP JUMPDEST PUSH2 0x8A5 DUP7 DUP4 PUSH2 0x860 JUMP JUMPDEST SWAP6 POP DUP1 NOT DUP5 AND SWAP4 POP DUP1 DUP7 AND DUP5 OR SWAP3 POP POP POP SWAP4 SWAP3 POP POP POP JUMP JUMPDEST PUSH0 DUP2 SWAP1 POP SWAP2 SWAP1 POP JUMP JUMPDEST PUSH0 PUSH2 0x8E0 PUSH2 0x8DB PUSH2 0x8D6 DUP5 PUSH2 0x3D7 JUMP JUMPDEST PUSH2 0x8BD JUMP JUMPDEST PUSH2 0x3D7 JUMP JUMPDEST SWAP1 POP SWAP2 SWAP1 POP JUMP JUMPDEST PUSH0 DUP2 SWAP1 POP SWAP2 SWAP1 POP JUMP JUMPDEST PUSH2 0x8F9 DUP4 PUSH2 0x8C6 JUMP JUMPDEST PUSH2 0x90D PUSH2 0x905 DUP3 PUSH2 0x8E7 JUMP JUMPDEST DUP5 DUP5 SLOAD PUSH2 0x86C JUMP JUMPDEST DUP3 SSTORE POP POP POP POP JUMP JUMPDEST PUSH0 SWAP1 JUMP JUMPDEST PUSH2 0x921 PUSH2 0x915 JUMP JUMPDEST PUSH2 0x92C DUP2 DUP5 DUP5 PUSH2 0x8F0 JUMP JUMPDEST POP POP POP JUMP JUMPDEST JUMPDEST DUP2 DUP2 LT ISZERO PUSH2 0x94F JUMPI PUSH2 0x944 PUSH0 DUP3 PUSH2 0x919 JUMP JUMPDEST PUSH1 0x1 DUP2 ADD SWAP1 POP PUSH2 0x932 JUMP JUMPDEST POP POP JUMP JUMPDEST PUSH1 0x1F DUP3 GT ISZERO PUSH2 0x994 JUMPI PUSH2 0x965 DUP2 PUSH2 0x83F JUMP JUMPDEST PUSH2 0x96E DUP5 PUSH2 0x851 JUMP JUMPDEST DUP2 ADD PUSH1 0x20 DUP6 LT ISZERO PUSH2 0x97D JUMPI DUP2 SWAP1 POP JUMPDEST PUSH2 0x991 PUSH2 0x989 DUP6 PUSH2 0x851 JUMP JUMPDEST DUP4 ADD DUP3 PUSH2 0x931 JUMP JUMPDEST POP POP JUMPDEST POP POP POP JUMP JUMPDEST PUSH0 DUP3 DUP3 SHR SWAP1 POP SWAP3 SWAP2 POP POP JUMP JUMPDEST PUSH0 PUSH2 0x9B4 PUSH0 NOT DUP5 PUSH1 0x8 MUL PUSH2 0x999 JUMP JUMPDEST NOT DUP1 DUP4 AND SWAP2 POP POP SWAP3 SWAP2 POP POP JUMP JUMPDEST PUSH0 PUSH2 0x9CC DUP4 DUP4 PUSH2 0x9A5 JUMP JUMPDEST SWAP2 POP DUP3 PUSH1 0x2 MUL DUP3 OR SWAP1 POP SWAP3 SWAP2 POP POP JUMP JUMPDEST PUSH2 0x9E5 DUP3 PUSH2 0x65A JUMP JUMPDEST PUSH8 0xFFFFFFFFFFFFFFFF DUP2 GT ISZERO PUSH2 0x9FE JUMPI PUSH2 0x9FD PUSH2 0x422 JUMP JUMPDEST JUMPDEST PUSH2 0xA08 DUP3 SLOAD PUSH2 0x80F JUMP JUMPDEST PUSH2 0xA13 DUP3 DUP3 DUP6 PUSH2 0x953 JUMP JUMPDEST PUSH0 PUSH1 0x20 SWAP1 POP PUSH1 0x1F DUP4 GT PUSH1 0x1 DUP2 EQ PUSH2 0xA44 JUMPI PUSH0 DUP5 ISZERO PUSH2 0xA32 JUMPI DUP3 DUP8 ADD MLOAD SWAP1 POP JUMPDEST PUSH2 0xA3C DUP6 DUP3 PUSH2 0x9C1 JUMP JUMPDEST DUP7 SSTORE POP PUSH2 0xAA3 JUMP JUMPDEST PUSH1 0x1F NOT DUP5 AND PUSH2 0xA52 DUP7 PUSH2 0x83F JUMP JUMPDEST PUSH0 JUMPDEST DUP3 DUP2 LT ISZERO PUSH2 0xA79 JUMPI DUP5 DUP10 ADD MLOAD DUP3 SSTORE PUSH1 0x1 DUP3 ADD SWAP2 POP PUSH1 0x20 DUP6 ADD SWAP5 POP PUSH1 0x20 DUP2 ADD SWAP1 POP PUSH2 0xA54 JUMP JUMPDEST DUP7 DUP4 LT ISZERO PUSH2 0xA96 JUMPI DUP5 DUP10 ADD MLOAD PUSH2 0xA92 PUSH1 0x1F DUP10 AND DUP3 PUSH2 0x9A5 JUMP JUMPDEST DUP4 SSTORE POP JUMPDEST PUSH1 0x1 PUSH1 0x2 DUP9 MUL ADD DUP9 SSTORE POP POP POP JUMPDEST POP POP POP POP POP POP JUMP JUMPDEST PUSH32 0x6E616D652063616E6E6F7420626520656D707479000000000000000000000000 PUSH0 DUP3 ADD MSTORE POP JUMP JUMPDEST PUSH0 PUSH2 0xADF PUSH1 0x14 DUP4 PUSH2 0x73D JUMP JUMPDEST SWAP2 POP PUSH2 0xAEA DUP3 PUSH2 0xAAB JUMP JUMPDEST PUSH1 0x20 DUP3 ADD SWAP1 POP SWAP2 SWAP1 POP JUMP JUMPDEST PUSH0 PUSH1 0x20 DUP3 ADD SWAP1 POP DUP2 DUP2 SUB PUSH0 DUP4 ADD MSTORE PUSH2 0xB0C DUP2 PUSH2 0xAD3 JUMP JUMPDEST SWAP1 POP SWAP2 SWAP1 POP JUMP INVALID LOG2 PUSH5 0x6970667358 0x22 SLT KECCAK256 0x1E COINBASE PUSH29 0x574DA187499C4D27DE50842309DA2E6C3FFCA436979E862645BF7802DA PUSH5 0x736F6C6343 STOP ADDMOD XOR STOP CALLER "
				},
				"gasEstimates": {
					"creation": {
						"codeDepositCost": "577800",
						"executionCost": "611",
						"totalCost": "578411"
					},
					"external": {
						"createTodo(string,bool)": "infinite",
						"getTodo(uint256)": "infinite",
						"moditfyV1(uint256,string)": "infinite",
						"moditfyV2(uint256,string)": "infinite"
					}
				},
				"methodIdentifiers": {
					"createTodo(string,bool)": "8e3a413d",
					"getTodo(uint256)": "dd68afb6",
					"moditfyV1(uint256,string)": "13e72293",
					"moditfyV2(uint256,string)": "44964d17"
				}
			},
			"storageLayout": {
				"storage": [
					{
						"astId": 10,
						"contract": "contracts/test_work/TodoList.sol:TodoList",
						"label": "todos",
						"offset": 0,
						"slot": "0",
						"type": "t_array(t_struct(Todo)6_storage)dyn_storage"
					}
				],
				"types": {
					"t_array(t_struct(Todo)6_storage)dyn_storage": {
						"base": "t_struct(Todo)6_storage",
						"encoding": "dynamic_array",
						"label": "struct TodoList.Todo[]",
						"numberOfBytes": "32"
					},
					"t_bool": {
						"encoding": "inplace",
						"label": "bool",
						"numberOfBytes": "1"
					},
					"t_string_storage": {
						"encoding": "bytes",
						"label": "string",
						"numberOfBytes": "32"
					},
					"t_struct(Todo)6_storage": {
						"encoding": "inplace",
						"label": "struct TodoList.Todo",
						"members": [
							{
								"astId": 3,
								"contract": "contracts/test_work/TodoList.sol:TodoList",
								"label": "name",
								"offset": 0,
								"slot": "0",
								"type": "t_string_storage"
							},
							{
								"astId": 5,
								"contract": "contracts/test_work/TodoList.sol:TodoList",
								"label": "isComplated",
								"offset": 0,
								"slot": "1",
								"type": "t_bool"
							}
						],
						"numberOfBytes": "64"
					}
				}
			},
			"userdoc": {
				"kind": "user",
				"methods": {},
				"version": 1
			}
		}
	}
}