{
	"contracts/test_work/CrowdFunding.sol": {
		"CrowdFunding": {
			"abi": [
				{
					"inputs": [
						{
							"internalType": "address",
							"name": "corwdFundingAddrss",
							"type": "address"
						}
					],
					"name": "CorwdFunding_Fail",
					"type": "error"
				},
				{
					"inputs": [
						{
							"internalType": "address",
							"name": "_beneficiary",
							"type": "address"
						}
					],
					"name": "Funder_Close",
					"type": "error"
				},
				{
					"inputs": [
						{
							"internalType": "uint256",
							"name": "_index",
							"type": "uint256"
						}
					],
					"name": "getBeneficiary",
					"outputs": [
						{
							"internalType": "address",
							"name": "",
							"type": "address"
						}
					],
					"stateMutability": "view",
					"type": "function"
				},
				{
					"inputs": [
						{
							"internalType": "address",
							"name": "_beneficiaryAdderess",
							"type": "address"
						}
					],
					"name": "getBeneficiaryFunders",
					"outputs": [
						{
							"internalType": "address[]",
							"name": "",
							"type": "address[]"
						}
					],
					"stateMutability": "view",
					"type": "function"
				},
				{
					"inputs": [
						{
							"internalType": "address",
							"name": "_beneficiaryAdderess",
							"type": "address"
						}
					],
					"name": "getBeneficiaryStatus",
					"outputs": [
						{
							"internalType": "bool",
							"name": "",
							"type": "bool"
						}
					],
					"stateMutability": "view",
					"type": "function"
				},
				{
					"inputs": [
						{
							"internalType": "address",
							"name": "_beneficiaryAdderess",
							"type": "address"
						}
					],
					"name": "getBeneficiaryTotalAmount",
					"outputs": [
						{
							"internalType": "uint256",
							"name": "",
							"type": "uint256"
						}
					],
					"stateMutability": "view",
					"type": "function"
				},
				{
					"inputs": [
						{
							"internalType": "address",
							"name": "_beneficiaryAdderess",
							"type": "address"
						},
						{
							"internalType": "address",
							"name": "funderAddress",
							"type": "address"
						}
					],
					"name": "getFunderAmount",
					"outputs": [
						{
							"internalType": "uint256",
							"name": "",
							"type": "uint256"
						}
					],
					"stateMutability": "view",
					"type": "function"
				},
				{
					"inputs": [
						{
							"internalType": "address",
							"name": "_beneficiary",
							"type": "address"
						}
					],
					"name": "startCorwdFunding",
					"outputs": [],
					"stateMutability": "payable",
					"type": "function"
				}
			],
			"devdoc": {
				"kind": "dev",
				"methods": {},
				"version": 1
			},
			"evm": {
				"assembly": "    /* \"contracts/test_work/CrowdFunding.sol\":153:3079  contract CrowdFunding {... */\n  mstore(0x40, 0x80)\n  callvalue\n  dup1\n  iszero\n  tag_1\n  jumpi\n  0x00\n  dup1\n  revert\ntag_1:\n  pop\n  dataSize(sub_0)\n  dup1\n  dataOffset(sub_0)\n  0x00\n  codecopy\n  0x00\n  return\nstop\n\nsub_0: assembly {\n        /* \"contracts/test_work/CrowdFunding.sol\":153:3079  contract CrowdFunding {... */\n      mstore(0x40, 0x80)\n      jumpi(tag_1, lt(calldatasize, 0x04))\n      shr(0xe0, calldataload(0x00))\n      dup1\n      0x302df083\n      eq\n      tag_2\n      jumpi\n      dup1\n      0x3b2f559d\n      eq\n      tag_3\n      jumpi\n      dup1\n      0x70b80eb6\n      eq\n      tag_4\n      jumpi\n      dup1\n      0xac8e831b\n      eq\n      tag_5\n      jumpi\n      dup1\n      0xd5247dda\n      eq\n      tag_6\n      jumpi\n      dup1\n      0xe9c0ad1e\n      eq\n      tag_7\n      jumpi\n    tag_1:\n      0x00\n      dup1\n      revert\n        /* \"contracts/test_work/CrowdFunding.sol\":2216:2333  function getBeneficiary(uint256 _index) external view returns ( address) {... */\n    tag_2:\n      callvalue\n      dup1\n      iszero\n      tag_8\n      jumpi\n      0x00\n      dup1\n      revert\n    tag_8:\n      pop\n      tag_9\n      0x04\n      dup1\n      calldatasize\n      sub\n      dup2\n      add\n      swap1\n      tag_10\n      swap2\n      swap1\n      tag_11\n      jump\t// in\n    tag_10:\n      tag_12\n      jump\t// in\n    tag_9:\n      mload(0x40)\n      tag_13\n      swap2\n      swap1\n      tag_14\n      jump\t// in\n    tag_13:\n      mload(0x40)\n      dup1\n      swap2\n      sub\n      swap1\n      return\n        /* \"contracts/test_work/CrowdFunding.sol\":2876:3077  function getFunderAmount(address _beneficiaryAdderess,address funderAddress) public view  returns (uint256) {... */\n    tag_3:\n      callvalue\n      dup1\n      iszero\n      tag_15\n      jumpi\n      0x00\n      dup1\n      revert\n    tag_15:\n      pop\n      tag_16\n      0x04\n      dup1\n      calldatasize\n      sub\n      dup2\n      add\n      swap1\n      tag_17\n      swap2\n      swap1\n      tag_18\n      jump\t// in\n    tag_17:\n      tag_19\n      jump\t// in\n    tag_16:\n      mload(0x40)\n      tag_20\n      swap2\n      swap1\n      tag_21\n      jump\t// in\n    tag_20:\n      mload(0x40)\n      dup1\n      swap2\n      sub\n      swap1\n      return\n        /* \"contracts/test_work/CrowdFunding.sol\":2339:2511  function getBeneficiaryTotalAmount(address _beneficiaryAdderess) public view  returns (uint256) {... */\n    tag_4:\n      callvalue\n      dup1\n      iszero\n      tag_22\n      jumpi\n      0x00\n      dup1\n      revert\n    tag_22:\n      pop\n      tag_23\n      0x04\n      dup1\n      calldatasize\n      sub\n      dup2\n      add\n      swap1\n      tag_24\n      swap2\n      swap1\n      tag_25\n      jump\t// in\n    tag_24:\n      tag_26\n      jump\t// in\n    tag_23:\n      mload(0x40)\n      tag_27\n      swap2\n      swap1\n      tag_21\n      jump\t// in\n    tag_27:\n      mload(0x40)\n      dup1\n      swap2\n      sub\n      swap1\n      return\n        /* \"contracts/test_work/CrowdFunding.sol\":621:2208  function startCorwdFunding(address _beneficiary) external payable {... */\n    tag_5:\n      tag_28\n      0x04\n      dup1\n      calldatasize\n      sub\n      dup2\n      add\n      swap1\n      tag_29\n      swap2\n      swap1\n      tag_25\n      jump\t// in\n    tag_29:\n      tag_30\n      jump\t// in\n    tag_28:\n      stop\n        /* \"contracts/test_work/CrowdFunding.sol\":2697:2870  function getBeneficiaryStatus(address _beneficiaryAdderess) public view  returns (bool) {... */\n    tag_6:\n      callvalue\n      dup1\n      iszero\n      tag_31\n      jumpi\n      0x00\n      dup1\n      revert\n    tag_31:\n      pop\n      tag_32\n      0x04\n      dup1\n      calldatasize\n      sub\n      dup2\n      add\n      swap1\n      tag_33\n      swap2\n      swap1\n      tag_25\n      jump\t// in\n    tag_33:\n      tag_34\n      jump\t// in\n    tag_32:\n      mload(0x40)\n      tag_35\n      swap2\n      swap1\n      tag_36\n      jump\t// in\n    tag_35:\n      mload(0x40)\n      dup1\n      swap2\n      sub\n      swap1\n      return\n        /* \"contracts/test_work/CrowdFunding.sol\":2518:2691  function getBeneficiaryFunders(address _beneficiaryAdderess) public view  returns (address[] memory) {... */\n    tag_7:\n      callvalue\n      dup1\n      iszero\n      tag_37\n      jumpi\n      0x00\n      dup1\n      revert\n    tag_37:\n      pop\n      tag_38\n      0x04\n      dup1\n      calldatasize\n      sub\n      dup2\n      add\n      swap1\n      tag_39\n      swap2\n      swap1\n      tag_25\n      jump\t// in\n    tag_39:\n      tag_40\n      jump\t// in\n    tag_38:\n      mload(0x40)\n      tag_41\n      swap2\n      swap1\n      tag_42\n      jump\t// in\n    tag_41:\n      mload(0x40)\n      dup1\n      swap2\n      sub\n      swap1\n      return\n        /* \"contracts/test_work/CrowdFunding.sol\":2216:2333  function getBeneficiary(uint256 _index) external view returns ( address) {... */\n    tag_12:\n        /* \"contracts/test_work/CrowdFunding.sol\":2280:2287  address */\n      0x00\n        /* \"contracts/test_work/CrowdFunding.sol\":2306:2318  beneficiarys */\n      dup1\n        /* \"contracts/test_work/CrowdFunding.sol\":2319:2325  _index */\n      dup3\n        /* \"contracts/test_work/CrowdFunding.sol\":2306:2326  beneficiarys[_index] */\n      dup2\n      sload\n      dup2\n      lt\n      tag_44\n      jumpi\n      tag_45\n      tag_46\n      jump\t// in\n    tag_45:\n    tag_44:\n      swap1\n      0x00\n      mstore\n      keccak256(0x00, 0x20)\n      add\n      0x00\n      swap1\n      sload\n      swap1\n      0x0100\n      exp\n      swap1\n      div\n      0xffffffffffffffffffffffffffffffffffffffff\n      and\n        /* \"contracts/test_work/CrowdFunding.sol\":2299:2326  return beneficiarys[_index] */\n      swap1\n      pop\n        /* \"contracts/test_work/CrowdFunding.sol\":2216:2333  function getBeneficiary(uint256 _index) external view returns ( address) {... */\n      swap2\n      swap1\n      pop\n      jump\t// out\n        /* \"contracts/test_work/CrowdFunding.sol\":2876:3077  function getFunderAmount(address _beneficiaryAdderess,address funderAddress) public view  returns (uint256) {... */\n    tag_19:\n        /* \"contracts/test_work/CrowdFunding.sol\":2975:2982  uint256 */\n      0x00\n        /* \"contracts/test_work/CrowdFunding.sol\":3001:3019  beneficiaryMapping */\n      0x02\n        /* \"contracts/test_work/CrowdFunding.sol\":3001:3041  beneficiaryMapping[_beneficiaryAdderess] */\n      0x00\n        /* \"contracts/test_work/CrowdFunding.sol\":3020:3040  _beneficiaryAdderess */\n      dup5\n        /* \"contracts/test_work/CrowdFunding.sol\":3001:3041  beneficiaryMapping[_beneficiaryAdderess] */\n      0xffffffffffffffffffffffffffffffffffffffff\n      and\n      0xffffffffffffffffffffffffffffffffffffffff\n      and\n      dup2\n      mstore\n      0x20\n      add\n      swap1\n      dup2\n      mstore\n      0x20\n      add\n      0x00\n      keccak256\n        /* \"contracts/test_work/CrowdFunding.sol\":3001:3055  beneficiaryMapping[_beneficiaryAdderess].funderMapping */\n      0x01\n      add\n        /* \"contracts/test_work/CrowdFunding.sol\":3001:3070  beneficiaryMapping[_beneficiaryAdderess].funderMapping[funderAddress] */\n      0x00\n        /* \"contracts/test_work/CrowdFunding.sol\":3056:3069  funderAddress */\n      dup4\n        /* \"contracts/test_work/CrowdFunding.sol\":3001:3070  beneficiaryMapping[_beneficiaryAdderess].funderMapping[funderAddress] */\n      0xffffffffffffffffffffffffffffffffffffffff\n      and\n      0xffffffffffffffffffffffffffffffffffffffff\n      and\n      dup2\n      mstore\n      0x20\n      add\n      swap1\n      dup2\n      mstore\n      0x20\n      add\n      0x00\n      keccak256\n      sload\n        /* \"contracts/test_work/CrowdFunding.sol\":2994:3070  return beneficiaryMapping[_beneficiaryAdderess].funderMapping[funderAddress] */\n      swap1\n      pop\n        /* \"contracts/test_work/CrowdFunding.sol\":2876:3077  function getFunderAmount(address _beneficiaryAdderess,address funderAddress) public view  returns (uint256) {... */\n      swap3\n      swap2\n      pop\n      pop\n      jump\t// out\n        /* \"contracts/test_work/CrowdFunding.sol\":2339:2511  function getBeneficiaryTotalAmount(address _beneficiaryAdderess) public view  returns (uint256) {... */\n    tag_26:\n        /* \"contracts/test_work/CrowdFunding.sol\":2426:2433  uint256 */\n      0x00\n        /* \"contracts/test_work/CrowdFunding.sol\":2452:2470  beneficiaryMapping */\n      0x02\n        /* \"contracts/test_work/CrowdFunding.sol\":2452:2492  beneficiaryMapping[_beneficiaryAdderess] */\n      0x00\n        /* \"contracts/test_work/CrowdFunding.sol\":2471:2491  _beneficiaryAdderess */\n      dup4\n        /* \"contracts/test_work/CrowdFunding.sol\":2452:2492  beneficiaryMapping[_beneficiaryAdderess] */\n      0xffffffffffffffffffffffffffffffffffffffff\n      and\n      0xffffffffffffffffffffffffffffffffffffffff\n      and\n      dup2\n      mstore\n      0x20\n      add\n      swap1\n      dup2\n      mstore\n      0x20\n      add\n      0x00\n      keccak256\n        /* \"contracts/test_work/CrowdFunding.sol\":2452:2504  beneficiaryMapping[_beneficiaryAdderess].totalAmount */\n      0x02\n      add\n      sload\n        /* \"contracts/test_work/CrowdFunding.sol\":2445:2504  return beneficiaryMapping[_beneficiaryAdderess].totalAmount */\n      swap1\n      pop\n        /* \"contracts/test_work/CrowdFunding.sol\":2339:2511  function getBeneficiaryTotalAmount(address _beneficiaryAdderess) public view  returns (uint256) {... */\n      swap2\n      swap1\n      pop\n      jump\t// out\n        /* \"contracts/test_work/CrowdFunding.sol\":621:2208  function startCorwdFunding(address _beneficiary) external payable {... */\n    tag_30:\n        /* \"contracts/test_work/CrowdFunding.sol\":697:710  uint256 value */\n      0x00\n        /* \"contracts/test_work/CrowdFunding.sol\":713:722  msg.value */\n      callvalue\n        /* \"contracts/test_work/CrowdFunding.sol\":697:722  uint256 value = msg.value */\n      swap1\n      pop\n        /* \"contracts/test_work/CrowdFunding.sol\":733:754  address funderAddress */\n      0x00\n        /* \"contracts/test_work/CrowdFunding.sol\":757:767  msg.sender */\n      caller\n        /* \"contracts/test_work/CrowdFunding.sol\":733:767  address funderAddress = msg.sender */\n      swap1\n      pop\n        /* \"contracts/test_work/CrowdFunding.sol\":779:791  bool success */\n      0x00\n        /* \"contracts/test_work/CrowdFunding.sol\":805:817  _beneficiary */\n      dup4\n        /* \"contracts/test_work/CrowdFunding.sol\":797:823  payable(_beneficiary).call */\n      0xffffffffffffffffffffffffffffffffffffffff\n      and\n        /* \"contracts/test_work/CrowdFunding.sol\":831:836  value */\n      dup4\n        /* \"contracts/test_work/CrowdFunding.sol\":797:841  payable(_beneficiary).call{value: value}(\"\") */\n      mload(0x40)\n      tag_51\n      swap1\n      tag_52\n      jump\t// in\n    tag_51:\n      0x00\n      mload(0x40)\n      dup1\n      dup4\n      sub\n      dup2\n      dup6\n      dup8\n      gas\n      call\n      swap3\n      pop\n      pop\n      pop\n      returndatasize\n      dup1\n      0x00\n      dup2\n      eq\n      tag_55\n      jumpi\n      mload(0x40)\n      swap2\n      pop\n      and(add(returndatasize, 0x3f), not(0x1f))\n      dup3\n      add\n      0x40\n      mstore\n      returndatasize\n      dup3\n      mstore\n      returndatasize\n      0x00\n      0x20\n      dup5\n      add\n      returndatacopy\n      jump(tag_54)\n    tag_55:\n      0x60\n      swap2\n      pop\n    tag_54:\n      pop\n        /* \"contracts/test_work/CrowdFunding.sol\":778:841  (bool success, ) = payable(_beneficiary).call{value: value}(\"\") */\n      pop\n      swap1\n      pop\n        /* \"contracts/test_work/CrowdFunding.sol\":857:871  hasBeneficiary */\n      0x01\n        /* \"contracts/test_work/CrowdFunding.sol\":857:885  hasBeneficiary[_beneficiary] */\n      0x00\n        /* \"contracts/test_work/CrowdFunding.sol\":872:884  _beneficiary */\n      dup6\n        /* \"contracts/test_work/CrowdFunding.sol\":857:885  hasBeneficiary[_beneficiary] */\n      0xffffffffffffffffffffffffffffffffffffffff\n      and\n      0xffffffffffffffffffffffffffffffffffffffff\n      and\n      dup2\n      mstore\n      0x20\n      add\n      swap1\n      dup2\n      mstore\n      0x20\n      add\n      0x00\n      keccak256\n      0x00\n      swap1\n      sload\n      swap1\n      0x0100\n      exp\n      swap1\n      div\n      0xff\n      and\n        /* \"contracts/test_work/CrowdFunding.sol\":852:2115  if (!hasBeneficiary[_beneficiary]) {... */\n      tag_56\n      jumpi\n        /* \"contracts/test_work/CrowdFunding.sol\":932:936  true */\n      0x01\n        /* \"contracts/test_work/CrowdFunding.sol\":901:915  hasBeneficiary */\n      dup1\n        /* \"contracts/test_work/CrowdFunding.sol\":901:929  hasBeneficiary[_beneficiary] */\n      0x00\n        /* \"contracts/test_work/CrowdFunding.sol\":916:928  _beneficiary */\n      dup7\n        /* \"contracts/test_work/CrowdFunding.sol\":901:929  hasBeneficiary[_beneficiary] */\n      0xffffffffffffffffffffffffffffffffffffffff\n      and\n      0xffffffffffffffffffffffffffffffffffffffff\n      and\n      dup2\n      mstore\n      0x20\n      add\n      swap1\n      dup2\n      mstore\n      0x20\n      add\n      0x00\n      keccak256\n      0x00\n        /* \"contracts/test_work/CrowdFunding.sol\":901:936  hasBeneficiary[_beneficiary] = true */\n      0x0100\n      exp\n      dup2\n      sload\n      dup2\n      0xff\n      mul\n      not\n      and\n      swap1\n      dup4\n      iszero\n      iszero\n      mul\n      or\n      swap1\n      sstore\n      pop\n        /* \"contracts/test_work/CrowdFunding.sol\":950:982  FunderInfo storage newFunderInfo */\n      0x00\n        /* \"contracts/test_work/CrowdFunding.sol\":985:1003  beneficiaryMapping */\n      0x02\n        /* \"contracts/test_work/CrowdFunding.sol\":985:1017  beneficiaryMapping[_beneficiary] */\n      0x00\n        /* \"contracts/test_work/CrowdFunding.sol\":1004:1016  _beneficiary */\n      dup7\n        /* \"contracts/test_work/CrowdFunding.sol\":985:1017  beneficiaryMapping[_beneficiary] */\n      0xffffffffffffffffffffffffffffffffffffffff\n      and\n      0xffffffffffffffffffffffffffffffffffffffff\n      and\n      dup2\n      mstore\n      0x20\n      add\n      swap1\n      dup2\n      mstore\n      0x20\n      add\n      0x00\n      keccak256\n        /* \"contracts/test_work/CrowdFunding.sol\":950:1017  FunderInfo storage newFunderInfo = beneficiaryMapping[_beneficiary] */\n      swap1\n      pop\n        /* \"contracts/test_work/CrowdFunding.sol\":1059:1071  _beneficiary */\n      dup5\n        /* \"contracts/test_work/CrowdFunding.sol\":1031:1044  newFunderInfo */\n      dup2\n        /* \"contracts/test_work/CrowdFunding.sol\":1031:1056  newFunderInfo.beneficiary */\n      0x00\n      add\n      0x00\n        /* \"contracts/test_work/CrowdFunding.sol\":1031:1071  newFunderInfo.beneficiary = _beneficiary */\n      0x0100\n      exp\n      dup2\n      sload\n      dup2\n      0xffffffffffffffffffffffffffffffffffffffff\n      mul\n      not\n      and\n      swap1\n      dup4\n      0xffffffffffffffffffffffffffffffffffffffff\n      and\n      mul\n      or\n      swap1\n      sstore\n      pop\n        /* \"contracts/test_work/CrowdFunding.sol\":1122:1126  true */\n      0x01\n        /* \"contracts/test_work/CrowdFunding.sol\":1085:1098  newFunderInfo */\n      dup2\n        /* \"contracts/test_work/CrowdFunding.sol\":1085:1119  newFunderInfo.is_need_CrowdFunding */\n      0x05\n      add\n      0x00\n        /* \"contracts/test_work/CrowdFunding.sol\":1085:1126  newFunderInfo.is_need_CrowdFunding = true */\n      0x0100\n      exp\n      dup2\n      sload\n      dup2\n      0xff\n      mul\n      not\n      and\n      swap1\n      dup4\n      iszero\n      iszero\n      mul\n      or\n      swap1\n      sstore\n      pop\n        /* \"contracts/test_work/CrowdFunding.sol\":1169:1178  msg.value */\n      callvalue\n        /* \"contracts/test_work/CrowdFunding.sol\":1140:1153  newFunderInfo */\n      dup2\n        /* \"contracts/test_work/CrowdFunding.sol\":1140:1165  newFunderInfo.totalAmount */\n      0x02\n      add\n      0x00\n        /* \"contracts/test_work/CrowdFunding.sol\":1140:1178  newFunderInfo.totalAmount += msg.value */\n      dup3\n      dup3\n      sload\n      tag_57\n      swap2\n      swap1\n      tag_58\n      jump\t// in\n    tag_57:\n      swap3\n      pop\n      pop\n      dup2\n      swap1\n      sstore\n      pop\n        /* \"contracts/test_work/CrowdFunding.sol\":1241:1245  true */\n      0x01\n        /* \"contracts/test_work/CrowdFunding.sol\":1193:1206  newFunderInfo */\n      dup2\n        /* \"contracts/test_work/CrowdFunding.sol\":1193:1223  newFunderInfo.hasFunderAddress */\n      0x04\n      add\n        /* \"contracts/test_work/CrowdFunding.sol\":1193:1238  newFunderInfo.hasFunderAddress[funderAddress] */\n      0x00\n        /* \"contracts/test_work/CrowdFunding.sol\":1224:1237  funderAddress */\n      dup6\n        /* \"contracts/test_work/CrowdFunding.sol\":1193:1238  newFunderInfo.hasFunderAddress[funderAddress] */\n      0xffffffffffffffffffffffffffffffffffffffff\n      and\n      0xffffffffffffffffffffffffffffffffffffffff\n      and\n      dup2\n      mstore\n      0x20\n      add\n      swap1\n      dup2\n      mstore\n      0x20\n      add\n      0x00\n      keccak256\n      0x00\n        /* \"contracts/test_work/CrowdFunding.sol\":1193:1245  newFunderInfo.hasFunderAddress[funderAddress] = true */\n      0x0100\n      exp\n      dup2\n      sload\n      dup2\n      0xff\n      mul\n      not\n      and\n      swap1\n      dup4\n      iszero\n      iszero\n      mul\n      or\n      swap1\n      sstore\n      pop\n        /* \"contracts/test_work/CrowdFunding.sol\":1259:1272  newFunderInfo */\n      dup1\n        /* \"contracts/test_work/CrowdFunding.sol\":1259:1280  newFunderInfo.funders */\n      0x03\n      add\n        /* \"contracts/test_work/CrowdFunding.sol\":1286:1299  funderAddress */\n      dup4\n        /* \"contracts/test_work/CrowdFunding.sol\":1259:1300  newFunderInfo.funders.push(funderAddress) */\n      swap1\n      dup1\n      0x01\n      dup2\n      sload\n      add\n      dup1\n      dup3\n      sstore\n      dup1\n      swap2\n      pop\n      pop\n      0x01\n      swap1\n      sub\n      swap1\n      0x00\n      mstore\n      keccak256(0x00, 0x20)\n      add\n      0x00\n      swap1\n      swap2\n      swap1\n      swap2\n      swap1\n      swap2\n      0x0100\n      exp\n      dup2\n      sload\n      dup2\n      0xffffffffffffffffffffffffffffffffffffffff\n      mul\n      not\n      and\n      swap1\n      dup4\n      0xffffffffffffffffffffffffffffffffffffffff\n      and\n      mul\n      or\n      swap1\n      sstore\n      pop\n        /* \"contracts/test_work/CrowdFunding.sol\":1360:1369  msg.value */\n      callvalue\n        /* \"contracts/test_work/CrowdFunding.sol\":1314:1327  newFunderInfo */\n      dup2\n        /* \"contracts/test_work/CrowdFunding.sol\":1314:1341  newFunderInfo.funderMapping */\n      0x01\n      add\n        /* \"contracts/test_work/CrowdFunding.sol\":1314:1356  newFunderInfo.funderMapping[funderAddress] */\n      0x00\n        /* \"contracts/test_work/CrowdFunding.sol\":1342:1355  funderAddress */\n      dup6\n        /* \"contracts/test_work/CrowdFunding.sol\":1314:1356  newFunderInfo.funderMapping[funderAddress] */\n      0xffffffffffffffffffffffffffffffffffffffff\n      and\n      0xffffffffffffffffffffffffffffffffffffffff\n      and\n      dup2\n      mstore\n      0x20\n      add\n      swap1\n      dup2\n      mstore\n      0x20\n      add\n      0x00\n      keccak256\n      0x00\n        /* \"contracts/test_work/CrowdFunding.sol\":1314:1369  newFunderInfo.funderMapping[funderAddress] += msg.value */\n      dup3\n      dup3\n      sload\n      tag_60\n      swap2\n      swap1\n      tag_58\n      jump\t// in\n    tag_60:\n      swap3\n      pop\n      pop\n      dup2\n      swap1\n      sstore\n      pop\n        /* \"contracts/test_work/CrowdFunding.sol\":1384:1396  beneficiarys */\n      0x00\n        /* \"contracts/test_work/CrowdFunding.sol\":1402:1414  _beneficiary */\n      dup6\n        /* \"contracts/test_work/CrowdFunding.sol\":1384:1415  beneficiarys.push(_beneficiary) */\n      swap1\n      dup1\n      0x01\n      dup2\n      sload\n      add\n      dup1\n      dup3\n      sstore\n      dup1\n      swap2\n      pop\n      pop\n      0x01\n      swap1\n      sub\n      swap1\n      0x00\n      mstore\n      keccak256(0x00, 0x20)\n      add\n      0x00\n      swap1\n      swap2\n      swap1\n      swap2\n      swap1\n      swap2\n      0x0100\n      exp\n      dup2\n      sload\n      dup2\n      0xffffffffffffffffffffffffffffffffffffffff\n      mul\n      not\n      and\n      swap1\n      dup4\n      0xffffffffffffffffffffffffffffffffffffffff\n      and\n      mul\n      or\n      swap1\n      sstore\n      pop\n        /* \"contracts/test_work/CrowdFunding.sol\":887:1426  {... */\n      pop\n        /* \"contracts/test_work/CrowdFunding.sol\":852:2115  if (!hasBeneficiary[_beneficiary]) {... */\n      jump(tag_62)\n    tag_56:\n        /* \"contracts/test_work/CrowdFunding.sol\":1437:1455  beneficiaryMapping */\n      0x02\n        /* \"contracts/test_work/CrowdFunding.sol\":1437:1469  beneficiaryMapping[_beneficiary] */\n      0x00\n        /* \"contracts/test_work/CrowdFunding.sol\":1456:1468  _beneficiary */\n      dup6\n        /* \"contracts/test_work/CrowdFunding.sol\":1437:1469  beneficiaryMapping[_beneficiary] */\n      0xffffffffffffffffffffffffffffffffffffffff\n      and\n      0xffffffffffffffffffffffffffffffffffffffff\n      and\n      dup2\n      mstore\n      0x20\n      add\n      swap1\n      dup2\n      mstore\n      0x20\n      add\n      0x00\n      keccak256\n        /* \"contracts/test_work/CrowdFunding.sol\":1437:1490  beneficiaryMapping[_beneficiary].is_need_CrowdFunding */\n      0x05\n      add\n      0x00\n      swap1\n      sload\n      swap1\n      0x0100\n      exp\n      swap1\n      div\n      0xff\n      and\n        /* \"contracts/test_work/CrowdFunding.sol\":1432:2115  if (!beneficiaryMapping[_beneficiary].is_need_CrowdFunding) {... */\n      tag_63\n      jumpi\n        /* \"contracts/test_work/CrowdFunding.sol\":1526:1538  _beneficiary */\n      dup4\n        /* \"contracts/test_work/CrowdFunding.sol\":1513:1539  Funder_Close(_beneficiary) */\n      mload(0x40)\n      0x8d52abfb00000000000000000000000000000000000000000000000000000000\n      dup2\n      mstore\n      0x04\n      add\n      tag_64\n      swap2\n      swap1\n      tag_14\n      jump\t// in\n    tag_64:\n      mload(0x40)\n      dup1\n      swap2\n      sub\n      swap1\n      revert\n        /* \"contracts/test_work/CrowdFunding.sol\":1432:2115  if (!beneficiaryMapping[_beneficiary].is_need_CrowdFunding) {... */\n    tag_63:\n        /* \"contracts/test_work/CrowdFunding.sol\":1592:1610  beneficiaryMapping */\n      0x02\n        /* \"contracts/test_work/CrowdFunding.sol\":1592:1624  beneficiaryMapping[_beneficiary] */\n      0x00\n        /* \"contracts/test_work/CrowdFunding.sol\":1611:1623  _beneficiary */\n      dup6\n        /* \"contracts/test_work/CrowdFunding.sol\":1592:1624  beneficiaryMapping[_beneficiary] */\n      0xffffffffffffffffffffffffffffffffffffffff\n      and\n      0xffffffffffffffffffffffffffffffffffffffff\n      and\n      dup2\n      mstore\n      0x20\n      add\n      swap1\n      dup2\n      mstore\n      0x20\n      add\n      0x00\n      keccak256\n        /* \"contracts/test_work/CrowdFunding.sol\":1592:1641  beneficiaryMapping[_beneficiary].hasFunderAddress */\n      0x04\n      add\n        /* \"contracts/test_work/CrowdFunding.sol\":1592:1694  beneficiaryMapping[_beneficiary].hasFunderAddress[... */\n      0x00\n        /* \"contracts/test_work/CrowdFunding.sol\":1663:1676  funderAddress */\n      dup4\n        /* \"contracts/test_work/CrowdFunding.sol\":1592:1694  beneficiaryMapping[_beneficiary].hasFunderAddress[... */\n      0xffffffffffffffffffffffffffffffffffffffff\n      and\n      0xffffffffffffffffffffffffffffffffffffffff\n      and\n      dup2\n      mstore\n      0x20\n      add\n      swap1\n      dup2\n      mstore\n      0x20\n      add\n      0x00\n      keccak256\n      0x00\n      swap1\n      sload\n      swap1\n      0x0100\n      exp\n      swap1\n      div\n      0xff\n      and\n        /* \"contracts/test_work/CrowdFunding.sol\":1570:1929  if (... */\n      tag_66\n      jumpi\n        /* \"contracts/test_work/CrowdFunding.sol\":1832:1836  true */\n      0x01\n        /* \"contracts/test_work/CrowdFunding.sol\":1727:1745  beneficiaryMapping */\n      0x02\n        /* \"contracts/test_work/CrowdFunding.sol\":1727:1759  beneficiaryMapping[_beneficiary] */\n      0x00\n        /* \"contracts/test_work/CrowdFunding.sol\":1746:1758  _beneficiary */\n      dup7\n        /* \"contracts/test_work/CrowdFunding.sol\":1727:1759  beneficiaryMapping[_beneficiary] */\n      0xffffffffffffffffffffffffffffffffffffffff\n      and\n      0xffffffffffffffffffffffffffffffffffffffff\n      and\n      dup2\n      mstore\n      0x20\n      add\n      swap1\n      dup2\n      mstore\n      0x20\n      add\n      0x00\n      keccak256\n        /* \"contracts/test_work/CrowdFunding.sol\":1727:1776  beneficiaryMapping[_beneficiary].hasFunderAddress */\n      0x04\n      add\n        /* \"contracts/test_work/CrowdFunding.sol\":1727:1829  beneficiaryMapping[_beneficiary].hasFunderAddress[... */\n      0x00\n        /* \"contracts/test_work/CrowdFunding.sol\":1798:1811  funderAddress */\n      dup5\n        /* \"contracts/test_work/CrowdFunding.sol\":1727:1829  beneficiaryMapping[_beneficiary].hasFunderAddress[... */\n      0xffffffffffffffffffffffffffffffffffffffff\n      and\n      0xffffffffffffffffffffffffffffffffffffffff\n      and\n      dup2\n      mstore\n      0x20\n      add\n      swap1\n      dup2\n      mstore\n      0x20\n      add\n      0x00\n      keccak256\n      0x00\n        /* \"contracts/test_work/CrowdFunding.sol\":1727:1836  beneficiaryMapping[_beneficiary].hasFunderAddress[... */\n      0x0100\n      exp\n      dup2\n      sload\n      dup2\n      0xff\n      mul\n      not\n      and\n      swap1\n      dup4\n      iszero\n      iszero\n      mul\n      or\n      swap1\n      sstore\n      pop\n        /* \"contracts/test_work/CrowdFunding.sol\":1854:1872  beneficiaryMapping */\n      0x02\n        /* \"contracts/test_work/CrowdFunding.sol\":1854:1886  beneficiaryMapping[_beneficiary] */\n      0x00\n        /* \"contracts/test_work/CrowdFunding.sol\":1873:1885  _beneficiary */\n      dup6\n        /* \"contracts/test_work/CrowdFunding.sol\":1854:1886  beneficiaryMapping[_beneficiary] */\n      0xffffffffffffffffffffffffffffffffffffffff\n      and\n      0xffffffffffffffffffffffffffffffffffffffff\n      and\n      dup2\n      mstore\n      0x20\n      add\n      swap1\n      dup2\n      mstore\n      0x20\n      add\n      0x00\n      keccak256\n        /* \"contracts/test_work/CrowdFunding.sol\":1854:1894  beneficiaryMapping[_beneficiary].funders */\n      0x03\n      add\n        /* \"contracts/test_work/CrowdFunding.sol\":1900:1913  funderAddress */\n      dup3\n        /* \"contracts/test_work/CrowdFunding.sol\":1854:1914  beneficiaryMapping[_beneficiary].funders.push(funderAddress) */\n      swap1\n      dup1\n      0x01\n      dup2\n      sload\n      add\n      dup1\n      dup3\n      sstore\n      dup1\n      swap2\n      pop\n      pop\n      0x01\n      swap1\n      sub\n      swap1\n      0x00\n      mstore\n      keccak256(0x00, 0x20)\n      add\n      0x00\n      swap1\n      swap2\n      swap1\n      swap2\n      swap1\n      swap2\n      0x0100\n      exp\n      dup2\n      sload\n      dup2\n      0xffffffffffffffffffffffffffffffffffffffff\n      mul\n      not\n      and\n      swap1\n      dup4\n      0xffffffffffffffffffffffffffffffffffffffff\n      and\n      mul\n      or\n      swap1\n      sstore\n      pop\n        /* \"contracts/test_work/CrowdFunding.sol\":1570:1929  if (... */\n    tag_66:\n        /* \"contracts/test_work/CrowdFunding.sol\":2007:2033  msg... */\n      callvalue\n        /* \"contracts/test_work/CrowdFunding.sol\":1942:1960  beneficiaryMapping */\n      0x02\n        /* \"contracts/test_work/CrowdFunding.sol\":1942:1974  beneficiaryMapping[_beneficiary] */\n      0x00\n        /* \"contracts/test_work/CrowdFunding.sol\":1961:1973  _beneficiary */\n      dup7\n        /* \"contracts/test_work/CrowdFunding.sol\":1942:1974  beneficiaryMapping[_beneficiary] */\n      0xffffffffffffffffffffffffffffffffffffffff\n      and\n      0xffffffffffffffffffffffffffffffffffffffff\n      and\n      dup2\n      mstore\n      0x20\n      add\n      swap1\n      dup2\n      mstore\n      0x20\n      add\n      0x00\n      keccak256\n        /* \"contracts/test_work/CrowdFunding.sol\":1942:1988  beneficiaryMapping[_beneficiary].funderMapping */\n      0x01\n      add\n        /* \"contracts/test_work/CrowdFunding.sol\":1942:2003  beneficiaryMapping[_beneficiary].funderMapping[funderAddress] */\n      0x00\n        /* \"contracts/test_work/CrowdFunding.sol\":1989:2002  funderAddress */\n      dup5\n        /* \"contracts/test_work/CrowdFunding.sol\":1942:2003  beneficiaryMapping[_beneficiary].funderMapping[funderAddress] */\n      0xffffffffffffffffffffffffffffffffffffffff\n      and\n      0xffffffffffffffffffffffffffffffffffffffff\n      and\n      dup2\n      mstore\n      0x20\n      add\n      swap1\n      dup2\n      mstore\n      0x20\n      add\n      0x00\n      keccak256\n      0x00\n        /* \"contracts/test_work/CrowdFunding.sol\":1942:2033  beneficiaryMapping[_beneficiary].funderMapping[funderAddress] += msg... */\n      dup3\n      dup3\n      sload\n      tag_68\n      swap2\n      swap1\n      tag_58\n      jump\t// in\n    tag_68:\n      swap3\n      pop\n      pop\n      dup2\n      swap1\n      sstore\n      pop\n        /* \"contracts/test_work/CrowdFunding.sol\":2095:2104  msg.value */\n      callvalue\n        /* \"contracts/test_work/CrowdFunding.sol\":2047:2065  beneficiaryMapping */\n      0x02\n        /* \"contracts/test_work/CrowdFunding.sol\":2047:2079  beneficiaryMapping[_beneficiary] */\n      0x00\n        /* \"contracts/test_work/CrowdFunding.sol\":2066:2078  _beneficiary */\n      dup7\n        /* \"contracts/test_work/CrowdFunding.sol\":2047:2079  beneficiaryMapping[_beneficiary] */\n      0xffffffffffffffffffffffffffffffffffffffff\n      and\n      0xffffffffffffffffffffffffffffffffffffffff\n      and\n      dup2\n      mstore\n      0x20\n      add\n      swap1\n      dup2\n      mstore\n      0x20\n      add\n      0x00\n      keccak256\n        /* \"contracts/test_work/CrowdFunding.sol\":2047:2091  beneficiaryMapping[_beneficiary].totalAmount */\n      0x02\n      add\n      0x00\n        /* \"contracts/test_work/CrowdFunding.sol\":2047:2104  beneficiaryMapping[_beneficiary].totalAmount += msg.value */\n      dup3\n      dup3\n      sload\n      tag_69\n      swap2\n      swap1\n      tag_58\n      jump\t// in\n    tag_69:\n      swap3\n      pop\n      pop\n      dup2\n      swap1\n      sstore\n      pop\n        /* \"contracts/test_work/CrowdFunding.sol\":852:2115  if (!hasBeneficiary[_beneficiary]) {... */\n    tag_62:\n        /* \"contracts/test_work/CrowdFunding.sol\":2130:2137  success */\n      dup1\n        /* \"contracts/test_work/CrowdFunding.sol\":2125:2202  if (!success) {... */\n      tag_70\n      jumpi\n        /* \"contracts/test_work/CrowdFunding.sol\":2178:2190  _beneficiary */\n      dup4\n        /* \"contracts/test_work/CrowdFunding.sol\":2160:2191  CorwdFunding_Fail(_beneficiary) */\n      mload(0x40)\n      0x0613935c00000000000000000000000000000000000000000000000000000000\n      dup2\n      mstore\n      0x04\n      add\n      tag_71\n      swap2\n      swap1\n      tag_14\n      jump\t// in\n    tag_71:\n      mload(0x40)\n      dup1\n      swap2\n      sub\n      swap1\n      revert\n        /* \"contracts/test_work/CrowdFunding.sol\":2125:2202  if (!success) {... */\n    tag_70:\n        /* \"contracts/test_work/CrowdFunding.sol\":687:2208  {... */\n      pop\n      pop\n      pop\n        /* \"contracts/test_work/CrowdFunding.sol\":621:2208  function startCorwdFunding(address _beneficiary) external payable {... */\n      pop\n      jump\t// out\n        /* \"contracts/test_work/CrowdFunding.sol\":2697:2870  function getBeneficiaryStatus(address _beneficiaryAdderess) public view  returns (bool) {... */\n    tag_34:\n        /* \"contracts/test_work/CrowdFunding.sol\":2779:2783  bool */\n      0x00\n        /* \"contracts/test_work/CrowdFunding.sol\":2802:2820  beneficiaryMapping */\n      0x02\n        /* \"contracts/test_work/CrowdFunding.sol\":2802:2842  beneficiaryMapping[_beneficiaryAdderess] */\n      0x00\n        /* \"contracts/test_work/CrowdFunding.sol\":2821:2841  _beneficiaryAdderess */\n      dup4\n        /* \"contracts/test_work/CrowdFunding.sol\":2802:2842  beneficiaryMapping[_beneficiaryAdderess] */\n      0xffffffffffffffffffffffffffffffffffffffff\n      and\n      0xffffffffffffffffffffffffffffffffffffffff\n      and\n      dup2\n      mstore\n      0x20\n      add\n      swap1\n      dup2\n      mstore\n      0x20\n      add\n      0x00\n      keccak256\n        /* \"contracts/test_work/CrowdFunding.sol\":2802:2863  beneficiaryMapping[_beneficiaryAdderess].is_need_CrowdFunding */\n      0x05\n      add\n      0x00\n      swap1\n      sload\n      swap1\n      0x0100\n      exp\n      swap1\n      div\n      0xff\n      and\n        /* \"contracts/test_work/CrowdFunding.sol\":2795:2863  return beneficiaryMapping[_beneficiaryAdderess].is_need_CrowdFunding */\n      swap1\n      pop\n        /* \"contracts/test_work/CrowdFunding.sol\":2697:2870  function getBeneficiaryStatus(address _beneficiaryAdderess) public view  returns (bool) {... */\n      swap2\n      swap1\n      pop\n      jump\t// out\n        /* \"contracts/test_work/CrowdFunding.sol\":2518:2691  function getBeneficiaryFunders(address _beneficiaryAdderess) public view  returns (address[] memory) {... */\n    tag_40:\n        /* \"contracts/test_work/CrowdFunding.sol\":2601:2617  address[] memory */\n      0x60\n        /* \"contracts/test_work/CrowdFunding.sol\":2636:2654  beneficiaryMapping */\n      0x02\n        /* \"contracts/test_work/CrowdFunding.sol\":2636:2676  beneficiaryMapping[_beneficiaryAdderess] */\n      0x00\n        /* \"contracts/test_work/CrowdFunding.sol\":2655:2675  _beneficiaryAdderess */\n      dup4\n        /* \"contracts/test_work/CrowdFunding.sol\":2636:2676  beneficiaryMapping[_beneficiaryAdderess] */\n      0xffffffffffffffffffffffffffffffffffffffff\n      and\n      0xffffffffffffffffffffffffffffffffffffffff\n      and\n      dup2\n      mstore\n      0x20\n      add\n      swap1\n      dup2\n      mstore\n      0x20\n      add\n      0x00\n      keccak256\n        /* \"contracts/test_work/CrowdFunding.sol\":2636:2684  beneficiaryMapping[_beneficiaryAdderess].funders */\n      0x03\n      add\n        /* \"contracts/test_work/CrowdFunding.sol\":2629:2684  return beneficiaryMapping[_beneficiaryAdderess].funders */\n      dup1\n      sload\n      dup1\n      0x20\n      mul\n      0x20\n      add\n      mload(0x40)\n      swap1\n      dup2\n      add\n      0x40\n      mstore\n      dup1\n      swap3\n      swap2\n      swap1\n      dup2\n      dup2\n      mstore\n      0x20\n      add\n      dup3\n      dup1\n      sload\n      dup1\n      iszero\n      tag_74\n      jumpi\n      0x20\n      mul\n      dup3\n      add\n      swap2\n      swap1\n      0x00\n      mstore\n      keccak256(0x00, 0x20)\n      swap1\n    tag_75:\n      dup2\n      0x00\n      swap1\n      sload\n      swap1\n      0x0100\n      exp\n      swap1\n      div\n      0xffffffffffffffffffffffffffffffffffffffff\n      and\n      0xffffffffffffffffffffffffffffffffffffffff\n      and\n      dup2\n      mstore\n      0x20\n      add\n      swap1\n      0x01\n      add\n      swap1\n      dup1\n      dup4\n      gt\n      tag_75\n      jumpi\n    tag_74:\n      pop\n      pop\n      pop\n      pop\n      pop\n      swap1\n      pop\n        /* \"contracts/test_work/CrowdFunding.sol\":2518:2691  function getBeneficiaryFunders(address _beneficiaryAdderess) public view  returns (address[] memory) {... */\n      swap2\n      swap1\n      pop\n      jump\t// out\n        /* \"#utility.yul\":88:205   */\n    tag_77:\n        /* \"#utility.yul\":197:198   */\n      0x00\n        /* \"#utility.yul\":194:195   */\n      dup1\n        /* \"#utility.yul\":187:199   */\n      revert\n        /* \"#utility.yul\":334:411   */\n    tag_79:\n        /* \"#utility.yul\":371:378   */\n      0x00\n        /* \"#utility.yul\":400:405   */\n      dup2\n        /* \"#utility.yul\":389:405   */\n      swap1\n      pop\n        /* \"#utility.yul\":334:411   */\n      swap2\n      swap1\n      pop\n      jump\t// out\n        /* \"#utility.yul\":417:539   */\n    tag_80:\n        /* \"#utility.yul\":490:514   */\n      tag_107\n        /* \"#utility.yul\":508:513   */\n      dup2\n        /* \"#utility.yul\":490:514   */\n      tag_79\n      jump\t// in\n    tag_107:\n        /* \"#utility.yul\":483:488   */\n      dup2\n        /* \"#utility.yul\":480:515   */\n      eq\n        /* \"#utility.yul\":470:533   */\n      tag_108\n      jumpi\n        /* \"#utility.yul\":529:530   */\n      0x00\n        /* \"#utility.yul\":526:527   */\n      dup1\n        /* \"#utility.yul\":519:531   */\n      revert\n        /* \"#utility.yul\":470:533   */\n    tag_108:\n        /* \"#utility.yul\":417:539   */\n      pop\n      jump\t// out\n        /* \"#utility.yul\":545:684   */\n    tag_81:\n        /* \"#utility.yul\":591:596   */\n      0x00\n        /* \"#utility.yul\":629:635   */\n      dup2\n        /* \"#utility.yul\":616:636   */\n      calldataload\n        /* \"#utility.yul\":607:636   */\n      swap1\n      pop\n        /* \"#utility.yul\":645:678   */\n      tag_110\n        /* \"#utility.yul\":672:677   */\n      dup2\n        /* \"#utility.yul\":645:678   */\n      tag_80\n      jump\t// in\n    tag_110:\n        /* \"#utility.yul\":545:684   */\n      swap3\n      swap2\n      pop\n      pop\n      jump\t// out\n        /* \"#utility.yul\":690:1019   */\n    tag_11:\n        /* \"#utility.yul\":749:755   */\n      0x00\n        /* \"#utility.yul\":798:800   */\n      0x20\n        /* \"#utility.yul\":786:795   */\n      dup3\n        /* \"#utility.yul\":777:784   */\n      dup5\n        /* \"#utility.yul\":773:796   */\n      sub\n        /* \"#utility.yul\":769:801   */\n      slt\n        /* \"#utility.yul\":766:885   */\n      iszero\n      tag_112\n      jumpi\n        /* \"#utility.yul\":804:883   */\n      tag_113\n      tag_77\n      jump\t// in\n    tag_113:\n        /* \"#utility.yul\":766:885   */\n    tag_112:\n        /* \"#utility.yul\":924:925   */\n      0x00\n        /* \"#utility.yul\":949:1002   */\n      tag_114\n        /* \"#utility.yul\":994:1001   */\n      dup5\n        /* \"#utility.yul\":985:991   */\n      dup3\n        /* \"#utility.yul\":974:983   */\n      dup6\n        /* \"#utility.yul\":970:992   */\n      add\n        /* \"#utility.yul\":949:1002   */\n      tag_81\n      jump\t// in\n    tag_114:\n        /* \"#utility.yul\":939:1002   */\n      swap2\n      pop\n        /* \"#utility.yul\":895:1012   */\n      pop\n        /* \"#utility.yul\":690:1019   */\n      swap3\n      swap2\n      pop\n      pop\n      jump\t// out\n        /* \"#utility.yul\":1025:1151   */\n    tag_82:\n        /* \"#utility.yul\":1062:1069   */\n      0x00\n        /* \"#utility.yul\":1102:1144   */\n      0xffffffffffffffffffffffffffffffffffffffff\n        /* \"#utility.yul\":1095:1100   */\n      dup3\n        /* \"#utility.yul\":1091:1145   */\n      and\n        /* \"#utility.yul\":1080:1145   */\n      swap1\n      pop\n        /* \"#utility.yul\":1025:1151   */\n      swap2\n      swap1\n      pop\n      jump\t// out\n        /* \"#utility.yul\":1157:1253   */\n    tag_83:\n        /* \"#utility.yul\":1194:1201   */\n      0x00\n        /* \"#utility.yul\":1223:1247   */\n      tag_117\n        /* \"#utility.yul\":1241:1246   */\n      dup3\n        /* \"#utility.yul\":1223:1247   */\n      tag_82\n      jump\t// in\n    tag_117:\n        /* \"#utility.yul\":1212:1247   */\n      swap1\n      pop\n        /* \"#utility.yul\":1157:1253   */\n      swap2\n      swap1\n      pop\n      jump\t// out\n        /* \"#utility.yul\":1259:1377   */\n    tag_84:\n        /* \"#utility.yul\":1346:1370   */\n      tag_119\n        /* \"#utility.yul\":1364:1369   */\n      dup2\n        /* \"#utility.yul\":1346:1370   */\n      tag_83\n      jump\t// in\n    tag_119:\n        /* \"#utility.yul\":1341:1344   */\n      dup3\n        /* \"#utility.yul\":1334:1371   */\n      mstore\n        /* \"#utility.yul\":1259:1377   */\n      pop\n      pop\n      jump\t// out\n        /* \"#utility.yul\":1383:1605   */\n    tag_14:\n        /* \"#utility.yul\":1476:1480   */\n      0x00\n        /* \"#utility.yul\":1514:1516   */\n      0x20\n        /* \"#utility.yul\":1503:1512   */\n      dup3\n        /* \"#utility.yul\":1499:1517   */\n      add\n        /* \"#utility.yul\":1491:1517   */\n      swap1\n      pop\n        /* \"#utility.yul\":1527:1598   */\n      tag_121\n        /* \"#utility.yul\":1595:1596   */\n      0x00\n        /* \"#utility.yul\":1584:1593   */\n      dup4\n        /* \"#utility.yul\":1580:1597   */\n      add\n        /* \"#utility.yul\":1571:1577   */\n      dup5\n        /* \"#utility.yul\":1527:1598   */\n      tag_84\n      jump\t// in\n    tag_121:\n        /* \"#utility.yul\":1383:1605   */\n      swap3\n      swap2\n      pop\n      pop\n      jump\t// out\n        /* \"#utility.yul\":1611:1733   */\n    tag_85:\n        /* \"#utility.yul\":1684:1708   */\n      tag_123\n        /* \"#utility.yul\":1702:1707   */\n      dup2\n        /* \"#utility.yul\":1684:1708   */\n      tag_83\n      jump\t// in\n    tag_123:\n        /* \"#utility.yul\":1677:1682   */\n      dup2\n        /* \"#utility.yul\":1674:1709   */\n      eq\n        /* \"#utility.yul\":1664:1727   */\n      tag_124\n      jumpi\n        /* \"#utility.yul\":1723:1724   */\n      0x00\n        /* \"#utility.yul\":1720:1721   */\n      dup1\n        /* \"#utility.yul\":1713:1725   */\n      revert\n        /* \"#utility.yul\":1664:1727   */\n    tag_124:\n        /* \"#utility.yul\":1611:1733   */\n      pop\n      jump\t// out\n        /* \"#utility.yul\":1739:1878   */\n    tag_86:\n        /* \"#utility.yul\":1785:1790   */\n      0x00\n        /* \"#utility.yul\":1823:1829   */\n      dup2\n        /* \"#utility.yul\":1810:1830   */\n      calldataload\n        /* \"#utility.yul\":1801:1830   */\n      swap1\n      pop\n        /* \"#utility.yul\":1839:1872   */\n      tag_126\n        /* \"#utility.yul\":1866:1871   */\n      dup2\n        /* \"#utility.yul\":1839:1872   */\n      tag_85\n      jump\t// in\n    tag_126:\n        /* \"#utility.yul\":1739:1878   */\n      swap3\n      swap2\n      pop\n      pop\n      jump\t// out\n        /* \"#utility.yul\":1884:2358   */\n    tag_18:\n        /* \"#utility.yul\":1952:1958   */\n      0x00\n        /* \"#utility.yul\":1960:1966   */\n      dup1\n        /* \"#utility.yul\":2009:2011   */\n      0x40\n        /* \"#utility.yul\":1997:2006   */\n      dup4\n        /* \"#utility.yul\":1988:1995   */\n      dup6\n        /* \"#utility.yul\":1984:2007   */\n      sub\n        /* \"#utility.yul\":1980:2012   */\n      slt\n        /* \"#utility.yul\":1977:2096   */\n      iszero\n      tag_128\n      jumpi\n        /* \"#utility.yul\":2015:2094   */\n      tag_129\n      tag_77\n      jump\t// in\n    tag_129:\n        /* \"#utility.yul\":1977:2096   */\n    tag_128:\n        /* \"#utility.yul\":2135:2136   */\n      0x00\n        /* \"#utility.yul\":2160:2213   */\n      tag_130\n        /* \"#utility.yul\":2205:2212   */\n      dup6\n        /* \"#utility.yul\":2196:2202   */\n      dup3\n        /* \"#utility.yul\":2185:2194   */\n      dup7\n        /* \"#utility.yul\":2181:2203   */\n      add\n        /* \"#utility.yul\":2160:2213   */\n      tag_86\n      jump\t// in\n    tag_130:\n        /* \"#utility.yul\":2150:2213   */\n      swap3\n      pop\n        /* \"#utility.yul\":2106:2223   */\n      pop\n        /* \"#utility.yul\":2262:2264   */\n      0x20\n        /* \"#utility.yul\":2288:2341   */\n      tag_131\n        /* \"#utility.yul\":2333:2340   */\n      dup6\n        /* \"#utility.yul\":2324:2330   */\n      dup3\n        /* \"#utility.yul\":2313:2322   */\n      dup7\n        /* \"#utility.yul\":2309:2331   */\n      add\n        /* \"#utility.yul\":2288:2341   */\n      tag_86\n      jump\t// in\n    tag_131:\n        /* \"#utility.yul\":2278:2341   */\n      swap2\n      pop\n        /* \"#utility.yul\":2233:2351   */\n      pop\n        /* \"#utility.yul\":1884:2358   */\n      swap3\n      pop\n      swap3\n      swap1\n      pop\n      jump\t// out\n        /* \"#utility.yul\":2364:2482   */\n    tag_87:\n        /* \"#utility.yul\":2451:2475   */\n      tag_133\n        /* \"#utility.yul\":2469:2474   */\n      dup2\n        /* \"#utility.yul\":2451:2475   */\n      tag_79\n      jump\t// in\n    tag_133:\n        /* \"#utility.yul\":2446:2449   */\n      dup3\n        /* \"#utility.yul\":2439:2476   */\n      mstore\n        /* \"#utility.yul\":2364:2482   */\n      pop\n      pop\n      jump\t// out\n        /* \"#utility.yul\":2488:2710   */\n    tag_21:\n        /* \"#utility.yul\":2581:2585   */\n      0x00\n        /* \"#utility.yul\":2619:2621   */\n      0x20\n        /* \"#utility.yul\":2608:2617   */\n      dup3\n        /* \"#utility.yul\":2604:2622   */\n      add\n        /* \"#utility.yul\":2596:2622   */\n      swap1\n      pop\n        /* \"#utility.yul\":2632:2703   */\n      tag_135\n        /* \"#utility.yul\":2700:2701   */\n      0x00\n        /* \"#utility.yul\":2689:2698   */\n      dup4\n        /* \"#utility.yul\":2685:2702   */\n      add\n        /* \"#utility.yul\":2676:2682   */\n      dup5\n        /* \"#utility.yul\":2632:2703   */\n      tag_87\n      jump\t// in\n    tag_135:\n        /* \"#utility.yul\":2488:2710   */\n      swap3\n      swap2\n      pop\n      pop\n      jump\t// out\n        /* \"#utility.yul\":2716:3045   */\n    tag_25:\n        /* \"#utility.yul\":2775:2781   */\n      0x00\n        /* \"#utility.yul\":2824:2826   */\n      0x20\n        /* \"#utility.yul\":2812:2821   */\n      dup3\n        /* \"#utility.yul\":2803:2810   */\n      dup5\n        /* \"#utility.yul\":2799:2822   */\n      sub\n        /* \"#utility.yul\":2795:2827   */\n      slt\n        /* \"#utility.yul\":2792:2911   */\n      iszero\n      tag_137\n      jumpi\n        /* \"#utility.yul\":2830:2909   */\n      tag_138\n      tag_77\n      jump\t// in\n    tag_138:\n        /* \"#utility.yul\":2792:2911   */\n    tag_137:\n        /* \"#utility.yul\":2950:2951   */\n      0x00\n        /* \"#utility.yul\":2975:3028   */\n      tag_139\n        /* \"#utility.yul\":3020:3027   */\n      dup5\n        /* \"#utility.yul\":3011:3017   */\n      dup3\n        /* \"#utility.yul\":3000:3009   */\n      dup6\n        /* \"#utility.yul\":2996:3018   */\n      add\n        /* \"#utility.yul\":2975:3028   */\n      tag_86\n      jump\t// in\n    tag_139:\n        /* \"#utility.yul\":2965:3028   */\n      swap2\n      pop\n        /* \"#utility.yul\":2921:3038   */\n      pop\n        /* \"#utility.yul\":2716:3045   */\n      swap3\n      swap2\n      pop\n      pop\n      jump\t// out\n        /* \"#utility.yul\":3051:3141   */\n    tag_88:\n        /* \"#utility.yul\":3085:3092   */\n      0x00\n        /* \"#utility.yul\":3128:3133   */\n      dup2\n        /* \"#utility.yul\":3121:3134   */\n      iszero\n        /* \"#utility.yul\":3114:3135   */\n      iszero\n        /* \"#utility.yul\":3103:3135   */\n      swap1\n      pop\n        /* \"#utility.yul\":3051:3141   */\n      swap2\n      swap1\n      pop\n      jump\t// out\n        /* \"#utility.yul\":3147:3256   */\n    tag_89:\n        /* \"#utility.yul\":3228:3249   */\n      tag_142\n        /* \"#utility.yul\":3243:3248   */\n      dup2\n        /* \"#utility.yul\":3228:3249   */\n      tag_88\n      jump\t// in\n    tag_142:\n        /* \"#utility.yul\":3223:3226   */\n      dup3\n        /* \"#utility.yul\":3216:3250   */\n      mstore\n        /* \"#utility.yul\":3147:3256   */\n      pop\n      pop\n      jump\t// out\n        /* \"#utility.yul\":3262:3472   */\n    tag_36:\n        /* \"#utility.yul\":3349:3353   */\n      0x00\n        /* \"#utility.yul\":3387:3389   */\n      0x20\n        /* \"#utility.yul\":3376:3385   */\n      dup3\n        /* \"#utility.yul\":3372:3390   */\n      add\n        /* \"#utility.yul\":3364:3390   */\n      swap1\n      pop\n        /* \"#utility.yul\":3400:3465   */\n      tag_144\n        /* \"#utility.yul\":3462:3463   */\n      0x00\n        /* \"#utility.yul\":3451:3460   */\n      dup4\n        /* \"#utility.yul\":3447:3464   */\n      add\n        /* \"#utility.yul\":3438:3444   */\n      dup5\n        /* \"#utility.yul\":3400:3465   */\n      tag_89\n      jump\t// in\n    tag_144:\n        /* \"#utility.yul\":3262:3472   */\n      swap3\n      swap2\n      pop\n      pop\n      jump\t// out\n        /* \"#utility.yul\":3478:3592   */\n    tag_90:\n        /* \"#utility.yul\":3545:3551   */\n      0x00\n        /* \"#utility.yul\":3579:3584   */\n      dup2\n        /* \"#utility.yul\":3573:3585   */\n      mload\n        /* \"#utility.yul\":3563:3585   */\n      swap1\n      pop\n        /* \"#utility.yul\":3478:3592   */\n      swap2\n      swap1\n      pop\n      jump\t// out\n        /* \"#utility.yul\":3598:3782   */\n    tag_91:\n        /* \"#utility.yul\":3697:3708   */\n      0x00\n        /* \"#utility.yul\":3731:3737   */\n      dup3\n        /* \"#utility.yul\":3726:3729   */\n      dup3\n        /* \"#utility.yul\":3719:3738   */\n      mstore\n        /* \"#utility.yul\":3771:3775   */\n      0x20\n        /* \"#utility.yul\":3766:3769   */\n      dup3\n        /* \"#utility.yul\":3762:3776   */\n      add\n        /* \"#utility.yul\":3747:3776   */\n      swap1\n      pop\n        /* \"#utility.yul\":3598:3782   */\n      swap3\n      swap2\n      pop\n      pop\n      jump\t// out\n        /* \"#utility.yul\":3788:3920   */\n    tag_92:\n        /* \"#utility.yul\":3855:3859   */\n      0x00\n        /* \"#utility.yul\":3878:3881   */\n      dup2\n        /* \"#utility.yul\":3870:3881   */\n      swap1\n      pop\n        /* \"#utility.yul\":3908:3912   */\n      0x20\n        /* \"#utility.yul\":3903:3906   */\n      dup3\n        /* \"#utility.yul\":3899:3913   */\n      add\n        /* \"#utility.yul\":3891:3913   */\n      swap1\n      pop\n        /* \"#utility.yul\":3788:3920   */\n      swap2\n      swap1\n      pop\n      jump\t// out\n        /* \"#utility.yul\":3926:4034   */\n    tag_93:\n        /* \"#utility.yul\":4003:4027   */\n      tag_149\n        /* \"#utility.yul\":4021:4026   */\n      dup2\n        /* \"#utility.yul\":4003:4027   */\n      tag_83\n      jump\t// in\n    tag_149:\n        /* \"#utility.yul\":3998:4001   */\n      dup3\n        /* \"#utility.yul\":3991:4028   */\n      mstore\n        /* \"#utility.yul\":3926:4034   */\n      pop\n      pop\n      jump\t// out\n        /* \"#utility.yul\":4040:4219   */\n    tag_94:\n        /* \"#utility.yul\":4109:4119   */\n      0x00\n        /* \"#utility.yul\":4130:4176   */\n      tag_151\n        /* \"#utility.yul\":4172:4175   */\n      dup4\n        /* \"#utility.yul\":4164:4170   */\n      dup4\n        /* \"#utility.yul\":4130:4176   */\n      tag_93\n      jump\t// in\n    tag_151:\n        /* \"#utility.yul\":4208:4212   */\n      0x20\n        /* \"#utility.yul\":4203:4206   */\n      dup4\n        /* \"#utility.yul\":4199:4213   */\n      add\n        /* \"#utility.yul\":4185:4213   */\n      swap1\n      pop\n        /* \"#utility.yul\":4040:4219   */\n      swap3\n      swap2\n      pop\n      pop\n      jump\t// out\n        /* \"#utility.yul\":4225:4338   */\n    tag_95:\n        /* \"#utility.yul\":4295:4299   */\n      0x00\n        /* \"#utility.yul\":4327:4331   */\n      0x20\n        /* \"#utility.yul\":4322:4325   */\n      dup3\n        /* \"#utility.yul\":4318:4332   */\n      add\n        /* \"#utility.yul\":4310:4332   */\n      swap1\n      pop\n        /* \"#utility.yul\":4225:4338   */\n      swap2\n      swap1\n      pop\n      jump\t// out\n        /* \"#utility.yul\":4374:5106   */\n    tag_96:\n        /* \"#utility.yul\":4493:4496   */\n      0x00\n        /* \"#utility.yul\":4522:4576   */\n      tag_154\n        /* \"#utility.yul\":4570:4575   */\n      dup3\n        /* \"#utility.yul\":4522:4576   */\n      tag_90\n      jump\t// in\n    tag_154:\n        /* \"#utility.yul\":4592:4678   */\n      tag_155\n        /* \"#utility.yul\":4671:4677   */\n      dup2\n        /* \"#utility.yul\":4666:4669   */\n      dup6\n        /* \"#utility.yul\":4592:4678   */\n      tag_91\n      jump\t// in\n    tag_155:\n        /* \"#utility.yul\":4585:4678   */\n      swap4\n      pop\n        /* \"#utility.yul\":4702:4758   */\n      tag_156\n        /* \"#utility.yul\":4752:4757   */\n      dup4\n        /* \"#utility.yul\":4702:4758   */\n      tag_92\n      jump\t// in\n    tag_156:\n        /* \"#utility.yul\":4781:4788   */\n      dup1\n        /* \"#utility.yul\":4812:4813   */\n      0x00\n        /* \"#utility.yul\":4797:5081   */\n    tag_157:\n        /* \"#utility.yul\":4822:4828   */\n      dup4\n        /* \"#utility.yul\":4819:4820   */\n      dup2\n        /* \"#utility.yul\":4816:4829   */\n      lt\n        /* \"#utility.yul\":4797:5081   */\n      iszero\n      tag_159\n      jumpi\n        /* \"#utility.yul\":4898:4904   */\n      dup2\n        /* \"#utility.yul\":4892:4905   */\n      mload\n        /* \"#utility.yul\":4925:4988   */\n      tag_160\n        /* \"#utility.yul\":4984:4987   */\n      dup9\n        /* \"#utility.yul\":4969:4982   */\n      dup3\n        /* \"#utility.yul\":4925:4988   */\n      tag_94\n      jump\t// in\n    tag_160:\n        /* \"#utility.yul\":4918:4988   */\n      swap8\n      pop\n        /* \"#utility.yul\":5011:5071   */\n      tag_161\n        /* \"#utility.yul\":5064:5070   */\n      dup4\n        /* \"#utility.yul\":5011:5071   */\n      tag_95\n      jump\t// in\n    tag_161:\n        /* \"#utility.yul\":5001:5071   */\n      swap3\n      pop\n        /* \"#utility.yul\":4857:5081   */\n      pop\n        /* \"#utility.yul\":4844:4845   */\n      0x01\n        /* \"#utility.yul\":4841:4842   */\n      dup2\n        /* \"#utility.yul\":4837:4846   */\n      add\n        /* \"#utility.yul\":4832:4846   */\n      swap1\n      pop\n        /* \"#utility.yul\":4797:5081   */\n      jump(tag_157)\n    tag_159:\n        /* \"#utility.yul\":4801:4815   */\n      pop\n        /* \"#utility.yul\":5097:5100   */\n      dup6\n        /* \"#utility.yul\":5090:5100   */\n      swap4\n      pop\n        /* \"#utility.yul\":4498:5106   */\n      pop\n      pop\n      pop\n        /* \"#utility.yul\":4374:5106   */\n      swap3\n      swap2\n      pop\n      pop\n      jump\t// out\n        /* \"#utility.yul\":5112:5485   */\n    tag_42:\n        /* \"#utility.yul\":5255:5259   */\n      0x00\n        /* \"#utility.yul\":5293:5295   */\n      0x20\n        /* \"#utility.yul\":5282:5291   */\n      dup3\n        /* \"#utility.yul\":5278:5296   */\n      add\n        /* \"#utility.yul\":5270:5296   */\n      swap1\n      pop\n        /* \"#utility.yul\":5342:5351   */\n      dup2\n        /* \"#utility.yul\":5336:5340   */\n      dup2\n        /* \"#utility.yul\":5332:5352   */\n      sub\n        /* \"#utility.yul\":5328:5329   */\n      0x00\n        /* \"#utility.yul\":5317:5326   */\n      dup4\n        /* \"#utility.yul\":5313:5330   */\n      add\n        /* \"#utility.yul\":5306:5353   */\n      mstore\n        /* \"#utility.yul\":5370:5478   */\n      tag_163\n        /* \"#utility.yul\":5473:5477   */\n      dup2\n        /* \"#utility.yul\":5464:5470   */\n      dup5\n        /* \"#utility.yul\":5370:5478   */\n      tag_96\n      jump\t// in\n    tag_163:\n        /* \"#utility.yul\":5362:5478   */\n      swap1\n      pop\n        /* \"#utility.yul\":5112:5485   */\n      swap3\n      swap2\n      pop\n      pop\n      jump\t// out\n        /* \"#utility.yul\":5491:5671   */\n    tag_46:\n        /* \"#utility.yul\":5539:5616   */\n      0x4e487b7100000000000000000000000000000000000000000000000000000000\n        /* \"#utility.yul\":5536:5537   */\n      0x00\n        /* \"#utility.yul\":5529:5617   */\n      mstore\n        /* \"#utility.yul\":5636:5640   */\n      0x32\n        /* \"#utility.yul\":5633:5634   */\n      0x04\n        /* \"#utility.yul\":5626:5641   */\n      mstore\n        /* \"#utility.yul\":5660:5664   */\n      0x24\n        /* \"#utility.yul\":5657:5658   */\n      0x00\n        /* \"#utility.yul\":5650:5665   */\n      revert\n        /* \"#utility.yul\":5677:5824   */\n    tag_97:\n        /* \"#utility.yul\":5778:5789   */\n      0x00\n        /* \"#utility.yul\":5815:5818   */\n      dup2\n        /* \"#utility.yul\":5800:5818   */\n      swap1\n      pop\n        /* \"#utility.yul\":5677:5824   */\n      swap3\n      swap2\n      pop\n      pop\n      jump\t// out\n        /* \"#utility.yul\":5830:5944   */\n    tag_98:\n      pop\n      jump\t// out\n        /* \"#utility.yul\":5950:6348   */\n    tag_99:\n        /* \"#utility.yul\":6109:6112   */\n      0x00\n        /* \"#utility.yul\":6130:6213   */\n      tag_168\n        /* \"#utility.yul\":6211:6212   */\n      0x00\n        /* \"#utility.yul\":6206:6209   */\n      dup4\n        /* \"#utility.yul\":6130:6213   */\n      tag_97\n      jump\t// in\n    tag_168:\n        /* \"#utility.yul\":6123:6213   */\n      swap2\n      pop\n        /* \"#utility.yul\":6222:6315   */\n      tag_169\n        /* \"#utility.yul\":6311:6314   */\n      dup3\n        /* \"#utility.yul\":6222:6315   */\n      tag_98\n      jump\t// in\n    tag_169:\n        /* \"#utility.yul\":6340:6341   */\n      0x00\n        /* \"#utility.yul\":6335:6338   */\n      dup3\n        /* \"#utility.yul\":6331:6342   */\n      add\n        /* \"#utility.yul\":6324:6342   */\n      swap1\n      pop\n        /* \"#utility.yul\":5950:6348   */\n      swap2\n      swap1\n      pop\n      jump\t// out\n        /* \"#utility.yul\":6354:6733   */\n    tag_52:\n        /* \"#utility.yul\":6538:6541   */\n      0x00\n        /* \"#utility.yul\":6560:6707   */\n      tag_171\n        /* \"#utility.yul\":6703:6706   */\n      dup3\n        /* \"#utility.yul\":6560:6707   */\n      tag_99\n      jump\t// in\n    tag_171:\n        /* \"#utility.yul\":6553:6707   */\n      swap2\n      pop\n        /* \"#utility.yul\":6724:6727   */\n      dup2\n        /* \"#utility.yul\":6717:6727   */\n      swap1\n      pop\n        /* \"#utility.yul\":6354:6733   */\n      swap2\n      swap1\n      pop\n      jump\t// out\n        /* \"#utility.yul\":6739:6919   */\n    tag_100:\n        /* \"#utility.yul\":6787:6864   */\n      0x4e487b7100000000000000000000000000000000000000000000000000000000\n        /* \"#utility.yul\":6784:6785   */\n      0x00\n        /* \"#utility.yul\":6777:6865   */\n      mstore\n        /* \"#utility.yul\":6884:6888   */\n      0x11\n        /* \"#utility.yul\":6881:6882   */\n      0x04\n        /* \"#utility.yul\":6874:6889   */\n      mstore\n        /* \"#utility.yul\":6908:6912   */\n      0x24\n        /* \"#utility.yul\":6905:6906   */\n      0x00\n        /* \"#utility.yul\":6898:6913   */\n      revert\n        /* \"#utility.yul\":6925:7116   */\n    tag_58:\n        /* \"#utility.yul\":6965:6968   */\n      0x00\n        /* \"#utility.yul\":6984:7004   */\n      tag_174\n        /* \"#utility.yul\":7002:7003   */\n      dup3\n        /* \"#utility.yul\":6984:7004   */\n      tag_79\n      jump\t// in\n    tag_174:\n        /* \"#utility.yul\":6979:7004   */\n      swap2\n      pop\n        /* \"#utility.yul\":7018:7038   */\n      tag_175\n        /* \"#utility.yul\":7036:7037   */\n      dup4\n        /* \"#utility.yul\":7018:7038   */\n      tag_79\n      jump\t// in\n    tag_175:\n        /* \"#utility.yul\":7013:7038   */\n      swap3\n      pop\n        /* \"#utility.yul\":7061:7062   */\n      dup3\n        /* \"#utility.yul\":7058:7059   */\n      dup3\n        /* \"#utility.yul\":7054:7063   */\n      add\n        /* \"#utility.yul\":7047:7063   */\n      swap1\n      pop\n        /* \"#utility.yul\":7082:7085   */\n      dup1\n        /* \"#utility.yul\":7079:7080   */\n      dup3\n        /* \"#utility.yul\":7076:7086   */\n      gt\n        /* \"#utility.yul\":7073:7109   */\n      iszero\n      tag_176\n      jumpi\n        /* \"#utility.yul\":7089:7107   */\n      tag_177\n      tag_100\n      jump\t// in\n    tag_177:\n        /* \"#utility.yul\":7073:7109   */\n    tag_176:\n        /* \"#utility.yul\":6925:7116   */\n      swap3\n      swap2\n      pop\n      pop\n      jump\t// out\n\n    auxdata: 0xa26469706673582212203f4b8a5325a203e8bafacd1393a06db63cc6098b518d9f0d5797fea994e507c364736f6c63430008180033\n}\n",
				"bytecode": {
					"linkReferences": {},
					"object": "608060405234801561000f575f80fd5b50610e0c8061001d5f395ff3fe608060405260043610610054575f3560e01c8063302df083146100585780633b2f559d1461009457806370b80eb6146100d0578063ac8e831b1461010c578063d5247dda14610128578063e9c0ad1e14610164575b5f80fd5b348015610063575f80fd5b5061007e60048036038101906100799190610ac0565b6101a0565b60405161008b9190610b2a565b60405180910390f35b34801561009f575f80fd5b506100ba60048036038101906100b59190610b6d565b6101e3565b6040516100c79190610bba565b60405180910390f35b3480156100db575f80fd5b506100f660048036038101906100f19190610bd3565b610268565b6040516101039190610bba565b60405180910390f35b61012660048036038101906101219190610bd3565b6102b1565b005b348015610133575f80fd5b5061014e60048036038101906101499190610bd3565b610969565b60405161015b9190610c18565b60405180910390f35b34801561016f575f80fd5b5061018a60048036038101906101859190610bd3565b6109be565b6040516101979190610ce8565b60405180910390f35b5f8082815481106101b4576101b3610d08565b5b905f5260205f20015f9054906101000a900473ffffffffffffffffffffffffffffffffffffffff169050919050565b5f60025f8473ffffffffffffffffffffffffffffffffffffffff1673ffffffffffffffffffffffffffffffffffffffff1681526020019081526020015f206001015f8373ffffffffffffffffffffffffffffffffffffffff1673ffffffffffffffffffffffffffffffffffffffff1681526020019081526020015f2054905092915050565b5f60025f8373ffffffffffffffffffffffffffffffffffffffff1673ffffffffffffffffffffffffffffffffffffffff1681526020019081526020015f20600201549050919050565b5f3490505f3390505f8373ffffffffffffffffffffffffffffffffffffffff16836040516102de90610d62565b5f6040518083038185875af1925050503d805f8114610318576040519150601f19603f3d011682016040523d82523d5f602084013e61031d565b606091505b5050905060015f8573ffffffffffffffffffffffffffffffffffffffff1673ffffffffffffffffffffffffffffffffffffffff1681526020019081526020015f205f9054906101000a900460ff166105ed576001805f8673ffffffffffffffffffffffffffffffffffffffff1673ffffffffffffffffffffffffffffffffffffffff1681526020019081526020015f205f6101000a81548160ff0219169083151502179055505f60025f8673ffffffffffffffffffffffffffffffffffffffff1673ffffffffffffffffffffffffffffffffffffffff1681526020019081526020015f20905084815f015f6101000a81548173ffffffffffffffffffffffffffffffffffffffff021916908373ffffffffffffffffffffffffffffffffffffffff1602179055506001816005015f6101000a81548160ff02191690831515021790555034816002015f8282546104739190610da3565b925050819055506001816004015f8573ffffffffffffffffffffffffffffffffffffffff1673ffffffffffffffffffffffffffffffffffffffff1681526020019081526020015f205f6101000a81548160ff0219169083151502179055508060030183908060018154018082558091505060019003905f5260205f20015f9091909190916101000a81548173ffffffffffffffffffffffffffffffffffffffff021916908373ffffffffffffffffffffffffffffffffffffffff16021790555034816001015f8573ffffffffffffffffffffffffffffffffffffffff1673ffffffffffffffffffffffffffffffffffffffff1681526020019081526020015f205f8282546105819190610da3565b925050819055505f85908060018154018082558091505060019003905f5260205f20015f9091909190916101000a81548173ffffffffffffffffffffffffffffffffffffffff021916908373ffffffffffffffffffffffffffffffffffffffff16021790555050610921565b60025f8573ffffffffffffffffffffffffffffffffffffffff1673ffffffffffffffffffffffffffffffffffffffff1681526020019081526020015f206005015f9054906101000a900460ff1661067b57836040517f8d52abfb0000000000000000000000000000000000000000000000000000000081526004016106729190610b2a565b60405180910390fd5b60025f8573ffffffffffffffffffffffffffffffffffffffff1673ffffffffffffffffffffffffffffffffffffffff1681526020019081526020015f206004015f8373ffffffffffffffffffffffffffffffffffffffff1673ffffffffffffffffffffffffffffffffffffffff1681526020019081526020015f205f9054906101000a900460ff1661083957600160025f8673ffffffffffffffffffffffffffffffffffffffff1673ffffffffffffffffffffffffffffffffffffffff1681526020019081526020015f206004015f8473ffffffffffffffffffffffffffffffffffffffff1673ffffffffffffffffffffffffffffffffffffffff1681526020019081526020015f205f6101000a81548160ff02191690831515021790555060025f8573ffffffffffffffffffffffffffffffffffffffff1673ffffffffffffffffffffffffffffffffffffffff1681526020019081526020015f2060030182908060018154018082558091505060019003905f5260205f20015f9091909190916101000a81548173ffffffffffffffffffffffffffffffffffffffff021916908373ffffffffffffffffffffffffffffffffffffffff1602179055505b3460025f8673ffffffffffffffffffffffffffffffffffffffff1673ffffffffffffffffffffffffffffffffffffffff1681526020019081526020015f206001015f8473ffffffffffffffffffffffffffffffffffffffff1673ffffffffffffffffffffffffffffffffffffffff1681526020019081526020015f205f8282546108c39190610da3565b925050819055503460025f8673ffffffffffffffffffffffffffffffffffffffff1673ffffffffffffffffffffffffffffffffffffffff1681526020019081526020015f206002015f8282546109199190610da3565b925050819055505b8061096357836040517f0613935c00000000000000000000000000000000000000000000000000000000815260040161095a9190610b2a565b60405180910390fd5b50505050565b5f60025f8373ffffffffffffffffffffffffffffffffffffffff1673ffffffffffffffffffffffffffffffffffffffff1681526020019081526020015f206005015f9054906101000a900460ff169050919050565b606060025f8373ffffffffffffffffffffffffffffffffffffffff1673ffffffffffffffffffffffffffffffffffffffff1681526020019081526020015f20600301805480602002602001604051908101604052809291908181526020018280548015610a7d57602002820191905f5260205f20905b815f9054906101000a900473ffffffffffffffffffffffffffffffffffffffff1673ffffffffffffffffffffffffffffffffffffffff1681526020019060010190808311610a34575b50505050509050919050565b5f80fd5b5f819050919050565b610a9f81610a8d565b8114610aa9575f80fd5b50565b5f81359050610aba81610a96565b92915050565b5f60208284031215610ad557610ad4610a89565b5b5f610ae284828501610aac565b91505092915050565b5f73ffffffffffffffffffffffffffffffffffffffff82169050919050565b5f610b1482610aeb565b9050919050565b610b2481610b0a565b82525050565b5f602082019050610b3d5f830184610b1b565b92915050565b610b4c81610b0a565b8114610b56575f80fd5b50565b5f81359050610b6781610b43565b92915050565b5f8060408385031215610b8357610b82610a89565b5b5f610b9085828601610b59565b9250506020610ba185828601610b59565b9150509250929050565b610bb481610a8d565b82525050565b5f602082019050610bcd5f830184610bab565b92915050565b5f60208284031215610be857610be7610a89565b5b5f610bf584828501610b59565b91505092915050565b5f8115159050919050565b610c1281610bfe565b82525050565b5f602082019050610c2b5f830184610c09565b92915050565b5f81519050919050565b5f82825260208201905092915050565b5f819050602082019050919050565b610c6381610b0a565b82525050565b5f610c748383610c5a565b60208301905092915050565b5f602082019050919050565b5f610c9682610c31565b610ca08185610c3b565b9350610cab83610c4b565b805f5b83811015610cdb578151610cc28882610c69565b9750610ccd83610c80565b925050600181019050610cae565b5085935050505092915050565b5f6020820190508181035f830152610d008184610c8c565b905092915050565b7f4e487b71000000000000000000000000000000000000000000000000000000005f52603260045260245ffd5b5f81905092915050565b50565b5f610d4d5f83610d35565b9150610d5882610d3f565b5f82019050919050565b5f610d6c82610d42565b9150819050919050565b7f4e487b71000000000000000000000000000000000000000000000000000000005f52601160045260245ffd5b5f610dad82610a8d565b9150610db883610a8d565b9250828201905080821115610dd057610dcf610d76565b5b9291505056fea26469706673582212203f4b8a5325a203e8bafacd1393a06db63cc6098b518d9f0d5797fea994e507c364736f6c63430008180033",
					"opcodes": "PUSH1 0x80 PUSH1 0x40 MSTORE CALLVALUE DUP1 ISZERO PUSH2 0xF JUMPI PUSH0 DUP1 REVERT JUMPDEST POP PUSH2 0xE0C DUP1 PUSH2 0x1D PUSH0 CODECOPY PUSH0 RETURN INVALID PUSH1 0x80 PUSH1 0x40 MSTORE PUSH1 0x4 CALLDATASIZE LT PUSH2 0x54 JUMPI PUSH0 CALLDATALOAD PUSH1 0xE0 SHR DUP1 PUSH4 0x302DF083 EQ PUSH2 0x58 JUMPI DUP1 PUSH4 0x3B2F559D EQ PUSH2 0x94 JUMPI DUP1 PUSH4 0x70B80EB6 EQ PUSH2 0xD0 JUMPI DUP1 PUSH4 0xAC8E831B EQ PUSH2 0x10C JUMPI DUP1 PUSH4 0xD5247DDA EQ PUSH2 0x128 JUMPI DUP1 PUSH4 0xE9C0AD1E EQ PUSH2 0x164 JUMPI JUMPDEST PUSH0 DUP1 REVERT JUMPDEST CALLVALUE DUP1 ISZERO PUSH2 0x63 JUMPI PUSH0 DUP1 REVERT JUMPDEST POP PUSH2 0x7E PUSH1 0x4 DUP1 CALLDATASIZE SUB DUP2 ADD SWAP1 PUSH2 0x79 SWAP2 SWAP1 PUSH2 0xAC0 JUMP JUMPDEST PUSH2 0x1A0 JUMP JUMPDEST PUSH1 0x40 MLOAD PUSH2 0x8B SWAP2 SWAP1 PUSH2 0xB2A JUMP JUMPDEST PUSH1 0x40 MLOAD DUP1 SWAP2 SUB SWAP1 RETURN JUMPDEST CALLVALUE DUP1 ISZERO PUSH2 0x9F JUMPI PUSH0 DUP1 REVERT JUMPDEST POP PUSH2 0xBA PUSH1 0x4 DUP1 CALLDATASIZE SUB DUP2 ADD SWAP1 PUSH2 0xB5 SWAP2 SWAP1 PUSH2 0xB6D JUMP JUMPDEST PUSH2 0x1E3 JUMP JUMPDEST PUSH1 0x40 MLOAD PUSH2 0xC7 SWAP2 SWAP1 PUSH2 0xBBA JUMP JUMPDEST PUSH1 0x40 MLOAD DUP1 SWAP2 SUB SWAP1 RETURN JUMPDEST CALLVALUE DUP1 ISZERO PUSH2 0xDB JUMPI PUSH0 DUP1 REVERT JUMPDEST POP PUSH2 0xF6 PUSH1 0x4 DUP1 CALLDATASIZE SUB DUP2 ADD SWAP1 PUSH2 0xF1 SWAP2 SWAP1 PUSH2 0xBD3 JUMP JUMPDEST PUSH2 0x268 JUMP JUMPDEST PUSH1 0x40 MLOAD PUSH2 0x103 SWAP2 SWAP1 PUSH2 0xBBA JUMP JUMPDEST PUSH1 0x40 MLOAD DUP1 SWAP2 SUB SWAP1 RETURN JUMPDEST PUSH2 0x126 PUSH1 0x4 DUP1 CALLDATASIZE SUB DUP2 ADD SWAP1 PUSH2 0x121 SWAP2 SWAP1 PUSH2 0xBD3 JUMP JUMPDEST PUSH2 0x2B1 JUMP JUMPDEST STOP JUMPDEST CALLVALUE DUP1 ISZERO PUSH2 0x133 JUMPI PUSH0 DUP1 REVERT JUMPDEST POP PUSH2 0x14E PUSH1 0x4 DUP1 CALLDATASIZE SUB DUP2 ADD SWAP1 PUSH2 0x149 SWAP2 SWAP1 PUSH2 0xBD3 JUMP JUMPDEST PUSH2 0x969 JUMP JUMPDEST PUSH1 0x40 MLOAD PUSH2 0x15B SWAP2 SWAP1 PUSH2 0xC18 JUMP JUMPDEST PUSH1 0x40 MLOAD DUP1 SWAP2 SUB SWAP1 RETURN JUMPDEST CALLVALUE DUP1 ISZERO PUSH2 0x16F JUMPI PUSH0 DUP1 REVERT JUMPDEST POP PUSH2 0x18A PUSH1 0x4 DUP1 CALLDATASIZE SUB DUP2 ADD SWAP1 PUSH2 0x185 SWAP2 SWAP1 PUSH2 0xBD3 JUMP JUMPDEST PUSH2 0x9BE JUMP JUMPDEST PUSH1 0x40 MLOAD PUSH2 0x197 SWAP2 SWAP1 PUSH2 0xCE8 JUMP JUMPDEST PUSH1 0x40 MLOAD DUP1 SWAP2 SUB SWAP1 RETURN JUMPDEST PUSH0 DUP1 DUP3 DUP2 SLOAD DUP2 LT PUSH2 0x1B4 JUMPI PUSH2 0x1B3 PUSH2 0xD08 JUMP JUMPDEST JUMPDEST SWAP1 PUSH0 MSTORE PUSH1 0x20 PUSH0 KECCAK256 ADD PUSH0 SWAP1 SLOAD SWAP1 PUSH2 0x100 EXP SWAP1 DIV PUSH20 0xFFFFFFFFFFFFFFFFFFFFFFFFFFFFFFFFFFFFFFFF AND SWAP1 POP SWAP2 SWAP1 POP JUMP JUMPDEST PUSH0 PUSH1 0x2 PUSH0 DUP5 PUSH20 0xFFFFFFFFFFFFFFFFFFFFFFFFFFFFFFFFFFFFFFFF AND PUSH20 0xFFFFFFFFFFFFFFFFFFFFFFFFFFFFFFFFFFFFFFFF AND DUP2 MSTORE PUSH1 0x20 ADD SWAP1 DUP2 MSTORE PUSH1 0x20 ADD PUSH0 KECCAK256 PUSH1 0x1 ADD PUSH0 DUP4 PUSH20 0xFFFFFFFFFFFFFFFFFFFFFFFFFFFFFFFFFFFFFFFF AND PUSH20 0xFFFFFFFFFFFFFFFFFFFFFFFFFFFFFFFFFFFFFFFF AND DUP2 MSTORE PUSH1 0x20 ADD SWAP1 DUP2 MSTORE PUSH1 0x20 ADD PUSH0 KECCAK256 SLOAD SWAP1 POP SWAP3 SWAP2 POP POP JUMP JUMPDEST PUSH0 PUSH1 0x2 PUSH0 DUP4 PUSH20 0xFFFFFFFFFFFFFFFFFFFFFFFFFFFFFFFFFFFFFFFF AND PUSH20 0xFFFFFFFFFFFFFFFFFFFFFFFFFFFFFFFFFFFFFFFF AND DUP2 MSTORE PUSH1 0x20 ADD SWAP1 DUP2 MSTORE PUSH1 0x20 ADD PUSH0 KECCAK256 PUSH1 0x2 ADD SLOAD SWAP1 POP SWAP2 SWAP1 POP JUMP JUMPDEST PUSH0 CALLVALUE SWAP1 POP PUSH0 CALLER SWAP1 POP PUSH0 DUP4 PUSH20 0xFFFFFFFFFFFFFFFFFFFFFFFFFFFFFFFFFFFFFFFF AND DUP4 PUSH1 0x40 MLOAD PUSH2 0x2DE SWAP1 PUSH2 0xD62 JUMP JUMPDEST PUSH0 PUSH1 0x40 MLOAD DUP1 DUP4 SUB DUP2 DUP6 DUP8 GAS CALL SWAP3 POP POP POP RETURNDATASIZE DUP1 PUSH0 DUP2 EQ PUSH2 0x318 JUMPI PUSH1 0x40 MLOAD SWAP2 POP PUSH1 0x1F NOT PUSH1 0x3F RETURNDATASIZE ADD AND DUP3 ADD PUSH1 0x40 MSTORE RETURNDATASIZE DUP3 MSTORE RETURNDATASIZE PUSH0 PUSH1 0x20 DUP5 ADD RETURNDATACOPY PUSH2 0x31D JUMP JUMPDEST PUSH1 0x60 SWAP2 POP JUMPDEST POP POP SWAP1 POP PUSH1 0x1 PUSH0 DUP6 PUSH20 0xFFFFFFFFFFFFFFFFFFFFFFFFFFFFFFFFFFFFFFFF AND PUSH20 0xFFFFFFFFFFFFFFFFFFFFFFFFFFFFFFFFFFFFFFFF AND DUP2 MSTORE PUSH1 0x20 ADD SWAP1 DUP2 MSTORE PUSH1 0x20 ADD PUSH0 KECCAK256 PUSH0 SWAP1 SLOAD SWAP1 PUSH2 0x100 EXP SWAP1 DIV PUSH1 0xFF AND PUSH2 0x5ED JUMPI PUSH1 0x1 DUP1 PUSH0 DUP7 PUSH20 0xFFFFFFFFFFFFFFFFFFFFFFFFFFFFFFFFFFFFFFFF AND PUSH20 0xFFFFFFFFFFFFFFFFFFFFFFFFFFFFFFFFFFFFFFFF AND DUP2 MSTORE PUSH1 0x20 ADD SWAP1 DUP2 MSTORE PUSH1 0x20 ADD PUSH0 KECCAK256 PUSH0 PUSH2 0x100 EXP DUP2 SLOAD DUP2 PUSH1 0xFF MUL NOT AND SWAP1 DUP4 ISZERO ISZERO MUL OR SWAP1 SSTORE POP PUSH0 PUSH1 0x2 PUSH0 DUP7 PUSH20 0xFFFFFFFFFFFFFFFFFFFFFFFFFFFFFFFFFFFFFFFF AND PUSH20 0xFFFFFFFFFFFFFFFFFFFFFFFFFFFFFFFFFFFFFFFF AND DUP2 MSTORE PUSH1 0x20 ADD SWAP1 DUP2 MSTORE PUSH1 0x20 ADD PUSH0 KECCAK256 SWAP1 POP DUP5 DUP2 PUSH0 ADD PUSH0 PUSH2 0x100 EXP DUP2 SLOAD DUP2 PUSH20 0xFFFFFFFFFFFFFFFFFFFFFFFFFFFFFFFFFFFFFFFF MUL NOT AND SWAP1 DUP4 PUSH20 0xFFFFFFFFFFFFFFFFFFFFFFFFFFFFFFFFFFFFFFFF AND MUL OR SWAP1 SSTORE POP PUSH1 0x1 DUP2 PUSH1 0x5 ADD PUSH0 PUSH2 0x100 EXP DUP2 SLOAD DUP2 PUSH1 0xFF MUL NOT AND SWAP1 DUP4 ISZERO ISZERO MUL OR SWAP1 SSTORE POP CALLVALUE DUP2 PUSH1 0x2 ADD PUSH0 DUP3 DUP3 SLOAD PUSH2 0x473 SWAP2 SWAP1 PUSH2 0xDA3 JUMP JUMPDEST SWAP3 POP POP DUP2 SWAP1 SSTORE POP PUSH1 0x1 DUP2 PUSH1 0x4 ADD PUSH0 DUP6 PUSH20 0xFFFFFFFFFFFFFFFFFFFFFFFFFFFFFFFFFFFFFFFF AND PUSH20 0xFFFFFFFFFFFFFFFFFFFFFFFFFFFFFFFFFFFFFFFF AND DUP2 MSTORE PUSH1 0x20 ADD SWAP1 DUP2 MSTORE PUSH1 0x20 ADD PUSH0 KECCAK256 PUSH0 PUSH2 0x100 EXP DUP2 SLOAD DUP2 PUSH1 0xFF MUL NOT AND SWAP1 DUP4 ISZERO ISZERO MUL OR SWAP1 SSTORE POP DUP1 PUSH1 0x3 ADD DUP4 SWAP1 DUP1 PUSH1 0x1 DUP2 SLOAD ADD DUP1 DUP3 SSTORE DUP1 SWAP2 POP POP PUSH1 0x1 SWAP1 SUB SWAP1 PUSH0 MSTORE PUSH1 0x20 PUSH0 KECCAK256 ADD PUSH0 SWAP1 SWAP2 SWAP1 SWAP2 SWAP1 SWAP2 PUSH2 0x100 EXP DUP2 SLOAD DUP2 PUSH20 0xFFFFFFFFFFFFFFFFFFFFFFFFFFFFFFFFFFFFFFFF MUL NOT AND SWAP1 DUP4 PUSH20 0xFFFFFFFFFFFFFFFFFFFFFFFFFFFFFFFFFFFFFFFF AND MUL OR SWAP1 SSTORE POP CALLVALUE DUP2 PUSH1 0x1 ADD PUSH0 DUP6 PUSH20 0xFFFFFFFFFFFFFFFFFFFFFFFFFFFFFFFFFFFFFFFF AND PUSH20 0xFFFFFFFFFFFFFFFFFFFFFFFFFFFFFFFFFFFFFFFF AND DUP2 MSTORE PUSH1 0x20 ADD SWAP1 DUP2 MSTORE PUSH1 0x20 ADD PUSH0 KECCAK256 PUSH0 DUP3 DUP3 SLOAD PUSH2 0x581 SWAP2 SWAP1 PUSH2 0xDA3 JUMP JUMPDEST SWAP3 POP POP DUP2 SWAP1 SSTORE POP PUSH0 DUP6 SWAP1 DUP1 PUSH1 0x1 DUP2 SLOAD ADD DUP1 DUP3 SSTORE DUP1 SWAP2 POP POP PUSH1 0x1 SWAP1 SUB SWAP1 PUSH0 MSTORE PUSH1 0x20 PUSH0 KECCAK256 ADD PUSH0 SWAP1 SWAP2 SWAP1 SWAP2 SWAP1 SWAP2 PUSH2 0x100 EXP DUP2 SLOAD DUP2 PUSH20 0xFFFFFFFFFFFFFFFFFFFFFFFFFFFFFFFFFFFFFFFF MUL NOT AND SWAP1 DUP4 PUSH20 0xFFFFFFFFFFFFFFFFFFFFFFFFFFFFFFFFFFFFFFFF AND MUL OR SWAP1 SSTORE POP POP PUSH2 0x921 JUMP JUMPDEST PUSH1 0x2 PUSH0 DUP6 PUSH20 0xFFFFFFFFFFFFFFFFFFFFFFFFFFFFFFFFFFFFFFFF AND PUSH20 0xFFFFFFFFFFFFFFFFFFFFFFFFFFFFFFFFFFFFFFFF AND DUP2 MSTORE PUSH1 0x20 ADD SWAP1 DUP2 MSTORE PUSH1 0x20 ADD PUSH0 KECCAK256 PUSH1 0x5 ADD PUSH0 SWAP1 SLOAD SWAP1 PUSH2 0x100 EXP SWAP1 DIV PUSH1 0xFF AND PUSH2 0x67B JUMPI DUP4 PUSH1 0x40 MLOAD PUSH32 0x8D52ABFB00000000000000000000000000000000000000000000000000000000 DUP2 MSTORE PUSH1 0x4 ADD PUSH2 0x672 SWAP2 SWAP1 PUSH2 0xB2A JUMP JUMPDEST PUSH1 0x40 MLOAD DUP1 SWAP2 SUB SWAP1 REVERT JUMPDEST PUSH1 0x2 PUSH0 DUP6 PUSH20 0xFFFFFFFFFFFFFFFFFFFFFFFFFFFFFFFFFFFFFFFF AND PUSH20 0xFFFFFFFFFFFFFFFFFFFFFFFFFFFFFFFFFFFFFFFF AND DUP2 MSTORE PUSH1 0x20 ADD SWAP1 DUP2 MSTORE PUSH1 0x20 ADD PUSH0 KECCAK256 PUSH1 0x4 ADD PUSH0 DUP4 PUSH20 0xFFFFFFFFFFFFFFFFFFFFFFFFFFFFFFFFFFFFFFFF AND PUSH20 0xFFFFFFFFFFFFFFFFFFFFFFFFFFFFFFFFFFFFFFFF AND DUP2 MSTORE PUSH1 0x20 ADD SWAP1 DUP2 MSTORE PUSH1 0x20 ADD PUSH0 KECCAK256 PUSH0 SWAP1 SLOAD SWAP1 PUSH2 0x100 EXP SWAP1 DIV PUSH1 0xFF AND PUSH2 0x839 JUMPI PUSH1 0x1 PUSH1 0x2 PUSH0 DUP7 PUSH20 0xFFFFFFFFFFFFFFFFFFFFFFFFFFFFFFFFFFFFFFFF AND PUSH20 0xFFFFFFFFFFFFFFFFFFFFFFFFFFFFFFFFFFFFFFFF AND DUP2 MSTORE PUSH1 0x20 ADD SWAP1 DUP2 MSTORE PUSH1 0x20 ADD PUSH0 KECCAK256 PUSH1 0x4 ADD PUSH0 DUP5 PUSH20 0xFFFFFFFFFFFFFFFFFFFFFFFFFFFFFFFFFFFFFFFF AND PUSH20 0xFFFFFFFFFFFFFFFFFFFFFFFFFFFFFFFFFFFFFFFF AND DUP2 MSTORE PUSH1 0x20 ADD SWAP1 DUP2 MSTORE PUSH1 0x20 ADD PUSH0 KECCAK256 PUSH0 PUSH2 0x100 EXP DUP2 SLOAD DUP2 PUSH1 0xFF MUL NOT AND SWAP1 DUP4 ISZERO ISZERO MUL OR SWAP1 SSTORE POP PUSH1 0x2 PUSH0 DUP6 PUSH20 0xFFFFFFFFFFFFFFFFFFFFFFFFFFFFFFFFFFFFFFFF AND PUSH20 0xFFFFFFFFFFFFFFFFFFFFFFFFFFFFFFFFFFFFFFFF AND DUP2 MSTORE PUSH1 0x20 ADD SWAP1 DUP2 MSTORE PUSH1 0x20 ADD PUSH0 KECCAK256 PUSH1 0x3 ADD DUP3 SWAP1 DUP1 PUSH1 0x1 DUP2 SLOAD ADD DUP1 DUP3 SSTORE DUP1 SWAP2 POP POP PUSH1 0x1 SWAP1 SUB SWAP1 PUSH0 MSTORE PUSH1 0x20 PUSH0 KECCAK256 ADD PUSH0 SWAP1 SWAP2 SWAP1 SWAP2 SWAP1 SWAP2 PUSH2 0x100 EXP DUP2 SLOAD DUP2 PUSH20 0xFFFFFFFFFFFFFFFFFFFFFFFFFFFFFFFFFFFFFFFF MUL NOT AND SWAP1 DUP4 PUSH20 0xFFFFFFFFFFFFFFFFFFFFFFFFFFFFFFFFFFFFFFFF AND MUL OR SWAP1 SSTORE POP JUMPDEST CALLVALUE PUSH1 0x2 PUSH0 DUP7 PUSH20 0xFFFFFFFFFFFFFFFFFFFFFFFFFFFFFFFFFFFFFFFF AND PUSH20 0xFFFFFFFFFFFFFFFFFFFFFFFFFFFFFFFFFFFFFFFF AND DUP2 MSTORE PUSH1 0x20 ADD SWAP1 DUP2 MSTORE PUSH1 0x20 ADD PUSH0 KECCAK256 PUSH1 0x1 ADD PUSH0 DUP5 PUSH20 0xFFFFFFFFFFFFFFFFFFFFFFFFFFFFFFFFFFFFFFFF AND PUSH20 0xFFFFFFFFFFFFFFFFFFFFFFFFFFFFFFFFFFFFFFFF AND DUP2 MSTORE PUSH1 0x20 ADD SWAP1 DUP2 MSTORE PUSH1 0x20 ADD PUSH0 KECCAK256 PUSH0 DUP3 DUP3 SLOAD PUSH2 0x8C3 SWAP2 SWAP1 PUSH2 0xDA3 JUMP JUMPDEST SWAP3 POP POP DUP2 SWAP1 SSTORE POP CALLVALUE PUSH1 0x2 PUSH0 DUP7 PUSH20 0xFFFFFFFFFFFFFFFFFFFFFFFFFFFFFFFFFFFFFFFF AND PUSH20 0xFFFFFFFFFFFFFFFFFFFFFFFFFFFFFFFFFFFFFFFF AND DUP2 MSTORE PUSH1 0x20 ADD SWAP1 DUP2 MSTORE PUSH1 0x20 ADD PUSH0 KECCAK256 PUSH1 0x2 ADD PUSH0 DUP3 DUP3 SLOAD PUSH2 0x919 SWAP2 SWAP1 PUSH2 0xDA3 JUMP JUMPDEST SWAP3 POP POP DUP2 SWAP1 SSTORE POP JUMPDEST DUP1 PUSH2 0x963 JUMPI DUP4 PUSH1 0x40 MLOAD PUSH32 0x613935C00000000000000000000000000000000000000000000000000000000 DUP2 MSTORE PUSH1 0x4 ADD PUSH2 0x95A SWAP2 SWAP1 PUSH2 0xB2A JUMP JUMPDEST PUSH1 0x40 MLOAD DUP1 SWAP2 SUB SWAP1 REVERT JUMPDEST POP POP POP POP JUMP JUMPDEST PUSH0 PUSH1 0x2 PUSH0 DUP4 PUSH20 0xFFFFFFFFFFFFFFFFFFFFFFFFFFFFFFFFFFFFFFFF AND PUSH20 0xFFFFFFFFFFFFFFFFFFFFFFFFFFFFFFFFFFFFFFFF AND DUP2 MSTORE PUSH1 0x20 ADD SWAP1 DUP2 MSTORE PUSH1 0x20 ADD PUSH0 KECCAK256 PUSH1 0x5 ADD PUSH0 SWAP1 SLOAD SWAP1 PUSH2 0x100 EXP SWAP1 DIV PUSH1 0xFF AND SWAP1 POP SWAP2 SWAP1 POP JUMP JUMPDEST PUSH1 0x60 PUSH1 0x2 PUSH0 DUP4 PUSH20 0xFFFFFFFFFFFFFFFFFFFFFFFFFFFFFFFFFFFFFFFF AND PUSH20 0xFFFFFFFFFFFFFFFFFFFFFFFFFFFFFFFFFFFFFFFF AND DUP2 MSTORE PUSH1 0x20 ADD SWAP1 DUP2 MSTORE PUSH1 0x20 ADD PUSH0 KECCAK256 PUSH1 0x3 ADD DUP1 SLOAD DUP1 PUSH1 0x20 MUL PUSH1 0x20 ADD PUSH1 0x40 MLOAD SWAP1 DUP2 ADD PUSH1 0x40 MSTORE DUP1 SWAP3 SWAP2 SWAP1 DUP2 DUP2 MSTORE PUSH1 0x20 ADD DUP3 DUP1 SLOAD DUP1 ISZERO PUSH2 0xA7D JUMPI PUSH1 0x20 MUL DUP3 ADD SWAP2 SWAP1 PUSH0 MSTORE PUSH1 0x20 PUSH0 KECCAK256 SWAP1 JUMPDEST DUP2 PUSH0 SWAP1 SLOAD SWAP1 PUSH2 0x100 EXP SWAP1 DIV PUSH20 0xFFFFFFFFFFFFFFFFFFFFFFFFFFFFFFFFFFFFFFFF AND PUSH20 0xFFFFFFFFFFFFFFFFFFFFFFFFFFFFFFFFFFFFFFFF AND DUP2 MSTORE PUSH1 0x20 ADD SWAP1 PUSH1 0x1 ADD SWAP1 DUP1 DUP4 GT PUSH2 0xA34 JUMPI JUMPDEST POP POP POP POP POP SWAP1 POP SWAP2 SWAP1 POP JUMP JUMPDEST PUSH0 DUP1 REVERT JUMPDEST PUSH0 DUP2 SWAP1 POP SWAP2 SWAP1 POP JUMP JUMPDEST PUSH2 0xA9F DUP2 PUSH2 0xA8D JUMP JUMPDEST DUP2 EQ PUSH2 0xAA9 JUMPI PUSH0 DUP1 REVERT JUMPDEST POP JUMP JUMPDEST PUSH0 DUP2 CALLDATALOAD SWAP1 POP PUSH2 0xABA DUP2 PUSH2 0xA96 JUMP JUMPDEST SWAP3 SWAP2 POP POP JUMP JUMPDEST PUSH0 PUSH1 0x20 DUP3 DUP5 SUB SLT ISZERO PUSH2 0xAD5 JUMPI PUSH2 0xAD4 PUSH2 0xA89 JUMP JUMPDEST JUMPDEST PUSH0 PUSH2 0xAE2 DUP5 DUP3 DUP6 ADD PUSH2 0xAAC JUMP JUMPDEST SWAP2 POP POP SWAP3 SWAP2 POP POP JUMP JUMPDEST PUSH0 PUSH20 0xFFFFFFFFFFFFFFFFFFFFFFFFFFFFFFFFFFFFFFFF DUP3 AND SWAP1 POP SWAP2 SWAP1 POP JUMP JUMPDEST PUSH0 PUSH2 0xB14 DUP3 PUSH2 0xAEB JUMP JUMPDEST SWAP1 POP SWAP2 SWAP1 POP JUMP JUMPDEST PUSH2 0xB24 DUP2 PUSH2 0xB0A JUMP JUMPDEST DUP3 MSTORE POP POP JUMP JUMPDEST PUSH0 PUSH1 0x20 DUP3 ADD SWAP1 POP PUSH2 0xB3D PUSH0 DUP4 ADD DUP5 PUSH2 0xB1B JUMP JUMPDEST SWAP3 SWAP2 POP POP JUMP JUMPDEST PUSH2 0xB4C DUP2 PUSH2 0xB0A JUMP JUMPDEST DUP2 EQ PUSH2 0xB56 JUMPI PUSH0 DUP1 REVERT JUMPDEST POP JUMP JUMPDEST PUSH0 DUP2 CALLDATALOAD SWAP1 POP PUSH2 0xB67 DUP2 PUSH2 0xB43 JUMP JUMPDEST SWAP3 SWAP2 POP POP JUMP JUMPDEST PUSH0 DUP1 PUSH1 0x40 DUP4 DUP6 SUB SLT ISZERO PUSH2 0xB83 JUMPI PUSH2 0xB82 PUSH2 0xA89 JUMP JUMPDEST JUMPDEST PUSH0 PUSH2 0xB90 DUP6 DUP3 DUP7 ADD PUSH2 0xB59 JUMP JUMPDEST SWAP3 POP POP PUSH1 0x20 PUSH2 0xBA1 DUP6 DUP3 DUP7 ADD PUSH2 0xB59 JUMP JUMPDEST SWAP2 POP POP SWAP3 POP SWAP3 SWAP1 POP JUMP JUMPDEST PUSH2 0xBB4 DUP2 PUSH2 0xA8D JUMP JUMPDEST DUP3 MSTORE POP POP JUMP JUMPDEST PUSH0 PUSH1 0x20 DUP3 ADD SWAP1 POP PUSH2 0xBCD PUSH0 DUP4 ADD DUP5 PUSH2 0xBAB JUMP JUMPDEST SWAP3 SWAP2 POP POP JUMP JUMPDEST PUSH0 PUSH1 0x20 DUP3 DUP5 SUB SLT ISZERO PUSH2 0xBE8 JUMPI PUSH2 0xBE7 PUSH2 0xA89 JUMP JUMPDEST JUMPDEST PUSH0 PUSH2 0xBF5 DUP5 DUP3 DUP6 ADD PUSH2 0xB59 JUMP JUMPDEST SWAP2 POP POP SWAP3 SWAP2 POP POP JUMP JUMPDEST PUSH0 DUP2 ISZERO ISZERO SWAP1 POP SWAP2 SWAP1 POP JUMP JUMPDEST PUSH2 0xC12 DUP2 PUSH2 0xBFE JUMP JUMPDEST DUP3 MSTORE POP POP JUMP JUMPDEST PUSH0 PUSH1 0x20 DUP3 ADD SWAP1 POP PUSH2 0xC2B PUSH0 DUP4 ADD DUP5 PUSH2 0xC09 JUMP JUMPDEST SWAP3 SWAP2 POP POP JUMP JUMPDEST PUSH0 DUP2 MLOAD SWAP1 POP SWAP2 SWAP1 POP JUMP JUMPDEST PUSH0 DUP3 DUP3 MSTORE PUSH1 0x20 DUP3 ADD SWAP1 POP SWAP3 SWAP2 POP POP JUMP JUMPDEST PUSH0 DUP2 SWAP1 POP PUSH1 0x20 DUP3 ADD SWAP1 POP SWAP2 SWAP1 POP JUMP JUMPDEST PUSH2 0xC63 DUP2 PUSH2 0xB0A JUMP JUMPDEST DUP3 MSTORE POP POP JUMP JUMPDEST PUSH0 PUSH2 0xC74 DUP4 DUP4 PUSH2 0xC5A JUMP JUMPDEST PUSH1 0x20 DUP4 ADD SWAP1 POP SWAP3 SWAP2 POP POP JUMP JUMPDEST PUSH0 PUSH1 0x20 DUP3 ADD SWAP1 POP SWAP2 SWAP1 POP JUMP JUMPDEST PUSH0 PUSH2 0xC96 DUP3 PUSH2 0xC31 JUMP JUMPDEST PUSH2 0xCA0 DUP2 DUP6 PUSH2 0xC3B JUMP JUMPDEST SWAP4 POP PUSH2 0xCAB DUP4 PUSH2 0xC4B JUMP JUMPDEST DUP1 PUSH0 JUMPDEST DUP4 DUP2 LT ISZERO PUSH2 0xCDB JUMPI DUP2 MLOAD PUSH2 0xCC2 DUP9 DUP3 PUSH2 0xC69 JUMP JUMPDEST SWAP8 POP PUSH2 0xCCD DUP4 PUSH2 0xC80 JUMP JUMPDEST SWAP3 POP POP PUSH1 0x1 DUP2 ADD SWAP1 POP PUSH2 0xCAE JUMP JUMPDEST POP DUP6 SWAP4 POP POP POP POP SWAP3 SWAP2 POP POP JUMP JUMPDEST PUSH0 PUSH1 0x20 DUP3 ADD SWAP1 POP DUP2 DUP2 SUB PUSH0 DUP4 ADD MSTORE PUSH2 0xD00 DUP2 DUP5 PUSH2 0xC8C JUMP JUMPDEST SWAP1 POP SWAP3 SWAP2 POP POP JUMP JUMPDEST PUSH32 0x4E487B7100000000000000000000000000000000000000000000000000000000 PUSH0 MSTORE PUSH1 0x32 PUSH1 0x4 MSTORE PUSH1 0x24 PUSH0 REVERT JUMPDEST PUSH0 DUP2 SWAP1 POP SWAP3 SWAP2 POP POP JUMP JUMPDEST POP JUMP JUMPDEST PUSH0 PUSH2 0xD4D PUSH0 DUP4 PUSH2 0xD35 JUMP JUMPDEST SWAP2 POP PUSH2 0xD58 DUP3 PUSH2 0xD3F JUMP JUMPDEST PUSH0 DUP3 ADD SWAP1 POP SWAP2 SWAP1 POP JUMP JUMPDEST PUSH0 PUSH2 0xD6C DUP3 PUSH2 0xD42 JUMP JUMPDEST SWAP2 POP DUP2 SWAP1 POP SWAP2 SWAP1 POP JUMP JUMPDEST PUSH32 0x4E487B7100000000000000000000000000000000000000000000000000000000 PUSH0 MSTORE PUSH1 0x11 PUSH1 0x4 MSTORE PUSH1 0x24 PUSH0 REVERT JUMPDEST PUSH0 PUSH2 0xDAD DUP3 PUSH2 0xA8D JUMP JUMPDEST SWAP2 POP PUSH2 0xDB8 DUP4 PUSH2 0xA8D JUMP JUMPDEST SWAP3 POP DUP3 DUP3 ADD SWAP1 POP DUP1 DUP3 GT ISZERO PUSH2 0xDD0 JUMPI PUSH2 0xDCF PUSH2 0xD76 JUMP JUMPDEST JUMPDEST SWAP3 SWAP2 POP POP JUMP INVALID LOG2 PUSH5 0x6970667358 0x22 SLT KECCAK256 EXTCODEHASH 0x4B DUP11 MSTORE8 0x25 LOG2 SUB 0xE8 0xBA STATICCALL 0xCD SGT SWAP4 LOG0 PUSH14 0xB63CC6098B518D9F0D5797FEA994 0xE5 SMOD 0xC3 PUSH5 0x736F6C6343 STOP ADDMOD XOR STOP CALLER "
				},
				"gasEstimates": {
					"creation": {
						"codeDepositCost": "719200",
						"executionCost": "751",
						"totalCost": "719951"
					},
					"external": {
						"getBeneficiary(uint256)": "4932",
						"getBeneficiaryFunders(address)": "infinite",
						"getBeneficiaryStatus(address)": "2942",
						"getBeneficiaryTotalAmount(address)": "2857",
						"getFunderAmount(address,address)": "infinite",
						"startCorwdFunding(address)": "infinite"
					}
				},
				"methodIdentifiers": {
					"getBeneficiary(uint256)": "302df083",
					"getBeneficiaryFunders(address)": "e9c0ad1e",
					"getBeneficiaryStatus(address)": "d5247dda",
					"getBeneficiaryTotalAmount(address)": "70b80eb6",
					"getFunderAmount(address,address)": "3b2f559d",
					"startCorwdFunding(address)": "ac8e831b"
				}
			},
			"storageLayout": {
				"storage": [
					{
						"astId": 30,
						"contract": "contracts/test_work/CrowdFunding.sol:CrowdFunding",
						"label": "beneficiarys",
						"offset": 0,
						"slot": "0",
						"type": "t_array(t_address)dyn_storage"
					},
					{
						"astId": 34,
						"contract": "contracts/test_work/CrowdFunding.sol:CrowdFunding",
						"label": "hasBeneficiary",
						"offset": 0,
						"slot": "1",
						"type": "t_mapping(t_address,t_bool)"
					},
					{
						"astId": 39,
						"contract": "contracts/test_work/CrowdFunding.sol:CrowdFunding",
						"label": "beneficiaryMapping",
						"offset": 0,
						"slot": "2",
						"type": "t_mapping(t_address,t_struct(FunderInfo)27_storage)"
					}
				],
				"types": {
					"t_address": {
						"encoding": "inplace",
						"label": "address",
						"numberOfBytes": "20"
					},
					"t_array(t_address)dyn_storage": {
						"base": "t_address",
						"encoding": "dynamic_array",
						"label": "address[]",
						"numberOfBytes": "32"
					},
					"t_bool": {
						"encoding": "inplace",
						"label": "bool",
						"numberOfBytes": "1"
					},
					"t_mapping(t_address,t_bool)": {
						"encoding": "mapping",
						"key": "t_address",
						"label": "mapping(address => bool)",
						"numberOfBytes": "32",
						"value": "t_bool"
					},
					"t_mapping(t_address,t_struct(FunderInfo)27_storage)": {
						"encoding": "mapping",
						"key": "t_address",
						"label": "mapping(address => struct CrowdFunding.FunderInfo)",
						"numberOfBytes": "32",
						"value": "t_struct(FunderInfo)27_storage"
					},
					"t_mapping(t_address,t_uint256)": {
						"encoding": "mapping",
						"key": "t_address",
						"label": "mapping(address => uint256)",
						"numberOfBytes": "32",
						"value": "t_uint256"
					},
					"t_struct(FunderInfo)27_storage": {
						"encoding": "inplace",
						"label": "struct CrowdFunding.FunderInfo",
						"members": [
							{
								"astId": 11,
								"contract": "contracts/test_work/CrowdFunding.sol:CrowdFunding",
								"label": "beneficiary",
								"offset": 0,
								"slot": "0",
								"type": "t_address"
							},
							{
								"astId": 15,
								"contract": "contracts/test_work/CrowdFunding.sol:CrowdFunding",
								"label": "funderMapping",
								"offset": 0,
								"slot": "1",
								"type": "t_mapping(t_address,t_uint256)"
							},
							{
								"astId": 17,
								"contract": "contracts/test_work/CrowdFunding.sol:CrowdFunding",
								"label": "totalAmount",
								"offset": 0,
								"slot": "2",
								"type": "t_uint256"
							},
							{
								"astId": 20,
								"contract": "contracts/test_work/CrowdFunding.sol:CrowdFunding",
								"label": "funders",
								"offset": 0,
								"slot": "3",
								"type": "t_array(t_address)dyn_storage"
							},
							{
								"astId": 24,
								"contract": "contracts/test_work/CrowdFunding.sol:CrowdFunding",
								"label": "hasFunderAddress",
								"offset": 0,
								"slot": "4",
								"type": "t_mapping(t_address,t_bool)"
							},
							{
								"astId": 26,
								"contract": "contracts/test_work/CrowdFunding.sol:CrowdFunding",
								"label": "is_need_CrowdFunding",
								"offset": 0,
								"slot": "5",
								"type": "t_bool"
							}
						],
						"numberOfBytes": "192"
					},
					"t_uint256": {
						"encoding": "inplace",
						"label": "uint256",
						"numberOfBytes": "32"
					}
				}
			},
			"userdoc": {
				"kind": "user",
				"methods": {},
				"version": 1
			}
		}
	}
}