{
	"contracts/test_work/MultiWallet.sol": {
		"MultiWallet": {
			"abi": [
				{
					"inputs": [
						{
							"internalType": "address[]",
							"name": "_addressArr",
							"type": "address[]"
						},
						{
							"internalType": "uint16",
							"name": "_sign_count",
							"type": "uint16"
						}
					],
					"stateMutability": "nonpayable",
					"type": "constructor"
				},
				{
					"inputs": [
						{
							"internalType": "address",
							"name": "sponsor",
							"type": "address"
						}
					],
					"name": "Invalid_Transaction",
					"type": "error"
				},
				{
					"anonymous": false,
					"inputs": [
						{
							"indexed": false,
							"internalType": "address",
							"name": "sponsor",
							"type": "address"
						},
						{
							"indexed": false,
							"internalType": "address",
							"name": "approve",
							"type": "address"
						}
					],
					"name": "Already_Approve",
					"type": "event"
				},
				{
					"anonymous": false,
					"inputs": [
						{
							"indexed": false,
							"internalType": "address",
							"name": "sponsor",
							"type": "address"
						}
					],
					"name": "Execute_Finish",
					"type": "event"
				},
				{
					"inputs": [
						{
							"internalType": "address",
							"name": "sponsor",
							"type": "address"
						}
					],
					"name": "approve",
					"outputs": [],
					"stateMutability": "nonpayable",
					"type": "function"
				},
				{
					"inputs": [
						{
							"internalType": "address",
							"name": "sponsor",
							"type": "address"
						}
					],
					"name": "cancel",
					"outputs": [],
					"stateMutability": "nonpayable",
					"type": "function"
				},
				{
					"inputs": [
						{
							"internalType": "address",
							"name": "sponsor",
							"type": "address"
						}
					],
					"name": "execute",
					"outputs": [],
					"stateMutability": "nonpayable",
					"type": "function"
				},
				{
					"inputs": [],
					"name": "getLowSignCount",
					"outputs": [
						{
							"internalType": "uint16",
							"name": "",
							"type": "uint16"
						}
					],
					"stateMutability": "view",
					"type": "function"
				},
				{
					"inputs": [
						{
							"internalType": "address",
							"name": "sponsor",
							"type": "address"
						}
					],
					"name": "getSponsorStatus",
					"outputs": [
						{
							"internalType": "enum MultiWallet.TxStatus",
							"name": "",
							"type": "uint8"
						}
					],
					"stateMutability": "view",
					"type": "function"
				},
				{
					"inputs": [
						{
							"internalType": "address",
							"name": "sponsor",
							"type": "address"
						}
					],
					"name": "getSponsorapprove",
					"outputs": [
						{
							"internalType": "address[]",
							"name": "",
							"type": "address[]"
						}
					],
					"stateMutability": "view",
					"type": "function"
				},
				{
					"inputs": [
						{
							"internalType": "address",
							"name": "sponsor",
							"type": "address"
						}
					],
					"name": "getSponsorapproveCount",
					"outputs": [
						{
							"internalType": "uint256",
							"name": "",
							"type": "uint256"
						}
					],
					"stateMutability": "view",
					"type": "function"
				},
				{
					"inputs": [],
					"name": "submit",
					"outputs": [],
					"stateMutability": "payable",
					"type": "function"
				}
			],
			"devdoc": {
				"kind": "dev",
				"methods": {},
				"version": 1
			},
			"evm": {
				"assembly": "    /* \"contracts/test_work/MultiWallet.sol\":145:3628  contract MultiWallet {... */\n  mstore(0x40, 0xa0)\n    /* \"contracts/test_work/MultiWallet.sol\":765:900  constructor(address[] memory _addressArr, uint16 _sign_count) {... */\n  callvalue\n  dup1\n  iszero\n  tag_1\n  jumpi\n  0x00\n  dup1\n  revert\ntag_1:\n  pop\n  mload(0x40)\n  sub(codesize, bytecodeSize)\n  dup1\n  bytecodeSize\n  dup4\n  codecopy\n  dup2\n  dup2\n  add\n  0x40\n  mstore\n  dup2\n  add\n  swap1\n  tag_2\n  swap2\n  swap1\n  tag_3\n  jump\t// in\ntag_2:\n    /* \"contracts/test_work/MultiWallet.sol\":848:859  _addressArr */\n  dup2\n    /* \"contracts/test_work/MultiWallet.sol\":837:845  allOwner */\n  0x00\n    /* \"contracts/test_work/MultiWallet.sol\":837:859  allOwner = _addressArr */\n  swap1\n  dup1\n  mload\n  swap1\n  0x20\n  add\n  swap1\n  tag_6\n  swap3\n  swap2\n  swap1\n  tag_7\n  jump\t// in\ntag_6:\n  pop\n    /* \"contracts/test_work/MultiWallet.sol\":882:893  _sign_count */\n  dup1\n    /* \"contracts/test_work/MultiWallet.sol\":869:893  sign_count = _sign_count */\n  0xffff\n  and\n  0x80\n  dup2\n  0xffff\n  and\n  dup2\n  mstore\n  pop\n  pop\n    /* \"contracts/test_work/MultiWallet.sol\":765:900  constructor(address[] memory _addressArr, uint16 _sign_count) {... */\n  pop\n  pop\n    /* \"contracts/test_work/MultiWallet.sol\":145:3628  contract MultiWallet {... */\n  jump(tag_8)\ntag_7:\n  dup3\n  dup1\n  sload\n  dup3\n  dup3\n  sstore\n  swap1\n  0x00\n  mstore\n  keccak256(0x00, 0x20)\n  swap1\n  dup2\n  add\n  swap3\n  dup3\n  iszero\n  tag_9\n  jumpi\n  swap2\n  0x20\n  mul\n  dup3\n  add\ntag_10:\n  dup3\n  dup2\n  gt\n  iszero\n  tag_11\n  jumpi\n  dup3\n  mload\n  dup3\n  exp(0x0100, 0x00)\n  dup2\n  sload\n  dup2\n  0xffffffffffffffffffffffffffffffffffffffff\n  mul\n  not\n  and\n  swap1\n  dup4\n  0xffffffffffffffffffffffffffffffffffffffff\n  and\n  mul\n  or\n  swap1\n  sstore\n  pop\n  swap2\n  0x20\n  add\n  swap2\n  swap1\n  0x01\n  add\n  swap1\n  jump(tag_10)\ntag_11:\ntag_9:\n  pop\n  swap1\n  pop\n  tag_12\n  swap2\n  swap1\n  tag_13\n  jump\t// in\ntag_12:\n  pop\n  swap1\n  jump\t// out\ntag_13:\ntag_14:\n  dup1\n  dup3\n  gt\n  iszero\n  tag_15\n  jumpi\n  0x00\n  dup2\n  0x00\n  swap1\n  sstore\n  pop\n  0x01\n  add\n  jump(tag_14)\ntag_15:\n  pop\n  swap1\n  jump\t// out\n    /* \"#utility.yul\":7:82   */\ntag_16:\n    /* \"#utility.yul\":40:46   */\n  0x00\n    /* \"#utility.yul\":73:75   */\n  0x40\n    /* \"#utility.yul\":67:76   */\n  mload\n    /* \"#utility.yul\":57:76   */\n  swap1\n  pop\n    /* \"#utility.yul\":7:82   */\n  swap1\n  jump\t// out\n    /* \"#utility.yul\":88:205   */\ntag_17:\n    /* \"#utility.yul\":197:198   */\n  0x00\n    /* \"#utility.yul\":194:195   */\n  dup1\n    /* \"#utility.yul\":187:199   */\n  revert\n    /* \"#utility.yul\":211:328   */\ntag_18:\n    /* \"#utility.yul\":320:321   */\n  0x00\n    /* \"#utility.yul\":317:318   */\n  dup1\n    /* \"#utility.yul\":310:322   */\n  revert\n    /* \"#utility.yul\":334:451   */\ntag_19:\n    /* \"#utility.yul\":443:444   */\n  0x00\n    /* \"#utility.yul\":440:441   */\n  dup1\n    /* \"#utility.yul\":433:445   */\n  revert\n    /* \"#utility.yul\":457:559   */\ntag_20:\n    /* \"#utility.yul\":498:504   */\n  0x00\n    /* \"#utility.yul\":549:551   */\n  0x1f\n    /* \"#utility.yul\":545:552   */\n  not\n    /* \"#utility.yul\":540:542   */\n  0x1f\n    /* \"#utility.yul\":533:538   */\n  dup4\n    /* \"#utility.yul\":529:543   */\n  add\n    /* \"#utility.yul\":525:553   */\n  and\n    /* \"#utility.yul\":515:553   */\n  swap1\n  pop\n    /* \"#utility.yul\":457:559   */\n  swap2\n  swap1\n  pop\n  jump\t// out\n    /* \"#utility.yul\":565:745   */\ntag_21:\n    /* \"#utility.yul\":613:690   */\n  0x4e487b7100000000000000000000000000000000000000000000000000000000\n    /* \"#utility.yul\":610:611   */\n  0x00\n    /* \"#utility.yul\":603:691   */\n  mstore\n    /* \"#utility.yul\":710:714   */\n  0x41\n    /* \"#utility.yul\":707:708   */\n  0x04\n    /* \"#utility.yul\":700:715   */\n  mstore\n    /* \"#utility.yul\":734:738   */\n  0x24\n    /* \"#utility.yul\":731:732   */\n  0x00\n    /* \"#utility.yul\":724:739   */\n  revert\n    /* \"#utility.yul\":751:1032   */\ntag_22:\n    /* \"#utility.yul\":834:861   */\n  tag_43\n    /* \"#utility.yul\":856:860   */\n  dup3\n    /* \"#utility.yul\":834:861   */\n  tag_20\n  jump\t// in\ntag_43:\n    /* \"#utility.yul\":826:832   */\n  dup2\n    /* \"#utility.yul\":822:862   */\n  add\n    /* \"#utility.yul\":964:970   */\n  dup2\n    /* \"#utility.yul\":952:962   */\n  dup2\n    /* \"#utility.yul\":949:971   */\n  lt\n    /* \"#utility.yul\":928:946   */\n  0xffffffffffffffff\n    /* \"#utility.yul\":916:926   */\n  dup3\n    /* \"#utility.yul\":913:947   */\n  gt\n    /* \"#utility.yul\":910:972   */\n  or\n    /* \"#utility.yul\":907:995   */\n  iszero\n  tag_44\n  jumpi\n    /* \"#utility.yul\":975:993   */\n  tag_45\n  tag_21\n  jump\t// in\ntag_45:\n    /* \"#utility.yul\":907:995   */\ntag_44:\n    /* \"#utility.yul\":1015:1025   */\n  dup1\n    /* \"#utility.yul\":1011:1013   */\n  0x40\n    /* \"#utility.yul\":1004:1026   */\n  mstore\n    /* \"#utility.yul\":794:1032   */\n  pop\n    /* \"#utility.yul\":751:1032   */\n  pop\n  pop\n  jump\t// out\n    /* \"#utility.yul\":1038:1167   */\ntag_23:\n    /* \"#utility.yul\":1072:1078   */\n  0x00\n    /* \"#utility.yul\":1099:1119   */\n  tag_47\n  tag_16\n  jump\t// in\ntag_47:\n    /* \"#utility.yul\":1089:1119   */\n  swap1\n  pop\n    /* \"#utility.yul\":1128:1161   */\n  tag_48\n    /* \"#utility.yul\":1156:1160   */\n  dup3\n    /* \"#utility.yul\":1148:1154   */\n  dup3\n    /* \"#utility.yul\":1128:1161   */\n  tag_22\n  jump\t// in\ntag_48:\n    /* \"#utility.yul\":1038:1167   */\n  swap2\n  swap1\n  pop\n  jump\t// out\n    /* \"#utility.yul\":1173:1484   */\ntag_24:\n    /* \"#utility.yul\":1250:1254   */\n  0x00\n    /* \"#utility.yul\":1340:1358   */\n  0xffffffffffffffff\n    /* \"#utility.yul\":1332:1338   */\n  dup3\n    /* \"#utility.yul\":1329:1359   */\n  gt\n    /* \"#utility.yul\":1326:1382   */\n  iszero\n  tag_50\n  jumpi\n    /* \"#utility.yul\":1362:1380   */\n  tag_51\n  tag_21\n  jump\t// in\ntag_51:\n    /* \"#utility.yul\":1326:1382   */\ntag_50:\n    /* \"#utility.yul\":1412:1416   */\n  0x20\n    /* \"#utility.yul\":1404:1410   */\n  dup3\n    /* \"#utility.yul\":1400:1417   */\n  mul\n    /* \"#utility.yul\":1392:1417   */\n  swap1\n  pop\n    /* \"#utility.yul\":1472:1476   */\n  0x20\n    /* \"#utility.yul\":1466:1470   */\n  dup2\n    /* \"#utility.yul\":1462:1477   */\n  add\n    /* \"#utility.yul\":1454:1477   */\n  swap1\n  pop\n    /* \"#utility.yul\":1173:1484   */\n  swap2\n  swap1\n  pop\n  jump\t// out\n    /* \"#utility.yul\":1490:1607   */\ntag_25:\n    /* \"#utility.yul\":1599:1600   */\n  0x00\n    /* \"#utility.yul\":1596:1597   */\n  dup1\n    /* \"#utility.yul\":1589:1601   */\n  revert\n    /* \"#utility.yul\":1613:1739   */\ntag_26:\n    /* \"#utility.yul\":1650:1657   */\n  0x00\n    /* \"#utility.yul\":1690:1732   */\n  0xffffffffffffffffffffffffffffffffffffffff\n    /* \"#utility.yul\":1683:1688   */\n  dup3\n    /* \"#utility.yul\":1679:1733   */\n  and\n    /* \"#utility.yul\":1668:1733   */\n  swap1\n  pop\n    /* \"#utility.yul\":1613:1739   */\n  swap2\n  swap1\n  pop\n  jump\t// out\n    /* \"#utility.yul\":1745:1841   */\ntag_27:\n    /* \"#utility.yul\":1782:1789   */\n  0x00\n    /* \"#utility.yul\":1811:1835   */\n  tag_55\n    /* \"#utility.yul\":1829:1834   */\n  dup3\n    /* \"#utility.yul\":1811:1835   */\n  tag_26\n  jump\t// in\ntag_55:\n    /* \"#utility.yul\":1800:1835   */\n  swap1\n  pop\n    /* \"#utility.yul\":1745:1841   */\n  swap2\n  swap1\n  pop\n  jump\t// out\n    /* \"#utility.yul\":1847:1969   */\ntag_28:\n    /* \"#utility.yul\":1920:1944   */\n  tag_57\n    /* \"#utility.yul\":1938:1943   */\n  dup2\n    /* \"#utility.yul\":1920:1944   */\n  tag_27\n  jump\t// in\ntag_57:\n    /* \"#utility.yul\":1913:1918   */\n  dup2\n    /* \"#utility.yul\":1910:1945   */\n  eq\n    /* \"#utility.yul\":1900:1963   */\n  tag_58\n  jumpi\n    /* \"#utility.yul\":1959:1960   */\n  0x00\n    /* \"#utility.yul\":1956:1957   */\n  dup1\n    /* \"#utility.yul\":1949:1961   */\n  revert\n    /* \"#utility.yul\":1900:1963   */\ntag_58:\n    /* \"#utility.yul\":1847:1969   */\n  pop\n  jump\t// out\n    /* \"#utility.yul\":1975:2118   */\ntag_29:\n    /* \"#utility.yul\":2032:2037   */\n  0x00\n    /* \"#utility.yul\":2063:2069   */\n  dup2\n    /* \"#utility.yul\":2057:2070   */\n  mload\n    /* \"#utility.yul\":2048:2070   */\n  swap1\n  pop\n    /* \"#utility.yul\":2079:2112   */\n  tag_60\n    /* \"#utility.yul\":2106:2111   */\n  dup2\n    /* \"#utility.yul\":2079:2112   */\n  tag_28\n  jump\t// in\ntag_60:\n    /* \"#utility.yul\":1975:2118   */\n  swap3\n  swap2\n  pop\n  pop\n  jump\t// out\n    /* \"#utility.yul\":2141:2873   */\ntag_30:\n    /* \"#utility.yul\":2248:2253   */\n  0x00\n    /* \"#utility.yul\":2273:2354   */\n  tag_62\n    /* \"#utility.yul\":2289:2353   */\n  tag_63\n    /* \"#utility.yul\":2346:2352   */\n  dup5\n    /* \"#utility.yul\":2289:2353   */\n  tag_24\n  jump\t// in\ntag_63:\n    /* \"#utility.yul\":2273:2354   */\n  tag_23\n  jump\t// in\ntag_62:\n    /* \"#utility.yul\":2264:2354   */\n  swap1\n  pop\n    /* \"#utility.yul\":2374:2379   */\n  dup1\n    /* \"#utility.yul\":2403:2409   */\n  dup4\n    /* \"#utility.yul\":2396:2401   */\n  dup3\n    /* \"#utility.yul\":2389:2410   */\n  mstore\n    /* \"#utility.yul\":2437:2441   */\n  0x20\n    /* \"#utility.yul\":2430:2435   */\n  dup3\n    /* \"#utility.yul\":2426:2442   */\n  add\n    /* \"#utility.yul\":2419:2442   */\n  swap1\n  pop\n    /* \"#utility.yul\":2490:2494   */\n  0x20\n    /* \"#utility.yul\":2482:2488   */\n  dup5\n    /* \"#utility.yul\":2478:2495   */\n  mul\n    /* \"#utility.yul\":2470:2476   */\n  dup4\n    /* \"#utility.yul\":2466:2496   */\n  add\n    /* \"#utility.yul\":2519:2522   */\n  dup6\n    /* \"#utility.yul\":2511:2517   */\n  dup2\n    /* \"#utility.yul\":2508:2523   */\n  gt\n    /* \"#utility.yul\":2505:2627   */\n  iszero\n  tag_64\n  jumpi\n    /* \"#utility.yul\":2538:2617   */\n  tag_65\n  tag_25\n  jump\t// in\ntag_65:\n    /* \"#utility.yul\":2505:2627   */\ntag_64:\n    /* \"#utility.yul\":2653:2659   */\n  dup4\n    /* \"#utility.yul\":2636:2867   */\ntag_66:\n    /* \"#utility.yul\":2670:2676   */\n  dup2\n    /* \"#utility.yul\":2665:2668   */\n  dup2\n    /* \"#utility.yul\":2662:2677   */\n  lt\n    /* \"#utility.yul\":2636:2867   */\n  iszero\n  tag_68\n  jumpi\n    /* \"#utility.yul\":2745:2748   */\n  dup1\n    /* \"#utility.yul\":2774:2822   */\n  tag_69\n    /* \"#utility.yul\":2818:2821   */\n  dup9\n    /* \"#utility.yul\":2806:2816   */\n  dup3\n    /* \"#utility.yul\":2774:2822   */\n  tag_29\n  jump\t// in\ntag_69:\n    /* \"#utility.yul\":2769:2772   */\n  dup5\n    /* \"#utility.yul\":2762:2823   */\n  mstore\n    /* \"#utility.yul\":2852:2856   */\n  0x20\n    /* \"#utility.yul\":2847:2850   */\n  dup5\n    /* \"#utility.yul\":2843:2857   */\n  add\n    /* \"#utility.yul\":2836:2857   */\n  swap4\n  pop\n    /* \"#utility.yul\":2712:2867   */\n  pop\n    /* \"#utility.yul\":2696:2700   */\n  0x20\n    /* \"#utility.yul\":2691:2694   */\n  dup2\n    /* \"#utility.yul\":2687:2701   */\n  add\n    /* \"#utility.yul\":2680:2701   */\n  swap1\n  pop\n    /* \"#utility.yul\":2636:2867   */\n  jump(tag_66)\ntag_68:\n    /* \"#utility.yul\":2640:2661   */\n  pop\n    /* \"#utility.yul\":2254:2873   */\n  pop\n  pop\n    /* \"#utility.yul\":2141:2873   */\n  swap4\n  swap3\n  pop\n  pop\n  pop\n  jump\t// out\n    /* \"#utility.yul\":2896:3281   */\ntag_31:\n    /* \"#utility.yul\":2978:2983   */\n  0x00\n    /* \"#utility.yul\":3027:3030   */\n  dup3\n    /* \"#utility.yul\":3020:3024   */\n  0x1f\n    /* \"#utility.yul\":3012:3018   */\n  dup4\n    /* \"#utility.yul\":3008:3025   */\n  add\n    /* \"#utility.yul\":3004:3031   */\n  slt\n    /* \"#utility.yul\":2994:3116   */\n  tag_71\n  jumpi\n    /* \"#utility.yul\":3035:3114   */\n  tag_72\n  tag_19\n  jump\t// in\ntag_72:\n    /* \"#utility.yul\":2994:3116   */\ntag_71:\n    /* \"#utility.yul\":3145:3151   */\n  dup2\n    /* \"#utility.yul\":3139:3152   */\n  mload\n    /* \"#utility.yul\":3170:3275   */\n  tag_73\n    /* \"#utility.yul\":3271:3274   */\n  dup5\n    /* \"#utility.yul\":3263:3269   */\n  dup3\n    /* \"#utility.yul\":3256:3260   */\n  0x20\n    /* \"#utility.yul\":3248:3254   */\n  dup7\n    /* \"#utility.yul\":3244:3261   */\n  add\n    /* \"#utility.yul\":3170:3275   */\n  tag_30\n  jump\t// in\ntag_73:\n    /* \"#utility.yul\":3161:3275   */\n  swap2\n  pop\n    /* \"#utility.yul\":2984:3281   */\n  pop\n    /* \"#utility.yul\":2896:3281   */\n  swap3\n  swap2\n  pop\n  pop\n  jump\t// out\n    /* \"#utility.yul\":3287:3376   */\ntag_32:\n    /* \"#utility.yul\":3323:3330   */\n  0x00\n    /* \"#utility.yul\":3363:3369   */\n  0xffff\n    /* \"#utility.yul\":3356:3361   */\n  dup3\n    /* \"#utility.yul\":3352:3370   */\n  and\n    /* \"#utility.yul\":3341:3370   */\n  swap1\n  pop\n    /* \"#utility.yul\":3287:3376   */\n  swap2\n  swap1\n  pop\n  jump\t// out\n    /* \"#utility.yul\":3382:3502   */\ntag_33:\n    /* \"#utility.yul\":3454:3477   */\n  tag_76\n    /* \"#utility.yul\":3471:3476   */\n  dup2\n    /* \"#utility.yul\":3454:3477   */\n  tag_32\n  jump\t// in\ntag_76:\n    /* \"#utility.yul\":3447:3452   */\n  dup2\n    /* \"#utility.yul\":3444:3478   */\n  eq\n    /* \"#utility.yul\":3434:3496   */\n  tag_77\n  jumpi\n    /* \"#utility.yul\":3492:3493   */\n  0x00\n    /* \"#utility.yul\":3489:3490   */\n  dup1\n    /* \"#utility.yul\":3482:3494   */\n  revert\n    /* \"#utility.yul\":3434:3496   */\ntag_77:\n    /* \"#utility.yul\":3382:3502   */\n  pop\n  jump\t// out\n    /* \"#utility.yul\":3508:3649   */\ntag_34:\n    /* \"#utility.yul\":3564:3569   */\n  0x00\n    /* \"#utility.yul\":3595:3601   */\n  dup2\n    /* \"#utility.yul\":3589:3602   */\n  mload\n    /* \"#utility.yul\":3580:3602   */\n  swap1\n  pop\n    /* \"#utility.yul\":3611:3643   */\n  tag_79\n    /* \"#utility.yul\":3637:3642   */\n  dup2\n    /* \"#utility.yul\":3611:3643   */\n  tag_33\n  jump\t// in\ntag_79:\n    /* \"#utility.yul\":3508:3649   */\n  swap3\n  swap2\n  pop\n  pop\n  jump\t// out\n    /* \"#utility.yul\":3655:4363   */\ntag_3:\n    /* \"#utility.yul\":3758:3764   */\n  0x00\n    /* \"#utility.yul\":3766:3772   */\n  dup1\n    /* \"#utility.yul\":3815:3817   */\n  0x40\n    /* \"#utility.yul\":3803:3812   */\n  dup4\n    /* \"#utility.yul\":3794:3801   */\n  dup6\n    /* \"#utility.yul\":3790:3813   */\n  sub\n    /* \"#utility.yul\":3786:3818   */\n  slt\n    /* \"#utility.yul\":3783:3902   */\n  iszero\n  tag_81\n  jumpi\n    /* \"#utility.yul\":3821:3900   */\n  tag_82\n  tag_17\n  jump\t// in\ntag_82:\n    /* \"#utility.yul\":3783:3902   */\ntag_81:\n    /* \"#utility.yul\":3962:3963   */\n  0x00\n    /* \"#utility.yul\":3951:3960   */\n  dup4\n    /* \"#utility.yul\":3947:3964   */\n  add\n    /* \"#utility.yul\":3941:3965   */\n  mload\n    /* \"#utility.yul\":3992:4010   */\n  0xffffffffffffffff\n    /* \"#utility.yul\":3984:3990   */\n  dup2\n    /* \"#utility.yul\":3981:4011   */\n  gt\n    /* \"#utility.yul\":3978:4095   */\n  iszero\n  tag_83\n  jumpi\n    /* \"#utility.yul\":4014:4093   */\n  tag_84\n  tag_18\n  jump\t// in\ntag_84:\n    /* \"#utility.yul\":3978:4095   */\ntag_83:\n    /* \"#utility.yul\":4119:4208   */\n  tag_85\n    /* \"#utility.yul\":4200:4207   */\n  dup6\n    /* \"#utility.yul\":4191:4197   */\n  dup3\n    /* \"#utility.yul\":4180:4189   */\n  dup7\n    /* \"#utility.yul\":4176:4198   */\n  add\n    /* \"#utility.yul\":4119:4208   */\n  tag_31\n  jump\t// in\ntag_85:\n    /* \"#utility.yul\":4109:4208   */\n  swap3\n  pop\n    /* \"#utility.yul\":3912:4218   */\n  pop\n    /* \"#utility.yul\":4257:4259   */\n  0x20\n    /* \"#utility.yul\":4283:4346   */\n  tag_86\n    /* \"#utility.yul\":4338:4345   */\n  dup6\n    /* \"#utility.yul\":4329:4335   */\n  dup3\n    /* \"#utility.yul\":4318:4327   */\n  dup7\n    /* \"#utility.yul\":4314:4336   */\n  add\n    /* \"#utility.yul\":4283:4346   */\n  tag_34\n  jump\t// in\ntag_86:\n    /* \"#utility.yul\":4273:4346   */\n  swap2\n  pop\n    /* \"#utility.yul\":4228:4356   */\n  pop\n    /* \"#utility.yul\":3655:4363   */\n  swap3\n  pop\n  swap3\n  swap1\n  pop\n  jump\t// out\n    /* \"contracts/test_work/MultiWallet.sol\":145:3628  contract MultiWallet {... */\ntag_8:\n  mload(0x80)\n  codecopy(0x00, dataOffset(sub_0), dataSize(sub_0))\n  0x00\n  assignImmutable(\"0x5c4c6aa067b6f8e6cb38e6ab843832a94d1712d661a04d73c517d6a1931a9e5d\")\n  return(0x00, dataSize(sub_0))\nstop\n\nsub_0: assembly {\n        /* \"contracts/test_work/MultiWallet.sol\":145:3628  contract MultiWallet {... */\n      mstore(0x40, 0x80)\n      jumpi(tag_1, lt(calldatasize, 0x04))\n      shr(0xe0, calldataload(0x00))\n      dup1\n      0x7c487e1e\n      gt\n      tag_10\n      jumpi\n      dup1\n      0x7c487e1e\n      eq\n      tag_6\n      jumpi\n      dup1\n      0x9f7d0947\n      eq\n      tag_7\n      jumpi\n      dup1\n      0xbcd91d73\n      eq\n      tag_8\n      jumpi\n      dup1\n      0xdaea85c5\n      eq\n      tag_9\n      jumpi\n      jump(tag_1)\n    tag_10:\n      dup1\n      0x063d5180\n      eq\n      tag_2\n      jumpi\n      dup1\n      0x4b64e492\n      eq\n      tag_3\n      jumpi\n      dup1\n      0x4c33fe94\n      eq\n      tag_4\n      jumpi\n      dup1\n      0x5bcb2fc6\n      eq\n      tag_5\n      jumpi\n    tag_1:\n      0x00\n      dup1\n      revert\n        /* \"contracts/test_work/MultiWallet.sol\":3197:3326  function getSponsorStatus(address sponsor) external view returns(TxStatus){... */\n    tag_2:\n      callvalue\n      dup1\n      iszero\n      tag_11\n      jumpi\n      0x00\n      dup1\n      revert\n    tag_11:\n      pop\n      tag_12\n      0x04\n      dup1\n      calldatasize\n      sub\n      dup2\n      add\n      swap1\n      tag_13\n      swap2\n      swap1\n      tag_14\n      jump\t// in\n    tag_13:\n      tag_15\n      jump\t// in\n    tag_12:\n      mload(0x40)\n      tag_16\n      swap2\n      swap1\n      tag_17\n      jump\t// in\n    tag_16:\n      mload(0x40)\n      dup1\n      swap2\n      sub\n      swap1\n      return\n        /* \"contracts/test_work/MultiWallet.sol\":1866:2362  function execute(address sponsor) external {... */\n    tag_3:\n      callvalue\n      dup1\n      iszero\n      tag_18\n      jumpi\n      0x00\n      dup1\n      revert\n    tag_18:\n      pop\n      tag_19\n      0x04\n      dup1\n      calldatasize\n      sub\n      dup2\n      add\n      swap1\n      tag_20\n      swap2\n      swap1\n      tag_14\n      jump\t// in\n    tag_20:\n      tag_21\n      jump\t// in\n    tag_19:\n      stop\n        /* \"contracts/test_work/MultiWallet.sol\":2368:3093  function cancel(address sponsor) external {... */\n    tag_4:\n      callvalue\n      dup1\n      iszero\n      tag_22\n      jumpi\n      0x00\n      dup1\n      revert\n    tag_22:\n      pop\n      tag_23\n      0x04\n      dup1\n      calldatasize\n      sub\n      dup2\n      add\n      swap1\n      tag_24\n      swap2\n      swap1\n      tag_14\n      jump\t// in\n    tag_24:\n      tag_25\n      jump\t// in\n    tag_23:\n      stop\n        /* \"contracts/test_work/MultiWallet.sol\":906:1158  function submit() external payable {... */\n    tag_5:\n      tag_26\n      tag_27\n      jump\t// in\n    tag_26:\n      stop\n        /* \"contracts/test_work/MultiWallet.sol\":3333:3473  function getSponsorapproveCount(address sponsor) external view returns(uint256){... */\n    tag_6:\n      callvalue\n      dup1\n      iszero\n      tag_28\n      jumpi\n      0x00\n      dup1\n      revert\n    tag_28:\n      pop\n      tag_29\n      0x04\n      dup1\n      calldatasize\n      sub\n      dup2\n      add\n      swap1\n      tag_30\n      swap2\n      swap1\n      tag_14\n      jump\t// in\n    tag_30:\n      tag_31\n      jump\t// in\n    tag_29:\n      mload(0x40)\n      tag_32\n      swap2\n      swap1\n      tag_33\n      jump\t// in\n    tag_32:\n      mload(0x40)\n      dup1\n      swap2\n      sub\n      swap1\n      return\n        /* \"contracts/test_work/MultiWallet.sol\":3099:3191  function getLowSignCount() external view returns (uint16) {... */\n    tag_7:\n      callvalue\n      dup1\n      iszero\n      tag_34\n      jumpi\n      0x00\n      dup1\n      revert\n    tag_34:\n      pop\n      tag_35\n      tag_36\n      jump\t// in\n    tag_35:\n      mload(0x40)\n      tag_37\n      swap2\n      swap1\n      tag_38\n      jump\t// in\n    tag_37:\n      mload(0x40)\n      dup1\n      swap2\n      sub\n      swap1\n      return\n        /* \"contracts/test_work/MultiWallet.sol\":3480:3626  function getSponsorapprove(address sponsor) external view returns(address[] memory){... */\n    tag_8:\n      callvalue\n      dup1\n      iszero\n      tag_39\n      jumpi\n      0x00\n      dup1\n      revert\n    tag_39:\n      pop\n      tag_40\n      0x04\n      dup1\n      calldatasize\n      sub\n      dup2\n      add\n      swap1\n      tag_41\n      swap2\n      swap1\n      tag_14\n      jump\t// in\n    tag_41:\n      tag_42\n      jump\t// in\n    tag_40:\n      mload(0x40)\n      tag_43\n      swap2\n      swap1\n      tag_44\n      jump\t// in\n    tag_43:\n      mload(0x40)\n      dup1\n      swap2\n      sub\n      swap1\n      return\n        /* \"contracts/test_work/MultiWallet.sol\":1164:1860  function approve(address sponsor) external {... */\n    tag_9:\n      callvalue\n      dup1\n      iszero\n      tag_45\n      jumpi\n      0x00\n      dup1\n      revert\n    tag_45:\n      pop\n      tag_46\n      0x04\n      dup1\n      calldatasize\n      sub\n      dup2\n      add\n      swap1\n      tag_47\n      swap2\n      swap1\n      tag_14\n      jump\t// in\n    tag_47:\n      tag_48\n      jump\t// in\n    tag_46:\n      stop\n        /* \"contracts/test_work/MultiWallet.sol\":3197:3326  function getSponsorStatus(address sponsor) external view returns(TxStatus){... */\n    tag_15:\n        /* \"contracts/test_work/MultiWallet.sol\":3262:3270  TxStatus */\n      0x00\n        /* \"contracts/test_work/MultiWallet.sol\":3288:3303  tx_approve_info */\n      0x02\n        /* \"contracts/test_work/MultiWallet.sol\":3288:3312  tx_approve_info[sponsor] */\n      0x00\n        /* \"contracts/test_work/MultiWallet.sol\":3304:3311  sponsor */\n      dup4\n        /* \"contracts/test_work/MultiWallet.sol\":3288:3312  tx_approve_info[sponsor] */\n      0xffffffffffffffffffffffffffffffffffffffff\n      and\n      0xffffffffffffffffffffffffffffffffffffffff\n      and\n      dup2\n      mstore\n      0x20\n      add\n      swap1\n      dup2\n      mstore\n      0x20\n      add\n      0x00\n      keccak256\n        /* \"contracts/test_work/MultiWallet.sol\":3288:3319  tx_approve_info[sponsor].status */\n      0x04\n      add\n      0x00\n      swap1\n      sload\n      swap1\n      0x0100\n      exp\n      swap1\n      div\n      0xff\n      and\n        /* \"contracts/test_work/MultiWallet.sol\":3281:3319  return tx_approve_info[sponsor].status */\n      swap1\n      pop\n        /* \"contracts/test_work/MultiWallet.sol\":3197:3326  function getSponsorStatus(address sponsor) external view returns(TxStatus){... */\n      swap2\n      swap1\n      pop\n      jump\t// out\n        /* \"contracts/test_work/MultiWallet.sol\":1866:2362  function execute(address sponsor) external {... */\n    tag_21:\n        /* \"contracts/test_work/MultiWallet.sol\":1928:1943  tx_approve_info */\n      0x02\n        /* \"contracts/test_work/MultiWallet.sol\":1928:1952  tx_approve_info[sponsor] */\n      0x00\n        /* \"contracts/test_work/MultiWallet.sol\":1944:1951  sponsor */\n      dup3\n        /* \"contracts/test_work/MultiWallet.sol\":1928:1952  tx_approve_info[sponsor] */\n      0xffffffffffffffffffffffffffffffffffffffff\n      and\n      0xffffffffffffffffffffffffffffffffffffffff\n      and\n      dup2\n      mstore\n      0x20\n      add\n      swap1\n      dup2\n      mstore\n      0x20\n      add\n      0x00\n      keccak256\n        /* \"contracts/test_work/MultiWallet.sol\":1928:1962  tx_approve_info[sponsor].isExecute */\n      0x00\n      add\n      0x14\n      swap1\n      sload\n      swap1\n      0x0100\n      exp\n      swap1\n      div\n      0xff\n      and\n        /* \"contracts/test_work/MultiWallet.sol\":1927:1962  !tx_approve_info[sponsor].isExecute */\n      iszero\n        /* \"contracts/test_work/MultiWallet.sol\":1919:1989  require(!tx_approve_info[sponsor].isExecute, \"don't allow to execute\") */\n      tag_51\n      jumpi\n      mload(0x40)\n      0x08c379a000000000000000000000000000000000000000000000000000000000\n      dup2\n      mstore\n      0x04\n      add\n      tag_52\n      swap1\n      tag_53\n      jump\t// in\n    tag_52:\n      mload(0x40)\n      dup1\n      swap2\n      sub\n      swap1\n      revert\n    tag_51:\n        /* \"contracts/test_work/MultiWallet.sol\":2055:2070  TxStatus.FINISH */\n      0x02\n        /* \"contracts/test_work/MultiWallet.sol\":2020:2070  tx_approve_info[sponsor].status != TxStatus.FINISH */\n      dup1\n      dup2\n      gt\n      iszero\n      tag_54\n      jumpi\n      tag_55\n      tag_56\n      jump\t// in\n    tag_55:\n    tag_54:\n        /* \"contracts/test_work/MultiWallet.sol\":2020:2035  tx_approve_info */\n      0x02\n        /* \"contracts/test_work/MultiWallet.sol\":2020:2044  tx_approve_info[sponsor] */\n      0x00\n        /* \"contracts/test_work/MultiWallet.sol\":2036:2043  sponsor */\n      dup4\n        /* \"contracts/test_work/MultiWallet.sol\":2020:2044  tx_approve_info[sponsor] */\n      0xffffffffffffffffffffffffffffffffffffffff\n      and\n      0xffffffffffffffffffffffffffffffffffffffff\n      and\n      dup2\n      mstore\n      0x20\n      add\n      swap1\n      dup2\n      mstore\n      0x20\n      add\n      0x00\n      keccak256\n        /* \"contracts/test_work/MultiWallet.sol\":2020:2051  tx_approve_info[sponsor].status */\n      0x04\n      add\n      0x00\n      swap1\n      sload\n      swap1\n      0x0100\n      exp\n      swap1\n      div\n      0xff\n      and\n        /* \"contracts/test_work/MultiWallet.sol\":2020:2070  tx_approve_info[sponsor].status != TxStatus.FINISH */\n      0x02\n      dup2\n      gt\n      iszero\n      tag_57\n      jumpi\n      tag_58\n      tag_56\n      jump\t// in\n    tag_58:\n    tag_57:\n      sub\n        /* \"contracts/test_work/MultiWallet.sol\":1999:2111  require(... */\n      tag_59\n      jumpi\n      mload(0x40)\n      0x08c379a000000000000000000000000000000000000000000000000000000000\n      dup2\n      mstore\n      0x04\n      add\n      tag_60\n      swap1\n      tag_61\n      jump\t// in\n    tag_60:\n      mload(0x40)\n      dup1\n      swap2\n      sub\n      swap1\n      revert\n    tag_59:\n        /* \"contracts/test_work/MultiWallet.sol\":2123:2135  bool success */\n      0x00\n        /* \"contracts/test_work/MultiWallet.sol\":2149:2156  sponsor */\n      dup2\n        /* \"contracts/test_work/MultiWallet.sol\":2141:2162  payable(sponsor).call */\n      0xffffffffffffffffffffffffffffffffffffffff\n      and\n        /* \"contracts/test_work/MultiWallet.sol\":2170:2180  tx_Sponsor */\n      0x01\n        /* \"contracts/test_work/MultiWallet.sol\":2170:2189  tx_Sponsor[sponsor] */\n      0x00\n        /* \"contracts/test_work/MultiWallet.sol\":2181:2188  sponsor */\n      dup5\n        /* \"contracts/test_work/MultiWallet.sol\":2170:2189  tx_Sponsor[sponsor] */\n      0xffffffffffffffffffffffffffffffffffffffff\n      and\n      0xffffffffffffffffffffffffffffffffffffffff\n      and\n      dup2\n      mstore\n      0x20\n      add\n      swap1\n      dup2\n      mstore\n      0x20\n      add\n      0x00\n      keccak256\n      sload\n        /* \"contracts/test_work/MultiWallet.sol\":2141:2216  payable(sponsor).call{value: tx_Sponsor[sponsor]}(... */\n      mload(0x40)\n      tag_62\n      swap1\n      tag_63\n      jump\t// in\n    tag_62:\n      0x00\n      mload(0x40)\n      dup1\n      dup4\n      sub\n      dup2\n      dup6\n      dup8\n      gas\n      call\n      swap3\n      pop\n      pop\n      pop\n      returndatasize\n      dup1\n      0x00\n      dup2\n      eq\n      tag_66\n      jumpi\n      mload(0x40)\n      swap2\n      pop\n      and(add(returndatasize, 0x3f), not(0x1f))\n      dup3\n      add\n      0x40\n      mstore\n      returndatasize\n      dup3\n      mstore\n      returndatasize\n      0x00\n      0x20\n      dup5\n      add\n      returndatacopy\n      jump(tag_65)\n    tag_66:\n      0x60\n      swap2\n      pop\n    tag_65:\n      pop\n        /* \"contracts/test_work/MultiWallet.sol\":2122:2216  (bool success, ) = payable(sponsor).call{value: tx_Sponsor[sponsor]}(... */\n      pop\n      swap1\n      pop\n        /* \"contracts/test_work/MultiWallet.sol\":2231:2238  success */\n      dup1\n        /* \"contracts/test_work/MultiWallet.sol\":2227:2356  if (success) {... */\n      iszero\n      tag_67\n      jumpi\n        /* \"contracts/test_work/MultiWallet.sol\":2259:2282  Execute_Finish(sponsor) */\n      0xfee717a0d65c7435e70a52eeec063c6e7f81ab1968c724a355296b3ef5f0b5d4\n        /* \"contracts/test_work/MultiWallet.sol\":2274:2281  sponsor */\n      dup3\n        /* \"contracts/test_work/MultiWallet.sol\":2259:2282  Execute_Finish(sponsor) */\n      mload(0x40)\n      tag_68\n      swap2\n      swap1\n      tag_69\n      jump\t// in\n    tag_68:\n      mload(0x40)\n      dup1\n      swap2\n      sub\n      swap1\n      log1\n        /* \"contracts/test_work/MultiWallet.sol\":2330:2345  TxStatus.FINISH */\n      0x02\n        /* \"contracts/test_work/MultiWallet.sol\":2296:2311  tx_approve_info */\n      dup1\n        /* \"contracts/test_work/MultiWallet.sol\":2296:2320  tx_approve_info[sponsor] */\n      0x00\n        /* \"contracts/test_work/MultiWallet.sol\":2312:2319  sponsor */\n      dup5\n        /* \"contracts/test_work/MultiWallet.sol\":2296:2320  tx_approve_info[sponsor] */\n      0xffffffffffffffffffffffffffffffffffffffff\n      and\n      0xffffffffffffffffffffffffffffffffffffffff\n      and\n      dup2\n      mstore\n      0x20\n      add\n      swap1\n      dup2\n      mstore\n      0x20\n      add\n      0x00\n      keccak256\n        /* \"contracts/test_work/MultiWallet.sol\":2296:2327  tx_approve_info[sponsor].status */\n      0x04\n      add\n      0x00\n        /* \"contracts/test_work/MultiWallet.sol\":2296:2345  tx_approve_info[sponsor].status = TxStatus.FINISH */\n      0x0100\n      exp\n      dup2\n      sload\n      dup2\n      0xff\n      mul\n      not\n      and\n      swap1\n      dup4\n      0x02\n      dup2\n      gt\n      iszero\n      tag_70\n      jumpi\n      tag_71\n      tag_56\n      jump\t// in\n    tag_71:\n    tag_70:\n      mul\n      or\n      swap1\n      sstore\n      pop\n        /* \"contracts/test_work/MultiWallet.sol\":2227:2356  if (success) {... */\n    tag_67:\n        /* \"contracts/test_work/MultiWallet.sol\":1909:2362  {... */\n      pop\n        /* \"contracts/test_work/MultiWallet.sol\":1866:2362  function execute(address sponsor) external {... */\n      pop\n      jump\t// out\n        /* \"contracts/test_work/MultiWallet.sol\":2368:3093  function cancel(address sponsor) external {... */\n    tag_25:\n        /* \"contracts/test_work/MultiWallet.sol\":2446:2447  0 */\n      0x00\n        /* \"contracts/test_work/MultiWallet.sol\":2424:2434  tx_Sponsor */\n      0x01\n        /* \"contracts/test_work/MultiWallet.sol\":2424:2443  tx_Sponsor[sponsor] */\n      0x00\n        /* \"contracts/test_work/MultiWallet.sol\":2435:2442  sponsor */\n      dup4\n        /* \"contracts/test_work/MultiWallet.sol\":2424:2443  tx_Sponsor[sponsor] */\n      0xffffffffffffffffffffffffffffffffffffffff\n      and\n      0xffffffffffffffffffffffffffffffffffffffff\n      and\n      dup2\n      mstore\n      0x20\n      add\n      swap1\n      dup2\n      mstore\n      0x20\n      add\n      0x00\n      keccak256\n      sload\n        /* \"contracts/test_work/MultiWallet.sol\":2424:2447  tx_Sponsor[sponsor] > 0 */\n      gt\n        /* \"contracts/test_work/MultiWallet.sol\":2420:2509  if (tx_Sponsor[sponsor] > 0) {... */\n      iszero\n      tag_73\n      jumpi\n        /* \"contracts/test_work/MultiWallet.sol\":2490:2497  sponsor */\n      dup1\n        /* \"contracts/test_work/MultiWallet.sol\":2470:2498  Invalid_Transaction(sponsor) */\n      mload(0x40)\n      0x0ce92ef000000000000000000000000000000000000000000000000000000000\n      dup2\n      mstore\n      0x04\n      add\n      tag_74\n      swap2\n      swap1\n      tag_69\n      jump\t// in\n    tag_74:\n      mload(0x40)\n      dup1\n      swap2\n      sub\n      swap1\n      revert\n        /* \"contracts/test_work/MultiWallet.sol\":2420:2509  if (tx_Sponsor[sponsor] > 0) {... */\n    tag_73:\n        /* \"contracts/test_work/MultiWallet.sol\":2540:2541  0 */\n      0x00\n        /* \"contracts/test_work/MultiWallet.sol\":2518:2528  tx_Sponsor */\n      0x01\n        /* \"contracts/test_work/MultiWallet.sol\":2518:2537  tx_Sponsor[sponsor] */\n      0x00\n        /* \"contracts/test_work/MultiWallet.sol\":2529:2536  sponsor */\n      dup4\n        /* \"contracts/test_work/MultiWallet.sol\":2518:2537  tx_Sponsor[sponsor] */\n      0xffffffffffffffffffffffffffffffffffffffff\n      and\n      0xffffffffffffffffffffffffffffffffffffffff\n      and\n      dup2\n      mstore\n      0x20\n      add\n      swap1\n      dup2\n      mstore\n      0x20\n      add\n      0x00\n      keccak256\n        /* \"contracts/test_work/MultiWallet.sol\":2518:2541  tx_Sponsor[sponsor] = 0 */\n      dup2\n      swap1\n      sstore\n      pop\n        /* \"contracts/test_work/MultiWallet.sol\":2552:2584  ApproveInfo storage approveInnfo */\n      0x00\n        /* \"contracts/test_work/MultiWallet.sol\":2587:2602  tx_approve_info */\n      0x02\n        /* \"contracts/test_work/MultiWallet.sol\":2587:2611  tx_approve_info[sponsor] */\n      0x00\n        /* \"contracts/test_work/MultiWallet.sol\":2603:2610  sponsor */\n      dup4\n        /* \"contracts/test_work/MultiWallet.sol\":2587:2611  tx_approve_info[sponsor] */\n      0xffffffffffffffffffffffffffffffffffffffff\n      and\n      0xffffffffffffffffffffffffffffffffffffffff\n      and\n      dup2\n      mstore\n      0x20\n      add\n      swap1\n      dup2\n      mstore\n      0x20\n      add\n      0x00\n      keccak256\n        /* \"contracts/test_work/MultiWallet.sol\":2552:2611  ApproveInfo storage approveInnfo = tx_approve_info[sponsor] */\n      swap1\n      pop\n        /* \"contracts/test_work/MultiWallet.sol\":2651:2652  0 */\n      0x00\n        /* \"contracts/test_work/MultiWallet.sol\":2622:2634  approveInnfo */\n      dup2\n        /* \"contracts/test_work/MultiWallet.sol\":2622:2640  approveInnfo.owner */\n      0x00\n      add\n      0x00\n        /* \"contracts/test_work/MultiWallet.sol\":2622:2653  approveInnfo.owner = address(0) */\n      0x0100\n      exp\n      dup2\n      sload\n      dup2\n      0xffffffffffffffffffffffffffffffffffffffff\n      mul\n      not\n      and\n      swap1\n      dup4\n      0xffffffffffffffffffffffffffffffffffffffff\n      and\n      mul\n      or\n      swap1\n      sstore\n      pop\n        /* \"contracts/test_work/MultiWallet.sol\":2688:2693  false */\n      0x00\n        /* \"contracts/test_work/MultiWallet.sol\":2663:2675  approveInnfo */\n      dup2\n        /* \"contracts/test_work/MultiWallet.sol\":2663:2685  approveInnfo.isExecute */\n      0x00\n      add\n      0x14\n        /* \"contracts/test_work/MultiWallet.sol\":2663:2693  approveInnfo.isExecute = false */\n      0x0100\n      exp\n      dup2\n      sload\n      dup2\n      0xff\n      mul\n      not\n      and\n      swap1\n      dup4\n      iszero\n      iszero\n      mul\n      or\n      swap1\n      sstore\n      pop\n        /* \"contracts/test_work/MultiWallet.sol\":2731:2732  0 */\n      0x00\n        /* \"contracts/test_work/MultiWallet.sol\":2703:2715  approveInnfo */\n      dup2\n        /* \"contracts/test_work/MultiWallet.sol\":2703:2728  approveInnfo.approveCount */\n      0x01\n      add\n        /* \"contracts/test_work/MultiWallet.sol\":2703:2732  approveInnfo.approveCount = 0 */\n      dup2\n      swap1\n      sstore\n      pop\n        /* \"contracts/test_work/MultiWallet.sol\":2764:2778  TxStatus.START */\n      0x00\n        /* \"contracts/test_work/MultiWallet.sol\":2742:2754  approveInnfo */\n      dup2\n        /* \"contracts/test_work/MultiWallet.sol\":2742:2761  approveInnfo.status */\n      0x04\n      add\n      0x00\n        /* \"contracts/test_work/MultiWallet.sol\":2742:2778  approveInnfo.status = TxStatus.START */\n      0x0100\n      exp\n      dup2\n      sload\n      dup2\n      0xff\n      mul\n      not\n      and\n      swap1\n      dup4\n      0x02\n      dup2\n      gt\n      iszero\n      tag_75\n      jumpi\n      tag_76\n      tag_56\n      jump\t// in\n    tag_76:\n    tag_75:\n      mul\n      or\n      swap1\n      sstore\n      pop\n        /* \"contracts/test_work/MultiWallet.sol\":2789:2822  address[] storage _approveAddress */\n      0x00\n        /* \"contracts/test_work/MultiWallet.sol\":2825:2837  approveInnfo */\n      dup2\n        /* \"contracts/test_work/MultiWallet.sol\":2825:2852  approveInnfo.approveAddress */\n      0x02\n      add\n        /* \"contracts/test_work/MultiWallet.sol\":2789:2852  address[] storage _approveAddress = approveInnfo.approveAddress */\n      swap1\n      pop\n        /* \"contracts/test_work/MultiWallet.sol\":2863:3078  while(_approveAddress.length > 0){... */\n    tag_77:\n        /* \"contracts/test_work/MultiWallet.sol\":2894:2895  0 */\n      0x00\n        /* \"contracts/test_work/MultiWallet.sol\":2869:2884  _approveAddress */\n      dup2\n        /* \"contracts/test_work/MultiWallet.sol\":2869:2891  _approveAddress.length */\n      dup1\n      sload\n      swap1\n      pop\n        /* \"contracts/test_work/MultiWallet.sol\":2869:2895  _approveAddress.length > 0 */\n      gt\n        /* \"contracts/test_work/MultiWallet.sol\":2863:3078  while(_approveAddress.length > 0){... */\n      iszero\n      tag_78\n      jumpi\n        /* \"contracts/test_work/MultiWallet.sol\":2953:2958  false */\n      0x00\n        /* \"contracts/test_work/MultiWallet.sol\":2910:2922  approveInnfo */\n      dup3\n        /* \"contracts/test_work/MultiWallet.sol\":2910:2932  approveInnfo.isApprove */\n      0x03\n      add\n        /* \"contracts/test_work/MultiWallet.sol\":2910:2952  approveInnfo.isApprove[_approveAddress[0]] */\n      0x00\n        /* \"contracts/test_work/MultiWallet.sol\":2933:2948  _approveAddress */\n      dup4\n        /* \"contracts/test_work/MultiWallet.sol\":2949:2950  0 */\n      0x00\n        /* \"contracts/test_work/MultiWallet.sol\":2933:2951  _approveAddress[0] */\n      dup2\n      sload\n      dup2\n      lt\n      tag_79\n      jumpi\n      tag_80\n      tag_81\n      jump\t// in\n    tag_80:\n    tag_79:\n      swap1\n      0x00\n      mstore\n      keccak256(0x00, 0x20)\n      add\n      0x00\n      swap1\n      sload\n      swap1\n      0x0100\n      exp\n      swap1\n      div\n      0xffffffffffffffffffffffffffffffffffffffff\n      and\n        /* \"contracts/test_work/MultiWallet.sol\":2910:2952  approveInnfo.isApprove[_approveAddress[0]] */\n      0xffffffffffffffffffffffffffffffffffffffff\n      and\n      0xffffffffffffffffffffffffffffffffffffffff\n      and\n      dup2\n      mstore\n      0x20\n      add\n      swap1\n      dup2\n      mstore\n      0x20\n      add\n      0x00\n      keccak256\n      0x00\n        /* \"contracts/test_work/MultiWallet.sol\":2910:2958  approveInnfo.isApprove[_approveAddress[0]]=false */\n      0x0100\n      exp\n      dup2\n      sload\n      dup2\n      0xff\n      mul\n      not\n      and\n      swap1\n      dup4\n      iszero\n      iszero\n      mul\n      or\n      swap1\n      sstore\n      pop\n        /* \"contracts/test_work/MultiWallet.sol\":2991:3006  _approveAddress */\n      dup1\n        /* \"contracts/test_work/MultiWallet.sol\":3030:3031  1 */\n      0x01\n        /* \"contracts/test_work/MultiWallet.sol\":3007:3022  _approveAddress */\n      dup3\n        /* \"contracts/test_work/MultiWallet.sol\":3007:3029  _approveAddress.length */\n      dup1\n      sload\n      swap1\n      pop\n        /* \"contracts/test_work/MultiWallet.sol\":3007:3031  _approveAddress.length-1 */\n      tag_83\n      swap2\n      swap1\n      tag_84\n      jump\t// in\n    tag_83:\n        /* \"contracts/test_work/MultiWallet.sol\":2991:3032  _approveAddress[_approveAddress.length-1] */\n      dup2\n      sload\n      dup2\n      lt\n      tag_85\n      jumpi\n      tag_86\n      tag_81\n      jump\t// in\n    tag_86:\n    tag_85:\n      swap1\n      0x00\n      mstore\n      keccak256(0x00, 0x20)\n      add\n      0x00\n      swap1\n      sload\n      swap1\n      0x0100\n      exp\n      swap1\n      div\n      0xffffffffffffffffffffffffffffffffffffffff\n      and\n        /* \"contracts/test_work/MultiWallet.sol\":2972:2987  _approveAddress */\n      dup2\n        /* \"contracts/test_work/MultiWallet.sol\":2988:2989  0 */\n      0x00\n        /* \"contracts/test_work/MultiWallet.sol\":2972:2990  _approveAddress[0] */\n      dup2\n      sload\n      dup2\n      lt\n      tag_88\n      jumpi\n      tag_89\n      tag_81\n      jump\t// in\n    tag_89:\n    tag_88:\n      swap1\n      0x00\n      mstore\n      keccak256(0x00, 0x20)\n      add\n      0x00\n        /* \"contracts/test_work/MultiWallet.sol\":2972:3032  _approveAddress[0]=_approveAddress[_approveAddress.length-1] */\n      0x0100\n      exp\n      dup2\n      sload\n      dup2\n      0xffffffffffffffffffffffffffffffffffffffff\n      mul\n      not\n      and\n      swap1\n      dup4\n      0xffffffffffffffffffffffffffffffffffffffff\n      and\n      mul\n      or\n      swap1\n      sstore\n      pop\n        /* \"contracts/test_work/MultiWallet.sol\":3046:3061  _approveAddress */\n      dup1\n        /* \"contracts/test_work/MultiWallet.sol\":3046:3067  _approveAddress.pop() */\n      dup1\n      sload\n      dup1\n      tag_91\n      jumpi\n      tag_92\n      tag_93\n      jump\t// in\n    tag_92:\n    tag_91:\n      0x01\n      swap1\n      sub\n      dup2\n      dup2\n      swap1\n      0x00\n      mstore\n      keccak256(0x00, 0x20)\n      add\n      exp(0x0100, 0x00)\n      dup2\n      sload\n      swap1\n      0xffffffffffffffffffffffffffffffffffffffff\n      mul\n      not\n      and\n      swap1\n      sstore\n      swap1\n      sstore\n        /* \"contracts/test_work/MultiWallet.sol\":2863:3078  while(_approveAddress.length > 0){... */\n      jump(tag_77)\n    tag_78:\n        /* \"contracts/test_work/MultiWallet.sol\":2410:3093  {... */\n      pop\n      pop\n        /* \"contracts/test_work/MultiWallet.sol\":2368:3093  function cancel(address sponsor) external {... */\n      pop\n      jump\t// out\n        /* \"contracts/test_work/MultiWallet.sol\":906:1158  function submit() external payable {... */\n    tag_27:\n        /* \"contracts/test_work/MultiWallet.sol\":951:964  uint256 value */\n      0x00\n        /* \"contracts/test_work/MultiWallet.sol\":967:976  msg.value */\n      callvalue\n        /* \"contracts/test_work/MultiWallet.sol\":951:976  uint256 value = msg.value */\n      swap1\n      pop\n        /* \"contracts/test_work/MultiWallet.sol\":986:1001  address sponsor */\n      0x00\n        /* \"contracts/test_work/MultiWallet.sol\":1004:1014  msg.sender */\n      caller\n        /* \"contracts/test_work/MultiWallet.sol\":986:1014  address sponsor = msg.sender */\n      swap1\n      pop\n        /* \"contracts/test_work/MultiWallet.sol\":1051:1052  0 */\n      0x00\n        /* \"contracts/test_work/MultiWallet.sol\":1029:1039  tx_Sponsor */\n      0x01\n        /* \"contracts/test_work/MultiWallet.sol\":1029:1048  tx_Sponsor[sponsor] */\n      0x00\n        /* \"contracts/test_work/MultiWallet.sol\":1040:1047  sponsor */\n      dup4\n        /* \"contracts/test_work/MultiWallet.sol\":1029:1048  tx_Sponsor[sponsor] */\n      0xffffffffffffffffffffffffffffffffffffffff\n      and\n      0xffffffffffffffffffffffffffffffffffffffff\n      and\n      dup2\n      mstore\n      0x20\n      add\n      swap1\n      dup2\n      mstore\n      0x20\n      add\n      0x00\n      keccak256\n      sload\n        /* \"contracts/test_work/MultiWallet.sol\":1029:1052  tx_Sponsor[sponsor] > 0 */\n      gt\n        /* \"contracts/test_work/MultiWallet.sol\":1025:1114  if (tx_Sponsor[sponsor] > 0) {... */\n      iszero\n      tag_96\n      jumpi\n        /* \"contracts/test_work/MultiWallet.sol\":1095:1102  sponsor */\n      dup1\n        /* \"contracts/test_work/MultiWallet.sol\":1075:1103  Invalid_Transaction(sponsor) */\n      mload(0x40)\n      0x0ce92ef000000000000000000000000000000000000000000000000000000000\n      dup2\n      mstore\n      0x04\n      add\n      tag_97\n      swap2\n      swap1\n      tag_69\n      jump\t// in\n    tag_97:\n      mload(0x40)\n      dup1\n      swap2\n      sub\n      swap1\n      revert\n        /* \"contracts/test_work/MultiWallet.sol\":1025:1114  if (tx_Sponsor[sponsor] > 0) {... */\n    tag_96:\n        /* \"contracts/test_work/MultiWallet.sol\":1146:1151  value */\n      dup2\n        /* \"contracts/test_work/MultiWallet.sol\":1124:1134  tx_Sponsor */\n      0x01\n        /* \"contracts/test_work/MultiWallet.sol\":1124:1143  tx_Sponsor[sponsor] */\n      0x00\n        /* \"contracts/test_work/MultiWallet.sol\":1135:1142  sponsor */\n      dup4\n        /* \"contracts/test_work/MultiWallet.sol\":1124:1143  tx_Sponsor[sponsor] */\n      0xffffffffffffffffffffffffffffffffffffffff\n      and\n      0xffffffffffffffffffffffffffffffffffffffff\n      and\n      dup2\n      mstore\n      0x20\n      add\n      swap1\n      dup2\n      mstore\n      0x20\n      add\n      0x00\n      keccak256\n        /* \"contracts/test_work/MultiWallet.sol\":1124:1151  tx_Sponsor[sponsor] = value */\n      dup2\n      swap1\n      sstore\n      pop\n        /* \"contracts/test_work/MultiWallet.sol\":941:1158  {... */\n      pop\n      pop\n        /* \"contracts/test_work/MultiWallet.sol\":906:1158  function submit() external payable {... */\n      jump\t// out\n        /* \"contracts/test_work/MultiWallet.sol\":3333:3473  function getSponsorapproveCount(address sponsor) external view returns(uint256){... */\n    tag_31:\n        /* \"contracts/test_work/MultiWallet.sol\":3404:3411  uint256 */\n      0x00\n        /* \"contracts/test_work/MultiWallet.sol\":3429:3444  tx_approve_info */\n      0x02\n        /* \"contracts/test_work/MultiWallet.sol\":3429:3453  tx_approve_info[sponsor] */\n      0x00\n        /* \"contracts/test_work/MultiWallet.sol\":3445:3452  sponsor */\n      dup4\n        /* \"contracts/test_work/MultiWallet.sol\":3429:3453  tx_approve_info[sponsor] */\n      0xffffffffffffffffffffffffffffffffffffffff\n      and\n      0xffffffffffffffffffffffffffffffffffffffff\n      and\n      dup2\n      mstore\n      0x20\n      add\n      swap1\n      dup2\n      mstore\n      0x20\n      add\n      0x00\n      keccak256\n        /* \"contracts/test_work/MultiWallet.sol\":3429:3466  tx_approve_info[sponsor].approveCount */\n      0x01\n      add\n      sload\n        /* \"contracts/test_work/MultiWallet.sol\":3422:3466  return tx_approve_info[sponsor].approveCount */\n      swap1\n      pop\n        /* \"contracts/test_work/MultiWallet.sol\":3333:3473  function getSponsorapproveCount(address sponsor) external view returns(uint256){... */\n      swap2\n      swap1\n      pop\n      jump\t// out\n        /* \"contracts/test_work/MultiWallet.sol\":3099:3191  function getLowSignCount() external view returns (uint16) {... */\n    tag_36:\n        /* \"contracts/test_work/MultiWallet.sol\":3149:3155  uint16 */\n      0x00\n        /* \"contracts/test_work/MultiWallet.sol\":3174:3184  sign_count */\n      immutable(\"0x5c4c6aa067b6f8e6cb38e6ab843832a94d1712d661a04d73c517d6a1931a9e5d\")\n        /* \"contracts/test_work/MultiWallet.sol\":3167:3184  return sign_count */\n      swap1\n      pop\n        /* \"contracts/test_work/MultiWallet.sol\":3099:3191  function getLowSignCount() external view returns (uint16) {... */\n      swap1\n      jump\t// out\n        /* \"contracts/test_work/MultiWallet.sol\":3480:3626  function getSponsorapprove(address sponsor) external view returns(address[] memory){... */\n    tag_42:\n        /* \"contracts/test_work/MultiWallet.sol\":3546:3562  address[] memory */\n      0x60\n        /* \"contracts/test_work/MultiWallet.sol\":3580:3595  tx_approve_info */\n      0x02\n        /* \"contracts/test_work/MultiWallet.sol\":3580:3604  tx_approve_info[sponsor] */\n      0x00\n        /* \"contracts/test_work/MultiWallet.sol\":3596:3603  sponsor */\n      dup4\n        /* \"contracts/test_work/MultiWallet.sol\":3580:3604  tx_approve_info[sponsor] */\n      0xffffffffffffffffffffffffffffffffffffffff\n      and\n      0xffffffffffffffffffffffffffffffffffffffff\n      and\n      dup2\n      mstore\n      0x20\n      add\n      swap1\n      dup2\n      mstore\n      0x20\n      add\n      0x00\n      keccak256\n        /* \"contracts/test_work/MultiWallet.sol\":3580:3619  tx_approve_info[sponsor].approveAddress */\n      0x02\n      add\n        /* \"contracts/test_work/MultiWallet.sol\":3573:3619  return tx_approve_info[sponsor].approveAddress */\n      dup1\n      sload\n      dup1\n      0x20\n      mul\n      0x20\n      add\n      mload(0x40)\n      swap1\n      dup2\n      add\n      0x40\n      mstore\n      dup1\n      swap3\n      swap2\n      swap1\n      dup2\n      dup2\n      mstore\n      0x20\n      add\n      dup3\n      dup1\n      sload\n      dup1\n      iszero\n      tag_101\n      jumpi\n      0x20\n      mul\n      dup3\n      add\n      swap2\n      swap1\n      0x00\n      mstore\n      keccak256(0x00, 0x20)\n      swap1\n    tag_102:\n      dup2\n      0x00\n      swap1\n      sload\n      swap1\n      0x0100\n      exp\n      swap1\n      div\n      0xffffffffffffffffffffffffffffffffffffffff\n      and\n      0xffffffffffffffffffffffffffffffffffffffff\n      and\n      dup2\n      mstore\n      0x20\n      add\n      swap1\n      0x01\n      add\n      swap1\n      dup1\n      dup4\n      gt\n      tag_102\n      jumpi\n    tag_101:\n      pop\n      pop\n      pop\n      pop\n      pop\n      swap1\n      pop\n        /* \"contracts/test_work/MultiWallet.sol\":3480:3626  function getSponsorapprove(address sponsor) external view returns(address[] memory){... */\n      swap2\n      swap1\n      pop\n      jump\t// out\n        /* \"contracts/test_work/MultiWallet.sol\":1164:1860  function approve(address sponsor) external {... */\n    tag_48:\n        /* \"contracts/test_work/MultiWallet.sol\":1217:1233  address _approve */\n      0x00\n        /* \"contracts/test_work/MultiWallet.sol\":1236:1246  msg.sender */\n      caller\n        /* \"contracts/test_work/MultiWallet.sol\":1217:1246  address _approve = msg.sender */\n      swap1\n      pop\n        /* \"contracts/test_work/MultiWallet.sol\":1256:1290  ApproveInfo storage newApproveInfo */\n      0x00\n        /* \"contracts/test_work/MultiWallet.sol\":1293:1308  tx_approve_info */\n      0x02\n        /* \"contracts/test_work/MultiWallet.sol\":1293:1317  tx_approve_info[sponsor] */\n      0x00\n        /* \"contracts/test_work/MultiWallet.sol\":1309:1316  sponsor */\n      dup5\n        /* \"contracts/test_work/MultiWallet.sol\":1293:1317  tx_approve_info[sponsor] */\n      0xffffffffffffffffffffffffffffffffffffffff\n      and\n      0xffffffffffffffffffffffffffffffffffffffff\n      and\n      dup2\n      mstore\n      0x20\n      add\n      swap1\n      dup2\n      mstore\n      0x20\n      add\n      0x00\n      keccak256\n        /* \"contracts/test_work/MultiWallet.sol\":1256:1317  ApproveInfo storage newApproveInfo = tx_approve_info[sponsor] */\n      swap1\n      pop\n        /* \"contracts/test_work/MultiWallet.sol\":1332:1346  newApproveInfo */\n      dup1\n        /* \"contracts/test_work/MultiWallet.sol\":1332:1356  newApproveInfo.isApprove */\n      0x03\n      add\n        /* \"contracts/test_work/MultiWallet.sol\":1332:1366  newApproveInfo.isApprove[_approve] */\n      0x00\n        /* \"contracts/test_work/MultiWallet.sol\":1357:1365  _approve */\n      dup4\n        /* \"contracts/test_work/MultiWallet.sol\":1332:1366  newApproveInfo.isApprove[_approve] */\n      0xffffffffffffffffffffffffffffffffffffffff\n      and\n      0xffffffffffffffffffffffffffffffffffffffff\n      and\n      dup2\n      mstore\n      0x20\n      add\n      swap1\n      dup2\n      mstore\n      0x20\n      add\n      0x00\n      keccak256\n      0x00\n      swap1\n      sload\n      swap1\n      0x0100\n      exp\n      swap1\n      div\n      0xff\n      and\n        /* \"contracts/test_work/MultiWallet.sol\":1328:1452  if (newApproveInfo.isApprove[_approve]) {... */\n      iszero\n      tag_104\n      jumpi\n        /* \"contracts/test_work/MultiWallet.sol\":1387:1421  Already_Approve(sponsor, _approve) */\n      0x1c85e1a89d2733cf1c37b75174ed0cf73bf83d8a8e8c158ccab25d69174bca58\n        /* \"contracts/test_work/MultiWallet.sol\":1403:1410  sponsor */\n      dup4\n        /* \"contracts/test_work/MultiWallet.sol\":1412:1420  _approve */\n      dup4\n        /* \"contracts/test_work/MultiWallet.sol\":1387:1421  Already_Approve(sponsor, _approve) */\n      mload(0x40)\n      tag_105\n      swap3\n      swap2\n      swap1\n      tag_106\n      jump\t// in\n    tag_105:\n      mload(0x40)\n      dup1\n      swap2\n      sub\n      swap1\n      log1\n        /* \"contracts/test_work/MultiWallet.sol\":1435:1442  return; */\n      pop\n      pop\n      jump(tag_103)\n        /* \"contracts/test_work/MultiWallet.sol\":1328:1452  if (newApproveInfo.isApprove[_approve]) {... */\n    tag_104:\n        /* \"contracts/test_work/MultiWallet.sol\":1484:1491  sponsor */\n      dup3\n        /* \"contracts/test_work/MultiWallet.sol\":1461:1475  newApproveInfo */\n      dup2\n        /* \"contracts/test_work/MultiWallet.sol\":1461:1481  newApproveInfo.owner */\n      0x00\n      add\n      0x00\n        /* \"contracts/test_work/MultiWallet.sol\":1461:1491  newApproveInfo.owner = sponsor */\n      0x0100\n      exp\n      dup2\n      sload\n      dup2\n      0xffffffffffffffffffffffffffffffffffffffff\n      mul\n      not\n      and\n      swap1\n      dup4\n      0xffffffffffffffffffffffffffffffffffffffff\n      and\n      mul\n      or\n      swap1\n      sstore\n      pop\n        /* \"contracts/test_work/MultiWallet.sol\":1532:1533  1 */\n      0x01\n        /* \"contracts/test_work/MultiWallet.sol\":1501:1515  newApproveInfo */\n      dup2\n        /* \"contracts/test_work/MultiWallet.sol\":1501:1528  newApproveInfo.approveCount */\n      0x01\n      add\n      0x00\n        /* \"contracts/test_work/MultiWallet.sol\":1501:1533  newApproveInfo.approveCount += 1 */\n      dup3\n      dup3\n      sload\n      tag_107\n      swap2\n      swap1\n      tag_108\n      jump\t// in\n    tag_107:\n      swap3\n      pop\n      pop\n      dup2\n      swap1\n      sstore\n      pop\n        /* \"contracts/test_work/MultiWallet.sol\":1579:1589  sign_count */\n      immutable(\"0x5c4c6aa067b6f8e6cb38e6ab843832a94d1712d661a04d73c517d6a1931a9e5d\")\n        /* \"contracts/test_work/MultiWallet.sol\":1548:1589  newApproveInfo.approveCount >= sign_count */\n      0xffff\n      and\n        /* \"contracts/test_work/MultiWallet.sol\":1548:1562  newApproveInfo */\n      dup2\n        /* \"contracts/test_work/MultiWallet.sol\":1548:1575  newApproveInfo.approveCount */\n      0x01\n      add\n      sload\n        /* \"contracts/test_work/MultiWallet.sol\":1548:1589  newApproveInfo.approveCount >= sign_count */\n      lt\n        /* \"contracts/test_work/MultiWallet.sol\":1544:1647  if (newApproveInfo.approveCount >= sign_count) {... */\n      tag_109\n      jumpi\n        /* \"contracts/test_work/MultiWallet.sol\":1632:1636  true */\n      0x01\n        /* \"contracts/test_work/MultiWallet.sol\":1605:1619  newApproveInfo */\n      dup2\n        /* \"contracts/test_work/MultiWallet.sol\":1605:1629  newApproveInfo.isExecute */\n      0x00\n      add\n      0x14\n        /* \"contracts/test_work/MultiWallet.sol\":1605:1636  newApproveInfo.isExecute = true */\n      0x0100\n      exp\n      dup2\n      sload\n      dup2\n      0xff\n      mul\n      not\n      and\n      swap1\n      dup4\n      iszero\n      iszero\n      mul\n      or\n      swap1\n      sstore\n      pop\n        /* \"contracts/test_work/MultiWallet.sol\":1544:1647  if (newApproveInfo.approveCount >= sign_count) {... */\n    tag_109:\n        /* \"contracts/test_work/MultiWallet.sol\":1657:1671  newApproveInfo */\n      dup1\n        /* \"contracts/test_work/MultiWallet.sol\":1657:1686  newApproveInfo.approveAddress */\n      0x02\n      add\n        /* \"contracts/test_work/MultiWallet.sol\":1692:1700  _approve */\n      dup3\n        /* \"contracts/test_work/MultiWallet.sol\":1657:1701  newApproveInfo.approveAddress.push(_approve) */\n      swap1\n      dup1\n      0x01\n      dup2\n      sload\n      add\n      dup1\n      dup3\n      sstore\n      dup1\n      swap2\n      pop\n      pop\n      0x01\n      swap1\n      sub\n      swap1\n      0x00\n      mstore\n      keccak256(0x00, 0x20)\n      add\n      0x00\n      swap1\n      swap2\n      swap1\n      swap2\n      swap1\n      swap2\n      0x0100\n      exp\n      dup2\n      sload\n      dup2\n      0xffffffffffffffffffffffffffffffffffffffff\n      mul\n      not\n      and\n      swap1\n      dup4\n      0xffffffffffffffffffffffffffffffffffffffff\n      and\n      mul\n      or\n      swap1\n      sstore\n      pop\n        /* \"contracts/test_work/MultiWallet.sol\":1748:1752  true */\n      0x01\n        /* \"contracts/test_work/MultiWallet.sol\":1711:1725  newApproveInfo */\n      dup2\n        /* \"contracts/test_work/MultiWallet.sol\":1711:1735  newApproveInfo.isApprove */\n      0x03\n      add\n        /* \"contracts/test_work/MultiWallet.sol\":1711:1745  newApproveInfo.isApprove[_approve] */\n      0x00\n        /* \"contracts/test_work/MultiWallet.sol\":1736:1744  _approve */\n      dup5\n        /* \"contracts/test_work/MultiWallet.sol\":1711:1745  newApproveInfo.isApprove[_approve] */\n      0xffffffffffffffffffffffffffffffffffffffff\n      and\n      0xffffffffffffffffffffffffffffffffffffffff\n      and\n      dup2\n      mstore\n      0x20\n      add\n      swap1\n      dup2\n      mstore\n      0x20\n      add\n      0x00\n      keccak256\n      0x00\n        /* \"contracts/test_work/MultiWallet.sol\":1711:1752  newApproveInfo.isApprove[_approve] = true */\n      0x0100\n      exp\n      dup2\n      sload\n      dup2\n      0xff\n      mul\n      not\n      and\n      swap1\n      dup4\n      iszero\n      iszero\n      mul\n      or\n      swap1\n      sstore\n      pop\n        /* \"contracts/test_work/MultiWallet.sol\":1786:1803  TxStatus.APPROVED */\n      0x01\n        /* \"contracts/test_work/MultiWallet.sol\":1762:1776  newApproveInfo */\n      dup2\n        /* \"contracts/test_work/MultiWallet.sol\":1762:1783  newApproveInfo.status */\n      0x04\n      add\n      0x00\n        /* \"contracts/test_work/MultiWallet.sol\":1762:1803  newApproveInfo.status = TxStatus.APPROVED */\n      0x0100\n      exp\n      dup2\n      sload\n      dup2\n      0xff\n      mul\n      not\n      and\n      swap1\n      dup4\n      0x02\n      dup2\n      gt\n      iszero\n      tag_111\n      jumpi\n      tag_112\n      tag_56\n      jump\t// in\n    tag_112:\n    tag_111:\n      mul\n      or\n      swap1\n      sstore\n      pop\n        /* \"contracts/test_work/MultiWallet.sol\":1819:1853  Already_Approve(sponsor, _approve) */\n      0x1c85e1a89d2733cf1c37b75174ed0cf73bf83d8a8e8c158ccab25d69174bca58\n        /* \"contracts/test_work/MultiWallet.sol\":1835:1842  sponsor */\n      dup4\n        /* \"contracts/test_work/MultiWallet.sol\":1844:1852  _approve */\n      dup4\n        /* \"contracts/test_work/MultiWallet.sol\":1819:1853  Already_Approve(sponsor, _approve) */\n      mload(0x40)\n      tag_113\n      swap3\n      swap2\n      swap1\n      tag_106\n      jump\t// in\n    tag_113:\n      mload(0x40)\n      dup1\n      swap2\n      sub\n      swap1\n      log1\n        /* \"contracts/test_work/MultiWallet.sol\":1207:1860  {... */\n      pop\n      pop\n        /* \"contracts/test_work/MultiWallet.sol\":1164:1860  function approve(address sponsor) external {... */\n    tag_103:\n      pop\n      jump\t// out\n        /* \"#utility.yul\":88:205   */\n    tag_115:\n        /* \"#utility.yul\":197:198   */\n      0x00\n        /* \"#utility.yul\":194:195   */\n      dup1\n        /* \"#utility.yul\":187:199   */\n      revert\n        /* \"#utility.yul\":334:460   */\n    tag_117:\n        /* \"#utility.yul\":371:378   */\n      0x00\n        /* \"#utility.yul\":411:453   */\n      0xffffffffffffffffffffffffffffffffffffffff\n        /* \"#utility.yul\":404:409   */\n      dup3\n        /* \"#utility.yul\":400:454   */\n      and\n        /* \"#utility.yul\":389:454   */\n      swap1\n      pop\n        /* \"#utility.yul\":334:460   */\n      swap2\n      swap1\n      pop\n      jump\t// out\n        /* \"#utility.yul\":466:562   */\n    tag_118:\n        /* \"#utility.yul\":503:510   */\n      0x00\n        /* \"#utility.yul\":532:556   */\n      tag_152\n        /* \"#utility.yul\":550:555   */\n      dup3\n        /* \"#utility.yul\":532:556   */\n      tag_117\n      jump\t// in\n    tag_152:\n        /* \"#utility.yul\":521:556   */\n      swap1\n      pop\n        /* \"#utility.yul\":466:562   */\n      swap2\n      swap1\n      pop\n      jump\t// out\n        /* \"#utility.yul\":568:690   */\n    tag_119:\n        /* \"#utility.yul\":641:665   */\n      tag_154\n        /* \"#utility.yul\":659:664   */\n      dup2\n        /* \"#utility.yul\":641:665   */\n      tag_118\n      jump\t// in\n    tag_154:\n        /* \"#utility.yul\":634:639   */\n      dup2\n        /* \"#utility.yul\":631:666   */\n      eq\n        /* \"#utility.yul\":621:684   */\n      tag_155\n      jumpi\n        /* \"#utility.yul\":680:681   */\n      0x00\n        /* \"#utility.yul\":677:678   */\n      dup1\n        /* \"#utility.yul\":670:682   */\n      revert\n        /* \"#utility.yul\":621:684   */\n    tag_155:\n        /* \"#utility.yul\":568:690   */\n      pop\n      jump\t// out\n        /* \"#utility.yul\":696:835   */\n    tag_120:\n        /* \"#utility.yul\":742:747   */\n      0x00\n        /* \"#utility.yul\":780:786   */\n      dup2\n        /* \"#utility.yul\":767:787   */\n      calldataload\n        /* \"#utility.yul\":758:787   */\n      swap1\n      pop\n        /* \"#utility.yul\":796:829   */\n      tag_157\n        /* \"#utility.yul\":823:828   */\n      dup2\n        /* \"#utility.yul\":796:829   */\n      tag_119\n      jump\t// in\n    tag_157:\n        /* \"#utility.yul\":696:835   */\n      swap3\n      swap2\n      pop\n      pop\n      jump\t// out\n        /* \"#utility.yul\":841:1170   */\n    tag_14:\n        /* \"#utility.yul\":900:906   */\n      0x00\n        /* \"#utility.yul\":949:951   */\n      0x20\n        /* \"#utility.yul\":937:946   */\n      dup3\n        /* \"#utility.yul\":928:935   */\n      dup5\n        /* \"#utility.yul\":924:947   */\n      sub\n        /* \"#utility.yul\":920:952   */\n      slt\n        /* \"#utility.yul\":917:1036   */\n      iszero\n      tag_159\n      jumpi\n        /* \"#utility.yul\":955:1034   */\n      tag_160\n      tag_115\n      jump\t// in\n    tag_160:\n        /* \"#utility.yul\":917:1036   */\n    tag_159:\n        /* \"#utility.yul\":1075:1076   */\n      0x00\n        /* \"#utility.yul\":1100:1153   */\n      tag_161\n        /* \"#utility.yul\":1145:1152   */\n      dup5\n        /* \"#utility.yul\":1136:1142   */\n      dup3\n        /* \"#utility.yul\":1125:1134   */\n      dup6\n        /* \"#utility.yul\":1121:1143   */\n      add\n        /* \"#utility.yul\":1100:1153   */\n      tag_120\n      jump\t// in\n    tag_161:\n        /* \"#utility.yul\":1090:1153   */\n      swap2\n      pop\n        /* \"#utility.yul\":1046:1163   */\n      pop\n        /* \"#utility.yul\":841:1170   */\n      swap3\n      swap2\n      pop\n      pop\n      jump\t// out\n        /* \"#utility.yul\":1176:1356   */\n    tag_56:\n        /* \"#utility.yul\":1224:1301   */\n      0x4e487b7100000000000000000000000000000000000000000000000000000000\n        /* \"#utility.yul\":1221:1222   */\n      0x00\n        /* \"#utility.yul\":1214:1302   */\n      mstore\n        /* \"#utility.yul\":1321:1325   */\n      0x21\n        /* \"#utility.yul\":1318:1319   */\n      0x04\n        /* \"#utility.yul\":1311:1326   */\n      mstore\n        /* \"#utility.yul\":1345:1349   */\n      0x24\n        /* \"#utility.yul\":1342:1343   */\n      0x00\n        /* \"#utility.yul\":1335:1350   */\n      revert\n        /* \"#utility.yul\":1362:1478   */\n    tag_121:\n        /* \"#utility.yul\":1446:1447   */\n      0x03\n        /* \"#utility.yul\":1439:1444   */\n      dup2\n        /* \"#utility.yul\":1436:1448   */\n      lt\n        /* \"#utility.yul\":1426:1472   */\n      tag_164\n      jumpi\n        /* \"#utility.yul\":1452:1470   */\n      tag_165\n      tag_56\n      jump\t// in\n    tag_165:\n        /* \"#utility.yul\":1426:1472   */\n    tag_164:\n        /* \"#utility.yul\":1362:1478   */\n      pop\n      jump\t// out\n        /* \"#utility.yul\":1484:1617   */\n    tag_122:\n        /* \"#utility.yul\":1532:1539   */\n      0x00\n        /* \"#utility.yul\":1561:1566   */\n      dup2\n        /* \"#utility.yul\":1550:1566   */\n      swap1\n      pop\n        /* \"#utility.yul\":1567:1611   */\n      tag_167\n        /* \"#utility.yul\":1605:1610   */\n      dup3\n        /* \"#utility.yul\":1567:1611   */\n      tag_121\n      jump\t// in\n    tag_167:\n        /* \"#utility.yul\":1484:1617   */\n      swap2\n      swap1\n      pop\n      jump\t// out\n        /* \"#utility.yul\":1623:1756   */\n    tag_123:\n        /* \"#utility.yul\":1682:1691   */\n      0x00\n        /* \"#utility.yul\":1715:1750   */\n      tag_169\n        /* \"#utility.yul\":1744:1749   */\n      dup3\n        /* \"#utility.yul\":1715:1750   */\n      tag_122\n      jump\t// in\n    tag_169:\n        /* \"#utility.yul\":1702:1750   */\n      swap1\n      pop\n        /* \"#utility.yul\":1623:1756   */\n      swap2\n      swap1\n      pop\n      jump\t// out\n        /* \"#utility.yul\":1762:1911   */\n    tag_124:\n        /* \"#utility.yul\":1858:1904   */\n      tag_171\n        /* \"#utility.yul\":1898:1903   */\n      dup2\n        /* \"#utility.yul\":1858:1904   */\n      tag_123\n      jump\t// in\n    tag_171:\n        /* \"#utility.yul\":1853:1856   */\n      dup3\n        /* \"#utility.yul\":1846:1905   */\n      mstore\n        /* \"#utility.yul\":1762:1911   */\n      pop\n      pop\n      jump\t// out\n        /* \"#utility.yul\":1917:2157   */\n    tag_17:\n        /* \"#utility.yul\":2019:2023   */\n      0x00\n        /* \"#utility.yul\":2057:2059   */\n      0x20\n        /* \"#utility.yul\":2046:2055   */\n      dup3\n        /* \"#utility.yul\":2042:2060   */\n      add\n        /* \"#utility.yul\":2034:2060   */\n      swap1\n      pop\n        /* \"#utility.yul\":2070:2150   */\n      tag_173\n        /* \"#utility.yul\":2147:2148   */\n      0x00\n        /* \"#utility.yul\":2136:2145   */\n      dup4\n        /* \"#utility.yul\":2132:2149   */\n      add\n        /* \"#utility.yul\":2123:2129   */\n      dup5\n        /* \"#utility.yul\":2070:2150   */\n      tag_124\n      jump\t// in\n    tag_173:\n        /* \"#utility.yul\":1917:2157   */\n      swap3\n      swap2\n      pop\n      pop\n      jump\t// out\n        /* \"#utility.yul\":2163:2240   */\n    tag_125:\n        /* \"#utility.yul\":2200:2207   */\n      0x00\n        /* \"#utility.yul\":2229:2234   */\n      dup2\n        /* \"#utility.yul\":2218:2234   */\n      swap1\n      pop\n        /* \"#utility.yul\":2163:2240   */\n      swap2\n      swap1\n      pop\n      jump\t// out\n        /* \"#utility.yul\":2246:2364   */\n    tag_126:\n        /* \"#utility.yul\":2333:2357   */\n      tag_176\n        /* \"#utility.yul\":2351:2356   */\n      dup2\n        /* \"#utility.yul\":2333:2357   */\n      tag_125\n      jump\t// in\n    tag_176:\n        /* \"#utility.yul\":2328:2331   */\n      dup3\n        /* \"#utility.yul\":2321:2358   */\n      mstore\n        /* \"#utility.yul\":2246:2364   */\n      pop\n      pop\n      jump\t// out\n        /* \"#utility.yul\":2370:2592   */\n    tag_33:\n        /* \"#utility.yul\":2463:2467   */\n      0x00\n        /* \"#utility.yul\":2501:2503   */\n      0x20\n        /* \"#utility.yul\":2490:2499   */\n      dup3\n        /* \"#utility.yul\":2486:2504   */\n      add\n        /* \"#utility.yul\":2478:2504   */\n      swap1\n      pop\n        /* \"#utility.yul\":2514:2585   */\n      tag_178\n        /* \"#utility.yul\":2582:2583   */\n      0x00\n        /* \"#utility.yul\":2571:2580   */\n      dup4\n        /* \"#utility.yul\":2567:2584   */\n      add\n        /* \"#utility.yul\":2558:2564   */\n      dup5\n        /* \"#utility.yul\":2514:2585   */\n      tag_126\n      jump\t// in\n    tag_178:\n        /* \"#utility.yul\":2370:2592   */\n      swap3\n      swap2\n      pop\n      pop\n      jump\t// out\n        /* \"#utility.yul\":2598:2687   */\n    tag_127:\n        /* \"#utility.yul\":2634:2641   */\n      0x00\n        /* \"#utility.yul\":2674:2680   */\n      0xffff\n        /* \"#utility.yul\":2667:2672   */\n      dup3\n        /* \"#utility.yul\":2663:2681   */\n      and\n        /* \"#utility.yul\":2652:2681   */\n      swap1\n      pop\n        /* \"#utility.yul\":2598:2687   */\n      swap2\n      swap1\n      pop\n      jump\t// out\n        /* \"#utility.yul\":2693:2808   */\n    tag_128:\n        /* \"#utility.yul\":2778:2801   */\n      tag_181\n        /* \"#utility.yul\":2795:2800   */\n      dup2\n        /* \"#utility.yul\":2778:2801   */\n      tag_127\n      jump\t// in\n    tag_181:\n        /* \"#utility.yul\":2773:2776   */\n      dup3\n        /* \"#utility.yul\":2766:2802   */\n      mstore\n        /* \"#utility.yul\":2693:2808   */\n      pop\n      pop\n      jump\t// out\n        /* \"#utility.yul\":2814:3032   */\n    tag_38:\n        /* \"#utility.yul\":2905:2909   */\n      0x00\n        /* \"#utility.yul\":2943:2945   */\n      0x20\n        /* \"#utility.yul\":2932:2941   */\n      dup3\n        /* \"#utility.yul\":2928:2946   */\n      add\n        /* \"#utility.yul\":2920:2946   */\n      swap1\n      pop\n        /* \"#utility.yul\":2956:3025   */\n      tag_183\n        /* \"#utility.yul\":3022:3023   */\n      0x00\n        /* \"#utility.yul\":3011:3020   */\n      dup4\n        /* \"#utility.yul\":3007:3024   */\n      add\n        /* \"#utility.yul\":2998:3004   */\n      dup5\n        /* \"#utility.yul\":2956:3025   */\n      tag_128\n      jump\t// in\n    tag_183:\n        /* \"#utility.yul\":2814:3032   */\n      swap3\n      swap2\n      pop\n      pop\n      jump\t// out\n        /* \"#utility.yul\":3038:3152   */\n    tag_129:\n        /* \"#utility.yul\":3105:3111   */\n      0x00\n        /* \"#utility.yul\":3139:3144   */\n      dup2\n        /* \"#utility.yul\":3133:3145   */\n      mload\n        /* \"#utility.yul\":3123:3145   */\n      swap1\n      pop\n        /* \"#utility.yul\":3038:3152   */\n      swap2\n      swap1\n      pop\n      jump\t// out\n        /* \"#utility.yul\":3158:3342   */\n    tag_130:\n        /* \"#utility.yul\":3257:3268   */\n      0x00\n        /* \"#utility.yul\":3291:3297   */\n      dup3\n        /* \"#utility.yul\":3286:3289   */\n      dup3\n        /* \"#utility.yul\":3279:3298   */\n      mstore\n        /* \"#utility.yul\":3331:3335   */\n      0x20\n        /* \"#utility.yul\":3326:3329   */\n      dup3\n        /* \"#utility.yul\":3322:3336   */\n      add\n        /* \"#utility.yul\":3307:3336   */\n      swap1\n      pop\n        /* \"#utility.yul\":3158:3342   */\n      swap3\n      swap2\n      pop\n      pop\n      jump\t// out\n        /* \"#utility.yul\":3348:3480   */\n    tag_131:\n        /* \"#utility.yul\":3415:3419   */\n      0x00\n        /* \"#utility.yul\":3438:3441   */\n      dup2\n        /* \"#utility.yul\":3430:3441   */\n      swap1\n      pop\n        /* \"#utility.yul\":3468:3472   */\n      0x20\n        /* \"#utility.yul\":3463:3466   */\n      dup3\n        /* \"#utility.yul\":3459:3473   */\n      add\n        /* \"#utility.yul\":3451:3473   */\n      swap1\n      pop\n        /* \"#utility.yul\":3348:3480   */\n      swap2\n      swap1\n      pop\n      jump\t// out\n        /* \"#utility.yul\":3486:3594   */\n    tag_132:\n        /* \"#utility.yul\":3563:3587   */\n      tag_188\n        /* \"#utility.yul\":3581:3586   */\n      dup2\n        /* \"#utility.yul\":3563:3587   */\n      tag_118\n      jump\t// in\n    tag_188:\n        /* \"#utility.yul\":3558:3561   */\n      dup3\n        /* \"#utility.yul\":3551:3588   */\n      mstore\n        /* \"#utility.yul\":3486:3594   */\n      pop\n      pop\n      jump\t// out\n        /* \"#utility.yul\":3600:3779   */\n    tag_133:\n        /* \"#utility.yul\":3669:3679   */\n      0x00\n        /* \"#utility.yul\":3690:3736   */\n      tag_190\n        /* \"#utility.yul\":3732:3735   */\n      dup4\n        /* \"#utility.yul\":3724:3730   */\n      dup4\n        /* \"#utility.yul\":3690:3736   */\n      tag_132\n      jump\t// in\n    tag_190:\n        /* \"#utility.yul\":3768:3772   */\n      0x20\n        /* \"#utility.yul\":3763:3766   */\n      dup4\n        /* \"#utility.yul\":3759:3773   */\n      add\n        /* \"#utility.yul\":3745:3773   */\n      swap1\n      pop\n        /* \"#utility.yul\":3600:3779   */\n      swap3\n      swap2\n      pop\n      pop\n      jump\t// out\n        /* \"#utility.yul\":3785:3898   */\n    tag_134:\n        /* \"#utility.yul\":3855:3859   */\n      0x00\n        /* \"#utility.yul\":3887:3891   */\n      0x20\n        /* \"#utility.yul\":3882:3885   */\n      dup3\n        /* \"#utility.yul\":3878:3892   */\n      add\n        /* \"#utility.yul\":3870:3892   */\n      swap1\n      pop\n        /* \"#utility.yul\":3785:3898   */\n      swap2\n      swap1\n      pop\n      jump\t// out\n        /* \"#utility.yul\":3934:4666   */\n    tag_135:\n        /* \"#utility.yul\":4053:4056   */\n      0x00\n        /* \"#utility.yul\":4082:4136   */\n      tag_193\n        /* \"#utility.yul\":4130:4135   */\n      dup3\n        /* \"#utility.yul\":4082:4136   */\n      tag_129\n      jump\t// in\n    tag_193:\n        /* \"#utility.yul\":4152:4238   */\n      tag_194\n        /* \"#utility.yul\":4231:4237   */\n      dup2\n        /* \"#utility.yul\":4226:4229   */\n      dup6\n        /* \"#utility.yul\":4152:4238   */\n      tag_130\n      jump\t// in\n    tag_194:\n        /* \"#utility.yul\":4145:4238   */\n      swap4\n      pop\n        /* \"#utility.yul\":4262:4318   */\n      tag_195\n        /* \"#utility.yul\":4312:4317   */\n      dup4\n        /* \"#utility.yul\":4262:4318   */\n      tag_131\n      jump\t// in\n    tag_195:\n        /* \"#utility.yul\":4341:4348   */\n      dup1\n        /* \"#utility.yul\":4372:4373   */\n      0x00\n        /* \"#utility.yul\":4357:4641   */\n    tag_196:\n        /* \"#utility.yul\":4382:4388   */\n      dup4\n        /* \"#utility.yul\":4379:4380   */\n      dup2\n        /* \"#utility.yul\":4376:4389   */\n      lt\n        /* \"#utility.yul\":4357:4641   */\n      iszero\n      tag_198\n      jumpi\n        /* \"#utility.yul\":4458:4464   */\n      dup2\n        /* \"#utility.yul\":4452:4465   */\n      mload\n        /* \"#utility.yul\":4485:4548   */\n      tag_199\n        /* \"#utility.yul\":4544:4547   */\n      dup9\n        /* \"#utility.yul\":4529:4542   */\n      dup3\n        /* \"#utility.yul\":4485:4548   */\n      tag_133\n      jump\t// in\n    tag_199:\n        /* \"#utility.yul\":4478:4548   */\n      swap8\n      pop\n        /* \"#utility.yul\":4571:4631   */\n      tag_200\n        /* \"#utility.yul\":4624:4630   */\n      dup4\n        /* \"#utility.yul\":4571:4631   */\n      tag_134\n      jump\t// in\n    tag_200:\n        /* \"#utility.yul\":4561:4631   */\n      swap3\n      pop\n        /* \"#utility.yul\":4417:4641   */\n      pop\n        /* \"#utility.yul\":4404:4405   */\n      0x01\n        /* \"#utility.yul\":4401:4402   */\n      dup2\n        /* \"#utility.yul\":4397:4406   */\n      add\n        /* \"#utility.yul\":4392:4406   */\n      swap1\n      pop\n        /* \"#utility.yul\":4357:4641   */\n      jump(tag_196)\n    tag_198:\n        /* \"#utility.yul\":4361:4375   */\n      pop\n        /* \"#utility.yul\":4657:4660   */\n      dup6\n        /* \"#utility.yul\":4650:4660   */\n      swap4\n      pop\n        /* \"#utility.yul\":4058:4666   */\n      pop\n      pop\n      pop\n        /* \"#utility.yul\":3934:4666   */\n      swap3\n      swap2\n      pop\n      pop\n      jump\t// out\n        /* \"#utility.yul\":4672:5045   */\n    tag_44:\n        /* \"#utility.yul\":4815:4819   */\n      0x00\n        /* \"#utility.yul\":4853:4855   */\n      0x20\n        /* \"#utility.yul\":4842:4851   */\n      dup3\n        /* \"#utility.yul\":4838:4856   */\n      add\n        /* \"#utility.yul\":4830:4856   */\n      swap1\n      pop\n        /* \"#utility.yul\":4902:4911   */\n      dup2\n        /* \"#utility.yul\":4896:4900   */\n      dup2\n        /* \"#utility.yul\":4892:4912   */\n      sub\n        /* \"#utility.yul\":4888:4889   */\n      0x00\n        /* \"#utility.yul\":4877:4886   */\n      dup4\n        /* \"#utility.yul\":4873:4890   */\n      add\n        /* \"#utility.yul\":4866:4913   */\n      mstore\n        /* \"#utility.yul\":4930:5038   */\n      tag_202\n        /* \"#utility.yul\":5033:5037   */\n      dup2\n        /* \"#utility.yul\":5024:5030   */\n      dup5\n        /* \"#utility.yul\":4930:5038   */\n      tag_135\n      jump\t// in\n    tag_202:\n        /* \"#utility.yul\":4922:5038   */\n      swap1\n      pop\n        /* \"#utility.yul\":4672:5045   */\n      swap3\n      swap2\n      pop\n      pop\n      jump\t// out\n        /* \"#utility.yul\":5051:5220   */\n    tag_136:\n        /* \"#utility.yul\":5135:5146   */\n      0x00\n        /* \"#utility.yul\":5169:5175   */\n      dup3\n        /* \"#utility.yul\":5164:5167   */\n      dup3\n        /* \"#utility.yul\":5157:5176   */\n      mstore\n        /* \"#utility.yul\":5209:5213   */\n      0x20\n        /* \"#utility.yul\":5204:5207   */\n      dup3\n        /* \"#utility.yul\":5200:5214   */\n      add\n        /* \"#utility.yul\":5185:5214   */\n      swap1\n      pop\n        /* \"#utility.yul\":5051:5220   */\n      swap3\n      swap2\n      pop\n      pop\n      jump\t// out\n        /* \"#utility.yul\":5226:5398   */\n    tag_137:\n        /* \"#utility.yul\":5366:5390   */\n      0x646f6e277420616c6c6f7720746f206578656375746500000000000000000000\n        /* \"#utility.yul\":5362:5363   */\n      0x00\n        /* \"#utility.yul\":5354:5360   */\n      dup3\n        /* \"#utility.yul\":5350:5364   */\n      add\n        /* \"#utility.yul\":5343:5391   */\n      mstore\n        /* \"#utility.yul\":5226:5398   */\n      pop\n      jump\t// out\n        /* \"#utility.yul\":5404:5770   */\n    tag_138:\n        /* \"#utility.yul\":5546:5549   */\n      0x00\n        /* \"#utility.yul\":5567:5634   */\n      tag_206\n        /* \"#utility.yul\":5631:5633   */\n      0x16\n        /* \"#utility.yul\":5626:5629   */\n      dup4\n        /* \"#utility.yul\":5567:5634   */\n      tag_136\n      jump\t// in\n    tag_206:\n        /* \"#utility.yul\":5560:5634   */\n      swap2\n      pop\n        /* \"#utility.yul\":5643:5736   */\n      tag_207\n        /* \"#utility.yul\":5732:5735   */\n      dup3\n        /* \"#utility.yul\":5643:5736   */\n      tag_137\n      jump\t// in\n    tag_207:\n        /* \"#utility.yul\":5761:5763   */\n      0x20\n        /* \"#utility.yul\":5756:5759   */\n      dup3\n        /* \"#utility.yul\":5752:5764   */\n      add\n        /* \"#utility.yul\":5745:5764   */\n      swap1\n      pop\n        /* \"#utility.yul\":5404:5770   */\n      swap2\n      swap1\n      pop\n      jump\t// out\n        /* \"#utility.yul\":5776:6195   */\n    tag_53:\n        /* \"#utility.yul\":5942:5946   */\n      0x00\n        /* \"#utility.yul\":5980:5982   */\n      0x20\n        /* \"#utility.yul\":5969:5978   */\n      dup3\n        /* \"#utility.yul\":5965:5983   */\n      add\n        /* \"#utility.yul\":5957:5983   */\n      swap1\n      pop\n        /* \"#utility.yul\":6029:6038   */\n      dup2\n        /* \"#utility.yul\":6023:6027   */\n      dup2\n        /* \"#utility.yul\":6019:6039   */\n      sub\n        /* \"#utility.yul\":6015:6016   */\n      0x00\n        /* \"#utility.yul\":6004:6013   */\n      dup4\n        /* \"#utility.yul\":6000:6017   */\n      add\n        /* \"#utility.yul\":5993:6040   */\n      mstore\n        /* \"#utility.yul\":6057:6188   */\n      tag_209\n        /* \"#utility.yul\":6183:6187   */\n      dup2\n        /* \"#utility.yul\":6057:6188   */\n      tag_138\n      jump\t// in\n    tag_209:\n        /* \"#utility.yul\":6049:6188   */\n      swap1\n      pop\n        /* \"#utility.yul\":5776:6195   */\n      swap2\n      swap1\n      pop\n      jump\t// out\n        /* \"#utility.yul\":6201:6366   */\n    tag_139:\n        /* \"#utility.yul\":6341:6358   */\n      0x6974206861732066696e69736865640000000000000000000000000000000000\n        /* \"#utility.yul\":6337:6338   */\n      0x00\n        /* \"#utility.yul\":6329:6335   */\n      dup3\n        /* \"#utility.yul\":6325:6339   */\n      add\n        /* \"#utility.yul\":6318:6359   */\n      mstore\n        /* \"#utility.yul\":6201:6366   */\n      pop\n      jump\t// out\n        /* \"#utility.yul\":6372:6738   */\n    tag_140:\n        /* \"#utility.yul\":6514:6517   */\n      0x00\n        /* \"#utility.yul\":6535:6602   */\n      tag_212\n        /* \"#utility.yul\":6599:6601   */\n      0x0f\n        /* \"#utility.yul\":6594:6597   */\n      dup4\n        /* \"#utility.yul\":6535:6602   */\n      tag_136\n      jump\t// in\n    tag_212:\n        /* \"#utility.yul\":6528:6602   */\n      swap2\n      pop\n        /* \"#utility.yul\":6611:6704   */\n      tag_213\n        /* \"#utility.yul\":6700:6703   */\n      dup3\n        /* \"#utility.yul\":6611:6704   */\n      tag_139\n      jump\t// in\n    tag_213:\n        /* \"#utility.yul\":6729:6731   */\n      0x20\n        /* \"#utility.yul\":6724:6727   */\n      dup3\n        /* \"#utility.yul\":6720:6732   */\n      add\n        /* \"#utility.yul\":6713:6732   */\n      swap1\n      pop\n        /* \"#utility.yul\":6372:6738   */\n      swap2\n      swap1\n      pop\n      jump\t// out\n        /* \"#utility.yul\":6744:7163   */\n    tag_61:\n        /* \"#utility.yul\":6910:6914   */\n      0x00\n        /* \"#utility.yul\":6948:6950   */\n      0x20\n        /* \"#utility.yul\":6937:6946   */\n      dup3\n        /* \"#utility.yul\":6933:6951   */\n      add\n        /* \"#utility.yul\":6925:6951   */\n      swap1\n      pop\n        /* \"#utility.yul\":6997:7006   */\n      dup2\n        /* \"#utility.yul\":6991:6995   */\n      dup2\n        /* \"#utility.yul\":6987:7007   */\n      sub\n        /* \"#utility.yul\":6983:6984   */\n      0x00\n        /* \"#utility.yul\":6972:6981   */\n      dup4\n        /* \"#utility.yul\":6968:6985   */\n      add\n        /* \"#utility.yul\":6961:7008   */\n      mstore\n        /* \"#utility.yul\":7025:7156   */\n      tag_215\n        /* \"#utility.yul\":7151:7155   */\n      dup2\n        /* \"#utility.yul\":7025:7156   */\n      tag_140\n      jump\t// in\n    tag_215:\n        /* \"#utility.yul\":7017:7156   */\n      swap1\n      pop\n        /* \"#utility.yul\":6744:7163   */\n      swap2\n      swap1\n      pop\n      jump\t// out\n        /* \"#utility.yul\":7169:7316   */\n    tag_141:\n        /* \"#utility.yul\":7270:7281   */\n      0x00\n        /* \"#utility.yul\":7307:7310   */\n      dup2\n        /* \"#utility.yul\":7292:7310   */\n      swap1\n      pop\n        /* \"#utility.yul\":7169:7316   */\n      swap3\n      swap2\n      pop\n      pop\n      jump\t// out\n        /* \"#utility.yul\":7322:7436   */\n    tag_142:\n      pop\n      jump\t// out\n        /* \"#utility.yul\":7442:7840   */\n    tag_143:\n        /* \"#utility.yul\":7601:7604   */\n      0x00\n        /* \"#utility.yul\":7622:7705   */\n      tag_219\n        /* \"#utility.yul\":7703:7704   */\n      0x00\n        /* \"#utility.yul\":7698:7701   */\n      dup4\n        /* \"#utility.yul\":7622:7705   */\n      tag_141\n      jump\t// in\n    tag_219:\n        /* \"#utility.yul\":7615:7705   */\n      swap2\n      pop\n        /* \"#utility.yul\":7714:7807   */\n      tag_220\n        /* \"#utility.yul\":7803:7806   */\n      dup3\n        /* \"#utility.yul\":7714:7807   */\n      tag_142\n      jump\t// in\n    tag_220:\n        /* \"#utility.yul\":7832:7833   */\n      0x00\n        /* \"#utility.yul\":7827:7830   */\n      dup3\n        /* \"#utility.yul\":7823:7834   */\n      add\n        /* \"#utility.yul\":7816:7834   */\n      swap1\n      pop\n        /* \"#utility.yul\":7442:7840   */\n      swap2\n      swap1\n      pop\n      jump\t// out\n        /* \"#utility.yul\":7846:8225   */\n    tag_63:\n        /* \"#utility.yul\":8030:8033   */\n      0x00\n        /* \"#utility.yul\":8052:8199   */\n      tag_222\n        /* \"#utility.yul\":8195:8198   */\n      dup3\n        /* \"#utility.yul\":8052:8199   */\n      tag_143\n      jump\t// in\n    tag_222:\n        /* \"#utility.yul\":8045:8199   */\n      swap2\n      pop\n        /* \"#utility.yul\":8216:8219   */\n      dup2\n        /* \"#utility.yul\":8209:8219   */\n      swap1\n      pop\n        /* \"#utility.yul\":7846:8225   */\n      swap2\n      swap1\n      pop\n      jump\t// out\n        /* \"#utility.yul\":8231:8349   */\n    tag_144:\n        /* \"#utility.yul\":8318:8342   */\n      tag_224\n        /* \"#utility.yul\":8336:8341   */\n      dup2\n        /* \"#utility.yul\":8318:8342   */\n      tag_118\n      jump\t// in\n    tag_224:\n        /* \"#utility.yul\":8313:8316   */\n      dup3\n        /* \"#utility.yul\":8306:8343   */\n      mstore\n        /* \"#utility.yul\":8231:8349   */\n      pop\n      pop\n      jump\t// out\n        /* \"#utility.yul\":8355:8577   */\n    tag_69:\n        /* \"#utility.yul\":8448:8452   */\n      0x00\n        /* \"#utility.yul\":8486:8488   */\n      0x20\n        /* \"#utility.yul\":8475:8484   */\n      dup3\n        /* \"#utility.yul\":8471:8489   */\n      add\n        /* \"#utility.yul\":8463:8489   */\n      swap1\n      pop\n        /* \"#utility.yul\":8499:8570   */\n      tag_226\n        /* \"#utility.yul\":8567:8568   */\n      0x00\n        /* \"#utility.yul\":8556:8565   */\n      dup4\n        /* \"#utility.yul\":8552:8569   */\n      add\n        /* \"#utility.yul\":8543:8549   */\n      dup5\n        /* \"#utility.yul\":8499:8570   */\n      tag_144\n      jump\t// in\n    tag_226:\n        /* \"#utility.yul\":8355:8577   */\n      swap3\n      swap2\n      pop\n      pop\n      jump\t// out\n        /* \"#utility.yul\":8583:8763   */\n    tag_81:\n        /* \"#utility.yul\":8631:8708   */\n      0x4e487b7100000000000000000000000000000000000000000000000000000000\n        /* \"#utility.yul\":8628:8629   */\n      0x00\n        /* \"#utility.yul\":8621:8709   */\n      mstore\n        /* \"#utility.yul\":8728:8732   */\n      0x32\n        /* \"#utility.yul\":8725:8726   */\n      0x04\n        /* \"#utility.yul\":8718:8733   */\n      mstore\n        /* \"#utility.yul\":8752:8756   */\n      0x24\n        /* \"#utility.yul\":8749:8750   */\n      0x00\n        /* \"#utility.yul\":8742:8757   */\n      revert\n        /* \"#utility.yul\":8769:8949   */\n    tag_145:\n        /* \"#utility.yul\":8817:8894   */\n      0x4e487b7100000000000000000000000000000000000000000000000000000000\n        /* \"#utility.yul\":8814:8815   */\n      0x00\n        /* \"#utility.yul\":8807:8895   */\n      mstore\n        /* \"#utility.yul\":8914:8918   */\n      0x11\n        /* \"#utility.yul\":8911:8912   */\n      0x04\n        /* \"#utility.yul\":8904:8919   */\n      mstore\n        /* \"#utility.yul\":8938:8942   */\n      0x24\n        /* \"#utility.yul\":8935:8936   */\n      0x00\n        /* \"#utility.yul\":8928:8943   */\n      revert\n        /* \"#utility.yul\":8955:9149   */\n    tag_84:\n        /* \"#utility.yul\":8995:8999   */\n      0x00\n        /* \"#utility.yul\":9015:9035   */\n      tag_230\n        /* \"#utility.yul\":9033:9034   */\n      dup3\n        /* \"#utility.yul\":9015:9035   */\n      tag_125\n      jump\t// in\n    tag_230:\n        /* \"#utility.yul\":9010:9035   */\n      swap2\n      pop\n        /* \"#utility.yul\":9049:9069   */\n      tag_231\n        /* \"#utility.yul\":9067:9068   */\n      dup4\n        /* \"#utility.yul\":9049:9069   */\n      tag_125\n      jump\t// in\n    tag_231:\n        /* \"#utility.yul\":9044:9069   */\n      swap3\n      pop\n        /* \"#utility.yul\":9093:9094   */\n      dup3\n        /* \"#utility.yul\":9090:9091   */\n      dup3\n        /* \"#utility.yul\":9086:9095   */\n      sub\n        /* \"#utility.yul\":9078:9095   */\n      swap1\n      pop\n        /* \"#utility.yul\":9117:9118   */\n      dup2\n        /* \"#utility.yul\":9111:9115   */\n      dup2\n        /* \"#utility.yul\":9108:9119   */\n      gt\n        /* \"#utility.yul\":9105:9142   */\n      iszero\n      tag_232\n      jumpi\n        /* \"#utility.yul\":9122:9140   */\n      tag_233\n      tag_145\n      jump\t// in\n    tag_233:\n        /* \"#utility.yul\":9105:9142   */\n    tag_232:\n        /* \"#utility.yul\":8955:9149   */\n      swap3\n      swap2\n      pop\n      pop\n      jump\t// out\n        /* \"#utility.yul\":9155:9335   */\n    tag_93:\n        /* \"#utility.yul\":9203:9280   */\n      0x4e487b7100000000000000000000000000000000000000000000000000000000\n        /* \"#utility.yul\":9200:9201   */\n      0x00\n        /* \"#utility.yul\":9193:9281   */\n      mstore\n        /* \"#utility.yul\":9300:9304   */\n      0x31\n        /* \"#utility.yul\":9297:9298   */\n      0x04\n        /* \"#utility.yul\":9290:9305   */\n      mstore\n        /* \"#utility.yul\":9324:9328   */\n      0x24\n        /* \"#utility.yul\":9321:9322   */\n      0x00\n        /* \"#utility.yul\":9314:9329   */\n      revert\n        /* \"#utility.yul\":9341:9673   */\n    tag_106:\n        /* \"#utility.yul\":9462:9466   */\n      0x00\n        /* \"#utility.yul\":9500:9502   */\n      0x40\n        /* \"#utility.yul\":9489:9498   */\n      dup3\n        /* \"#utility.yul\":9485:9503   */\n      add\n        /* \"#utility.yul\":9477:9503   */\n      swap1\n      pop\n        /* \"#utility.yul\":9513:9584   */\n      tag_236\n        /* \"#utility.yul\":9581:9582   */\n      0x00\n        /* \"#utility.yul\":9570:9579   */\n      dup4\n        /* \"#utility.yul\":9566:9583   */\n      add\n        /* \"#utility.yul\":9557:9563   */\n      dup6\n        /* \"#utility.yul\":9513:9584   */\n      tag_144\n      jump\t// in\n    tag_236:\n        /* \"#utility.yul\":9594:9666   */\n      tag_237\n        /* \"#utility.yul\":9662:9664   */\n      0x20\n        /* \"#utility.yul\":9651:9660   */\n      dup4\n        /* \"#utility.yul\":9647:9665   */\n      add\n        /* \"#utility.yul\":9638:9644   */\n      dup5\n        /* \"#utility.yul\":9594:9666   */\n      tag_144\n      jump\t// in\n    tag_237:\n        /* \"#utility.yul\":9341:9673   */\n      swap4\n      swap3\n      pop\n      pop\n      pop\n      jump\t// out\n        /* \"#utility.yul\":9679:9870   */\n    tag_108:\n        /* \"#utility.yul\":9719:9722   */\n      0x00\n        /* \"#utility.yul\":9738:9758   */\n      tag_239\n        /* \"#utility.yul\":9756:9757   */\n      dup3\n        /* \"#utility.yul\":9738:9758   */\n      tag_125\n      jump\t// in\n    tag_239:\n        /* \"#utility.yul\":9733:9758   */\n      swap2\n      pop\n        /* \"#utility.yul\":9772:9792   */\n      tag_240\n        /* \"#utility.yul\":9790:9791   */\n      dup4\n        /* \"#utility.yul\":9772:9792   */\n      tag_125\n      jump\t// in\n    tag_240:\n        /* \"#utility.yul\":9767:9792   */\n      swap3\n      pop\n        /* \"#utility.yul\":9815:9816   */\n      dup3\n        /* \"#utility.yul\":9812:9813   */\n      dup3\n        /* \"#utility.yul\":9808:9817   */\n      add\n        /* \"#utility.yul\":9801:9817   */\n      swap1\n      pop\n        /* \"#utility.yul\":9836:9839   */\n      dup1\n        /* \"#utility.yul\":9833:9834   */\n      dup3\n        /* \"#utility.yul\":9830:9840   */\n      gt\n        /* \"#utility.yul\":9827:9863   */\n      iszero\n      tag_241\n      jumpi\n        /* \"#utility.yul\":9843:9861   */\n      tag_242\n      tag_145\n      jump\t// in\n    tag_242:\n        /* \"#utility.yul\":9827:9863   */\n    tag_241:\n        /* \"#utility.yul\":9679:9870   */\n      swap3\n      swap2\n      pop\n      pop\n      jump\t// out\n\n    auxdata: 0xa264697066735822122061d23d0aa5661d0c18ca1987c0cab3159311d8882e6d782887ba381353f771b764736f6c63430008180033\n}\n",
				"bytecode": {
					"linkReferences": {},
					"object": "60a060405234801562000010575f80fd5b506040516200152638038062001526833981810160405281019062000036919062000329565b815f90805190602001906200004d92919062000066565b508061ffff1660808161ffff168152505050506200038d565b828054828255905f5260205f20908101928215620000df579160200282015b82811115620000de578251825f6101000a81548173ffffffffffffffffffffffffffffffffffffffff021916908373ffffffffffffffffffffffffffffffffffffffff1602179055509160200191906001019062000085565b5b509050620000ee9190620000f2565b5090565b5b808211156200010b575f815f905550600101620000f3565b5090565b5f604051905090565b5f80fd5b5f80fd5b5f80fd5b5f601f19601f8301169050919050565b7f4e487b71000000000000000000000000000000000000000000000000000000005f52604160045260245ffd5b6200016c8262000124565b810181811067ffffffffffffffff821117156200018e576200018d62000134565b5b80604052505050565b5f620001a26200010f565b9050620001b0828262000161565b919050565b5f67ffffffffffffffff821115620001d257620001d162000134565b5b602082029050602081019050919050565b5f80fd5b5f73ffffffffffffffffffffffffffffffffffffffff82169050919050565b5f6200021282620001e7565b9050919050565b620002248162000206565b81146200022f575f80fd5b50565b5f81519050620002428162000219565b92915050565b5f6200025e6200025884620001b5565b62000197565b90508083825260208201905060208402830185811115620002845762000283620001e3565b5b835b81811015620002b157806200029c888262000232565b84526020840193505060208101905062000286565b5050509392505050565b5f82601f830112620002d257620002d162000120565b5b8151620002e484826020860162000248565b91505092915050565b5f61ffff82169050919050565b6200030581620002ed565b811462000310575f80fd5b50565b5f815190506200032381620002fa565b92915050565b5f806040838503121562000342576200034162000118565b5b5f83015167ffffffffffffffff8111156200036257620003616200011c565b5b6200037085828601620002bb565b9250506020620003838582860162000313565b9150509250929050565b608051611179620003ad5f395f81816109040152610b2601526111795ff3fe60806040526004361061007a575f3560e01c80637c487e1e1161004d5780637c487e1e146101145780639f7d094714610150578063bcd91d731461017a578063daea85c5146101b65761007a565b8063063d51801461007e5780634b64e492146100ba5780634c33fe94146100e25780635bcb2fc61461010a575b5f80fd5b348015610089575f80fd5b506100a4600480360381019061009f9190610cf2565b6101de565b6040516100b19190610d90565b60405180910390f35b3480156100c5575f80fd5b506100e060048036038101906100db9190610cf2565b610233565b005b3480156100ed575f80fd5b5061010860048036038101906101039190610cf2565b6104c0565b005b6101126107e8565b005b34801561011f575f80fd5b5061013a60048036038101906101359190610cf2565b6108b8565b6040516101479190610dc1565b60405180910390f35b34801561015b575f80fd5b50610164610901565b6040516101719190610df6565b60405180910390f35b348015610185575f80fd5b506101a0600480360381019061019b9190610cf2565b610928565b6040516101ad9190610ec6565b60405180910390f35b3480156101c1575f80fd5b506101dc60048036038101906101d79190610cf2565b6109f3565b005b5f60025f8373ffffffffffffffffffffffffffffffffffffffff1673ffffffffffffffffffffffffffffffffffffffff1681526020019081526020015f206004015f9054906101000a900460ff169050919050565b60025f8273ffffffffffffffffffffffffffffffffffffffff1673ffffffffffffffffffffffffffffffffffffffff1681526020019081526020015f205f0160149054906101000a900460ff16156102c0576040517f08c379a00000000000000000000000000000000000000000000000000000000081526004016102b790610f40565b60405180910390fd5b6002808111156102d3576102d2610d1d565b5b60025f8373ffffffffffffffffffffffffffffffffffffffff1673ffffffffffffffffffffffffffffffffffffffff1681526020019081526020015f206004015f9054906101000a900460ff16600281111561033257610331610d1d565b5b03610372576040517f08c379a000000000000000000000000000000000000000000000000000000000815260040161036990610fa8565b60405180910390fd5b5f8173ffffffffffffffffffffffffffffffffffffffff1660015f8473ffffffffffffffffffffffffffffffffffffffff1673ffffffffffffffffffffffffffffffffffffffff1681526020019081526020015f20546040516103d490610ff3565b5f6040518083038185875af1925050503d805f811461040e576040519150601f19603f3d011682016040523d82523d5f602084013e610413565b606091505b5050905080156104bc577ffee717a0d65c7435e70a52eeec063c6e7f81ab1968c724a355296b3ef5f0b5d48260405161044c9190611016565b60405180910390a16002805f8473ffffffffffffffffffffffffffffffffffffffff1673ffffffffffffffffffffffffffffffffffffffff1681526020019081526020015f206004015f6101000a81548160ff021916908360028111156104b6576104b5610d1d565b5b02179055505b5050565b5f60015f8373ffffffffffffffffffffffffffffffffffffffff1673ffffffffffffffffffffffffffffffffffffffff1681526020019081526020015f2054111561054257806040517f0ce92ef00000000000000000000000000000000000000000000000000000000081526004016105399190611016565b60405180910390fd5b5f60015f8373ffffffffffffffffffffffffffffffffffffffff1673ffffffffffffffffffffffffffffffffffffffff1681526020019081526020015f20819055505f60025f8373ffffffffffffffffffffffffffffffffffffffff1673ffffffffffffffffffffffffffffffffffffffff1681526020019081526020015f2090505f815f015f6101000a81548173ffffffffffffffffffffffffffffffffffffffff021916908373ffffffffffffffffffffffffffffffffffffffff1602179055505f815f0160146101000a81548160ff0219169083151502179055505f81600101819055505f816004015f6101000a81548160ff0219169083600281111561064f5761064e610d1d565b5b02179055505f8160020190505b5f818054905011156107e3575f826003015f835f815481106106815761068061102f565b5b905f5260205f20015f9054906101000a900473ffffffffffffffffffffffffffffffffffffffff1673ffffffffffffffffffffffffffffffffffffffff1673ffffffffffffffffffffffffffffffffffffffff1681526020019081526020015f205f6101000a81548160ff021916908315150217905550806001828054905061070a9190611089565b8154811061071b5761071a61102f565b5b905f5260205f20015f9054906101000a900473ffffffffffffffffffffffffffffffffffffffff16815f815481106107565761075561102f565b5b905f5260205f20015f6101000a81548173ffffffffffffffffffffffffffffffffffffffff021916908373ffffffffffffffffffffffffffffffffffffffff160217905550808054806107ac576107ab6110bc565b5b600190038181905f5260205f20015f6101000a81549073ffffffffffffffffffffffffffffffffffffffff0219169055905561065c565b505050565b5f3490505f3390505f60015f8373ffffffffffffffffffffffffffffffffffffffff1673ffffffffffffffffffffffffffffffffffffffff1681526020019081526020015f2054111561087257806040517f0ce92ef00000000000000000000000000000000000000000000000000000000081526004016108699190611016565b60405180910390fd5b8160015f8373ffffffffffffffffffffffffffffffffffffffff1673ffffffffffffffffffffffffffffffffffffffff1681526020019081526020015f20819055505050565b5f60025f8373ffffffffffffffffffffffffffffffffffffffff1673ffffffffffffffffffffffffffffffffffffffff1681526020019081526020015f20600101549050919050565b5f7f0000000000000000000000000000000000000000000000000000000000000000905090565b606060025f8373ffffffffffffffffffffffffffffffffffffffff1673ffffffffffffffffffffffffffffffffffffffff1681526020019081526020015f206002018054806020026020016040519081016040528092919081815260200182805480156109e757602002820191905f5260205f20905b815f9054906101000a900473ffffffffffffffffffffffffffffffffffffffff1673ffffffffffffffffffffffffffffffffffffffff168152602001906001019080831161099e575b50505050509050919050565b5f3390505f60025f8473ffffffffffffffffffffffffffffffffffffffff1673ffffffffffffffffffffffffffffffffffffffff1681526020019081526020015f209050806003015f8373ffffffffffffffffffffffffffffffffffffffff1673ffffffffffffffffffffffffffffffffffffffff1681526020019081526020015f205f9054906101000a900460ff1615610ac8577f1c85e1a89d2733cf1c37b75174ed0cf73bf83d8a8e8c158ccab25d69174bca588383604051610ab99291906110e9565b60405180910390a15050610c91565b82815f015f6101000a81548173ffffffffffffffffffffffffffffffffffffffff021916908373ffffffffffffffffffffffffffffffffffffffff1602179055506001816001015f828254610b1d9190611110565b925050819055507f000000000000000000000000000000000000000000000000000000000000000061ffff16816001015410610b70576001815f0160146101000a81548160ff0219169083151502179055505b8060020182908060018154018082558091505060019003905f5260205f20015f9091909190916101000a81548173ffffffffffffffffffffffffffffffffffffffff021916908373ffffffffffffffffffffffffffffffffffffffff1602179055506001816003015f8473ffffffffffffffffffffffffffffffffffffffff1673ffffffffffffffffffffffffffffffffffffffff1681526020019081526020015f205f6101000a81548160ff0219169083151502179055506001816004015f6101000a81548160ff02191690836002811115610c5057610c4f610d1d565b5b02179055507f1c85e1a89d2733cf1c37b75174ed0cf73bf83d8a8e8c158ccab25d69174bca588383604051610c869291906110e9565b60405180910390a150505b50565b5f80fd5b5f73ffffffffffffffffffffffffffffffffffffffff82169050919050565b5f610cc182610c98565b9050919050565b610cd181610cb7565b8114610cdb575f80fd5b50565b5f81359050610cec81610cc8565b92915050565b5f60208284031215610d0757610d06610c94565b5b5f610d1484828501610cde565b91505092915050565b7f4e487b71000000000000000000000000000000000000000000000000000000005f52602160045260245ffd5b60038110610d5b57610d5a610d1d565b5b50565b5f819050610d6b82610d4a565b919050565b5f610d7a82610d5e565b9050919050565b610d8a81610d70565b82525050565b5f602082019050610da35f830184610d81565b92915050565b5f819050919050565b610dbb81610da9565b82525050565b5f602082019050610dd45f830184610db2565b92915050565b5f61ffff82169050919050565b610df081610dda565b82525050565b5f602082019050610e095f830184610de7565b92915050565b5f81519050919050565b5f82825260208201905092915050565b5f819050602082019050919050565b610e4181610cb7565b82525050565b5f610e528383610e38565b60208301905092915050565b5f602082019050919050565b5f610e7482610e0f565b610e7e8185610e19565b9350610e8983610e29565b805f5b83811015610eb9578151610ea08882610e47565b9750610eab83610e5e565b925050600181019050610e8c565b5085935050505092915050565b5f6020820190508181035f830152610ede8184610e6a565b905092915050565b5f82825260208201905092915050565b7f646f6e277420616c6c6f7720746f2065786563757465000000000000000000005f82015250565b5f610f2a601683610ee6565b9150610f3582610ef6565b602082019050919050565b5f6020820190508181035f830152610f5781610f1e565b9050919050565b7f6974206861732066696e697368656400000000000000000000000000000000005f82015250565b5f610f92600f83610ee6565b9150610f9d82610f5e565b602082019050919050565b5f6020820190508181035f830152610fbf81610f86565b9050919050565b5f81905092915050565b50565b5f610fde5f83610fc6565b9150610fe982610fd0565b5f82019050919050565b5f610ffd82610fd3565b9150819050919050565b61101081610cb7565b82525050565b5f6020820190506110295f830184611007565b92915050565b7f4e487b71000000000000000000000000000000000000000000000000000000005f52603260045260245ffd5b7f4e487b71000000000000000000000000000000000000000000000000000000005f52601160045260245ffd5b5f61109382610da9565b915061109e83610da9565b92508282039050818111156110b6576110b561105c565b5b92915050565b7f4e487b71000000000000000000000000000000000000000000000000000000005f52603160045260245ffd5b5f6040820190506110fc5f830185611007565b6111096020830184611007565b9392505050565b5f61111a82610da9565b915061112583610da9565b925082820190508082111561113d5761113c61105c565b5b9291505056fea264697066735822122061d23d0aa5661d0c18ca1987c0cab3159311d8882e6d782887ba381353f771b764736f6c63430008180033",
					"opcodes": "PUSH1 0xA0 PUSH1 0x40 MSTORE CALLVALUE DUP1 ISZERO PUSH3 0x10 JUMPI PUSH0 DUP1 REVERT JUMPDEST POP PUSH1 0x40 MLOAD PUSH3 0x1526 CODESIZE SUB DUP1 PUSH3 0x1526 DUP4 CODECOPY DUP2 DUP2 ADD PUSH1 0x40 MSTORE DUP2 ADD SWAP1 PUSH3 0x36 SWAP2 SWAP1 PUSH3 0x329 JUMP JUMPDEST DUP2 PUSH0 SWAP1 DUP1 MLOAD SWAP1 PUSH1 0x20 ADD SWAP1 PUSH3 0x4D SWAP3 SWAP2 SWAP1 PUSH3 0x66 JUMP JUMPDEST POP DUP1 PUSH2 0xFFFF AND PUSH1 0x80 DUP2 PUSH2 0xFFFF AND DUP2 MSTORE POP POP POP POP PUSH3 0x38D JUMP JUMPDEST DUP3 DUP1 SLOAD DUP3 DUP3 SSTORE SWAP1 PUSH0 MSTORE PUSH1 0x20 PUSH0 KECCAK256 SWAP1 DUP2 ADD SWAP3 DUP3 ISZERO PUSH3 0xDF JUMPI SWAP2 PUSH1 0x20 MUL DUP3 ADD JUMPDEST DUP3 DUP2 GT ISZERO PUSH3 0xDE JUMPI DUP3 MLOAD DUP3 PUSH0 PUSH2 0x100 EXP DUP2 SLOAD DUP2 PUSH20 0xFFFFFFFFFFFFFFFFFFFFFFFFFFFFFFFFFFFFFFFF MUL NOT AND SWAP1 DUP4 PUSH20 0xFFFFFFFFFFFFFFFFFFFFFFFFFFFFFFFFFFFFFFFF AND MUL OR SWAP1 SSTORE POP SWAP2 PUSH1 0x20 ADD SWAP2 SWAP1 PUSH1 0x1 ADD SWAP1 PUSH3 0x85 JUMP JUMPDEST JUMPDEST POP SWAP1 POP PUSH3 0xEE SWAP2 SWAP1 PUSH3 0xF2 JUMP JUMPDEST POP SWAP1 JUMP JUMPDEST JUMPDEST DUP1 DUP3 GT ISZERO PUSH3 0x10B JUMPI PUSH0 DUP2 PUSH0 SWAP1 SSTORE POP PUSH1 0x1 ADD PUSH3 0xF3 JUMP JUMPDEST POP SWAP1 JUMP JUMPDEST PUSH0 PUSH1 0x40 MLOAD SWAP1 POP SWAP1 JUMP JUMPDEST PUSH0 DUP1 REVERT JUMPDEST PUSH0 DUP1 REVERT JUMPDEST PUSH0 DUP1 REVERT JUMPDEST PUSH0 PUSH1 0x1F NOT PUSH1 0x1F DUP4 ADD AND SWAP1 POP SWAP2 SWAP1 POP JUMP JUMPDEST PUSH32 0x4E487B7100000000000000000000000000000000000000000000000000000000 PUSH0 MSTORE PUSH1 0x41 PUSH1 0x4 MSTORE PUSH1 0x24 PUSH0 REVERT JUMPDEST PUSH3 0x16C DUP3 PUSH3 0x124 JUMP JUMPDEST DUP2 ADD DUP2 DUP2 LT PUSH8 0xFFFFFFFFFFFFFFFF DUP3 GT OR ISZERO PUSH3 0x18E JUMPI PUSH3 0x18D PUSH3 0x134 JUMP JUMPDEST JUMPDEST DUP1 PUSH1 0x40 MSTORE POP POP POP JUMP JUMPDEST PUSH0 PUSH3 0x1A2 PUSH3 0x10F JUMP JUMPDEST SWAP1 POP PUSH3 0x1B0 DUP3 DUP3 PUSH3 0x161 JUMP JUMPDEST SWAP2 SWAP1 POP JUMP JUMPDEST PUSH0 PUSH8 0xFFFFFFFFFFFFFFFF DUP3 GT ISZERO PUSH3 0x1D2 JUMPI PUSH3 0x1D1 PUSH3 0x134 JUMP JUMPDEST JUMPDEST PUSH1 0x20 DUP3 MUL SWAP1 POP PUSH1 0x20 DUP2 ADD SWAP1 POP SWAP2 SWAP1 POP JUMP JUMPDEST PUSH0 DUP1 REVERT JUMPDEST PUSH0 PUSH20 0xFFFFFFFFFFFFFFFFFFFFFFFFFFFFFFFFFFFFFFFF DUP3 AND SWAP1 POP SWAP2 SWAP1 POP JUMP JUMPDEST PUSH0 PUSH3 0x212 DUP3 PUSH3 0x1E7 JUMP JUMPDEST SWAP1 POP SWAP2 SWAP1 POP JUMP JUMPDEST PUSH3 0x224 DUP2 PUSH3 0x206 JUMP JUMPDEST DUP2 EQ PUSH3 0x22F JUMPI PUSH0 DUP1 REVERT JUMPDEST POP JUMP JUMPDEST PUSH0 DUP2 MLOAD SWAP1 POP PUSH3 0x242 DUP2 PUSH3 0x219 JUMP JUMPDEST SWAP3 SWAP2 POP POP JUMP JUMPDEST PUSH0 PUSH3 0x25E PUSH3 0x258 DUP5 PUSH3 0x1B5 JUMP JUMPDEST PUSH3 0x197 JUMP JUMPDEST SWAP1 POP DUP1 DUP4 DUP3 MSTORE PUSH1 0x20 DUP3 ADD SWAP1 POP PUSH1 0x20 DUP5 MUL DUP4 ADD DUP6 DUP2 GT ISZERO PUSH3 0x284 JUMPI PUSH3 0x283 PUSH3 0x1E3 JUMP JUMPDEST JUMPDEST DUP4 JUMPDEST DUP2 DUP2 LT ISZERO PUSH3 0x2B1 JUMPI DUP1 PUSH3 0x29C DUP9 DUP3 PUSH3 0x232 JUMP JUMPDEST DUP5 MSTORE PUSH1 0x20 DUP5 ADD SWAP4 POP POP PUSH1 0x20 DUP2 ADD SWAP1 POP PUSH3 0x286 JUMP JUMPDEST POP POP POP SWAP4 SWAP3 POP POP POP JUMP JUMPDEST PUSH0 DUP3 PUSH1 0x1F DUP4 ADD SLT PUSH3 0x2D2 JUMPI PUSH3 0x2D1 PUSH3 0x120 JUMP JUMPDEST JUMPDEST DUP2 MLOAD PUSH3 0x2E4 DUP5 DUP3 PUSH1 0x20 DUP7 ADD PUSH3 0x248 JUMP JUMPDEST SWAP2 POP POP SWAP3 SWAP2 POP POP JUMP JUMPDEST PUSH0 PUSH2 0xFFFF DUP3 AND SWAP1 POP SWAP2 SWAP1 POP JUMP JUMPDEST PUSH3 0x305 DUP2 PUSH3 0x2ED JUMP JUMPDEST DUP2 EQ PUSH3 0x310 JUMPI PUSH0 DUP1 REVERT JUMPDEST POP JUMP JUMPDEST PUSH0 DUP2 MLOAD SWAP1 POP PUSH3 0x323 DUP2 PUSH3 0x2FA JUMP JUMPDEST SWAP3 SWAP2 POP POP JUMP JUMPDEST PUSH0 DUP1 PUSH1 0x40 DUP4 DUP6 SUB SLT ISZERO PUSH3 0x342 JUMPI PUSH3 0x341 PUSH3 0x118 JUMP JUMPDEST JUMPDEST PUSH0 DUP4 ADD MLOAD PUSH8 0xFFFFFFFFFFFFFFFF DUP2 GT ISZERO PUSH3 0x362 JUMPI PUSH3 0x361 PUSH3 0x11C JUMP JUMPDEST JUMPDEST PUSH3 0x370 DUP6 DUP3 DUP7 ADD PUSH3 0x2BB JUMP JUMPDEST SWAP3 POP POP PUSH1 0x20 PUSH3 0x383 DUP6 DUP3 DUP7 ADD PUSH3 0x313 JUMP JUMPDEST SWAP2 POP POP SWAP3 POP SWAP3 SWAP1 POP JUMP JUMPDEST PUSH1 0x80 MLOAD PUSH2 0x1179 PUSH3 0x3AD PUSH0 CODECOPY PUSH0 DUP2 DUP2 PUSH2 0x904 ADD MSTORE PUSH2 0xB26 ADD MSTORE PUSH2 0x1179 PUSH0 RETURN INVALID PUSH1 0x80 PUSH1 0x40 MSTORE PUSH1 0x4 CALLDATASIZE LT PUSH2 0x7A JUMPI PUSH0 CALLDATALOAD PUSH1 0xE0 SHR DUP1 PUSH4 0x7C487E1E GT PUSH2 0x4D JUMPI DUP1 PUSH4 0x7C487E1E EQ PUSH2 0x114 JUMPI DUP1 PUSH4 0x9F7D0947 EQ PUSH2 0x150 JUMPI DUP1 PUSH4 0xBCD91D73 EQ PUSH2 0x17A JUMPI DUP1 PUSH4 0xDAEA85C5 EQ PUSH2 0x1B6 JUMPI PUSH2 0x7A JUMP JUMPDEST DUP1 PUSH4 0x63D5180 EQ PUSH2 0x7E JUMPI DUP1 PUSH4 0x4B64E492 EQ PUSH2 0xBA JUMPI DUP1 PUSH4 0x4C33FE94 EQ PUSH2 0xE2 JUMPI DUP1 PUSH4 0x5BCB2FC6 EQ PUSH2 0x10A JUMPI JUMPDEST PUSH0 DUP1 REVERT JUMPDEST CALLVALUE DUP1 ISZERO PUSH2 0x89 JUMPI PUSH0 DUP1 REVERT JUMPDEST POP PUSH2 0xA4 PUSH1 0x4 DUP1 CALLDATASIZE SUB DUP2 ADD SWAP1 PUSH2 0x9F SWAP2 SWAP1 PUSH2 0xCF2 JUMP JUMPDEST PUSH2 0x1DE JUMP JUMPDEST PUSH1 0x40 MLOAD PUSH2 0xB1 SWAP2 SWAP1 PUSH2 0xD90 JUMP JUMPDEST PUSH1 0x40 MLOAD DUP1 SWAP2 SUB SWAP1 RETURN JUMPDEST CALLVALUE DUP1 ISZERO PUSH2 0xC5 JUMPI PUSH0 DUP1 REVERT JUMPDEST POP PUSH2 0xE0 PUSH1 0x4 DUP1 CALLDATASIZE SUB DUP2 ADD SWAP1 PUSH2 0xDB SWAP2 SWAP1 PUSH2 0xCF2 JUMP JUMPDEST PUSH2 0x233 JUMP JUMPDEST STOP JUMPDEST CALLVALUE DUP1 ISZERO PUSH2 0xED JUMPI PUSH0 DUP1 REVERT JUMPDEST POP PUSH2 0x108 PUSH1 0x4 DUP1 CALLDATASIZE SUB DUP2 ADD SWAP1 PUSH2 0x103 SWAP2 SWAP1 PUSH2 0xCF2 JUMP JUMPDEST PUSH2 0x4C0 JUMP JUMPDEST STOP JUMPDEST PUSH2 0x112 PUSH2 0x7E8 JUMP JUMPDEST STOP JUMPDEST CALLVALUE DUP1 ISZERO PUSH2 0x11F JUMPI PUSH0 DUP1 REVERT JUMPDEST POP PUSH2 0x13A PUSH1 0x4 DUP1 CALLDATASIZE SUB DUP2 ADD SWAP1 PUSH2 0x135 SWAP2 SWAP1 PUSH2 0xCF2 JUMP JUMPDEST PUSH2 0x8B8 JUMP JUMPDEST PUSH1 0x40 MLOAD PUSH2 0x147 SWAP2 SWAP1 PUSH2 0xDC1 JUMP JUMPDEST PUSH1 0x40 MLOAD DUP1 SWAP2 SUB SWAP1 RETURN JUMPDEST CALLVALUE DUP1 ISZERO PUSH2 0x15B JUMPI PUSH0 DUP1 REVERT JUMPDEST POP PUSH2 0x164 PUSH2 0x901 JUMP JUMPDEST PUSH1 0x40 MLOAD PUSH2 0x171 SWAP2 SWAP1 PUSH2 0xDF6 JUMP JUMPDEST PUSH1 0x40 MLOAD DUP1 SWAP2 SUB SWAP1 RETURN JUMPDEST CALLVALUE DUP1 ISZERO PUSH2 0x185 JUMPI PUSH0 DUP1 REVERT JUMPDEST POP PUSH2 0x1A0 PUSH1 0x4 DUP1 CALLDATASIZE SUB DUP2 ADD SWAP1 PUSH2 0x19B SWAP2 SWAP1 PUSH2 0xCF2 JUMP JUMPDEST PUSH2 0x928 JUMP JUMPDEST PUSH1 0x40 MLOAD PUSH2 0x1AD SWAP2 SWAP1 PUSH2 0xEC6 JUMP JUMPDEST PUSH1 0x40 MLOAD DUP1 SWAP2 SUB SWAP1 RETURN JUMPDEST CALLVALUE DUP1 ISZERO PUSH2 0x1C1 JUMPI PUSH0 DUP1 REVERT JUMPDEST POP PUSH2 0x1DC PUSH1 0x4 DUP1 CALLDATASIZE SUB DUP2 ADD SWAP1 PUSH2 0x1D7 SWAP2 SWAP1 PUSH2 0xCF2 JUMP JUMPDEST PUSH2 0x9F3 JUMP JUMPDEST STOP JUMPDEST PUSH0 PUSH1 0x2 PUSH0 DUP4 PUSH20 0xFFFFFFFFFFFFFFFFFFFFFFFFFFFFFFFFFFFFFFFF AND PUSH20 0xFFFFFFFFFFFFFFFFFFFFFFFFFFFFFFFFFFFFFFFF AND DUP2 MSTORE PUSH1 0x20 ADD SWAP1 DUP2 MSTORE PUSH1 0x20 ADD PUSH0 KECCAK256 PUSH1 0x4 ADD PUSH0 SWAP1 SLOAD SWAP1 PUSH2 0x100 EXP SWAP1 DIV PUSH1 0xFF AND SWAP1 POP SWAP2 SWAP1 POP JUMP JUMPDEST PUSH1 0x2 PUSH0 DUP3 PUSH20 0xFFFFFFFFFFFFFFFFFFFFFFFFFFFFFFFFFFFFFFFF AND PUSH20 0xFFFFFFFFFFFFFFFFFFFFFFFFFFFFFFFFFFFFFFFF AND DUP2 MSTORE PUSH1 0x20 ADD SWAP1 DUP2 MSTORE PUSH1 0x20 ADD PUSH0 KECCAK256 PUSH0 ADD PUSH1 0x14 SWAP1 SLOAD SWAP1 PUSH2 0x100 EXP SWAP1 DIV PUSH1 0xFF AND ISZERO PUSH2 0x2C0 JUMPI PUSH1 0x40 MLOAD PUSH32 0x8C379A000000000000000000000000000000000000000000000000000000000 DUP2 MSTORE PUSH1 0x4 ADD PUSH2 0x2B7 SWAP1 PUSH2 0xF40 JUMP JUMPDEST PUSH1 0x40 MLOAD DUP1 SWAP2 SUB SWAP1 REVERT JUMPDEST PUSH1 0x2 DUP1 DUP2 GT ISZERO PUSH2 0x2D3 JUMPI PUSH2 0x2D2 PUSH2 0xD1D JUMP JUMPDEST JUMPDEST PUSH1 0x2 PUSH0 DUP4 PUSH20 0xFFFFFFFFFFFFFFFFFFFFFFFFFFFFFFFFFFFFFFFF AND PUSH20 0xFFFFFFFFFFFFFFFFFFFFFFFFFFFFFFFFFFFFFFFF AND DUP2 MSTORE PUSH1 0x20 ADD SWAP1 DUP2 MSTORE PUSH1 0x20 ADD PUSH0 KECCAK256 PUSH1 0x4 ADD PUSH0 SWAP1 SLOAD SWAP1 PUSH2 0x100 EXP SWAP1 DIV PUSH1 0xFF AND PUSH1 0x2 DUP2 GT ISZERO PUSH2 0x332 JUMPI PUSH2 0x331 PUSH2 0xD1D JUMP JUMPDEST JUMPDEST SUB PUSH2 0x372 JUMPI PUSH1 0x40 MLOAD PUSH32 0x8C379A000000000000000000000000000000000000000000000000000000000 DUP2 MSTORE PUSH1 0x4 ADD PUSH2 0x369 SWAP1 PUSH2 0xFA8 JUMP JUMPDEST PUSH1 0x40 MLOAD DUP1 SWAP2 SUB SWAP1 REVERT JUMPDEST PUSH0 DUP2 PUSH20 0xFFFFFFFFFFFFFFFFFFFFFFFFFFFFFFFFFFFFFFFF AND PUSH1 0x1 PUSH0 DUP5 PUSH20 0xFFFFFFFFFFFFFFFFFFFFFFFFFFFFFFFFFFFFFFFF AND PUSH20 0xFFFFFFFFFFFFFFFFFFFFFFFFFFFFFFFFFFFFFFFF AND DUP2 MSTORE PUSH1 0x20 ADD SWAP1 DUP2 MSTORE PUSH1 0x20 ADD PUSH0 KECCAK256 SLOAD PUSH1 0x40 MLOAD PUSH2 0x3D4 SWAP1 PUSH2 0xFF3 JUMP JUMPDEST PUSH0 PUSH1 0x40 MLOAD DUP1 DUP4 SUB DUP2 DUP6 DUP8 GAS CALL SWAP3 POP POP POP RETURNDATASIZE DUP1 PUSH0 DUP2 EQ PUSH2 0x40E JUMPI PUSH1 0x40 MLOAD SWAP2 POP PUSH1 0x1F NOT PUSH1 0x3F RETURNDATASIZE ADD AND DUP3 ADD PUSH1 0x40 MSTORE RETURNDATASIZE DUP3 MSTORE RETURNDATASIZE PUSH0 PUSH1 0x20 DUP5 ADD RETURNDATACOPY PUSH2 0x413 JUMP JUMPDEST PUSH1 0x60 SWAP2 POP JUMPDEST POP POP SWAP1 POP DUP1 ISZERO PUSH2 0x4BC JUMPI PUSH32 0xFEE717A0D65C7435E70A52EEEC063C6E7F81AB1968C724A355296B3EF5F0B5D4 DUP3 PUSH1 0x40 MLOAD PUSH2 0x44C SWAP2 SWAP1 PUSH2 0x1016 JUMP JUMPDEST PUSH1 0x40 MLOAD DUP1 SWAP2 SUB SWAP1 LOG1 PUSH1 0x2 DUP1 PUSH0 DUP5 PUSH20 0xFFFFFFFFFFFFFFFFFFFFFFFFFFFFFFFFFFFFFFFF AND PUSH20 0xFFFFFFFFFFFFFFFFFFFFFFFFFFFFFFFFFFFFFFFF AND DUP2 MSTORE PUSH1 0x20 ADD SWAP1 DUP2 MSTORE PUSH1 0x20 ADD PUSH0 KECCAK256 PUSH1 0x4 ADD PUSH0 PUSH2 0x100 EXP DUP2 SLOAD DUP2 PUSH1 0xFF MUL NOT AND SWAP1 DUP4 PUSH1 0x2 DUP2 GT ISZERO PUSH2 0x4B6 JUMPI PUSH2 0x4B5 PUSH2 0xD1D JUMP JUMPDEST JUMPDEST MUL OR SWAP1 SSTORE POP JUMPDEST POP POP JUMP JUMPDEST PUSH0 PUSH1 0x1 PUSH0 DUP4 PUSH20 0xFFFFFFFFFFFFFFFFFFFFFFFFFFFFFFFFFFFFFFFF AND PUSH20 0xFFFFFFFFFFFFFFFFFFFFFFFFFFFFFFFFFFFFFFFF AND DUP2 MSTORE PUSH1 0x20 ADD SWAP1 DUP2 MSTORE PUSH1 0x20 ADD PUSH0 KECCAK256 SLOAD GT ISZERO PUSH2 0x542 JUMPI DUP1 PUSH1 0x40 MLOAD PUSH32 0xCE92EF000000000000000000000000000000000000000000000000000000000 DUP2 MSTORE PUSH1 0x4 ADD PUSH2 0x539 SWAP2 SWAP1 PUSH2 0x1016 JUMP JUMPDEST PUSH1 0x40 MLOAD DUP1 SWAP2 SUB SWAP1 REVERT JUMPDEST PUSH0 PUSH1 0x1 PUSH0 DUP4 PUSH20 0xFFFFFFFFFFFFFFFFFFFFFFFFFFFFFFFFFFFFFFFF AND PUSH20 0xFFFFFFFFFFFFFFFFFFFFFFFFFFFFFFFFFFFFFFFF AND DUP2 MSTORE PUSH1 0x20 ADD SWAP1 DUP2 MSTORE PUSH1 0x20 ADD PUSH0 KECCAK256 DUP2 SWAP1 SSTORE POP PUSH0 PUSH1 0x2 PUSH0 DUP4 PUSH20 0xFFFFFFFFFFFFFFFFFFFFFFFFFFFFFFFFFFFFFFFF AND PUSH20 0xFFFFFFFFFFFFFFFFFFFFFFFFFFFFFFFFFFFFFFFF AND DUP2 MSTORE PUSH1 0x20 ADD SWAP1 DUP2 MSTORE PUSH1 0x20 ADD PUSH0 KECCAK256 SWAP1 POP PUSH0 DUP2 PUSH0 ADD PUSH0 PUSH2 0x100 EXP DUP2 SLOAD DUP2 PUSH20 0xFFFFFFFFFFFFFFFFFFFFFFFFFFFFFFFFFFFFFFFF MUL NOT AND SWAP1 DUP4 PUSH20 0xFFFFFFFFFFFFFFFFFFFFFFFFFFFFFFFFFFFFFFFF AND MUL OR SWAP1 SSTORE POP PUSH0 DUP2 PUSH0 ADD PUSH1 0x14 PUSH2 0x100 EXP DUP2 SLOAD DUP2 PUSH1 0xFF MUL NOT AND SWAP1 DUP4 ISZERO ISZERO MUL OR SWAP1 SSTORE POP PUSH0 DUP2 PUSH1 0x1 ADD DUP2 SWAP1 SSTORE POP PUSH0 DUP2 PUSH1 0x4 ADD PUSH0 PUSH2 0x100 EXP DUP2 SLOAD DUP2 PUSH1 0xFF MUL NOT AND SWAP1 DUP4 PUSH1 0x2 DUP2 GT ISZERO PUSH2 0x64F JUMPI PUSH2 0x64E PUSH2 0xD1D JUMP JUMPDEST JUMPDEST MUL OR SWAP1 SSTORE POP PUSH0 DUP2 PUSH1 0x2 ADD SWAP1 POP JUMPDEST PUSH0 DUP2 DUP1 SLOAD SWAP1 POP GT ISZERO PUSH2 0x7E3 JUMPI PUSH0 DUP3 PUSH1 0x3 ADD PUSH0 DUP4 PUSH0 DUP2 SLOAD DUP2 LT PUSH2 0x681 JUMPI PUSH2 0x680 PUSH2 0x102F JUMP JUMPDEST JUMPDEST SWAP1 PUSH0 MSTORE PUSH1 0x20 PUSH0 KECCAK256 ADD PUSH0 SWAP1 SLOAD SWAP1 PUSH2 0x100 EXP SWAP1 DIV PUSH20 0xFFFFFFFFFFFFFFFFFFFFFFFFFFFFFFFFFFFFFFFF AND PUSH20 0xFFFFFFFFFFFFFFFFFFFFFFFFFFFFFFFFFFFFFFFF AND PUSH20 0xFFFFFFFFFFFFFFFFFFFFFFFFFFFFFFFFFFFFFFFF AND DUP2 MSTORE PUSH1 0x20 ADD SWAP1 DUP2 MSTORE PUSH1 0x20 ADD PUSH0 KECCAK256 PUSH0 PUSH2 0x100 EXP DUP2 SLOAD DUP2 PUSH1 0xFF MUL NOT AND SWAP1 DUP4 ISZERO ISZERO MUL OR SWAP1 SSTORE POP DUP1 PUSH1 0x1 DUP3 DUP1 SLOAD SWAP1 POP PUSH2 0x70A SWAP2 SWAP1 PUSH2 0x1089 JUMP JUMPDEST DUP2 SLOAD DUP2 LT PUSH2 0x71B JUMPI PUSH2 0x71A PUSH2 0x102F JUMP JUMPDEST JUMPDEST SWAP1 PUSH0 MSTORE PUSH1 0x20 PUSH0 KECCAK256 ADD PUSH0 SWAP1 SLOAD SWAP1 PUSH2 0x100 EXP SWAP1 DIV PUSH20 0xFFFFFFFFFFFFFFFFFFFFFFFFFFFFFFFFFFFFFFFF AND DUP2 PUSH0 DUP2 SLOAD DUP2 LT PUSH2 0x756 JUMPI PUSH2 0x755 PUSH2 0x102F JUMP JUMPDEST JUMPDEST SWAP1 PUSH0 MSTORE PUSH1 0x20 PUSH0 KECCAK256 ADD PUSH0 PUSH2 0x100 EXP DUP2 SLOAD DUP2 PUSH20 0xFFFFFFFFFFFFFFFFFFFFFFFFFFFFFFFFFFFFFFFF MUL NOT AND SWAP1 DUP4 PUSH20 0xFFFFFFFFFFFFFFFFFFFFFFFFFFFFFFFFFFFFFFFF AND MUL OR SWAP1 SSTORE POP DUP1 DUP1 SLOAD DUP1 PUSH2 0x7AC JUMPI PUSH2 0x7AB PUSH2 0x10BC JUMP JUMPDEST JUMPDEST PUSH1 0x1 SWAP1 SUB DUP2 DUP2 SWAP1 PUSH0 MSTORE PUSH1 0x20 PUSH0 KECCAK256 ADD PUSH0 PUSH2 0x100 EXP DUP2 SLOAD SWAP1 PUSH20 0xFFFFFFFFFFFFFFFFFFFFFFFFFFFFFFFFFFFFFFFF MUL NOT AND SWAP1 SSTORE SWAP1 SSTORE PUSH2 0x65C JUMP JUMPDEST POP POP POP JUMP JUMPDEST PUSH0 CALLVALUE SWAP1 POP PUSH0 CALLER SWAP1 POP PUSH0 PUSH1 0x1 PUSH0 DUP4 PUSH20 0xFFFFFFFFFFFFFFFFFFFFFFFFFFFFFFFFFFFFFFFF AND PUSH20 0xFFFFFFFFFFFFFFFFFFFFFFFFFFFFFFFFFFFFFFFF AND DUP2 MSTORE PUSH1 0x20 ADD SWAP1 DUP2 MSTORE PUSH1 0x20 ADD PUSH0 KECCAK256 SLOAD GT ISZERO PUSH2 0x872 JUMPI DUP1 PUSH1 0x40 MLOAD PUSH32 0xCE92EF000000000000000000000000000000000000000000000000000000000 DUP2 MSTORE PUSH1 0x4 ADD PUSH2 0x869 SWAP2 SWAP1 PUSH2 0x1016 JUMP JUMPDEST PUSH1 0x40 MLOAD DUP1 SWAP2 SUB SWAP1 REVERT JUMPDEST DUP2 PUSH1 0x1 PUSH0 DUP4 PUSH20 0xFFFFFFFFFFFFFFFFFFFFFFFFFFFFFFFFFFFFFFFF AND PUSH20 0xFFFFFFFFFFFFFFFFFFFFFFFFFFFFFFFFFFFFFFFF AND DUP2 MSTORE PUSH1 0x20 ADD SWAP1 DUP2 MSTORE PUSH1 0x20 ADD PUSH0 KECCAK256 DUP2 SWAP1 SSTORE POP POP POP JUMP JUMPDEST PUSH0 PUSH1 0x2 PUSH0 DUP4 PUSH20 0xFFFFFFFFFFFFFFFFFFFFFFFFFFFFFFFFFFFFFFFF AND PUSH20 0xFFFFFFFFFFFFFFFFFFFFFFFFFFFFFFFFFFFFFFFF AND DUP2 MSTORE PUSH1 0x20 ADD SWAP1 DUP2 MSTORE PUSH1 0x20 ADD PUSH0 KECCAK256 PUSH1 0x1 ADD SLOAD SWAP1 POP SWAP2 SWAP1 POP JUMP JUMPDEST PUSH0 PUSH32 0x0 SWAP1 POP SWAP1 JUMP JUMPDEST PUSH1 0x60 PUSH1 0x2 PUSH0 DUP4 PUSH20 0xFFFFFFFFFFFFFFFFFFFFFFFFFFFFFFFFFFFFFFFF AND PUSH20 0xFFFFFFFFFFFFFFFFFFFFFFFFFFFFFFFFFFFFFFFF AND DUP2 MSTORE PUSH1 0x20 ADD SWAP1 DUP2 MSTORE PUSH1 0x20 ADD PUSH0 KECCAK256 PUSH1 0x2 ADD DUP1 SLOAD DUP1 PUSH1 0x20 MUL PUSH1 0x20 ADD PUSH1 0x40 MLOAD SWAP1 DUP2 ADD PUSH1 0x40 MSTORE DUP1 SWAP3 SWAP2 SWAP1 DUP2 DUP2 MSTORE PUSH1 0x20 ADD DUP3 DUP1 SLOAD DUP1 ISZERO PUSH2 0x9E7 JUMPI PUSH1 0x20 MUL DUP3 ADD SWAP2 SWAP1 PUSH0 MSTORE PUSH1 0x20 PUSH0 KECCAK256 SWAP1 JUMPDEST DUP2 PUSH0 SWAP1 SLOAD SWAP1 PUSH2 0x100 EXP SWAP1 DIV PUSH20 0xFFFFFFFFFFFFFFFFFFFFFFFFFFFFFFFFFFFFFFFF AND PUSH20 0xFFFFFFFFFFFFFFFFFFFFFFFFFFFFFFFFFFFFFFFF AND DUP2 MSTORE PUSH1 0x20 ADD SWAP1 PUSH1 0x1 ADD SWAP1 DUP1 DUP4 GT PUSH2 0x99E JUMPI JUMPDEST POP POP POP POP POP SWAP1 POP SWAP2 SWAP1 POP JUMP JUMPDEST PUSH0 CALLER SWAP1 POP PUSH0 PUSH1 0x2 PUSH0 DUP5 PUSH20 0xFFFFFFFFFFFFFFFFFFFFFFFFFFFFFFFFFFFFFFFF AND PUSH20 0xFFFFFFFFFFFFFFFFFFFFFFFFFFFFFFFFFFFFFFFF AND DUP2 MSTORE PUSH1 0x20 ADD SWAP1 DUP2 MSTORE PUSH1 0x20 ADD PUSH0 KECCAK256 SWAP1 POP DUP1 PUSH1 0x3 ADD PUSH0 DUP4 PUSH20 0xFFFFFFFFFFFFFFFFFFFFFFFFFFFFFFFFFFFFFFFF AND PUSH20 0xFFFFFFFFFFFFFFFFFFFFFFFFFFFFFFFFFFFFFFFF AND DUP2 MSTORE PUSH1 0x20 ADD SWAP1 DUP2 MSTORE PUSH1 0x20 ADD PUSH0 KECCAK256 PUSH0 SWAP1 SLOAD SWAP1 PUSH2 0x100 EXP SWAP1 DIV PUSH1 0xFF AND ISZERO PUSH2 0xAC8 JUMPI PUSH32 0x1C85E1A89D2733CF1C37B75174ED0CF73BF83D8A8E8C158CCAB25D69174BCA58 DUP4 DUP4 PUSH1 0x40 MLOAD PUSH2 0xAB9 SWAP3 SWAP2 SWAP1 PUSH2 0x10E9 JUMP JUMPDEST PUSH1 0x40 MLOAD DUP1 SWAP2 SUB SWAP1 LOG1 POP POP PUSH2 0xC91 JUMP JUMPDEST DUP3 DUP2 PUSH0 ADD PUSH0 PUSH2 0x100 EXP DUP2 SLOAD DUP2 PUSH20 0xFFFFFFFFFFFFFFFFFFFFFFFFFFFFFFFFFFFFFFFF MUL NOT AND SWAP1 DUP4 PUSH20 0xFFFFFFFFFFFFFFFFFFFFFFFFFFFFFFFFFFFFFFFF AND MUL OR SWAP1 SSTORE POP PUSH1 0x1 DUP2 PUSH1 0x1 ADD PUSH0 DUP3 DUP3 SLOAD PUSH2 0xB1D SWAP2 SWAP1 PUSH2 0x1110 JUMP JUMPDEST SWAP3 POP POP DUP2 SWAP1 SSTORE POP PUSH32 0x0 PUSH2 0xFFFF AND DUP2 PUSH1 0x1 ADD SLOAD LT PUSH2 0xB70 JUMPI PUSH1 0x1 DUP2 PUSH0 ADD PUSH1 0x14 PUSH2 0x100 EXP DUP2 SLOAD DUP2 PUSH1 0xFF MUL NOT AND SWAP1 DUP4 ISZERO ISZERO MUL OR SWAP1 SSTORE POP JUMPDEST DUP1 PUSH1 0x2 ADD DUP3 SWAP1 DUP1 PUSH1 0x1 DUP2 SLOAD ADD DUP1 DUP3 SSTORE DUP1 SWAP2 POP POP PUSH1 0x1 SWAP1 SUB SWAP1 PUSH0 MSTORE PUSH1 0x20 PUSH0 KECCAK256 ADD PUSH0 SWAP1 SWAP2 SWAP1 SWAP2 SWAP1 SWAP2 PUSH2 0x100 EXP DUP2 SLOAD DUP2 PUSH20 0xFFFFFFFFFFFFFFFFFFFFFFFFFFFFFFFFFFFFFFFF MUL NOT AND SWAP1 DUP4 PUSH20 0xFFFFFFFFFFFFFFFFFFFFFFFFFFFFFFFFFFFFFFFF AND MUL OR SWAP1 SSTORE POP PUSH1 0x1 DUP2 PUSH1 0x3 ADD PUSH0 DUP5 PUSH20 0xFFFFFFFFFFFFFFFFFFFFFFFFFFFFFFFFFFFFFFFF AND PUSH20 0xFFFFFFFFFFFFFFFFFFFFFFFFFFFFFFFFFFFFFFFF AND DUP2 MSTORE PUSH1 0x20 ADD SWAP1 DUP2 MSTORE PUSH1 0x20 ADD PUSH0 KECCAK256 PUSH0 PUSH2 0x100 EXP DUP2 SLOAD DUP2 PUSH1 0xFF MUL NOT AND SWAP1 DUP4 ISZERO ISZERO MUL OR SWAP1 SSTORE POP PUSH1 0x1 DUP2 PUSH1 0x4 ADD PUSH0 PUSH2 0x100 EXP DUP2 SLOAD DUP2 PUSH1 0xFF MUL NOT AND SWAP1 DUP4 PUSH1 0x2 DUP2 GT ISZERO PUSH2 0xC50 JUMPI PUSH2 0xC4F PUSH2 0xD1D JUMP JUMPDEST JUMPDEST MUL OR SWAP1 SSTORE POP PUSH32 0x1C85E1A89D2733CF1C37B75174ED0CF73BF83D8A8E8C158CCAB25D69174BCA58 DUP4 DUP4 PUSH1 0x40 MLOAD PUSH2 0xC86 SWAP3 SWAP2 SWAP1 PUSH2 0x10E9 JUMP JUMPDEST PUSH1 0x40 MLOAD DUP1 SWAP2 SUB SWAP1 LOG1 POP POP JUMPDEST POP JUMP JUMPDEST PUSH0 DUP1 REVERT JUMPDEST PUSH0 PUSH20 0xFFFFFFFFFFFFFFFFFFFFFFFFFFFFFFFFFFFFFFFF DUP3 AND SWAP1 POP SWAP2 SWAP1 POP JUMP JUMPDEST PUSH0 PUSH2 0xCC1 DUP3 PUSH2 0xC98 JUMP JUMPDEST SWAP1 POP SWAP2 SWAP1 POP JUMP JUMPDEST PUSH2 0xCD1 DUP2 PUSH2 0xCB7 JUMP JUMPDEST DUP2 EQ PUSH2 0xCDB JUMPI PUSH0 DUP1 REVERT JUMPDEST POP JUMP JUMPDEST PUSH0 DUP2 CALLDATALOAD SWAP1 POP PUSH2 0xCEC DUP2 PUSH2 0xCC8 JUMP JUMPDEST SWAP3 SWAP2 POP POP JUMP JUMPDEST PUSH0 PUSH1 0x20 DUP3 DUP5 SUB SLT ISZERO PUSH2 0xD07 JUMPI PUSH2 0xD06 PUSH2 0xC94 JUMP JUMPDEST JUMPDEST PUSH0 PUSH2 0xD14 DUP5 DUP3 DUP6 ADD PUSH2 0xCDE JUMP JUMPDEST SWAP2 POP POP SWAP3 SWAP2 POP POP JUMP JUMPDEST PUSH32 0x4E487B7100000000000000000000000000000000000000000000000000000000 PUSH0 MSTORE PUSH1 0x21 PUSH1 0x4 MSTORE PUSH1 0x24 PUSH0 REVERT JUMPDEST PUSH1 0x3 DUP2 LT PUSH2 0xD5B JUMPI PUSH2 0xD5A PUSH2 0xD1D JUMP JUMPDEST JUMPDEST POP JUMP JUMPDEST PUSH0 DUP2 SWAP1 POP PUSH2 0xD6B DUP3 PUSH2 0xD4A JUMP JUMPDEST SWAP2 SWAP1 POP JUMP JUMPDEST PUSH0 PUSH2 0xD7A DUP3 PUSH2 0xD5E JUMP JUMPDEST SWAP1 POP SWAP2 SWAP1 POP JUMP JUMPDEST PUSH2 0xD8A DUP2 PUSH2 0xD70 JUMP JUMPDEST DUP3 MSTORE POP POP JUMP JUMPDEST PUSH0 PUSH1 0x20 DUP3 ADD SWAP1 POP PUSH2 0xDA3 PUSH0 DUP4 ADD DUP5 PUSH2 0xD81 JUMP JUMPDEST SWAP3 SWAP2 POP POP JUMP JUMPDEST PUSH0 DUP2 SWAP1 POP SWAP2 SWAP1 POP JUMP JUMPDEST PUSH2 0xDBB DUP2 PUSH2 0xDA9 JUMP JUMPDEST DUP3 MSTORE POP POP JUMP JUMPDEST PUSH0 PUSH1 0x20 DUP3 ADD SWAP1 POP PUSH2 0xDD4 PUSH0 DUP4 ADD DUP5 PUSH2 0xDB2 JUMP JUMPDEST SWAP3 SWAP2 POP POP JUMP JUMPDEST PUSH0 PUSH2 0xFFFF DUP3 AND SWAP1 POP SWAP2 SWAP1 POP JUMP JUMPDEST PUSH2 0xDF0 DUP2 PUSH2 0xDDA JUMP JUMPDEST DUP3 MSTORE POP POP JUMP JUMPDEST PUSH0 PUSH1 0x20 DUP3 ADD SWAP1 POP PUSH2 0xE09 PUSH0 DUP4 ADD DUP5 PUSH2 0xDE7 JUMP JUMPDEST SWAP3 SWAP2 POP POP JUMP JUMPDEST PUSH0 DUP2 MLOAD SWAP1 POP SWAP2 SWAP1 POP JUMP JUMPDEST PUSH0 DUP3 DUP3 MSTORE PUSH1 0x20 DUP3 ADD SWAP1 POP SWAP3 SWAP2 POP POP JUMP JUMPDEST PUSH0 DUP2 SWAP1 POP PUSH1 0x20 DUP3 ADD SWAP1 POP SWAP2 SWAP1 POP JUMP JUMPDEST PUSH2 0xE41 DUP2 PUSH2 0xCB7 JUMP JUMPDEST DUP3 MSTORE POP POP JUMP JUMPDEST PUSH0 PUSH2 0xE52 DUP4 DUP4 PUSH2 0xE38 JUMP JUMPDEST PUSH1 0x20 DUP4 ADD SWAP1 POP SWAP3 SWAP2 POP POP JUMP JUMPDEST PUSH0 PUSH1 0x20 DUP3 ADD SWAP1 POP SWAP2 SWAP1 POP JUMP JUMPDEST PUSH0 PUSH2 0xE74 DUP3 PUSH2 0xE0F JUMP JUMPDEST PUSH2 0xE7E DUP2 DUP6 PUSH2 0xE19 JUMP JUMPDEST SWAP4 POP PUSH2 0xE89 DUP4 PUSH2 0xE29 JUMP JUMPDEST DUP1 PUSH0 JUMPDEST DUP4 DUP2 LT ISZERO PUSH2 0xEB9 JUMPI DUP2 MLOAD PUSH2 0xEA0 DUP9 DUP3 PUSH2 0xE47 JUMP JUMPDEST SWAP8 POP PUSH2 0xEAB DUP4 PUSH2 0xE5E JUMP JUMPDEST SWAP3 POP POP PUSH1 0x1 DUP2 ADD SWAP1 POP PUSH2 0xE8C JUMP JUMPDEST POP DUP6 SWAP4 POP POP POP POP SWAP3 SWAP2 POP POP JUMP JUMPDEST PUSH0 PUSH1 0x20 DUP3 ADD SWAP1 POP DUP2 DUP2 SUB PUSH0 DUP4 ADD MSTORE PUSH2 0xEDE DUP2 DUP5 PUSH2 0xE6A JUMP JUMPDEST SWAP1 POP SWAP3 SWAP2 POP POP JUMP JUMPDEST PUSH0 DUP3 DUP3 MSTORE PUSH1 0x20 DUP3 ADD SWAP1 POP SWAP3 SWAP2 POP POP JUMP JUMPDEST PUSH32 0x646F6E277420616C6C6F7720746F206578656375746500000000000000000000 PUSH0 DUP3 ADD MSTORE POP JUMP JUMPDEST PUSH0 PUSH2 0xF2A PUSH1 0x16 DUP4 PUSH2 0xEE6 JUMP JUMPDEST SWAP2 POP PUSH2 0xF35 DUP3 PUSH2 0xEF6 JUMP JUMPDEST PUSH1 0x20 DUP3 ADD SWAP1 POP SWAP2 SWAP1 POP JUMP JUMPDEST PUSH0 PUSH1 0x20 DUP3 ADD SWAP1 POP DUP2 DUP2 SUB PUSH0 DUP4 ADD MSTORE PUSH2 0xF57 DUP2 PUSH2 0xF1E JUMP JUMPDEST SWAP1 POP SWAP2 SWAP1 POP JUMP JUMPDEST PUSH32 0x6974206861732066696E69736865640000000000000000000000000000000000 PUSH0 DUP3 ADD MSTORE POP JUMP JUMPDEST PUSH0 PUSH2 0xF92 PUSH1 0xF DUP4 PUSH2 0xEE6 JUMP JUMPDEST SWAP2 POP PUSH2 0xF9D DUP3 PUSH2 0xF5E JUMP JUMPDEST PUSH1 0x20 DUP3 ADD SWAP1 POP SWAP2 SWAP1 POP JUMP JUMPDEST PUSH0 PUSH1 0x20 DUP3 ADD SWAP1 POP DUP2 DUP2 SUB PUSH0 DUP4 ADD MSTORE PUSH2 0xFBF DUP2 PUSH2 0xF86 JUMP JUMPDEST SWAP1 POP SWAP2 SWAP1 POP JUMP JUMPDEST PUSH0 DUP2 SWAP1 POP SWAP3 SWAP2 POP POP JUMP JUMPDEST POP JUMP JUMPDEST PUSH0 PUSH2 0xFDE PUSH0 DUP4 PUSH2 0xFC6 JUMP JUMPDEST SWAP2 POP PUSH2 0xFE9 DUP3 PUSH2 0xFD0 JUMP JUMPDEST PUSH0 DUP3 ADD SWAP1 POP SWAP2 SWAP1 POP JUMP JUMPDEST PUSH0 PUSH2 0xFFD DUP3 PUSH2 0xFD3 JUMP JUMPDEST SWAP2 POP DUP2 SWAP1 POP SWAP2 SWAP1 POP JUMP JUMPDEST PUSH2 0x1010 DUP2 PUSH2 0xCB7 JUMP JUMPDEST DUP3 MSTORE POP POP JUMP JUMPDEST PUSH0 PUSH1 0x20 DUP3 ADD SWAP1 POP PUSH2 0x1029 PUSH0 DUP4 ADD DUP5 PUSH2 0x1007 JUMP JUMPDEST SWAP3 SWAP2 POP POP JUMP JUMPDEST PUSH32 0x4E487B7100000000000000000000000000000000000000000000000000000000 PUSH0 MSTORE PUSH1 0x32 PUSH1 0x4 MSTORE PUSH1 0x24 PUSH0 REVERT JUMPDEST PUSH32 0x4E487B7100000000000000000000000000000000000000000000000000000000 PUSH0 MSTORE PUSH1 0x11 PUSH1 0x4 MSTORE PUSH1 0x24 PUSH0 REVERT JUMPDEST PUSH0 PUSH2 0x1093 DUP3 PUSH2 0xDA9 JUMP JUMPDEST SWAP2 POP PUSH2 0x109E DUP4 PUSH2 0xDA9 JUMP JUMPDEST SWAP3 POP DUP3 DUP3 SUB SWAP1 POP DUP2 DUP2 GT ISZERO PUSH2 0x10B6 JUMPI PUSH2 0x10B5 PUSH2 0x105C JUMP JUMPDEST JUMPDEST SWAP3 SWAP2 POP POP JUMP JUMPDEST PUSH32 0x4E487B7100000000000000000000000000000000000000000000000000000000 PUSH0 MSTORE PUSH1 0x31 PUSH1 0x4 MSTORE PUSH1 0x24 PUSH0 REVERT JUMPDEST PUSH0 PUSH1 0x40 DUP3 ADD SWAP1 POP PUSH2 0x10FC PUSH0 DUP4 ADD DUP6 PUSH2 0x1007 JUMP JUMPDEST PUSH2 0x1109 PUSH1 0x20 DUP4 ADD DUP5 PUSH2 0x1007 JUMP JUMPDEST SWAP4 SWAP3 POP POP POP JUMP JUMPDEST PUSH0 PUSH2 0x111A DUP3 PUSH2 0xDA9 JUMP JUMPDEST SWAP2 POP PUSH2 0x1125 DUP4 PUSH2 0xDA9 JUMP JUMPDEST SWAP3 POP DUP3 DUP3 ADD SWAP1 POP DUP1 DUP3 GT ISZERO PUSH2 0x113D JUMPI PUSH2 0x113C PUSH2 0x105C JUMP JUMPDEST JUMPDEST SWAP3 SWAP2 POP POP JUMP INVALID LOG2 PUSH5 0x6970667358 0x22 SLT KECCAK256 PUSH2 0xD23D EXP 0xA5 PUSH7 0x1D0C18CA1987C0 0xCA 0xB3 ISZERO SWAP4 GT 0xD8 DUP9 0x2E PUSH14 0x782887BA381353F771B764736F6C PUSH4 0x43000818 STOP CALLER "
				},
				"gasEstimates": {
					"creation": {
						"codeDepositCost": "894600",
						"executionCost": "infinite",
						"totalCost": "infinite"
					},
					"external": {
						"approve(address)": "infinite",
						"cancel(address)": "infinite",
						"execute(address)": "infinite",
						"getLowSignCount()": "infinite",
						"getSponsorStatus(address)": "2965",
						"getSponsorapprove(address)": "infinite",
						"getSponsorapproveCount(address)": "2835",
						"submit()": "24623"
					}
				},
				"methodIdentifiers": {
					"approve(address)": "daea85c5",
					"cancel(address)": "4c33fe94",
					"execute(address)": "4b64e492",
					"getLowSignCount()": "9f7d0947",
					"getSponsorStatus(address)": "063d5180",
					"getSponsorapprove(address)": "bcd91d73",
					"getSponsorapproveCount(address)": "7c487e1e",
					"submit()": "5bcb2fc6"
				}
			},
			"storageLayout": {
				"storage": [
					{
						"astId": 12,
						"contract": "contracts/test_work/MultiWallet.sol:MultiWallet",
						"label": "allOwner",
						"offset": 0,
						"slot": "0",
						"type": "t_array(t_address)dyn_storage"
					},
					{
						"astId": 39,
						"contract": "contracts/test_work/MultiWallet.sol:MultiWallet",
						"label": "tx_Sponsor",
						"offset": 0,
						"slot": "1",
						"type": "t_mapping(t_address,t_uint256)"
					},
					{
						"astId": 44,
						"contract": "contracts/test_work/MultiWallet.sol:MultiWallet",
						"label": "tx_approve_info",
						"offset": 0,
						"slot": "2",
						"type": "t_mapping(t_address,t_struct(ApproveInfo)35_storage)"
					}
				],
				"types": {
					"t_address": {
						"encoding": "inplace",
						"label": "address",
						"numberOfBytes": "20"
					},
					"t_array(t_address)dyn_storage": {
						"base": "t_address",
						"encoding": "dynamic_array",
						"label": "address[]",
						"numberOfBytes": "32"
					},
					"t_bool": {
						"encoding": "inplace",
						"label": "bool",
						"numberOfBytes": "1"
					},
					"t_enum(TxStatus)18": {
						"encoding": "inplace",
						"label": "enum MultiWallet.TxStatus",
						"numberOfBytes": "1"
					},
					"t_mapping(t_address,t_bool)": {
						"encoding": "mapping",
						"key": "t_address",
						"label": "mapping(address => bool)",
						"numberOfBytes": "32",
						"value": "t_bool"
					},
					"t_mapping(t_address,t_struct(ApproveInfo)35_storage)": {
						"encoding": "mapping",
						"key": "t_address",
						"label": "mapping(address => struct MultiWallet.ApproveInfo)",
						"numberOfBytes": "32",
						"value": "t_struct(ApproveInfo)35_storage"
					},
					"t_mapping(t_address,t_uint256)": {
						"encoding": "mapping",
						"key": "t_address",
						"label": "mapping(address => uint256)",
						"numberOfBytes": "32",
						"value": "t_uint256"
					},
					"t_struct(ApproveInfo)35_storage": {
						"encoding": "inplace",
						"label": "struct MultiWallet.ApproveInfo",
						"members": [
							{
								"astId": 20,
								"contract": "contracts/test_work/MultiWallet.sol:MultiWallet",
								"label": "owner",
								"offset": 0,
								"slot": "0",
								"type": "t_address"
							},
							{
								"astId": 22,
								"contract": "contracts/test_work/MultiWallet.sol:MultiWallet",
								"label": "isExecute",
								"offset": 20,
								"slot": "0",
								"type": "t_bool"
							},
							{
								"astId": 24,
								"contract": "contracts/test_work/MultiWallet.sol:MultiWallet",
								"label": "approveCount",
								"offset": 0,
								"slot": "1",
								"type": "t_uint256"
							},
							{
								"astId": 27,
								"contract": "contracts/test_work/MultiWallet.sol:MultiWallet",
								"label": "approveAddress",
								"offset": 0,
								"slot": "2",
								"type": "t_array(t_address)dyn_storage"
							},
							{
								"astId": 31,
								"contract": "contracts/test_work/MultiWallet.sol:MultiWallet",
								"label": "isApprove",
								"offset": 0,
								"slot": "3",
								"type": "t_mapping(t_address,t_bool)"
							},
							{
								"astId": 34,
								"contract": "contracts/test_work/MultiWallet.sol:MultiWallet",
								"label": "status",
								"offset": 0,
								"slot": "4",
								"type": "t_enum(TxStatus)18"
							}
						],
						"numberOfBytes": "160"
					},
					"t_uint256": {
						"encoding": "inplace",
						"label": "uint256",
						"numberOfBytes": "32"
					}
				}
			},
			"userdoc": {
				"kind": "user",
				"methods": {},
				"version": 1
			}
		}
	}
}