{
	"data": {
		"bytecode": {
			"linkReferences": {},
			"object": "608060405234801561000f575f80fd5b506102138061001d5f395ff3fe60806040526004361061003e575f3560e01c80633ccfd60b1461004257806395dbfc6214610058578063b60d42881461006e578063fd4e822e14610078575b5f80fd5b34801561004d575f80fd5b5061005661008e565b005b348015610063575f80fd5b5061006c6100d9565b005b610076610152565b005b348015610083575f80fd5b5061008c610154565b005b5f3390508073ffffffffffffffffffffffffffffffffffffffff166108fc4790811502906040515f60405180830381858888f193505050501580156100d5573d5f803e3d5ffd5b5050565b5f3390505f8173ffffffffffffffffffffffffffffffffffffffff1647604051610102906101c9565b5f6040518083038185875af1925050503d805f811461013c576040519150601f19603f3d011682016040523d82523d5f602084013e610141565b606091505b505090508061014e575f80fd5b5050565b565b5f3390505f8173ffffffffffffffffffffffffffffffffffffffff166108fc4790811502906040515f60405180830381858888f19350505050905080610198575f80fd5b5050565b5f81905092915050565b50565b5f6101b45f8361019c565b91506101bf826101a6565b5f82019050919050565b5f6101d3826101a9565b915081905091905056fea26469706673582212205014f7634f4f1aab77d472899698183e257d2b9a0e7bf5f03c791979253c79a264736f6c63430008180033",
			"opcodes": "PUSH1 0x80 PUSH1 0x40 MSTORE CALLVALUE DUP1 ISZERO PUSH2 0xF JUMPI PUSH0 DUP1 REVERT JUMPDEST POP PUSH2 0x213 DUP1 PUSH2 0x1D PUSH0 CODECOPY PUSH0 RETURN INVALID PUSH1 0x80 PUSH1 0x40 MSTORE PUSH1 0x4 CALLDATASIZE LT PUSH2 0x3E JUMPI PUSH0 CALLDATALOAD PUSH1 0xE0 SHR DUP1 PUSH4 0x3CCFD60B EQ PUSH2 0x42 JUMPI DUP1 PUSH4 0x95DBFC62 EQ PUSH2 0x58 JUMPI DUP1 PUSH4 0xB60D4288 EQ PUSH2 0x6E JUMPI DUP1 PUSH4 0xFD4E822E EQ PUSH2 0x78 JUMPI JUMPDEST PUSH0 DUP1 REVERT JUMPDEST CALLVALUE DUP1 ISZERO PUSH2 0x4D JUMPI PUSH0 DUP1 REVERT JUMPDEST POP PUSH2 0x56 PUSH2 0x8E JUMP JUMPDEST STOP JUMPDEST CALLVALUE DUP1 ISZERO PUSH2 0x63 JUMPI PUSH0 DUP1 REVERT JUMPDEST POP PUSH2 0x6C PUSH2 0xD9 JUMP JUMPDEST STOP JUMPDEST PUSH2 0x76 PUSH2 0x152 JUMP JUMPDEST STOP JUMPDEST CALLVALUE DUP1 ISZERO PUSH2 0x83 JUMPI PUSH0 DUP1 REVERT JUMPDEST POP PUSH2 0x8C PUSH2 0x154 JUMP JUMPDEST STOP JUMPDEST PUSH0 CALLER SWAP1 POP DUP1 PUSH20 0xFFFFFFFFFFFFFFFFFFFFFFFFFFFFFFFFFFFFFFFF AND PUSH2 0x8FC SELFBALANCE SWAP1 DUP2 ISZERO MUL SWAP1 PUSH1 0x40 MLOAD PUSH0 PUSH1 0x40 MLOAD DUP1 DUP4 SUB DUP2 DUP6 DUP9 DUP9 CALL SWAP4 POP POP POP POP ISZERO DUP1 ISZERO PUSH2 0xD5 JUMPI RETURNDATASIZE PUSH0 DUP1 RETURNDATACOPY RETURNDATASIZE PUSH0 REVERT JUMPDEST POP POP JUMP JUMPDEST PUSH0 CALLER SWAP1 POP PUSH0 DUP2 PUSH20 0xFFFFFFFFFFFFFFFFFFFFFFFFFFFFFFFFFFFFFFFF AND SELFBALANCE PUSH1 0x40 MLOAD PUSH2 0x102 SWAP1 PUSH2 0x1C9 JUMP JUMPDEST PUSH0 PUSH1 0x40 MLOAD DUP1 DUP4 SUB DUP2 DUP6 DUP8 GAS CALL SWAP3 POP POP POP RETURNDATASIZE DUP1 PUSH0 DUP2 EQ PUSH2 0x13C JUMPI PUSH1 0x40 MLOAD SWAP2 POP PUSH1 0x1F NOT PUSH1 0x3F RETURNDATASIZE ADD AND DUP3 ADD PUSH1 0x40 MSTORE RETURNDATASIZE DUP3 MSTORE RETURNDATASIZE PUSH0 PUSH1 0x20 DUP5 ADD RETURNDATACOPY PUSH2 0x141 JUMP JUMPDEST PUSH1 0x60 SWAP2 POP JUMPDEST POP POP SWAP1 POP DUP1 PUSH2 0x14E JUMPI PUSH0 DUP1 REVERT JUMPDEST POP POP JUMP JUMPDEST JUMP JUMPDEST PUSH0 CALLER SWAP1 POP PUSH0 DUP2 PUSH20 0xFFFFFFFFFFFFFFFFFFFFFFFFFFFFFFFFFFFFFFFF AND PUSH2 0x8FC SELFBALANCE SWAP1 DUP2 ISZERO MUL SWAP1 PUSH1 0x40 MLOAD PUSH0 PUSH1 0x40 MLOAD DUP1 DUP4 SUB DUP2 DUP6 DUP9 DUP9 CALL SWAP4 POP POP POP POP SWAP1 POP DUP1 PUSH2 0x198 JUMPI PUSH0 DUP1 REVERT JUMPDEST POP POP JUMP JUMPDEST PUSH0 DUP2 SWAP1 POP SWAP3 SWAP2 POP POP JUMP JUMPDEST POP JUMP JUMPDEST PUSH0 PUSH2 0x1B4 PUSH0 DUP4 PUSH2 0x19C JUMP JUMPDEST SWAP2 POP PUSH2 0x1BF DUP3 PUSH2 0x1A6 JUMP JUMPDEST PUSH0 DUP3 ADD SWAP1 POP SWAP2 SWAP1 POP JUMP JUMPDEST PUSH0 PUSH2 0x1D3 DUP3 PUSH2 0x1A9 JUMP JUMPDEST SWAP2 POP DUP2 SWAP1 POP SWAP2 SWAP1 POP JUMP INVALID LOG2 PUSH5 0x6970667358 0x22 SLT KECCAK256 POP EQ 0xF7 PUSH4 0x4F4F1AAB PUSH24 0xD472899698183E257D2B9A0E7BF5F03C791979253C79A264 PUSH20 0x6F6C634300081800330000000000000000000000 "
		},
		"gasEstimates": {
			"creation": {
				"codeDepositCost": "106200",
				"executionCost": "151",
				"totalCost": "106351"
			},
			"external": {
				"fund()": "141",
				"withdraw()": "infinite",
				"withdrawV2()": "infinite",
				"withdrawV3()": "infinite"
			}
		},
		"methodIdentifiers": {
			"fund()": "b60d4288",
			"withdraw()": "3ccfd60b",
			"withdrawV2()": "fd4e822e",
			"withdrawV3()": "95dbfc62"
		}
	},
	"abi": [
		{
			"inputs": [],
			"name": "fund",
			"outputs": [],
			"stateMutability": "payable",
			"type": "function"
		},
		{
			"inputs": [],
			"name": "withdraw",
			"outputs": [],
			"stateMutability": "nonpayable",
			"type": "function"
		},
		{
			"inputs": [],
			"name": "withdrawV2",
			"outputs": [],
			"stateMutability": "nonpayable",
			"type": "function"
		},
		{
			"inputs": [],
			"name": "withdrawV3",
			"outputs": [],
			"stateMutability": "nonpayable",
			"type": "function"
		}
	]
}