{
	"contracts/SimpleStorage.sol": {
		"SimpleStorage": {
			"abi": [
				{
					"inputs": [
						{
							"internalType": "uint256",
							"name": "_element",
							"type": "uint256"
						}
					],
					"name": "add",
					"outputs": [],
					"stateMutability": "nonpayable",
					"type": "function"
				},
				{
					"inputs": [
						{
							"internalType": "uint256",
							"name": "",
							"type": "uint256"
						}
					],
					"name": "arr",
					"outputs": [
						{
							"internalType": "uint256",
							"name": "",
							"type": "uint256"
						}
					],
					"stateMutability": "view",
					"type": "function"
				},
				{
					"inputs": [],
					"name": "favoriteNumber",
					"outputs": [
						{
							"internalType": "uint256",
							"name": "",
							"type": "uint256"
						}
					],
					"stateMutability": "view",
					"type": "function"
				},
				{
					"inputs": [],
					"name": "getArr",
					"outputs": [
						{
							"internalType": "uint256[]",
							"name": "",
							"type": "uint256[]"
						}
					],
					"stateMutability": "view",
					"type": "function"
				},
				{
					"inputs": [],
					"name": "getNum",
					"outputs": [
						{
							"internalType": "uint256",
							"name": "",
							"type": "uint256"
						}
					],
					"stateMutability": "view",
					"type": "function"
				},
				{
					"inputs": [
						{
							"internalType": "uint256",
							"name": "_favoriteNumber",
							"type": "uint256"
						}
					],
					"name": "store",
					"outputs": [],
					"stateMutability": "nonpayable",
					"type": "function"
				},
				{
					"inputs": [],
					"name": "testArr",
					"outputs": [],
					"stateMutability": "nonpayable",
					"type": "function"
				},
				{
					"inputs": [],
					"name": "testArrV2",
					"outputs": [],
					"stateMutability": "nonpayable",
					"type": "function"
				}
			],
			"devdoc": {
				"kind": "dev",
				"methods": {},
				"version": 1
			},
			"evm": {
				"assembly": "    /* \"contracts/SimpleStorage.sol\":58:1451  contract SimpleStorage {... */\n  mstore(0x40, 0x80)\n  callvalue\n  dup1\n  iszero\n  tag_1\n  jumpi\n  0x00\n  dup1\n  revert\ntag_1:\n  pop\n  dataSize(sub_0)\n  dup1\n  dataOffset(sub_0)\n  0x00\n  codecopy\n  0x00\n  return\nstop\n\nsub_0: assembly {\n        /* \"contracts/SimpleStorage.sol\":58:1451  contract SimpleStorage {... */\n      mstore(0x40, 0x80)\n      callvalue\n      dup1\n      iszero\n      tag_1\n      jumpi\n      0x00\n      dup1\n      revert\n    tag_1:\n      pop\n      jumpi(tag_2, lt(calldatasize, 0x04))\n      shr(0xe0, calldataload(0x00))\n      dup1\n      0x67e0badb\n      gt\n      tag_11\n      jumpi\n      dup1\n      0x67e0badb\n      eq\n      tag_7\n      jumpi\n      dup1\n      0x71e5ee5f\n      eq\n      tag_8\n      jumpi\n      dup1\n      0xf3790c57\n      eq\n      tag_9\n      jumpi\n      dup1\n      0xfb8cbced\n      eq\n      tag_10\n      jumpi\n      jump(tag_2)\n    tag_11:\n      dup1\n      0x1003e2d2\n      eq\n      tag_3\n      jumpi\n      dup1\n      0x30bcaaec\n      eq\n      tag_4\n      jumpi\n      dup1\n      0x471f7cdf\n      eq\n      tag_5\n      jumpi\n      dup1\n      0x6057361d\n      eq\n      tag_6\n      jumpi\n    tag_2:\n      0x00\n      dup1\n      revert\n        /* \"contracts/SimpleStorage.sol\":344:441  function add(uint256 _element) public {... */\n    tag_3:\n      tag_12\n      0x04\n      dup1\n      calldatasize\n      sub\n      dup2\n      add\n      swap1\n      tag_13\n      swap2\n      swap1\n      tag_14\n      jump\t// in\n    tag_13:\n      tag_15\n      jump\t// in\n    tag_12:\n      stop\n        /* \"contracts/SimpleStorage.sol\":957:1359  function testArrV2() public {... */\n    tag_4:\n      tag_16\n      tag_17\n      jump\t// in\n    tag_16:\n      stop\n        /* \"contracts/SimpleStorage.sol\":87:116  uint256 public favoriteNumber */\n    tag_5:\n      tag_18\n      tag_19\n      jump\t// in\n    tag_18:\n      mload(0x40)\n      tag_20\n      swap2\n      swap1\n      tag_21\n      jump\t// in\n    tag_20:\n      mload(0x40)\n      dup1\n      swap2\n      sub\n      swap1\n      return\n        /* \"contracts/SimpleStorage.sol\":150:246  function store(uint256 _favoriteNumber) public {... */\n    tag_6:\n      tag_22\n      0x04\n      dup1\n      calldatasize\n      sub\n      dup2\n      add\n      swap1\n      tag_23\n      swap2\n      swap1\n      tag_14\n      jump\t// in\n    tag_23:\n      tag_24\n      jump\t// in\n    tag_22:\n      stop\n        /* \"contracts/SimpleStorage.sol\":252:338  function getNum() public view returns (uint256) {... */\n    tag_7:\n      tag_25\n      tag_26\n      jump\t// in\n    tag_25:\n      mload(0x40)\n      tag_27\n      swap2\n      swap1\n      tag_21\n      jump\t// in\n    tag_27:\n      mload(0x40)\n      dup1\n      swap2\n      sub\n      swap1\n      return\n        /* \"contracts/SimpleStorage.sol\":123:143  uint256[] public arr */\n    tag_8:\n      tag_28\n      0x04\n      dup1\n      calldatasize\n      sub\n      dup2\n      add\n      swap1\n      tag_29\n      swap2\n      swap1\n      tag_14\n      jump\t// in\n    tag_29:\n      tag_30\n      jump\t// in\n    tag_28:\n      mload(0x40)\n      tag_31\n      swap2\n      swap1\n      tag_21\n      jump\t// in\n    tag_31:\n      mload(0x40)\n      dup1\n      swap2\n      sub\n      swap1\n      return\n        /* \"contracts/SimpleStorage.sol\":447:951  function testArr() public {... */\n    tag_9:\n      tag_32\n      tag_33\n      jump\t// in\n    tag_32:\n      stop\n        /* \"contracts/SimpleStorage.sol\":1365:1449  function getArr() public view returns (uint256[] memory) {... */\n    tag_10:\n      tag_34\n      tag_35\n      jump\t// in\n    tag_34:\n      mload(0x40)\n      tag_36\n      swap2\n      swap1\n      tag_37\n      jump\t// in\n    tag_36:\n      mload(0x40)\n      dup1\n      swap2\n      sub\n      swap1\n      return\n        /* \"contracts/SimpleStorage.sol\":344:441  function add(uint256 _element) public {... */\n    tag_15:\n        /* \"contracts/SimpleStorage.sol\":426:434  _element */\n      dup1\n        /* \"contracts/SimpleStorage.sol\":409:423  favoriteNumber */\n      sload(0x00)\n        /* \"contracts/SimpleStorage.sol\":409:434  favoriteNumber + _element */\n      tag_39\n      swap2\n      swap1\n      tag_40\n      jump\t// in\n    tag_39:\n        /* \"contracts/SimpleStorage.sol\":392:406  favoriteNumber */\n      0x00\n        /* \"contracts/SimpleStorage.sol\":392:434  favoriteNumber = favoriteNumber + _element */\n      dup2\n      swap1\n      sstore\n      pop\n        /* \"contracts/SimpleStorage.sol\":344:441  function add(uint256 _element) public {... */\n      pop\n      jump\t// out\n        /* \"contracts/SimpleStorage.sol\":957:1359  function testArrV2() public {... */\n    tag_17:\n        /* \"contracts/SimpleStorage.sol\":995:998  arr */\n      0x01\n        /* \"contracts/SimpleStorage.sol\":1004:1005  1 */\n      dup1\n        /* \"contracts/SimpleStorage.sol\":995:1006  arr.push(1) */\n      dup1\n      0x01\n      dup2\n      sload\n      add\n      dup1\n      dup3\n      sstore\n      dup1\n      swap2\n      pop\n      pop\n      0x01\n      swap1\n      sub\n      swap1\n      0x00\n      mstore\n      keccak256(0x00, 0x20)\n      add\n      0x00\n      swap1\n      swap2\n      swap1\n      swap2\n      swap1\n      swap2\n      pop\n      sstore\n        /* \"contracts/SimpleStorage.sol\":1016:1019  arr */\n      0x01\n        /* \"contracts/SimpleStorage.sol\":1025:1026  7 */\n      0x07\n        /* \"contracts/SimpleStorage.sol\":1016:1027  arr.push(7) */\n      swap1\n      dup1\n      0x01\n      dup2\n      sload\n      add\n      dup1\n      dup3\n      sstore\n      dup1\n      swap2\n      pop\n      pop\n      0x01\n      swap1\n      sub\n      swap1\n      0x00\n      mstore\n      keccak256(0x00, 0x20)\n      add\n      0x00\n      swap1\n      swap2\n      swap1\n      swap2\n      swap1\n      swap2\n      pop\n      sstore\n        /* \"contracts/SimpleStorage.sol\":1037:1040  arr */\n      0x01\n        /* \"contracts/SimpleStorage.sol\":1046:1047  8 */\n      0x08\n        /* \"contracts/SimpleStorage.sol\":1037:1048  arr.push(8) */\n      swap1\n      dup1\n      0x01\n      dup2\n      sload\n      add\n      dup1\n      dup3\n      sstore\n      dup1\n      swap2\n      pop\n      pop\n      0x01\n      swap1\n      sub\n      swap1\n      0x00\n      mstore\n      keccak256(0x00, 0x20)\n      add\n      0x00\n      swap1\n      swap2\n      swap1\n      swap2\n      swap1\n      swap2\n      pop\n      sstore\n        /* \"contracts/SimpleStorage.sol\":1058:1061  arr */\n      0x01\n        /* \"contracts/SimpleStorage.sol\":1067:1068  2 */\n      0x02\n        /* \"contracts/SimpleStorage.sol\":1058:1069  arr.push(2) */\n      swap1\n      dup1\n      0x01\n      dup2\n      sload\n      add\n      dup1\n      dup3\n      sstore\n      dup1\n      swap2\n      pop\n      pop\n      0x01\n      swap1\n      sub\n      swap1\n      0x00\n      mstore\n      keccak256(0x00, 0x20)\n      add\n      0x00\n      swap1\n      swap2\n      swap1\n      swap2\n      swap1\n      swap2\n      pop\n      sstore\n        /* \"contracts/SimpleStorage.sol\":1079:1082  arr */\n      0x01\n        /* \"contracts/SimpleStorage.sol\":1088:1089  9 */\n      0x09\n        /* \"contracts/SimpleStorage.sol\":1079:1090  arr.push(9) */\n      swap1\n      dup1\n      0x01\n      dup2\n      sload\n      add\n      dup1\n      dup3\n      sstore\n      dup1\n      swap2\n      pop\n      pop\n      0x01\n      swap1\n      sub\n      swap1\n      0x00\n      mstore\n      keccak256(0x00, 0x20)\n      add\n      0x00\n      swap1\n      swap2\n      swap1\n      swap2\n      swap1\n      swap2\n      pop\n      sstore\n        /* \"contracts/SimpleStorage.sol\":1101:1114  uint256 index */\n      0x00\n        /* \"contracts/SimpleStorage.sol\":1125:1353  while (arr.length > 0 && index < arr.length) {... */\n    tag_47:\n        /* \"contracts/SimpleStorage.sol\":1145:1146  0 */\n      0x00\n        /* \"contracts/SimpleStorage.sol\":1132:1135  arr */\n      0x01\n        /* \"contracts/SimpleStorage.sol\":1132:1142  arr.length */\n      dup1\n      sload\n      swap1\n      pop\n        /* \"contracts/SimpleStorage.sol\":1132:1146  arr.length > 0 */\n      gt\n        /* \"contracts/SimpleStorage.sol\":1132:1168  arr.length > 0 && index < arr.length */\n      dup1\n      iszero\n      tag_49\n      jumpi\n      pop\n        /* \"contracts/SimpleStorage.sol\":1158:1161  arr */\n      0x01\n        /* \"contracts/SimpleStorage.sol\":1158:1168  arr.length */\n      dup1\n      sload\n      swap1\n      pop\n        /* \"contracts/SimpleStorage.sol\":1150:1155  index */\n      dup2\n        /* \"contracts/SimpleStorage.sol\":1150:1168  index < arr.length */\n      lt\n        /* \"contracts/SimpleStorage.sol\":1132:1168  arr.length > 0 && index < arr.length */\n    tag_49:\n        /* \"contracts/SimpleStorage.sol\":1125:1353  while (arr.length > 0 && index < arr.length) {... */\n      iszero\n      tag_48\n      jumpi\n        /* \"contracts/SimpleStorage.sol\":1202:1203  3 */\n      0x03\n        /* \"contracts/SimpleStorage.sol\":1188:1191  arr */\n      0x01\n        /* \"contracts/SimpleStorage.sol\":1192:1197  index */\n      dup3\n        /* \"contracts/SimpleStorage.sol\":1188:1198  arr[index] */\n      dup2\n      sload\n      dup2\n      lt\n      tag_50\n      jumpi\n      tag_51\n      tag_52\n      jump\t// in\n    tag_51:\n    tag_50:\n      swap1\n      0x00\n      mstore\n      keccak256(0x00, 0x20)\n      add\n      sload\n        /* \"contracts/SimpleStorage.sol\":1188:1203  arr[index] <= 3 */\n      gt\n        /* \"contracts/SimpleStorage.sol\":1184:1343  if (arr[index] <= 3) {... */\n      tag_54\n      jumpi\n        /* \"contracts/SimpleStorage.sol\":1236:1239  arr */\n      0x01\n        /* \"contracts/SimpleStorage.sol\":1253:1254  1 */\n      dup1\n        /* \"contracts/SimpleStorage.sol\":1240:1243  arr */\n      dup1\n        /* \"contracts/SimpleStorage.sol\":1240:1250  arr.length */\n      dup1\n      sload\n      swap1\n      pop\n        /* \"contracts/SimpleStorage.sol\":1240:1254  arr.length - 1 */\n      tag_55\n      swap2\n      swap1\n      tag_56\n      jump\t// in\n    tag_55:\n        /* \"contracts/SimpleStorage.sol\":1236:1255  arr[arr.length - 1] */\n      dup2\n      sload\n      dup2\n      lt\n      tag_57\n      jumpi\n      tag_58\n      tag_52\n      jump\t// in\n    tag_58:\n    tag_57:\n      swap1\n      0x00\n      mstore\n      keccak256(0x00, 0x20)\n      add\n      sload\n        /* \"contracts/SimpleStorage.sol\":1223:1226  arr */\n      0x01\n        /* \"contracts/SimpleStorage.sol\":1227:1232  index */\n      dup3\n        /* \"contracts/SimpleStorage.sol\":1223:1233  arr[index] */\n      dup2\n      sload\n      dup2\n      lt\n      tag_60\n      jumpi\n      tag_61\n      tag_52\n      jump\t// in\n    tag_61:\n    tag_60:\n      swap1\n      0x00\n      mstore\n      keccak256(0x00, 0x20)\n      add\n        /* \"contracts/SimpleStorage.sol\":1223:1255  arr[index] = arr[arr.length - 1] */\n      dup2\n      swap1\n      sstore\n      pop\n        /* \"contracts/SimpleStorage.sol\":1273:1276  arr */\n      0x01\n        /* \"contracts/SimpleStorage.sol\":1273:1282  arr.pop() */\n      dup1\n      sload\n      dup1\n      tag_63\n      jumpi\n      tag_64\n      tag_65\n      jump\t// in\n    tag_64:\n    tag_63:\n      0x01\n      swap1\n      sub\n      dup2\n      dup2\n      swap1\n      0x00\n      mstore\n      keccak256(0x00, 0x20)\n      add\n      0x00\n      swap1\n      sstore\n      swap1\n      sstore\n        /* \"contracts/SimpleStorage.sol\":1184:1343  if (arr[index] <= 3) {... */\n      jump(tag_67)\n    tag_54:\n        /* \"contracts/SimpleStorage.sol\":1321:1328  index++ */\n      dup1\n      dup1\n      tag_68\n      swap1\n      tag_69\n      jump\t// in\n    tag_68:\n      swap2\n      pop\n      pop\n        /* \"contracts/SimpleStorage.sol\":1184:1343  if (arr[index] <= 3) {... */\n    tag_67:\n        /* \"contracts/SimpleStorage.sol\":1125:1353  while (arr.length > 0 && index < arr.length) {... */\n      jump(tag_47)\n    tag_48:\n        /* \"contracts/SimpleStorage.sol\":985:1359  {... */\n      pop\n        /* \"contracts/SimpleStorage.sol\":957:1359  function testArrV2() public {... */\n      jump\t// out\n        /* \"contracts/SimpleStorage.sol\":87:116  uint256 public favoriteNumber */\n    tag_19:\n      sload(0x00)\n      dup2\n      jump\t// out\n        /* \"contracts/SimpleStorage.sol\":150:246  function store(uint256 _favoriteNumber) public {... */\n    tag_24:\n        /* \"contracts/SimpleStorage.sol\":224:239  _favoriteNumber */\n      dup1\n        /* \"contracts/SimpleStorage.sol\":207:221  favoriteNumber */\n      0x00\n        /* \"contracts/SimpleStorage.sol\":207:239  favoriteNumber = _favoriteNumber */\n      dup2\n      swap1\n      sstore\n      pop\n        /* \"contracts/SimpleStorage.sol\":150:246  function store(uint256 _favoriteNumber) public {... */\n      pop\n      jump\t// out\n        /* \"contracts/SimpleStorage.sol\":252:338  function getNum() public view returns (uint256) {... */\n    tag_26:\n        /* \"contracts/SimpleStorage.sol\":291:298  uint256 */\n      0x00\n        /* \"contracts/SimpleStorage.sol\":317:331  favoriteNumber */\n      dup1\n      sload\n        /* \"contracts/SimpleStorage.sol\":310:331  return favoriteNumber */\n      swap1\n      pop\n        /* \"contracts/SimpleStorage.sol\":252:338  function getNum() public view returns (uint256) {... */\n      swap1\n      jump\t// out\n        /* \"contracts/SimpleStorage.sol\":123:143  uint256[] public arr */\n    tag_30:\n      0x01\n      dup2\n      dup2\n      sload\n      dup2\n      lt\n      tag_72\n      jumpi\n      0x00\n      dup1\n      revert\n    tag_72:\n      swap1\n      0x00\n      mstore\n      keccak256(0x00, 0x20)\n      add\n      0x00\n      swap2\n      pop\n      swap1\n      pop\n      sload\n      dup2\n      jump\t// out\n        /* \"contracts/SimpleStorage.sol\":447:951  function testArr() public {... */\n    tag_33:\n        /* \"contracts/SimpleStorage.sol\":483:486  arr */\n      0x01\n        /* \"contracts/SimpleStorage.sol\":492:493  1 */\n      dup1\n        /* \"contracts/SimpleStorage.sol\":483:494  arr.push(1) */\n      dup1\n      0x01\n      dup2\n      sload\n      add\n      dup1\n      dup3\n      sstore\n      dup1\n      swap2\n      pop\n      pop\n      0x01\n      swap1\n      sub\n      swap1\n      0x00\n      mstore\n      keccak256(0x00, 0x20)\n      add\n      0x00\n      swap1\n      swap2\n      swap1\n      swap2\n      swap1\n      swap2\n      pop\n      sstore\n        /* \"contracts/SimpleStorage.sol\":504:507  arr */\n      0x01\n        /* \"contracts/SimpleStorage.sol\":513:514  7 */\n      0x07\n        /* \"contracts/SimpleStorage.sol\":504:515  arr.push(7) */\n      swap1\n      dup1\n      0x01\n      dup2\n      sload\n      add\n      dup1\n      dup3\n      sstore\n      dup1\n      swap2\n      pop\n      pop\n      0x01\n      swap1\n      sub\n      swap1\n      0x00\n      mstore\n      keccak256(0x00, 0x20)\n      add\n      0x00\n      swap1\n      swap2\n      swap1\n      swap2\n      swap1\n      swap2\n      pop\n      sstore\n        /* \"contracts/SimpleStorage.sol\":525:528  arr */\n      0x01\n        /* \"contracts/SimpleStorage.sol\":534:535  8 */\n      0x08\n        /* \"contracts/SimpleStorage.sol\":525:536  arr.push(8) */\n      swap1\n      dup1\n      0x01\n      dup2\n      sload\n      add\n      dup1\n      dup3\n      sstore\n      dup1\n      swap2\n      pop\n      pop\n      0x01\n      swap1\n      sub\n      swap1\n      0x00\n      mstore\n      keccak256(0x00, 0x20)\n      add\n      0x00\n      swap1\n      swap2\n      swap1\n      swap2\n      swap1\n      swap2\n      pop\n      sstore\n        /* \"contracts/SimpleStorage.sol\":546:549  arr */\n      0x01\n        /* \"contracts/SimpleStorage.sol\":555:556  2 */\n      0x02\n        /* \"contracts/SimpleStorage.sol\":546:557  arr.push(2) */\n      swap1\n      dup1\n      0x01\n      dup2\n      sload\n      add\n      dup1\n      dup3\n      sstore\n      dup1\n      swap2\n      pop\n      pop\n      0x01\n      swap1\n      sub\n      swap1\n      0x00\n      mstore\n      keccak256(0x00, 0x20)\n      add\n      0x00\n      swap1\n      swap2\n      swap1\n      swap2\n      swap1\n      swap2\n      pop\n      sstore\n        /* \"contracts/SimpleStorage.sol\":567:570  arr */\n      0x01\n        /* \"contracts/SimpleStorage.sol\":576:577  9 */\n      0x09\n        /* \"contracts/SimpleStorage.sol\":567:578  arr.push(9) */\n      swap1\n      dup1\n      0x01\n      dup2\n      sload\n      add\n      dup1\n      dup3\n      sstore\n      dup1\n      swap2\n      pop\n      pop\n      0x01\n      swap1\n      sub\n      swap1\n      0x00\n      mstore\n      keccak256(0x00, 0x20)\n      add\n      0x00\n      swap1\n      swap2\n      swap1\n      swap2\n      swap1\n      swap2\n      pop\n      sstore\n        /* \"contracts/SimpleStorage.sol\":589:603  uint256 popNum */\n      0x00\n        /* \"contracts/SimpleStorage.sol\":618:627  uint256 i */\n      dup1\n        /* \"contracts/SimpleStorage.sol\":630:631  0 */\n      0x00\n        /* \"contracts/SimpleStorage.sol\":618:631  uint256 i = 0 */\n      swap1\n      pop\n        /* \"contracts/SimpleStorage.sol\":613:754  for (uint256 i = 0; i < arr.length; i++) {... */\n    tag_80:\n        /* \"contracts/SimpleStorage.sol\":637:640  arr */\n      0x01\n        /* \"contracts/SimpleStorage.sol\":637:647  arr.length */\n      dup1\n      sload\n      swap1\n      pop\n        /* \"contracts/SimpleStorage.sol\":633:634  i */\n      dup2\n        /* \"contracts/SimpleStorage.sol\":633:647  i < arr.length */\n      lt\n        /* \"contracts/SimpleStorage.sol\":613:754  for (uint256 i = 0; i < arr.length; i++) {... */\n      iszero\n      tag_81\n      jumpi\n        /* \"contracts/SimpleStorage.sol\":681:682  3 */\n      0x03\n        /* \"contracts/SimpleStorage.sol\":672:675  arr */\n      0x01\n        /* \"contracts/SimpleStorage.sol\":676:677  i */\n      dup3\n        /* \"contracts/SimpleStorage.sol\":672:678  arr[i] */\n      dup2\n      sload\n      dup2\n      lt\n      tag_83\n      jumpi\n      tag_84\n      tag_52\n      jump\t// in\n    tag_84:\n    tag_83:\n      swap1\n      0x00\n      mstore\n      keccak256(0x00, 0x20)\n      add\n      sload\n        /* \"contracts/SimpleStorage.sol\":672:682  arr[i] > 3 */\n      gt\n        /* \"contracts/SimpleStorage.sol\":702:707  break */\n      tag_81\n        /* \"contracts/SimpleStorage.sol\":668:722  if (arr[i] > 3) {... */\n      jumpi\n        /* \"contracts/SimpleStorage.sol\":735:743  popNum++ */\n      dup2\n      dup1\n      tag_87\n      swap1\n      tag_69\n      jump\t// in\n    tag_87:\n      swap3\n      pop\n      pop\n        /* \"contracts/SimpleStorage.sol\":649:652  i++ */\n      dup1\n      dup1\n      0x01\n      add\n      swap2\n      pop\n      pop\n        /* \"contracts/SimpleStorage.sol\":613:754  for (uint256 i = 0; i < arr.length; i++) {... */\n      jump(tag_80)\n    tag_81:\n      pop\n        /* \"contracts/SimpleStorage.sol\":768:777  uint256 i */\n      0x00\n        /* \"contracts/SimpleStorage.sol\":763:864  for (uint256 i = 0; i < (arr.length - popNum); i++) {... */\n    tag_88:\n        /* \"contracts/SimpleStorage.sol\":801:807  popNum */\n      dup2\n        /* \"contracts/SimpleStorage.sol\":788:791  arr */\n      0x01\n        /* \"contracts/SimpleStorage.sol\":788:798  arr.length */\n      dup1\n      sload\n      swap1\n      pop\n        /* \"contracts/SimpleStorage.sol\":788:807  arr.length - popNum */\n      tag_91\n      swap2\n      swap1\n      tag_56\n      jump\t// in\n    tag_91:\n        /* \"contracts/SimpleStorage.sol\":783:784  i */\n      dup2\n        /* \"contracts/SimpleStorage.sol\":783:808  i < (arr.length - popNum) */\n      lt\n        /* \"contracts/SimpleStorage.sol\":763:864  for (uint256 i = 0; i < (arr.length - popNum); i++) {... */\n      iszero\n      tag_89\n      jumpi\n        /* \"contracts/SimpleStorage.sol\":838:841  arr */\n      0x01\n        /* \"contracts/SimpleStorage.sol\":846:852  popNum */\n      dup3\n        /* \"contracts/SimpleStorage.sol\":842:843  i */\n      dup3\n        /* \"contracts/SimpleStorage.sol\":842:852  i + popNum */\n      tag_92\n      swap2\n      swap1\n      tag_40\n      jump\t// in\n    tag_92:\n        /* \"contracts/SimpleStorage.sol\":838:853  arr[i + popNum] */\n      dup2\n      sload\n      dup2\n      lt\n      tag_93\n      jumpi\n      tag_94\n      tag_52\n      jump\t// in\n    tag_94:\n    tag_93:\n      swap1\n      0x00\n      mstore\n      keccak256(0x00, 0x20)\n      add\n      sload\n        /* \"contracts/SimpleStorage.sol\":829:832  arr */\n      0x01\n        /* \"contracts/SimpleStorage.sol\":833:834  i */\n      dup3\n        /* \"contracts/SimpleStorage.sol\":829:835  arr[i] */\n      dup2\n      sload\n      dup2\n      lt\n      tag_96\n      jumpi\n      tag_97\n      tag_52\n      jump\t// in\n    tag_97:\n    tag_96:\n      swap1\n      0x00\n      mstore\n      keccak256(0x00, 0x20)\n      add\n        /* \"contracts/SimpleStorage.sol\":829:853  arr[i] = arr[i + popNum] */\n      dup2\n      swap1\n      sstore\n      pop\n        /* \"contracts/SimpleStorage.sol\":810:813  i++ */\n      dup1\n      dup1\n      0x01\n      add\n      swap2\n      pop\n      pop\n        /* \"contracts/SimpleStorage.sol\":763:864  for (uint256 i = 0; i < (arr.length - popNum); i++) {... */\n      jump(tag_88)\n    tag_89:\n      pop\n        /* \"contracts/SimpleStorage.sol\":879:888  uint256 i */\n      0x00\n        /* \"contracts/SimpleStorage.sol\":874:945  for (uint256 i = 0; i < popNum; i++) {... */\n    tag_99:\n        /* \"contracts/SimpleStorage.sol\":898:904  popNum */\n      dup2\n        /* \"contracts/SimpleStorage.sol\":894:895  i */\n      dup2\n        /* \"contracts/SimpleStorage.sol\":894:904  i < popNum */\n      lt\n        /* \"contracts/SimpleStorage.sol\":874:945  for (uint256 i = 0; i < popNum; i++) {... */\n      iszero\n      tag_100\n      jumpi\n        /* \"contracts/SimpleStorage.sol\":925:928  arr */\n      0x01\n        /* \"contracts/SimpleStorage.sol\":925:934  arr.pop() */\n      dup1\n      sload\n      dup1\n      tag_102\n      jumpi\n      tag_103\n      tag_65\n      jump\t// in\n    tag_103:\n    tag_102:\n      0x01\n      swap1\n      sub\n      dup2\n      dup2\n      swap1\n      0x00\n      mstore\n      keccak256(0x00, 0x20)\n      add\n      0x00\n      swap1\n      sstore\n      swap1\n      sstore\n        /* \"contracts/SimpleStorage.sol\":906:909  i++ */\n      dup1\n      dup1\n      0x01\n      add\n      swap2\n      pop\n      pop\n        /* \"contracts/SimpleStorage.sol\":874:945  for (uint256 i = 0; i < popNum; i++) {... */\n      jump(tag_99)\n    tag_100:\n      pop\n        /* \"contracts/SimpleStorage.sol\":473:951  {... */\n      pop\n        /* \"contracts/SimpleStorage.sol\":447:951  function testArr() public {... */\n      jump\t// out\n        /* \"contracts/SimpleStorage.sol\":1365:1449  function getArr() public view returns (uint256[] memory) {... */\n    tag_35:\n        /* \"contracts/SimpleStorage.sol\":1404:1420  uint256[] memory */\n      0x60\n        /* \"contracts/SimpleStorage.sol\":1439:1442  arr */\n      0x01\n        /* \"contracts/SimpleStorage.sol\":1432:1442  return arr */\n      dup1\n      sload\n      dup1\n      0x20\n      mul\n      0x20\n      add\n      mload(0x40)\n      swap1\n      dup2\n      add\n      0x40\n      mstore\n      dup1\n      swap3\n      swap2\n      swap1\n      dup2\n      dup2\n      mstore\n      0x20\n      add\n      dup3\n      dup1\n      sload\n      dup1\n      iszero\n      tag_106\n      jumpi\n      0x20\n      mul\n      dup3\n      add\n      swap2\n      swap1\n      0x00\n      mstore\n      keccak256(0x00, 0x20)\n      swap1\n    tag_107:\n      dup2\n      sload\n      dup2\n      mstore\n      0x20\n      add\n      swap1\n      0x01\n      add\n      swap1\n      dup1\n      dup4\n      gt\n      tag_107\n      jumpi\n    tag_106:\n      pop\n      pop\n      pop\n      pop\n      pop\n      swap1\n      pop\n        /* \"contracts/SimpleStorage.sol\":1365:1449  function getArr() public view returns (uint256[] memory) {... */\n      swap1\n      jump\t// out\n        /* \"#utility.yul\":88:205   */\n    tag_109:\n        /* \"#utility.yul\":197:198   */\n      0x00\n        /* \"#utility.yul\":194:195   */\n      dup1\n        /* \"#utility.yul\":187:199   */\n      revert\n        /* \"#utility.yul\":334:411   */\n    tag_111:\n        /* \"#utility.yul\":371:378   */\n      0x00\n        /* \"#utility.yul\":400:405   */\n      dup2\n        /* \"#utility.yul\":389:405   */\n      swap1\n      pop\n        /* \"#utility.yul\":334:411   */\n      swap2\n      swap1\n      pop\n      jump\t// out\n        /* \"#utility.yul\":417:539   */\n    tag_112:\n        /* \"#utility.yul\":490:514   */\n      tag_129\n        /* \"#utility.yul\":508:513   */\n      dup2\n        /* \"#utility.yul\":490:514   */\n      tag_111\n      jump\t// in\n    tag_129:\n        /* \"#utility.yul\":483:488   */\n      dup2\n        /* \"#utility.yul\":480:515   */\n      eq\n        /* \"#utility.yul\":470:533   */\n      tag_130\n      jumpi\n        /* \"#utility.yul\":529:530   */\n      0x00\n        /* \"#utility.yul\":526:527   */\n      dup1\n        /* \"#utility.yul\":519:531   */\n      revert\n        /* \"#utility.yul\":470:533   */\n    tag_130:\n        /* \"#utility.yul\":417:539   */\n      pop\n      jump\t// out\n        /* \"#utility.yul\":545:684   */\n    tag_113:\n        /* \"#utility.yul\":591:596   */\n      0x00\n        /* \"#utility.yul\":629:635   */\n      dup2\n        /* \"#utility.yul\":616:636   */\n      calldataload\n        /* \"#utility.yul\":607:636   */\n      swap1\n      pop\n        /* \"#utility.yul\":645:678   */\n      tag_132\n        /* \"#utility.yul\":672:677   */\n      dup2\n        /* \"#utility.yul\":645:678   */\n      tag_112\n      jump\t// in\n    tag_132:\n        /* \"#utility.yul\":545:684   */\n      swap3\n      swap2\n      pop\n      pop\n      jump\t// out\n        /* \"#utility.yul\":690:1019   */\n    tag_14:\n        /* \"#utility.yul\":749:755   */\n      0x00\n        /* \"#utility.yul\":798:800   */\n      0x20\n        /* \"#utility.yul\":786:795   */\n      dup3\n        /* \"#utility.yul\":777:784   */\n      dup5\n        /* \"#utility.yul\":773:796   */\n      sub\n        /* \"#utility.yul\":769:801   */\n      slt\n        /* \"#utility.yul\":766:885   */\n      iszero\n      tag_134\n      jumpi\n        /* \"#utility.yul\":804:883   */\n      tag_135\n      tag_109\n      jump\t// in\n    tag_135:\n        /* \"#utility.yul\":766:885   */\n    tag_134:\n        /* \"#utility.yul\":924:925   */\n      0x00\n        /* \"#utility.yul\":949:1002   */\n      tag_136\n        /* \"#utility.yul\":994:1001   */\n      dup5\n        /* \"#utility.yul\":985:991   */\n      dup3\n        /* \"#utility.yul\":974:983   */\n      dup6\n        /* \"#utility.yul\":970:992   */\n      add\n        /* \"#utility.yul\":949:1002   */\n      tag_113\n      jump\t// in\n    tag_136:\n        /* \"#utility.yul\":939:1002   */\n      swap2\n      pop\n        /* \"#utility.yul\":895:1012   */\n      pop\n        /* \"#utility.yul\":690:1019   */\n      swap3\n      swap2\n      pop\n      pop\n      jump\t// out\n        /* \"#utility.yul\":1025:1143   */\n    tag_114:\n        /* \"#utility.yul\":1112:1136   */\n      tag_138\n        /* \"#utility.yul\":1130:1135   */\n      dup2\n        /* \"#utility.yul\":1112:1136   */\n      tag_111\n      jump\t// in\n    tag_138:\n        /* \"#utility.yul\":1107:1110   */\n      dup3\n        /* \"#utility.yul\":1100:1137   */\n      mstore\n        /* \"#utility.yul\":1025:1143   */\n      pop\n      pop\n      jump\t// out\n        /* \"#utility.yul\":1149:1371   */\n    tag_21:\n        /* \"#utility.yul\":1242:1246   */\n      0x00\n        /* \"#utility.yul\":1280:1282   */\n      0x20\n        /* \"#utility.yul\":1269:1278   */\n      dup3\n        /* \"#utility.yul\":1265:1283   */\n      add\n        /* \"#utility.yul\":1257:1283   */\n      swap1\n      pop\n        /* \"#utility.yul\":1293:1364   */\n      tag_140\n        /* \"#utility.yul\":1361:1362   */\n      0x00\n        /* \"#utility.yul\":1350:1359   */\n      dup4\n        /* \"#utility.yul\":1346:1363   */\n      add\n        /* \"#utility.yul\":1337:1343   */\n      dup5\n        /* \"#utility.yul\":1293:1364   */\n      tag_114\n      jump\t// in\n    tag_140:\n        /* \"#utility.yul\":1149:1371   */\n      swap3\n      swap2\n      pop\n      pop\n      jump\t// out\n        /* \"#utility.yul\":1377:1491   */\n    tag_115:\n        /* \"#utility.yul\":1444:1450   */\n      0x00\n        /* \"#utility.yul\":1478:1483   */\n      dup2\n        /* \"#utility.yul\":1472:1484   */\n      mload\n        /* \"#utility.yul\":1462:1484   */\n      swap1\n      pop\n        /* \"#utility.yul\":1377:1491   */\n      swap2\n      swap1\n      pop\n      jump\t// out\n        /* \"#utility.yul\":1497:1681   */\n    tag_116:\n        /* \"#utility.yul\":1596:1607   */\n      0x00\n        /* \"#utility.yul\":1630:1636   */\n      dup3\n        /* \"#utility.yul\":1625:1628   */\n      dup3\n        /* \"#utility.yul\":1618:1637   */\n      mstore\n        /* \"#utility.yul\":1670:1674   */\n      0x20\n        /* \"#utility.yul\":1665:1668   */\n      dup3\n        /* \"#utility.yul\":1661:1675   */\n      add\n        /* \"#utility.yul\":1646:1675   */\n      swap1\n      pop\n        /* \"#utility.yul\":1497:1681   */\n      swap3\n      swap2\n      pop\n      pop\n      jump\t// out\n        /* \"#utility.yul\":1687:1819   */\n    tag_117:\n        /* \"#utility.yul\":1754:1758   */\n      0x00\n        /* \"#utility.yul\":1777:1780   */\n      dup2\n        /* \"#utility.yul\":1769:1780   */\n      swap1\n      pop\n        /* \"#utility.yul\":1807:1811   */\n      0x20\n        /* \"#utility.yul\":1802:1805   */\n      dup3\n        /* \"#utility.yul\":1798:1812   */\n      add\n        /* \"#utility.yul\":1790:1812   */\n      swap1\n      pop\n        /* \"#utility.yul\":1687:1819   */\n      swap2\n      swap1\n      pop\n      jump\t// out\n        /* \"#utility.yul\":1825:1933   */\n    tag_118:\n        /* \"#utility.yul\":1902:1926   */\n      tag_145\n        /* \"#utility.yul\":1920:1925   */\n      dup2\n        /* \"#utility.yul\":1902:1926   */\n      tag_111\n      jump\t// in\n    tag_145:\n        /* \"#utility.yul\":1897:1900   */\n      dup3\n        /* \"#utility.yul\":1890:1927   */\n      mstore\n        /* \"#utility.yul\":1825:1933   */\n      pop\n      pop\n      jump\t// out\n        /* \"#utility.yul\":1939:2118   */\n    tag_119:\n        /* \"#utility.yul\":2008:2018   */\n      0x00\n        /* \"#utility.yul\":2029:2075   */\n      tag_147\n        /* \"#utility.yul\":2071:2074   */\n      dup4\n        /* \"#utility.yul\":2063:2069   */\n      dup4\n        /* \"#utility.yul\":2029:2075   */\n      tag_118\n      jump\t// in\n    tag_147:\n        /* \"#utility.yul\":2107:2111   */\n      0x20\n        /* \"#utility.yul\":2102:2105   */\n      dup4\n        /* \"#utility.yul\":2098:2112   */\n      add\n        /* \"#utility.yul\":2084:2112   */\n      swap1\n      pop\n        /* \"#utility.yul\":1939:2118   */\n      swap3\n      swap2\n      pop\n      pop\n      jump\t// out\n        /* \"#utility.yul\":2124:2237   */\n    tag_120:\n        /* \"#utility.yul\":2194:2198   */\n      0x00\n        /* \"#utility.yul\":2226:2230   */\n      0x20\n        /* \"#utility.yul\":2221:2224   */\n      dup3\n        /* \"#utility.yul\":2217:2231   */\n      add\n        /* \"#utility.yul\":2209:2231   */\n      swap1\n      pop\n        /* \"#utility.yul\":2124:2237   */\n      swap2\n      swap1\n      pop\n      jump\t// out\n        /* \"#utility.yul\":2273:3005   */\n    tag_121:\n        /* \"#utility.yul\":2392:2395   */\n      0x00\n        /* \"#utility.yul\":2421:2475   */\n      tag_150\n        /* \"#utility.yul\":2469:2474   */\n      dup3\n        /* \"#utility.yul\":2421:2475   */\n      tag_115\n      jump\t// in\n    tag_150:\n        /* \"#utility.yul\":2491:2577   */\n      tag_151\n        /* \"#utility.yul\":2570:2576   */\n      dup2\n        /* \"#utility.yul\":2565:2568   */\n      dup6\n        /* \"#utility.yul\":2491:2577   */\n      tag_116\n      jump\t// in\n    tag_151:\n        /* \"#utility.yul\":2484:2577   */\n      swap4\n      pop\n        /* \"#utility.yul\":2601:2657   */\n      tag_152\n        /* \"#utility.yul\":2651:2656   */\n      dup4\n        /* \"#utility.yul\":2601:2657   */\n      tag_117\n      jump\t// in\n    tag_152:\n        /* \"#utility.yul\":2680:2687   */\n      dup1\n        /* \"#utility.yul\":2711:2712   */\n      0x00\n        /* \"#utility.yul\":2696:2980   */\n    tag_153:\n        /* \"#utility.yul\":2721:2727   */\n      dup4\n        /* \"#utility.yul\":2718:2719   */\n      dup2\n        /* \"#utility.yul\":2715:2728   */\n      lt\n        /* \"#utility.yul\":2696:2980   */\n      iszero\n      tag_155\n      jumpi\n        /* \"#utility.yul\":2797:2803   */\n      dup2\n        /* \"#utility.yul\":2791:2804   */\n      mload\n        /* \"#utility.yul\":2824:2887   */\n      tag_156\n        /* \"#utility.yul\":2883:2886   */\n      dup9\n        /* \"#utility.yul\":2868:2881   */\n      dup3\n        /* \"#utility.yul\":2824:2887   */\n      tag_119\n      jump\t// in\n    tag_156:\n        /* \"#utility.yul\":2817:2887   */\n      swap8\n      pop\n        /* \"#utility.yul\":2910:2970   */\n      tag_157\n        /* \"#utility.yul\":2963:2969   */\n      dup4\n        /* \"#utility.yul\":2910:2970   */\n      tag_120\n      jump\t// in\n    tag_157:\n        /* \"#utility.yul\":2900:2970   */\n      swap3\n      pop\n        /* \"#utility.yul\":2756:2980   */\n      pop\n        /* \"#utility.yul\":2743:2744   */\n      0x01\n        /* \"#utility.yul\":2740:2741   */\n      dup2\n        /* \"#utility.yul\":2736:2745   */\n      add\n        /* \"#utility.yul\":2731:2745   */\n      swap1\n      pop\n        /* \"#utility.yul\":2696:2980   */\n      jump(tag_153)\n    tag_155:\n        /* \"#utility.yul\":2700:2714   */\n      pop\n        /* \"#utility.yul\":2996:2999   */\n      dup6\n        /* \"#utility.yul\":2989:2999   */\n      swap4\n      pop\n        /* \"#utility.yul\":2397:3005   */\n      pop\n      pop\n      pop\n        /* \"#utility.yul\":2273:3005   */\n      swap3\n      swap2\n      pop\n      pop\n      jump\t// out\n        /* \"#utility.yul\":3011:3384   */\n    tag_37:\n        /* \"#utility.yul\":3154:3158   */\n      0x00\n        /* \"#utility.yul\":3192:3194   */\n      0x20\n        /* \"#utility.yul\":3181:3190   */\n      dup3\n        /* \"#utility.yul\":3177:3195   */\n      add\n        /* \"#utility.yul\":3169:3195   */\n      swap1\n      pop\n        /* \"#utility.yul\":3241:3250   */\n      dup2\n        /* \"#utility.yul\":3235:3239   */\n      dup2\n        /* \"#utility.yul\":3231:3251   */\n      sub\n        /* \"#utility.yul\":3227:3228   */\n      0x00\n        /* \"#utility.yul\":3216:3225   */\n      dup4\n        /* \"#utility.yul\":3212:3229   */\n      add\n        /* \"#utility.yul\":3205:3252   */\n      mstore\n        /* \"#utility.yul\":3269:3377   */\n      tag_159\n        /* \"#utility.yul\":3372:3376   */\n      dup2\n        /* \"#utility.yul\":3363:3369   */\n      dup5\n        /* \"#utility.yul\":3269:3377   */\n      tag_121\n      jump\t// in\n    tag_159:\n        /* \"#utility.yul\":3261:3377   */\n      swap1\n      pop\n        /* \"#utility.yul\":3011:3384   */\n      swap3\n      swap2\n      pop\n      pop\n      jump\t// out\n        /* \"#utility.yul\":3390:3570   */\n    tag_122:\n        /* \"#utility.yul\":3438:3515   */\n      0x4e487b7100000000000000000000000000000000000000000000000000000000\n        /* \"#utility.yul\":3435:3436   */\n      0x00\n        /* \"#utility.yul\":3428:3516   */\n      mstore\n        /* \"#utility.yul\":3535:3539   */\n      0x11\n        /* \"#utility.yul\":3532:3533   */\n      0x04\n        /* \"#utility.yul\":3525:3540   */\n      mstore\n        /* \"#utility.yul\":3559:3563   */\n      0x24\n        /* \"#utility.yul\":3556:3557   */\n      0x00\n        /* \"#utility.yul\":3549:3564   */\n      revert\n        /* \"#utility.yul\":3576:3767   */\n    tag_40:\n        /* \"#utility.yul\":3616:3619   */\n      0x00\n        /* \"#utility.yul\":3635:3655   */\n      tag_162\n        /* \"#utility.yul\":3653:3654   */\n      dup3\n        /* \"#utility.yul\":3635:3655   */\n      tag_111\n      jump\t// in\n    tag_162:\n        /* \"#utility.yul\":3630:3655   */\n      swap2\n      pop\n        /* \"#utility.yul\":3669:3689   */\n      tag_163\n        /* \"#utility.yul\":3687:3688   */\n      dup4\n        /* \"#utility.yul\":3669:3689   */\n      tag_111\n      jump\t// in\n    tag_163:\n        /* \"#utility.yul\":3664:3689   */\n      swap3\n      pop\n        /* \"#utility.yul\":3712:3713   */\n      dup3\n        /* \"#utility.yul\":3709:3710   */\n      dup3\n        /* \"#utility.yul\":3705:3714   */\n      add\n        /* \"#utility.yul\":3698:3714   */\n      swap1\n      pop\n        /* \"#utility.yul\":3733:3736   */\n      dup1\n        /* \"#utility.yul\":3730:3731   */\n      dup3\n        /* \"#utility.yul\":3727:3737   */\n      gt\n        /* \"#utility.yul\":3724:3760   */\n      iszero\n      tag_164\n      jumpi\n        /* \"#utility.yul\":3740:3758   */\n      tag_165\n      tag_122\n      jump\t// in\n    tag_165:\n        /* \"#utility.yul\":3724:3760   */\n    tag_164:\n        /* \"#utility.yul\":3576:3767   */\n      swap3\n      swap2\n      pop\n      pop\n      jump\t// out\n        /* \"#utility.yul\":3773:3953   */\n    tag_52:\n        /* \"#utility.yul\":3821:3898   */\n      0x4e487b7100000000000000000000000000000000000000000000000000000000\n        /* \"#utility.yul\":3818:3819   */\n      0x00\n        /* \"#utility.yul\":3811:3899   */\n      mstore\n        /* \"#utility.yul\":3918:3922   */\n      0x32\n        /* \"#utility.yul\":3915:3916   */\n      0x04\n        /* \"#utility.yul\":3908:3923   */\n      mstore\n        /* \"#utility.yul\":3942:3946   */\n      0x24\n        /* \"#utility.yul\":3939:3940   */\n      0x00\n        /* \"#utility.yul\":3932:3947   */\n      revert\n        /* \"#utility.yul\":3959:4153   */\n    tag_56:\n        /* \"#utility.yul\":3999:4003   */\n      0x00\n        /* \"#utility.yul\":4019:4039   */\n      tag_168\n        /* \"#utility.yul\":4037:4038   */\n      dup3\n        /* \"#utility.yul\":4019:4039   */\n      tag_111\n      jump\t// in\n    tag_168:\n        /* \"#utility.yul\":4014:4039   */\n      swap2\n      pop\n        /* \"#utility.yul\":4053:4073   */\n      tag_169\n        /* \"#utility.yul\":4071:4072   */\n      dup4\n        /* \"#utility.yul\":4053:4073   */\n      tag_111\n      jump\t// in\n    tag_169:\n        /* \"#utility.yul\":4048:4073   */\n      swap3\n      pop\n        /* \"#utility.yul\":4097:4098   */\n      dup3\n        /* \"#utility.yul\":4094:4095   */\n      dup3\n        /* \"#utility.yul\":4090:4099   */\n      sub\n        /* \"#utility.yul\":4082:4099   */\n      swap1\n      pop\n        /* \"#utility.yul\":4121:4122   */\n      dup2\n        /* \"#utility.yul\":4115:4119   */\n      dup2\n        /* \"#utility.yul\":4112:4123   */\n      gt\n        /* \"#utility.yul\":4109:4146   */\n      iszero\n      tag_170\n      jumpi\n        /* \"#utility.yul\":4126:4144   */\n      tag_171\n      tag_122\n      jump\t// in\n    tag_171:\n        /* \"#utility.yul\":4109:4146   */\n    tag_170:\n        /* \"#utility.yul\":3959:4153   */\n      swap3\n      swap2\n      pop\n      pop\n      jump\t// out\n        /* \"#utility.yul\":4159:4339   */\n    tag_65:\n        /* \"#utility.yul\":4207:4284   */\n      0x4e487b7100000000000000000000000000000000000000000000000000000000\n        /* \"#utility.yul\":4204:4205   */\n      0x00\n        /* \"#utility.yul\":4197:4285   */\n      mstore\n        /* \"#utility.yul\":4304:4308   */\n      0x31\n        /* \"#utility.yul\":4301:4302   */\n      0x04\n        /* \"#utility.yul\":4294:4309   */\n      mstore\n        /* \"#utility.yul\":4328:4332   */\n      0x24\n        /* \"#utility.yul\":4325:4326   */\n      0x00\n        /* \"#utility.yul\":4318:4333   */\n      revert\n        /* \"#utility.yul\":4345:4578   */\n    tag_69:\n        /* \"#utility.yul\":4384:4387   */\n      0x00\n        /* \"#utility.yul\":4407:4431   */\n      tag_174\n        /* \"#utility.yul\":4425:4430   */\n      dup3\n        /* \"#utility.yul\":4407:4431   */\n      tag_111\n      jump\t// in\n    tag_174:\n        /* \"#utility.yul\":4398:4431   */\n      swap2\n      pop\n        /* \"#utility.yul\":4453:4519   */\n      0xffffffffffffffffffffffffffffffffffffffffffffffffffffffffffffffff\n        /* \"#utility.yul\":4446:4451   */\n      dup3\n        /* \"#utility.yul\":4443:4520   */\n      sub\n        /* \"#utility.yul\":4440:4543   */\n      tag_175\n      jumpi\n        /* \"#utility.yul\":4523:4541   */\n      tag_176\n      tag_122\n      jump\t// in\n    tag_176:\n        /* \"#utility.yul\":4440:4543   */\n    tag_175:\n        /* \"#utility.yul\":4570:4571   */\n      0x01\n        /* \"#utility.yul\":4563:4568   */\n      dup3\n        /* \"#utility.yul\":4559:4572   */\n      add\n        /* \"#utility.yul\":4552:4572   */\n      swap1\n      pop\n        /* \"#utility.yul\":4345:4578   */\n      swap2\n      swap1\n      pop\n      jump\t// out\n\n    auxdata: 0xa2646970667358221220223369428c1fc5235a3d4fd661e4d9fa95418a45b8efe554c48d8e564ba62a5e64736f6c634300081a0033\n}\n",
				"bytecode": {
					"linkReferences": {},
					"object": "6080604052348015600e575f80fd5b506108218061001c5f395ff3fe608060405234801561000f575f80fd5b5060043610610086575f3560e01c806367e0badb1161005957806367e0badb146100ea57806371e5ee5f14610108578063f3790c5714610138578063fb8cbced1461014257610086565b80631003e2d21461008a57806330bcaaec146100a6578063471f7cdf146100b05780636057361d146100ce575b5f80fd5b6100a4600480360381019061009f919061058d565b610160565b005b6100ae610175565b005b6100b8610306565b6040516100c591906105c7565b60405180910390f35b6100e860048036038101906100e3919061058d565b61030b565b005b6100f2610314565b6040516100ff91906105c7565b60405180910390f35b610122600480360381019061011d919061058d565b61031c565b60405161012f91906105c7565b60405180910390f35b61014061033c565b005b61014a610500565b6040516101579190610697565b60405180910390f35b805f5461016d91906106e4565b5f8190555050565b6001808060018154018082558091505060019003905f5260205f20015f909190919091505560016007908060018154018082558091505060019003905f5260205f20015f909190919091505560016008908060018154018082558091505060019003905f5260205f20015f909190919091505560016002908060018154018082558091505060019003905f5260205f20015f909190919091505560016009908060018154018082558091505060019003905f5260205f20015f90919091909150555f5b5f600180549050118015610250575060018054905081105b156103035760036001828154811061026b5761026a610717565b5b905f5260205f200154116102ef57600180808054905061028b9190610744565b8154811061029c5761029b610717565b5b905f5260205f200154600182815481106102b9576102b8610717565b5b905f5260205f20018190555060018054806102d7576102d6610777565b5b600190038181905f5260205f20015f905590556102fe565b80806102fa906107a4565b9150505b610238565b50565b5f5481565b805f8190555050565b5f8054905090565b6001818154811061032b575f80fd5b905f5260205f20015f915090505481565b6001808060018154018082558091505060019003905f5260205f20015f909190919091505560016007908060018154018082558091505060019003905f5260205f20015f909190919091505560016008908060018154018082558091505060019003905f5260205f20015f909190919091505560016002908060018154018082558091505060019003905f5260205f20015f909190919091505560016009908060018154018082558091505060019003905f5260205f20015f90919091909150555f805f90505b60018054905081101561044f5760036001828154811061042657610425610717565b5b905f5260205f2001541161044f57818061043f906107a4565b9250508080600101915050610403565b505f5b816001805490506104639190610744565b8110156104bf576001828261047891906106e4565b8154811061048957610488610717565b5b905f5260205f200154600182815481106104a6576104a5610717565b5b905f5260205f2001819055508080600101915050610452565b505f5b818110156104fc5760018054806104dc576104db610777565b5b600190038181905f5260205f20015f9055905580806001019150506104c2565b5050565b6060600180548060200260200160405190810160405280929190818152602001828054801561054c57602002820191905f5260205f20905b815481526020019060010190808311610538575b5050505050905090565b5f80fd5b5f819050919050565b61056c8161055a565b8114610576575f80fd5b50565b5f8135905061058781610563565b92915050565b5f602082840312156105a2576105a1610556565b5b5f6105af84828501610579565b91505092915050565b6105c18161055a565b82525050565b5f6020820190506105da5f8301846105b8565b92915050565b5f81519050919050565b5f82825260208201905092915050565b5f819050602082019050919050565b6106128161055a565b82525050565b5f6106238383610609565b60208301905092915050565b5f602082019050919050565b5f610645826105e0565b61064f81856105ea565b935061065a836105fa565b805f5b8381101561068a5781516106718882610618565b975061067c8361062f565b92505060018101905061065d565b5085935050505092915050565b5f6020820190508181035f8301526106af818461063b565b905092915050565b7f4e487b71000000000000000000000000000000000000000000000000000000005f52601160045260245ffd5b5f6106ee8261055a565b91506106f98361055a565b9250828201905080821115610711576107106106b7565b5b92915050565b7f4e487b71000000000000000000000000000000000000000000000000000000005f52603260045260245ffd5b5f61074e8261055a565b91506107598361055a565b9250828203905081811115610771576107706106b7565b5b92915050565b7f4e487b71000000000000000000000000000000000000000000000000000000005f52603160045260245ffd5b5f6107ae8261055a565b91507fffffffffffffffffffffffffffffffffffffffffffffffffffffffffffffffff82036107e0576107df6106b7565b5b60018201905091905056fea2646970667358221220223369428c1fc5235a3d4fd661e4d9fa95418a45b8efe554c48d8e564ba62a5e64736f6c634300081a0033",
					"opcodes": "PUSH1 0x80 PUSH1 0x40 MSTORE CALLVALUE DUP1 ISZERO PUSH1 0xE JUMPI PUSH0 DUP1 REVERT JUMPDEST POP PUSH2 0x821 DUP1 PUSH2 0x1C PUSH0 CODECOPY PUSH0 RETURN INVALID PUSH1 0x80 PUSH1 0x40 MSTORE CALLVALUE DUP1 ISZERO PUSH2 0xF JUMPI PUSH0 DUP1 REVERT JUMPDEST POP PUSH1 0x4 CALLDATASIZE LT PUSH2 0x86 JUMPI PUSH0 CALLDATALOAD PUSH1 0xE0 SHR DUP1 PUSH4 0x67E0BADB GT PUSH2 0x59 JUMPI DUP1 PUSH4 0x67E0BADB EQ PUSH2 0xEA JUMPI DUP1 PUSH4 0x71E5EE5F EQ PUSH2 0x108 JUMPI DUP1 PUSH4 0xF3790C57 EQ PUSH2 0x138 JUMPI DUP1 PUSH4 0xFB8CBCED EQ PUSH2 0x142 JUMPI PUSH2 0x86 JUMP JUMPDEST DUP1 PUSH4 0x1003E2D2 EQ PUSH2 0x8A JUMPI DUP1 PUSH4 0x30BCAAEC EQ PUSH2 0xA6 JUMPI DUP1 PUSH4 0x471F7CDF EQ PUSH2 0xB0 JUMPI DUP1 PUSH4 0x6057361D EQ PUSH2 0xCE JUMPI JUMPDEST PUSH0 DUP1 REVERT JUMPDEST PUSH2 0xA4 PUSH1 0x4 DUP1 CALLDATASIZE SUB DUP2 ADD SWAP1 PUSH2 0x9F SWAP2 SWAP1 PUSH2 0x58D JUMP JUMPDEST PUSH2 0x160 JUMP JUMPDEST STOP JUMPDEST PUSH2 0xAE PUSH2 0x175 JUMP JUMPDEST STOP JUMPDEST PUSH2 0xB8 PUSH2 0x306 JUMP JUMPDEST PUSH1 0x40 MLOAD PUSH2 0xC5 SWAP2 SWAP1 PUSH2 0x5C7 JUMP JUMPDEST PUSH1 0x40 MLOAD DUP1 SWAP2 SUB SWAP1 RETURN JUMPDEST PUSH2 0xE8 PUSH1 0x4 DUP1 CALLDATASIZE SUB DUP2 ADD SWAP1 PUSH2 0xE3 SWAP2 SWAP1 PUSH2 0x58D JUMP JUMPDEST PUSH2 0x30B JUMP JUMPDEST STOP JUMPDEST PUSH2 0xF2 PUSH2 0x314 JUMP JUMPDEST PUSH1 0x40 MLOAD PUSH2 0xFF SWAP2 SWAP1 PUSH2 0x5C7 JUMP JUMPDEST PUSH1 0x40 MLOAD DUP1 SWAP2 SUB SWAP1 RETURN JUMPDEST PUSH2 0x122 PUSH1 0x4 DUP1 CALLDATASIZE SUB DUP2 ADD SWAP1 PUSH2 0x11D SWAP2 SWAP1 PUSH2 0x58D JUMP JUMPDEST PUSH2 0x31C JUMP JUMPDEST PUSH1 0x40 MLOAD PUSH2 0x12F SWAP2 SWAP1 PUSH2 0x5C7 JUMP JUMPDEST PUSH1 0x40 MLOAD DUP1 SWAP2 SUB SWAP1 RETURN JUMPDEST PUSH2 0x140 PUSH2 0x33C JUMP JUMPDEST STOP JUMPDEST PUSH2 0x14A PUSH2 0x500 JUMP JUMPDEST PUSH1 0x40 MLOAD PUSH2 0x157 SWAP2 SWAP1 PUSH2 0x697 JUMP JUMPDEST PUSH1 0x40 MLOAD DUP1 SWAP2 SUB SWAP1 RETURN JUMPDEST DUP1 PUSH0 SLOAD PUSH2 0x16D SWAP2 SWAP1 PUSH2 0x6E4 JUMP JUMPDEST PUSH0 DUP2 SWAP1 SSTORE POP POP JUMP JUMPDEST PUSH1 0x1 DUP1 DUP1 PUSH1 0x1 DUP2 SLOAD ADD DUP1 DUP3 SSTORE DUP1 SWAP2 POP POP PUSH1 0x1 SWAP1 SUB SWAP1 PUSH0 MSTORE PUSH1 0x20 PUSH0 KECCAK256 ADD PUSH0 SWAP1 SWAP2 SWAP1 SWAP2 SWAP1 SWAP2 POP SSTORE PUSH1 0x1 PUSH1 0x7 SWAP1 DUP1 PUSH1 0x1 DUP2 SLOAD ADD DUP1 DUP3 SSTORE DUP1 SWAP2 POP POP PUSH1 0x1 SWAP1 SUB SWAP1 PUSH0 MSTORE PUSH1 0x20 PUSH0 KECCAK256 ADD PUSH0 SWAP1 SWAP2 SWAP1 SWAP2 SWAP1 SWAP2 POP SSTORE PUSH1 0x1 PUSH1 0x8 SWAP1 DUP1 PUSH1 0x1 DUP2 SLOAD ADD DUP1 DUP3 SSTORE DUP1 SWAP2 POP POP PUSH1 0x1 SWAP1 SUB SWAP1 PUSH0 MSTORE PUSH1 0x20 PUSH0 KECCAK256 ADD PUSH0 SWAP1 SWAP2 SWAP1 SWAP2 SWAP1 SWAP2 POP SSTORE PUSH1 0x1 PUSH1 0x2 SWAP1 DUP1 PUSH1 0x1 DUP2 SLOAD ADD DUP1 DUP3 SSTORE DUP1 SWAP2 POP POP PUSH1 0x1 SWAP1 SUB SWAP1 PUSH0 MSTORE PUSH1 0x20 PUSH0 KECCAK256 ADD PUSH0 SWAP1 SWAP2 SWAP1 SWAP2 SWAP1 SWAP2 POP SSTORE PUSH1 0x1 PUSH1 0x9 SWAP1 DUP1 PUSH1 0x1 DUP2 SLOAD ADD DUP1 DUP3 SSTORE DUP1 SWAP2 POP POP PUSH1 0x1 SWAP1 SUB SWAP1 PUSH0 MSTORE PUSH1 0x20 PUSH0 KECCAK256 ADD PUSH0 SWAP1 SWAP2 SWAP1 SWAP2 SWAP1 SWAP2 POP SSTORE PUSH0 JUMPDEST PUSH0 PUSH1 0x1 DUP1 SLOAD SWAP1 POP GT DUP1 ISZERO PUSH2 0x250 JUMPI POP PUSH1 0x1 DUP1 SLOAD SWAP1 POP DUP2 LT JUMPDEST ISZERO PUSH2 0x303 JUMPI PUSH1 0x3 PUSH1 0x1 DUP3 DUP2 SLOAD DUP2 LT PUSH2 0x26B JUMPI PUSH2 0x26A PUSH2 0x717 JUMP JUMPDEST JUMPDEST SWAP1 PUSH0 MSTORE PUSH1 0x20 PUSH0 KECCAK256 ADD SLOAD GT PUSH2 0x2EF JUMPI PUSH1 0x1 DUP1 DUP1 DUP1 SLOAD SWAP1 POP PUSH2 0x28B SWAP2 SWAP1 PUSH2 0x744 JUMP JUMPDEST DUP2 SLOAD DUP2 LT PUSH2 0x29C JUMPI PUSH2 0x29B PUSH2 0x717 JUMP JUMPDEST JUMPDEST SWAP1 PUSH0 MSTORE PUSH1 0x20 PUSH0 KECCAK256 ADD SLOAD PUSH1 0x1 DUP3 DUP2 SLOAD DUP2 LT PUSH2 0x2B9 JUMPI PUSH2 0x2B8 PUSH2 0x717 JUMP JUMPDEST JUMPDEST SWAP1 PUSH0 MSTORE PUSH1 0x20 PUSH0 KECCAK256 ADD DUP2 SWAP1 SSTORE POP PUSH1 0x1 DUP1 SLOAD DUP1 PUSH2 0x2D7 JUMPI PUSH2 0x2D6 PUSH2 0x777 JUMP JUMPDEST JUMPDEST PUSH1 0x1 SWAP1 SUB DUP2 DUP2 SWAP1 PUSH0 MSTORE PUSH1 0x20 PUSH0 KECCAK256 ADD PUSH0 SWAP1 SSTORE SWAP1 SSTORE PUSH2 0x2FE JUMP JUMPDEST DUP1 DUP1 PUSH2 0x2FA SWAP1 PUSH2 0x7A4 JUMP JUMPDEST SWAP2 POP POP JUMPDEST PUSH2 0x238 JUMP JUMPDEST POP JUMP JUMPDEST PUSH0 SLOAD DUP2 JUMP JUMPDEST DUP1 PUSH0 DUP2 SWAP1 SSTORE POP POP JUMP JUMPDEST PUSH0 DUP1 SLOAD SWAP1 POP SWAP1 JUMP JUMPDEST PUSH1 0x1 DUP2 DUP2 SLOAD DUP2 LT PUSH2 0x32B JUMPI PUSH0 DUP1 REVERT JUMPDEST SWAP1 PUSH0 MSTORE PUSH1 0x20 PUSH0 KECCAK256 ADD PUSH0 SWAP2 POP SWAP1 POP SLOAD DUP2 JUMP JUMPDEST PUSH1 0x1 DUP1 DUP1 PUSH1 0x1 DUP2 SLOAD ADD DUP1 DUP3 SSTORE DUP1 SWAP2 POP POP PUSH1 0x1 SWAP1 SUB SWAP1 PUSH0 MSTORE PUSH1 0x20 PUSH0 KECCAK256 ADD PUSH0 SWAP1 SWAP2 SWAP1 SWAP2 SWAP1 SWAP2 POP SSTORE PUSH1 0x1 PUSH1 0x7 SWAP1 DUP1 PUSH1 0x1 DUP2 SLOAD ADD DUP1 DUP3 SSTORE DUP1 SWAP2 POP POP PUSH1 0x1 SWAP1 SUB SWAP1 PUSH0 MSTORE PUSH1 0x20 PUSH0 KECCAK256 ADD PUSH0 SWAP1 SWAP2 SWAP1 SWAP2 SWAP1 SWAP2 POP SSTORE PUSH1 0x1 PUSH1 0x8 SWAP1 DUP1 PUSH1 0x1 DUP2 SLOAD ADD DUP1 DUP3 SSTORE DUP1 SWAP2 POP POP PUSH1 0x1 SWAP1 SUB SWAP1 PUSH0 MSTORE PUSH1 0x20 PUSH0 KECCAK256 ADD PUSH0 SWAP1 SWAP2 SWAP1 SWAP2 SWAP1 SWAP2 POP SSTORE PUSH1 0x1 PUSH1 0x2 SWAP1 DUP1 PUSH1 0x1 DUP2 SLOAD ADD DUP1 DUP3 SSTORE DUP1 SWAP2 POP POP PUSH1 0x1 SWAP1 SUB SWAP1 PUSH0 MSTORE PUSH1 0x20 PUSH0 KECCAK256 ADD PUSH0 SWAP1 SWAP2 SWAP1 SWAP2 SWAP1 SWAP2 POP SSTORE PUSH1 0x1 PUSH1 0x9 SWAP1 DUP1 PUSH1 0x1 DUP2 SLOAD ADD DUP1 DUP3 SSTORE DUP1 SWAP2 POP POP PUSH1 0x1 SWAP1 SUB SWAP1 PUSH0 MSTORE PUSH1 0x20 PUSH0 KECCAK256 ADD PUSH0 SWAP1 SWAP2 SWAP1 SWAP2 SWAP1 SWAP2 POP SSTORE PUSH0 DUP1 PUSH0 SWAP1 POP JUMPDEST PUSH1 0x1 DUP1 SLOAD SWAP1 POP DUP2 LT ISZERO PUSH2 0x44F JUMPI PUSH1 0x3 PUSH1 0x1 DUP3 DUP2 SLOAD DUP2 LT PUSH2 0x426 JUMPI PUSH2 0x425 PUSH2 0x717 JUMP JUMPDEST JUMPDEST SWAP1 PUSH0 MSTORE PUSH1 0x20 PUSH0 KECCAK256 ADD SLOAD GT PUSH2 0x44F JUMPI DUP2 DUP1 PUSH2 0x43F SWAP1 PUSH2 0x7A4 JUMP JUMPDEST SWAP3 POP POP DUP1 DUP1 PUSH1 0x1 ADD SWAP2 POP POP PUSH2 0x403 JUMP JUMPDEST POP PUSH0 JUMPDEST DUP2 PUSH1 0x1 DUP1 SLOAD SWAP1 POP PUSH2 0x463 SWAP2 SWAP1 PUSH2 0x744 JUMP JUMPDEST DUP2 LT ISZERO PUSH2 0x4BF JUMPI PUSH1 0x1 DUP3 DUP3 PUSH2 0x478 SWAP2 SWAP1 PUSH2 0x6E4 JUMP JUMPDEST DUP2 SLOAD DUP2 LT PUSH2 0x489 JUMPI PUSH2 0x488 PUSH2 0x717 JUMP JUMPDEST JUMPDEST SWAP1 PUSH0 MSTORE PUSH1 0x20 PUSH0 KECCAK256 ADD SLOAD PUSH1 0x1 DUP3 DUP2 SLOAD DUP2 LT PUSH2 0x4A6 JUMPI PUSH2 0x4A5 PUSH2 0x717 JUMP JUMPDEST JUMPDEST SWAP1 PUSH0 MSTORE PUSH1 0x20 PUSH0 KECCAK256 ADD DUP2 SWAP1 SSTORE POP DUP1 DUP1 PUSH1 0x1 ADD SWAP2 POP POP PUSH2 0x452 JUMP JUMPDEST POP PUSH0 JUMPDEST DUP2 DUP2 LT ISZERO PUSH2 0x4FC JUMPI PUSH1 0x1 DUP1 SLOAD DUP1 PUSH2 0x4DC JUMPI PUSH2 0x4DB PUSH2 0x777 JUMP JUMPDEST JUMPDEST PUSH1 0x1 SWAP1 SUB DUP2 DUP2 SWAP1 PUSH0 MSTORE PUSH1 0x20 PUSH0 KECCAK256 ADD PUSH0 SWAP1 SSTORE SWAP1 SSTORE DUP1 DUP1 PUSH1 0x1 ADD SWAP2 POP POP PUSH2 0x4C2 JUMP JUMPDEST POP POP JUMP JUMPDEST PUSH1 0x60 PUSH1 0x1 DUP1 SLOAD DUP1 PUSH1 0x20 MUL PUSH1 0x20 ADD PUSH1 0x40 MLOAD SWAP1 DUP2 ADD PUSH1 0x40 MSTORE DUP1 SWAP3 SWAP2 SWAP1 DUP2 DUP2 MSTORE PUSH1 0x20 ADD DUP3 DUP1 SLOAD DUP1 ISZERO PUSH2 0x54C JUMPI PUSH1 0x20 MUL DUP3 ADD SWAP2 SWAP1 PUSH0 MSTORE PUSH1 0x20 PUSH0 KECCAK256 SWAP1 JUMPDEST DUP2 SLOAD DUP2 MSTORE PUSH1 0x20 ADD SWAP1 PUSH1 0x1 ADD SWAP1 DUP1 DUP4 GT PUSH2 0x538 JUMPI JUMPDEST POP POP POP POP POP SWAP1 POP SWAP1 JUMP JUMPDEST PUSH0 DUP1 REVERT JUMPDEST PUSH0 DUP2 SWAP1 POP SWAP2 SWAP1 POP JUMP JUMPDEST PUSH2 0x56C DUP2 PUSH2 0x55A JUMP JUMPDEST DUP2 EQ PUSH2 0x576 JUMPI PUSH0 DUP1 REVERT JUMPDEST POP JUMP JUMPDEST PUSH0 DUP2 CALLDATALOAD SWAP1 POP PUSH2 0x587 DUP2 PUSH2 0x563 JUMP JUMPDEST SWAP3 SWAP2 POP POP JUMP JUMPDEST PUSH0 PUSH1 0x20 DUP3 DUP5 SUB SLT ISZERO PUSH2 0x5A2 JUMPI PUSH2 0x5A1 PUSH2 0x556 JUMP JUMPDEST JUMPDEST PUSH0 PUSH2 0x5AF DUP5 DUP3 DUP6 ADD PUSH2 0x579 JUMP JUMPDEST SWAP2 POP POP SWAP3 SWAP2 POP POP JUMP JUMPDEST PUSH2 0x5C1 DUP2 PUSH2 0x55A JUMP JUMPDEST DUP3 MSTORE POP POP JUMP JUMPDEST PUSH0 PUSH1 0x20 DUP3 ADD SWAP1 POP PUSH2 0x5DA PUSH0 DUP4 ADD DUP5 PUSH2 0x5B8 JUMP JUMPDEST SWAP3 SWAP2 POP POP JUMP JUMPDEST PUSH0 DUP2 MLOAD SWAP1 POP SWAP2 SWAP1 POP JUMP JUMPDEST PUSH0 DUP3 DUP3 MSTORE PUSH1 0x20 DUP3 ADD SWAP1 POP SWAP3 SWAP2 POP POP JUMP JUMPDEST PUSH0 DUP2 SWAP1 POP PUSH1 0x20 DUP3 ADD SWAP1 POP SWAP2 SWAP1 POP JUMP JUMPDEST PUSH2 0x612 DUP2 PUSH2 0x55A JUMP JUMPDEST DUP3 MSTORE POP POP JUMP JUMPDEST PUSH0 PUSH2 0x623 DUP4 DUP4 PUSH2 0x609 JUMP JUMPDEST PUSH1 0x20 DUP4 ADD SWAP1 POP SWAP3 SWAP2 POP POP JUMP JUMPDEST PUSH0 PUSH1 0x20 DUP3 ADD SWAP1 POP SWAP2 SWAP1 POP JUMP JUMPDEST PUSH0 PUSH2 0x645 DUP3 PUSH2 0x5E0 JUMP JUMPDEST PUSH2 0x64F DUP2 DUP6 PUSH2 0x5EA JUMP JUMPDEST SWAP4 POP PUSH2 0x65A DUP4 PUSH2 0x5FA JUMP JUMPDEST DUP1 PUSH0 JUMPDEST DUP4 DUP2 LT ISZERO PUSH2 0x68A JUMPI DUP2 MLOAD PUSH2 0x671 DUP9 DUP3 PUSH2 0x618 JUMP JUMPDEST SWAP8 POP PUSH2 0x67C DUP4 PUSH2 0x62F JUMP JUMPDEST SWAP3 POP POP PUSH1 0x1 DUP2 ADD SWAP1 POP PUSH2 0x65D JUMP JUMPDEST POP DUP6 SWAP4 POP POP POP POP SWAP3 SWAP2 POP POP JUMP JUMPDEST PUSH0 PUSH1 0x20 DUP3 ADD SWAP1 POP DUP2 DUP2 SUB PUSH0 DUP4 ADD MSTORE PUSH2 0x6AF DUP2 DUP5 PUSH2 0x63B JUMP JUMPDEST SWAP1 POP SWAP3 SWAP2 POP POP JUMP JUMPDEST PUSH32 0x4E487B7100000000000000000000000000000000000000000000000000000000 PUSH0 MSTORE PUSH1 0x11 PUSH1 0x4 MSTORE PUSH1 0x24 PUSH0 REVERT JUMPDEST PUSH0 PUSH2 0x6EE DUP3 PUSH2 0x55A JUMP JUMPDEST SWAP2 POP PUSH2 0x6F9 DUP4 PUSH2 0x55A JUMP JUMPDEST SWAP3 POP DUP3 DUP3 ADD SWAP1 POP DUP1 DUP3 GT ISZERO PUSH2 0x711 JUMPI PUSH2 0x710 PUSH2 0x6B7 JUMP JUMPDEST JUMPDEST SWAP3 SWAP2 POP POP JUMP JUMPDEST PUSH32 0x4E487B7100000000000000000000000000000000000000000000000000000000 PUSH0 MSTORE PUSH1 0x32 PUSH1 0x4 MSTORE PUSH1 0x24 PUSH0 REVERT JUMPDEST PUSH0 PUSH2 0x74E DUP3 PUSH2 0x55A JUMP JUMPDEST SWAP2 POP PUSH2 0x759 DUP4 PUSH2 0x55A JUMP JUMPDEST SWAP3 POP DUP3 DUP3 SUB SWAP1 POP DUP2 DUP2 GT ISZERO PUSH2 0x771 JUMPI PUSH2 0x770 PUSH2 0x6B7 JUMP JUMPDEST JUMPDEST SWAP3 SWAP2 POP POP JUMP JUMPDEST PUSH32 0x4E487B7100000000000000000000000000000000000000000000000000000000 PUSH0 MSTORE PUSH1 0x31 PUSH1 0x4 MSTORE PUSH1 0x24 PUSH0 REVERT JUMPDEST PUSH0 PUSH2 0x7AE DUP3 PUSH2 0x55A JUMP JUMPDEST SWAP2 POP PUSH32 0xFFFFFFFFFFFFFFFFFFFFFFFFFFFFFFFFFFFFFFFFFFFFFFFFFFFFFFFFFFFFFFFF DUP3 SUB PUSH2 0x7E0 JUMPI PUSH2 0x7DF PUSH2 0x6B7 JUMP JUMPDEST JUMPDEST PUSH1 0x1 DUP3 ADD SWAP1 POP SWAP2 SWAP1 POP JUMP INVALID LOG2 PUSH5 0x6970667358 0x22 SLT KECCAK256 0x22 CALLER PUSH10 0x428C1FC5235A3D4FD661 0xE4 0xD9 STATICCALL SWAP6 COINBASE DUP11 GASLIMIT 0xB8 0xEF 0xE5 SLOAD 0xC4 DUP14 DUP15 JUMP 0x4B 0xA6 0x2A MCOPY PUSH5 0x736F6C6343 STOP ADDMOD BYTE STOP CALLER "
				},
				"gasEstimates": {
					"creation": {
						"codeDepositCost": "416200",
						"executionCost": "453",
						"totalCost": "416653"
					},
					"external": {
						"add(uint256)": "infinite",
						"arr(uint256)": "infinite",
						"favoriteNumber()": "2469",
						"getArr()": "infinite",
						"getNum()": "2432",
						"store(uint256)": "22581",
						"testArr()": "infinite",
						"testArrV2()": "infinite"
					}
				},
				"methodIdentifiers": {
					"add(uint256)": "1003e2d2",
					"arr(uint256)": "71e5ee5f",
					"favoriteNumber()": "471f7cdf",
					"getArr()": "fb8cbced",
					"getNum()": "67e0badb",
					"store(uint256)": "6057361d",
					"testArr()": "f3790c57",
					"testArrV2()": "30bcaaec"
				}
			},
			"storageLayout": {
				"storage": [
					{
						"astId": 3,
						"contract": "contracts/SimpleStorage.sol:SimpleStorage",
						"label": "favoriteNumber",
						"offset": 0,
						"slot": "0",
						"type": "t_uint256"
					},
					{
						"astId": 6,
						"contract": "contracts/SimpleStorage.sol:SimpleStorage",
						"label": "arr",
						"offset": 0,
						"slot": "1",
						"type": "t_array(t_uint256)dyn_storage"
					}
				],
				"types": {
					"t_array(t_uint256)dyn_storage": {
						"base": "t_uint256",
						"encoding": "dynamic_array",
						"label": "uint256[]",
						"numberOfBytes": "32"
					},
					"t_uint256": {
						"encoding": "inplace",
						"label": "uint256",
						"numberOfBytes": "32"
					}
				}
			},
			"userdoc": {
				"kind": "user",
				"methods": {},
				"version": 1
			}
		}
	}
}