{
	"data": {
		"bytecode": {
			"linkReferences": {},
			"object": "6080604052348015600e575f80fd5b506102a78061001c5f395ff3fe608060405260043610610033575f3560e01c8063044a11fe14610037578063378abe2414610073578063b60d42881461007d575b5f80fd5b348015610042575f80fd5b5061005d60048036038101906100589190610153565b610087565b60405161006a919061018d565b60405180910390f35b61007b6100ab565b005b6100856100d2565b005b5f80828154811061009b5761009a6101a6565b5b905f5260205f2001549050919050565b5f34908060018154018082558091505060019003905f5260205f20015f9091909190915055565b64012a05f20034101561011a576040517f08c379a000000000000000000000000000000000000000000000000000000000815260040161011190610253565b60405180910390fd5b565b5f80fd5b5f819050919050565b61013281610120565b811461013c575f80fd5b50565b5f8135905061014d81610129565b92915050565b5f602082840312156101685761016761011c565b5b5f6101758482850161013f565b91505092915050565b61018781610120565b82525050565b5f6020820190506101a05f83018461017e565b92915050565b7f4e487b71000000000000000000000000000000000000000000000000000000005f52603260045260245ffd5b5f82825260208201905092915050565b7f596f75206861766520746f2073656e6420322067776569206174206c656173745f8201527f2100000000000000000000000000000000000000000000000000000000000000602082015250565b5f61023d6021836101d3565b9150610248826101e3565b604082019050919050565b5f6020820190508181035f83015261026a81610231565b905091905056fea264697066735822122060560883cd817518a95899bccbf0dcad86e93881b15537c2f904d85467503b2764736f6c634300081a0033",
			"opcodes": "PUSH1 0x80 PUSH1 0x40 MSTORE CALLVALUE DUP1 ISZERO PUSH1 0xE JUMPI PUSH0 DUP1 REVERT JUMPDEST POP PUSH2 0x2A7 DUP1 PUSH2 0x1C PUSH0 CODECOPY PUSH0 RETURN INVALID PUSH1 0x80 PUSH1 0x40 MSTORE PUSH1 0x4 CALLDATASIZE LT PUSH2 0x33 JUMPI PUSH0 CALLDATALOAD PUSH1 0xE0 SHR DUP1 PUSH4 0x44A11FE EQ PUSH2 0x37 JUMPI DUP1 PUSH4 0x378ABE24 EQ PUSH2 0x73 JUMPI DUP1 PUSH4 0xB60D4288 EQ PUSH2 0x7D JUMPI JUMPDEST PUSH0 DUP1 REVERT JUMPDEST CALLVALUE DUP1 ISZERO PUSH2 0x42 JUMPI PUSH0 DUP1 REVERT JUMPDEST POP PUSH2 0x5D PUSH1 0x4 DUP1 CALLDATASIZE SUB DUP2 ADD SWAP1 PUSH2 0x58 SWAP2 SWAP1 PUSH2 0x153 JUMP JUMPDEST PUSH2 0x87 JUMP JUMPDEST PUSH1 0x40 MLOAD PUSH2 0x6A SWAP2 SWAP1 PUSH2 0x18D JUMP JUMPDEST PUSH1 0x40 MLOAD DUP1 SWAP2 SUB SWAP1 RETURN JUMPDEST PUSH2 0x7B PUSH2 0xAB JUMP JUMPDEST STOP JUMPDEST PUSH2 0x85 PUSH2 0xD2 JUMP JUMPDEST STOP JUMPDEST PUSH0 DUP1 DUP3 DUP2 SLOAD DUP2 LT PUSH2 0x9B JUMPI PUSH2 0x9A PUSH2 0x1A6 JUMP JUMPDEST JUMPDEST SWAP1 PUSH0 MSTORE PUSH1 0x20 PUSH0 KECCAK256 ADD SLOAD SWAP1 POP SWAP2 SWAP1 POP JUMP JUMPDEST PUSH0 CALLVALUE SWAP1 DUP1 PUSH1 0x1 DUP2 SLOAD ADD DUP1 DUP3 SSTORE DUP1 SWAP2 POP POP PUSH1 0x1 SWAP1 SUB SWAP1 PUSH0 MSTORE PUSH1 0x20 PUSH0 KECCAK256 ADD PUSH0 SWAP1 SWAP2 SWAP1 SWAP2 SWAP1 SWAP2 POP SSTORE JUMP JUMPDEST PUSH5 0x12A05F200 CALLVALUE LT ISZERO PUSH2 0x11A JUMPI PUSH1 0x40 MLOAD PUSH32 0x8C379A000000000000000000000000000000000000000000000000000000000 DUP2 MSTORE PUSH1 0x4 ADD PUSH2 0x111 SWAP1 PUSH2 0x253 JUMP JUMPDEST PUSH1 0x40 MLOAD DUP1 SWAP2 SUB SWAP1 REVERT JUMPDEST JUMP JUMPDEST PUSH0 DUP1 REVERT JUMPDEST PUSH0 DUP2 SWAP1 POP SWAP2 SWAP1 POP JUMP JUMPDEST PUSH2 0x132 DUP2 PUSH2 0x120 JUMP JUMPDEST DUP2 EQ PUSH2 0x13C JUMPI PUSH0 DUP1 REVERT JUMPDEST POP JUMP JUMPDEST PUSH0 DUP2 CALLDATALOAD SWAP1 POP PUSH2 0x14D DUP2 PUSH2 0x129 JUMP JUMPDEST SWAP3 SWAP2 POP POP JUMP JUMPDEST PUSH0 PUSH1 0x20 DUP3 DUP5 SUB SLT ISZERO PUSH2 0x168 JUMPI PUSH2 0x167 PUSH2 0x11C JUMP JUMPDEST JUMPDEST PUSH0 PUSH2 0x175 DUP5 DUP3 DUP6 ADD PUSH2 0x13F JUMP JUMPDEST SWAP2 POP POP SWAP3 SWAP2 POP POP JUMP JUMPDEST PUSH2 0x187 DUP2 PUSH2 0x120 JUMP JUMPDEST DUP3 MSTORE POP POP JUMP JUMPDEST PUSH0 PUSH1 0x20 DUP3 ADD SWAP1 POP PUSH2 0x1A0 PUSH0 DUP4 ADD DUP5 PUSH2 0x17E JUMP JUMPDEST SWAP3 SWAP2 POP POP JUMP JUMPDEST PUSH32 0x4E487B7100000000000000000000000000000000000000000000000000000000 PUSH0 MSTORE PUSH1 0x32 PUSH1 0x4 MSTORE PUSH1 0x24 PUSH0 REVERT JUMPDEST PUSH0 DUP3 DUP3 MSTORE PUSH1 0x20 DUP3 ADD SWAP1 POP SWAP3 SWAP2 POP POP JUMP JUMPDEST PUSH32 0x596F75206861766520746F2073656E6420322067776569206174206C65617374 PUSH0 DUP3 ADD MSTORE PUSH32 0x2100000000000000000000000000000000000000000000000000000000000000 PUSH1 0x20 DUP3 ADD MSTORE POP JUMP JUMPDEST PUSH0 PUSH2 0x23D PUSH1 0x21 DUP4 PUSH2 0x1D3 JUMP JUMPDEST SWAP2 POP PUSH2 0x248 DUP3 PUSH2 0x1E3 JUMP JUMPDEST PUSH1 0x40 DUP3 ADD SWAP1 POP SWAP2 SWAP1 POP JUMP JUMPDEST PUSH0 PUSH1 0x20 DUP3 ADD SWAP1 POP DUP2 DUP2 SUB PUSH0 DUP4 ADD MSTORE PUSH2 0x26A DUP2 PUSH2 0x231 JUMP JUMPDEST SWAP1 POP SWAP2 SWAP1 POP JUMP INVALID LOG2 PUSH5 0x6970667358 0x22 SLT KECCAK256 PUSH1 0x56 ADDMOD DUP4 0xCD DUP2 PUSH22 0x18A95899BCCBF0DCAD86E93881B15537C2F904D85467 POP EXTCODESIZE 0x27 PUSH5 0x736F6C6343 STOP ADDMOD BYTE STOP CALLER "
		},
		"gasEstimates": {
			"creation": {
				"codeDepositCost": "135800",
				"executionCost": "181",
				"totalCost": "135981"
			},
			"external": {
				"fund()": "468",
				"getGasValue()": "46537",
				"getStoreGas(uint256)": "infinite"
			}
		},
		"methodIdentifiers": {
			"fund()": "b60d4288",
			"getGasValue()": "378abe24",
			"getStoreGas(uint256)": "044a11fe"
		}
	},
	"abi": [
		{
			"inputs": [],
			"name": "fund",
			"outputs": [],
			"stateMutability": "payable",
			"type": "function"
		},
		{
			"inputs": [],
			"name": "getGasValue",
			"outputs": [],
			"stateMutability": "payable",
			"type": "function"
		},
		{
			"inputs": [
				{
					"internalType": "uint256",
					"name": "_index",
					"type": "uint256"
				}
			],
			"name": "getStoreGas",
			"outputs": [
				{
					"internalType": "uint256",
					"name": "",
					"type": "uint256"
				}
			],
			"stateMutability": "view",
			"type": "function"
		}
	]
}