{
	"data": {
		"bytecode": {
			"linkReferences": {},
			"object": "608060405234801561000f575f80fd5b505f805f6101000a81548160ff021916908360028111156100335761003261003d565b5b021790555061006a565b7f4e487b71000000000000000000000000000000000000000000000000000000005f52602160045260245ffd5b610475806100775f395ff3fe608060405234801561000f575f80fd5b506004361061003f575f3560e01c806345f09ce914610043578063779822f7146100615780637e59301e1461006b575b5f80fd5b61004b610075565b6040516100589190610322565b60405180910390f35b610069610097565b005b6100736100f7565b005b60605f805f9054906101000a900460ff16905061009181610157565b91505090565b60025f806101000a81548160ff021916908360028111156100bb576100ba610342565b5b02179055507fca75c80642b93c980135b8355995abae3ab06033dc81f956b3824323b4903ef56040516100ed906103b9565b60405180910390a1565b60015f806101000a81548160ff0219169083600281111561011b5761011a610342565b5b02179055507fca75c80642b93c980135b8355995abae3ab06033dc81f956b3824323b4903ef560405161014d90610421565b60405180910390a1565b606081600281111561016c5761016b610342565b5b5f600281111561017f5761017e610342565b5b036101c1576040518060400160405280600781526020017f50656e64696e67000000000000000000000000000000000000000000000000008152509050610293565b8160028111156101d4576101d3610342565b5b600160028111156101e8576101e7610342565b5b0361022a576040518060400160405280600781526020017f53686970706564000000000000000000000000000000000000000000000000008152509050610293565b81600281111561023d5761023c610342565b5b6002808111156102505761024f610342565b5b03610292576040518060400160405280600981526020017f44656c69766572656400000000000000000000000000000000000000000000008152509050610293565b5b919050565b5f81519050919050565b5f82825260208201905092915050565b5f5b838110156102cf5780820151818401526020810190506102b4565b5f8484015250505050565b5f601f19601f8301169050919050565b5f6102f482610298565b6102fe81856102a2565b935061030e8185602086016102b2565b610317816102da565b840191505092915050565b5f6020820190508181035f83015261033a81846102ea565b905092915050565b7f4e487b71000000000000000000000000000000000000000000000000000000005f52602160045260245ffd5b7f596f7572207061636b61676520686173206172726976656400000000000000005f82015250565b5f6103a36018836102a2565b91506103ae8261036f565b602082019050919050565b5f6020820190508181035f8301526103d081610397565b9050919050565b7f596f7572207061636b61676520686173206265656e20736869707065640000005f82015250565b5f61040b601d836102a2565b9150610416826103d7565b602082019050919050565b5f6020820190508181035f830152610438816103ff565b905091905056fea264697066735822122036e843d998d58029a4008f38bc9985deb3e73d768408fd9ab8efde6fc49a4d0d64736f6c63430008180033",
			"opcodes": "PUSH1 0x80 PUSH1 0x40 MSTORE CALLVALUE DUP1 ISZERO PUSH2 0xF JUMPI PUSH0 DUP1 REVERT JUMPDEST POP PUSH0 DUP1 PUSH0 PUSH2 0x100 EXP DUP2 SLOAD DUP2 PUSH1 0xFF MUL NOT AND SWAP1 DUP4 PUSH1 0x2 DUP2 GT ISZERO PUSH2 0x33 JUMPI PUSH2 0x32 PUSH2 0x3D JUMP JUMPDEST JUMPDEST MUL OR SWAP1 SSTORE POP PUSH2 0x6A JUMP JUMPDEST PUSH32 0x4E487B7100000000000000000000000000000000000000000000000000000000 PUSH0 MSTORE PUSH1 0x21 PUSH1 0x4 MSTORE PUSH1 0x24 PUSH0 REVERT JUMPDEST PUSH2 0x475 DUP1 PUSH2 0x77 PUSH0 CODECOPY PUSH0 RETURN INVALID PUSH1 0x80 PUSH1 0x40 MSTORE CALLVALUE DUP1 ISZERO PUSH2 0xF JUMPI PUSH0 DUP1 REVERT JUMPDEST POP PUSH1 0x4 CALLDATASIZE LT PUSH2 0x3F JUMPI PUSH0 CALLDATALOAD PUSH1 0xE0 SHR DUP1 PUSH4 0x45F09CE9 EQ PUSH2 0x43 JUMPI DUP1 PUSH4 0x779822F7 EQ PUSH2 0x61 JUMPI DUP1 PUSH4 0x7E59301E EQ PUSH2 0x6B JUMPI JUMPDEST PUSH0 DUP1 REVERT JUMPDEST PUSH2 0x4B PUSH2 0x75 JUMP JUMPDEST PUSH1 0x40 MLOAD PUSH2 0x58 SWAP2 SWAP1 PUSH2 0x322 JUMP JUMPDEST PUSH1 0x40 MLOAD DUP1 SWAP2 SUB SWAP1 RETURN JUMPDEST PUSH2 0x69 PUSH2 0x97 JUMP JUMPDEST STOP JUMPDEST PUSH2 0x73 PUSH2 0xF7 JUMP JUMPDEST STOP JUMPDEST PUSH1 0x60 PUSH0 DUP1 PUSH0 SWAP1 SLOAD SWAP1 PUSH2 0x100 EXP SWAP1 DIV PUSH1 0xFF AND SWAP1 POP PUSH2 0x91 DUP2 PUSH2 0x157 JUMP JUMPDEST SWAP2 POP POP SWAP1 JUMP JUMPDEST PUSH1 0x2 PUSH0 DUP1 PUSH2 0x100 EXP DUP2 SLOAD DUP2 PUSH1 0xFF MUL NOT AND SWAP1 DUP4 PUSH1 0x2 DUP2 GT ISZERO PUSH2 0xBB JUMPI PUSH2 0xBA PUSH2 0x342 JUMP JUMPDEST JUMPDEST MUL OR SWAP1 SSTORE POP PUSH32 0xCA75C80642B93C980135B8355995ABAE3AB06033DC81F956B3824323B4903EF5 PUSH1 0x40 MLOAD PUSH2 0xED SWAP1 PUSH2 0x3B9 JUMP JUMPDEST PUSH1 0x40 MLOAD DUP1 SWAP2 SUB SWAP1 LOG1 JUMP JUMPDEST PUSH1 0x1 PUSH0 DUP1 PUSH2 0x100 EXP DUP2 SLOAD DUP2 PUSH1 0xFF MUL NOT AND SWAP1 DUP4 PUSH1 0x2 DUP2 GT ISZERO PUSH2 0x11B JUMPI PUSH2 0x11A PUSH2 0x342 JUMP JUMPDEST JUMPDEST MUL OR SWAP1 SSTORE POP PUSH32 0xCA75C80642B93C980135B8355995ABAE3AB06033DC81F956B3824323B4903EF5 PUSH1 0x40 MLOAD PUSH2 0x14D SWAP1 PUSH2 0x421 JUMP JUMPDEST PUSH1 0x40 MLOAD DUP1 SWAP2 SUB SWAP1 LOG1 JUMP JUMPDEST PUSH1 0x60 DUP2 PUSH1 0x2 DUP2 GT ISZERO PUSH2 0x16C JUMPI PUSH2 0x16B PUSH2 0x342 JUMP JUMPDEST JUMPDEST PUSH0 PUSH1 0x2 DUP2 GT ISZERO PUSH2 0x17F JUMPI PUSH2 0x17E PUSH2 0x342 JUMP JUMPDEST JUMPDEST SUB PUSH2 0x1C1 JUMPI PUSH1 0x40 MLOAD DUP1 PUSH1 0x40 ADD PUSH1 0x40 MSTORE DUP1 PUSH1 0x7 DUP2 MSTORE PUSH1 0x20 ADD PUSH32 0x50656E64696E6700000000000000000000000000000000000000000000000000 DUP2 MSTORE POP SWAP1 POP PUSH2 0x293 JUMP JUMPDEST DUP2 PUSH1 0x2 DUP2 GT ISZERO PUSH2 0x1D4 JUMPI PUSH2 0x1D3 PUSH2 0x342 JUMP JUMPDEST JUMPDEST PUSH1 0x1 PUSH1 0x2 DUP2 GT ISZERO PUSH2 0x1E8 JUMPI PUSH2 0x1E7 PUSH2 0x342 JUMP JUMPDEST JUMPDEST SUB PUSH2 0x22A JUMPI PUSH1 0x40 MLOAD DUP1 PUSH1 0x40 ADD PUSH1 0x40 MSTORE DUP1 PUSH1 0x7 DUP2 MSTORE PUSH1 0x20 ADD PUSH32 0x5368697070656400000000000000000000000000000000000000000000000000 DUP2 MSTORE POP SWAP1 POP PUSH2 0x293 JUMP JUMPDEST DUP2 PUSH1 0x2 DUP2 GT ISZERO PUSH2 0x23D JUMPI PUSH2 0x23C PUSH2 0x342 JUMP JUMPDEST JUMPDEST PUSH1 0x2 DUP1 DUP2 GT ISZERO PUSH2 0x250 JUMPI PUSH2 0x24F PUSH2 0x342 JUMP JUMPDEST JUMPDEST SUB PUSH2 0x292 JUMPI PUSH1 0x40 MLOAD DUP1 PUSH1 0x40 ADD PUSH1 0x40 MSTORE DUP1 PUSH1 0x9 DUP2 MSTORE PUSH1 0x20 ADD PUSH32 0x44656C6976657265640000000000000000000000000000000000000000000000 DUP2 MSTORE POP SWAP1 POP PUSH2 0x293 JUMP JUMPDEST JUMPDEST SWAP2 SWAP1 POP JUMP JUMPDEST PUSH0 DUP2 MLOAD SWAP1 POP SWAP2 SWAP1 POP JUMP JUMPDEST PUSH0 DUP3 DUP3 MSTORE PUSH1 0x20 DUP3 ADD SWAP1 POP SWAP3 SWAP2 POP POP JUMP JUMPDEST PUSH0 JUMPDEST DUP4 DUP2 LT ISZERO PUSH2 0x2CF JUMPI DUP1 DUP3 ADD MLOAD DUP2 DUP5 ADD MSTORE PUSH1 0x20 DUP2 ADD SWAP1 POP PUSH2 0x2B4 JUMP JUMPDEST PUSH0 DUP5 DUP5 ADD MSTORE POP POP POP POP JUMP JUMPDEST PUSH0 PUSH1 0x1F NOT PUSH1 0x1F DUP4 ADD AND SWAP1 POP SWAP2 SWAP1 POP JUMP JUMPDEST PUSH0 PUSH2 0x2F4 DUP3 PUSH2 0x298 JUMP JUMPDEST PUSH2 0x2FE DUP2 DUP6 PUSH2 0x2A2 JUMP JUMPDEST SWAP4 POP PUSH2 0x30E DUP2 DUP6 PUSH1 0x20 DUP7 ADD PUSH2 0x2B2 JUMP JUMPDEST PUSH2 0x317 DUP2 PUSH2 0x2DA JUMP JUMPDEST DUP5 ADD SWAP2 POP POP SWAP3 SWAP2 POP POP JUMP JUMPDEST PUSH0 PUSH1 0x20 DUP3 ADD SWAP1 POP DUP2 DUP2 SUB PUSH0 DUP4 ADD MSTORE PUSH2 0x33A DUP2 DUP5 PUSH2 0x2EA JUMP JUMPDEST SWAP1 POP SWAP3 SWAP2 POP POP JUMP JUMPDEST PUSH32 0x4E487B7100000000000000000000000000000000000000000000000000000000 PUSH0 MSTORE PUSH1 0x21 PUSH1 0x4 MSTORE PUSH1 0x24 PUSH0 REVERT JUMPDEST PUSH32 0x596F7572207061636B6167652068617320617272697665640000000000000000 PUSH0 DUP3 ADD MSTORE POP JUMP JUMPDEST PUSH0 PUSH2 0x3A3 PUSH1 0x18 DUP4 PUSH2 0x2A2 JUMP JUMPDEST SWAP2 POP PUSH2 0x3AE DUP3 PUSH2 0x36F JUMP JUMPDEST PUSH1 0x20 DUP3 ADD SWAP1 POP SWAP2 SWAP1 POP JUMP JUMPDEST PUSH0 PUSH1 0x20 DUP3 ADD SWAP1 POP DUP2 DUP2 SUB PUSH0 DUP4 ADD MSTORE PUSH2 0x3D0 DUP2 PUSH2 0x397 JUMP JUMPDEST SWAP1 POP SWAP2 SWAP1 POP JUMP JUMPDEST PUSH32 0x596F7572207061636B61676520686173206265656E2073686970706564000000 PUSH0 DUP3 ADD MSTORE POP JUMP JUMPDEST PUSH0 PUSH2 0x40B PUSH1 0x1D DUP4 PUSH2 0x2A2 JUMP JUMPDEST SWAP2 POP PUSH2 0x416 DUP3 PUSH2 0x3D7 JUMP JUMPDEST PUSH1 0x20 DUP3 ADD SWAP1 POP SWAP2 SWAP1 POP JUMP JUMPDEST PUSH0 PUSH1 0x20 DUP3 ADD SWAP1 POP DUP2 DUP2 SUB PUSH0 DUP4 ADD MSTORE PUSH2 0x438 DUP2 PUSH2 0x3FF JUMP JUMPDEST SWAP1 POP SWAP2 SWAP1 POP JUMP INVALID LOG2 PUSH5 0x6970667358 0x22 SLT KECCAK256 CALLDATASIZE 0xE8 NUMBER 0xD9 SWAP9 0xD5 DUP1 0x29 LOG4 STOP DUP16 CODESIZE 0xBC SWAP10 DUP6 0xDE 0xB3 0xE7 RETURNDATASIZE PUSH23 0x8408FD9AB8EFDE6FC49A4D0D64736F6C63430008180033 "
		},
		"gasEstimates": {
			"creation": {
				"codeDepositCost": "228200",
				"executionCost": "24564",
				"totalCost": "252764"
			},
			"external": {
				"Delivered()": "26226",
				"Shipped()": "26248",
				"Status()": "infinite"
			},
			"internal": {
				"getStatus(enum Shipping.ShippingStatus)": "infinite"
			}
		},
		"methodIdentifiers": {
			"Delivered()": "779822f7",
			"Shipped()": "7e59301e",
			"Status()": "45f09ce9"
		}
	},
	"abi": [
		{
			"inputs": [],
			"stateMutability": "nonpayable",
			"type": "constructor"
		},
		{
			"anonymous": false,
			"inputs": [
				{
					"indexed": false,
					"internalType": "string",
					"name": "description",
					"type": "string"
				}
			],
			"name": "LogNewAlert",
			"type": "event"
		},
		{
			"inputs": [],
			"name": "Delivered",
			"outputs": [],
			"stateMutability": "nonpayable",
			"type": "function"
		},
		{
			"inputs": [],
			"name": "Shipped",
			"outputs": [],
			"stateMutability": "nonpayable",
			"type": "function"
		},
		{
			"inputs": [],
			"name": "Status",
			"outputs": [
				{
					"internalType": "string",
					"name": "",
					"type": "string"
				}
			],
			"stateMutability": "view",
			"type": "function"
		}
	]
}