{
	"data": {
		"bytecode": {
			"linkReferences": {},
			"object": "6080604052348015600e575f80fd5b506107248061001c5f395ff3fe608060405234801561000f575f80fd5b506004361061004a575f3560e01c80631dda65411461004e57806364591bf1146100585780637a429e18146100885780639399d560146100b8575b5f80fd5b6100566100d4565b005b610072600480360381019061006d9190610335565b61015a565b60405161007f91906103da565b60405180910390f35b6100a2600480360381019061009d9190610335565b610194565b6040516100af9190610402565b60405180910390f35b6100d260048036038101906100cd919061041b565b610248565b005b5f6040516100e1906102f1565b604051809103905ff0801580156100fa573d5f803e3d5ffd5b50908060018154018082558091505060019003905f5260205f20015f9091909190916101000a81548173ffffffffffffffffffffffffffffffffffffffff021916908373ffffffffffffffffffffffffffffffffffffffff160217905550565b5f8181548110610168575f80fd5b905f5260205f20015f915054906101000a900473ffffffffffffffffffffffffffffffffffffffff1681565b5f805f83815481106101a9576101a8610459565b5b905f5260205f20015f9054906101000a900473ffffffffffffffffffffffffffffffffffffffff1690508073ffffffffffffffffffffffffffffffffffffffff166367e0badb6040518163ffffffff1660e01b8152600401602060405180830381865afa15801561021c573d5f803e3d5ffd5b505050506040513d601f19601f82011682018060405250810190610240919061049a565b915050919050565b5f80838154811061025c5761025b610459565b5b905f5260205f20015f9054906101000a900473ffffffffffffffffffffffffffffffffffffffff1690508073ffffffffffffffffffffffffffffffffffffffff16636057361d836040518263ffffffff1660e01b81526004016102bf9190610402565b5f604051808303815f87803b1580156102d6575f80fd5b505af11580156102e8573d5f803e3d5ffd5b50505050505050565b610229806104c683390190565b5f80fd5b5f819050919050565b61031481610302565b811461031e575f80fd5b50565b5f8135905061032f8161030b565b92915050565b5f6020828403121561034a576103496102fe565b5b5f61035784828501610321565b91505092915050565b5f73ffffffffffffffffffffffffffffffffffffffff82169050919050565b5f819050919050565b5f6103a261039d61039884610360565b61037f565b610360565b9050919050565b5f6103b382610388565b9050919050565b5f6103c4826103a9565b9050919050565b6103d4816103ba565b82525050565b5f6020820190506103ed5f8301846103cb565b92915050565b6103fc81610302565b82525050565b5f6020820190506104155f8301846103f3565b92915050565b5f8060408385031215610431576104306102fe565b5b5f61043e85828601610321565b925050602061044f85828601610321565b9150509250929050565b7f4e487b71000000000000000000000000000000000000000000000000000000005f52603260045260245ffd5b5f815190506104948161030b565b92915050565b5f602082840312156104af576104ae6102fe565b5b5f6104bc84828501610486565b9150509291505056fe6080604052348015600e575f80fd5b5061020d8061001c5f395ff3fe608060405234801561000f575f80fd5b506004361061004a575f3560e01c80631003e2d21461004e578063471f7cdf1461006a5780636057361d1461008857806367e0badb146100a4575b5f80fd5b61006860048036038101906100639190610124565b6100c2565b005b6100726100d7565b60405161007f919061015e565b60405180910390f35b6100a2600480360381019061009d9190610124565b6100dc565b005b6100ac6100e5565b6040516100b9919061015e565b60405180910390f35b805f546100cf91906101a4565b5f8190555050565b5f5481565b805f8190555050565b5f8054905090565b5f80fd5b5f819050919050565b610103816100f1565b811461010d575f80fd5b50565b5f8135905061011e816100fa565b92915050565b5f60208284031215610139576101386100ed565b5b5f61014684828501610110565b91505092915050565b610158816100f1565b82525050565b5f6020820190506101715f83018461014f565b92915050565b7f4e487b71000000000000000000000000000000000000000000000000000000005f52601160045260245ffd5b5f6101ae826100f1565b91506101b9836100f1565b92508282019050808211156101d1576101d0610177565b5b9291505056fea2646970667358221220a4215237a84d06bacc744217c9c2c518043dc33a6de962a9730041e791dc7eae64736f6c634300081a0033a264697066735822122005fc452bfd645716f94c384de259dc40c1ce949d69db7627f38ffc69c5a8b4d464736f6c634300081a0033",
			"opcodes": "PUSH1 0x80 PUSH1 0x40 MSTORE CALLVALUE DUP1 ISZERO PUSH1 0xE JUMPI PUSH0 DUP1 REVERT JUMPDEST POP PUSH2 0x724 DUP1 PUSH2 0x1C PUSH0 CODECOPY PUSH0 RETURN INVALID PUSH1 0x80 PUSH1 0x40 MSTORE CALLVALUE DUP1 ISZERO PUSH2 0xF JUMPI PUSH0 DUP1 REVERT JUMPDEST POP PUSH1 0x4 CALLDATASIZE LT PUSH2 0x4A JUMPI PUSH0 CALLDATALOAD PUSH1 0xE0 SHR DUP1 PUSH4 0x1DDA6541 EQ PUSH2 0x4E JUMPI DUP1 PUSH4 0x64591BF1 EQ PUSH2 0x58 JUMPI DUP1 PUSH4 0x7A429E18 EQ PUSH2 0x88 JUMPI DUP1 PUSH4 0x9399D560 EQ PUSH2 0xB8 JUMPI JUMPDEST PUSH0 DUP1 REVERT JUMPDEST PUSH2 0x56 PUSH2 0xD4 JUMP JUMPDEST STOP JUMPDEST PUSH2 0x72 PUSH1 0x4 DUP1 CALLDATASIZE SUB DUP2 ADD SWAP1 PUSH2 0x6D SWAP2 SWAP1 PUSH2 0x335 JUMP JUMPDEST PUSH2 0x15A JUMP JUMPDEST PUSH1 0x40 MLOAD PUSH2 0x7F SWAP2 SWAP1 PUSH2 0x3DA JUMP JUMPDEST PUSH1 0x40 MLOAD DUP1 SWAP2 SUB SWAP1 RETURN JUMPDEST PUSH2 0xA2 PUSH1 0x4 DUP1 CALLDATASIZE SUB DUP2 ADD SWAP1 PUSH2 0x9D SWAP2 SWAP1 PUSH2 0x335 JUMP JUMPDEST PUSH2 0x194 JUMP JUMPDEST PUSH1 0x40 MLOAD PUSH2 0xAF SWAP2 SWAP1 PUSH2 0x402 JUMP JUMPDEST PUSH1 0x40 MLOAD DUP1 SWAP2 SUB SWAP1 RETURN JUMPDEST PUSH2 0xD2 PUSH1 0x4 DUP1 CALLDATASIZE SUB DUP2 ADD SWAP1 PUSH2 0xCD SWAP2 SWAP1 PUSH2 0x41B JUMP JUMPDEST PUSH2 0x248 JUMP JUMPDEST STOP JUMPDEST PUSH0 PUSH1 0x40 MLOAD PUSH2 0xE1 SWAP1 PUSH2 0x2F1 JUMP JUMPDEST PUSH1 0x40 MLOAD DUP1 SWAP2 SUB SWAP1 PUSH0 CREATE DUP1 ISZERO DUP1 ISZERO PUSH2 0xFA JUMPI RETURNDATASIZE PUSH0 DUP1 RETURNDATACOPY RETURNDATASIZE PUSH0 REVERT JUMPDEST POP SWAP1 DUP1 PUSH1 0x1 DUP2 SLOAD ADD DUP1 DUP3 SSTORE DUP1 SWAP2 POP POP PUSH1 0x1 SWAP1 SUB SWAP1 PUSH0 MSTORE PUSH1 0x20 PUSH0 KECCAK256 ADD PUSH0 SWAP1 SWAP2 SWAP1 SWAP2 SWAP1 SWAP2 PUSH2 0x100 EXP DUP2 SLOAD DUP2 PUSH20 0xFFFFFFFFFFFFFFFFFFFFFFFFFFFFFFFFFFFFFFFF MUL NOT AND SWAP1 DUP4 PUSH20 0xFFFFFFFFFFFFFFFFFFFFFFFFFFFFFFFFFFFFFFFF AND MUL OR SWAP1 SSTORE POP JUMP JUMPDEST PUSH0 DUP2 DUP2 SLOAD DUP2 LT PUSH2 0x168 JUMPI PUSH0 DUP1 REVERT JUMPDEST SWAP1 PUSH0 MSTORE PUSH1 0x20 PUSH0 KECCAK256 ADD PUSH0 SWAP2 POP SLOAD SWAP1 PUSH2 0x100 EXP SWAP1 DIV PUSH20 0xFFFFFFFFFFFFFFFFFFFFFFFFFFFFFFFFFFFFFFFF AND DUP2 JUMP JUMPDEST PUSH0 DUP1 PUSH0 DUP4 DUP2 SLOAD DUP2 LT PUSH2 0x1A9 JUMPI PUSH2 0x1A8 PUSH2 0x459 JUMP JUMPDEST JUMPDEST SWAP1 PUSH0 MSTORE PUSH1 0x20 PUSH0 KECCAK256 ADD PUSH0 SWAP1 SLOAD SWAP1 PUSH2 0x100 EXP SWAP1 DIV PUSH20 0xFFFFFFFFFFFFFFFFFFFFFFFFFFFFFFFFFFFFFFFF AND SWAP1 POP DUP1 PUSH20 0xFFFFFFFFFFFFFFFFFFFFFFFFFFFFFFFFFFFFFFFF AND PUSH4 0x67E0BADB PUSH1 0x40 MLOAD DUP2 PUSH4 0xFFFFFFFF AND PUSH1 0xE0 SHL DUP2 MSTORE PUSH1 0x4 ADD PUSH1 0x20 PUSH1 0x40 MLOAD DUP1 DUP4 SUB DUP2 DUP7 GAS STATICCALL ISZERO DUP1 ISZERO PUSH2 0x21C JUMPI RETURNDATASIZE PUSH0 DUP1 RETURNDATACOPY RETURNDATASIZE PUSH0 REVERT JUMPDEST POP POP POP POP PUSH1 0x40 MLOAD RETURNDATASIZE PUSH1 0x1F NOT PUSH1 0x1F DUP3 ADD AND DUP3 ADD DUP1 PUSH1 0x40 MSTORE POP DUP2 ADD SWAP1 PUSH2 0x240 SWAP2 SWAP1 PUSH2 0x49A JUMP JUMPDEST SWAP2 POP POP SWAP2 SWAP1 POP JUMP JUMPDEST PUSH0 DUP1 DUP4 DUP2 SLOAD DUP2 LT PUSH2 0x25C JUMPI PUSH2 0x25B PUSH2 0x459 JUMP JUMPDEST JUMPDEST SWAP1 PUSH0 MSTORE PUSH1 0x20 PUSH0 KECCAK256 ADD PUSH0 SWAP1 SLOAD SWAP1 PUSH2 0x100 EXP SWAP1 DIV PUSH20 0xFFFFFFFFFFFFFFFFFFFFFFFFFFFFFFFFFFFFFFFF AND SWAP1 POP DUP1 PUSH20 0xFFFFFFFFFFFFFFFFFFFFFFFFFFFFFFFFFFFFFFFF AND PUSH4 0x6057361D DUP4 PUSH1 0x40 MLOAD DUP3 PUSH4 0xFFFFFFFF AND PUSH1 0xE0 SHL DUP2 MSTORE PUSH1 0x4 ADD PUSH2 0x2BF SWAP2 SWAP1 PUSH2 0x402 JUMP JUMPDEST PUSH0 PUSH1 0x40 MLOAD DUP1 DUP4 SUB DUP2 PUSH0 DUP8 DUP1 EXTCODESIZE ISZERO DUP1 ISZERO PUSH2 0x2D6 JUMPI PUSH0 DUP1 REVERT JUMPDEST POP GAS CALL ISZERO DUP1 ISZERO PUSH2 0x2E8 JUMPI RETURNDATASIZE PUSH0 DUP1 RETURNDATACOPY RETURNDATASIZE PUSH0 REVERT JUMPDEST POP POP POP POP POP POP POP JUMP JUMPDEST PUSH2 0x229 DUP1 PUSH2 0x4C6 DUP4 CODECOPY ADD SWAP1 JUMP JUMPDEST PUSH0 DUP1 REVERT JUMPDEST PUSH0 DUP2 SWAP1 POP SWAP2 SWAP1 POP JUMP JUMPDEST PUSH2 0x314 DUP2 PUSH2 0x302 JUMP JUMPDEST DUP2 EQ PUSH2 0x31E JUMPI PUSH0 DUP1 REVERT JUMPDEST POP JUMP JUMPDEST PUSH0 DUP2 CALLDATALOAD SWAP1 POP PUSH2 0x32F DUP2 PUSH2 0x30B JUMP JUMPDEST SWAP3 SWAP2 POP POP JUMP JUMPDEST PUSH0 PUSH1 0x20 DUP3 DUP5 SUB SLT ISZERO PUSH2 0x34A JUMPI PUSH2 0x349 PUSH2 0x2FE JUMP JUMPDEST JUMPDEST PUSH0 PUSH2 0x357 DUP5 DUP3 DUP6 ADD PUSH2 0x321 JUMP JUMPDEST SWAP2 POP POP SWAP3 SWAP2 POP POP JUMP JUMPDEST PUSH0 PUSH20 0xFFFFFFFFFFFFFFFFFFFFFFFFFFFFFFFFFFFFFFFF DUP3 AND SWAP1 POP SWAP2 SWAP1 POP JUMP JUMPDEST PUSH0 DUP2 SWAP1 POP SWAP2 SWAP1 POP JUMP JUMPDEST PUSH0 PUSH2 0x3A2 PUSH2 0x39D PUSH2 0x398 DUP5 PUSH2 0x360 JUMP JUMPDEST PUSH2 0x37F JUMP JUMPDEST PUSH2 0x360 JUMP JUMPDEST SWAP1 POP SWAP2 SWAP1 POP JUMP JUMPDEST PUSH0 PUSH2 0x3B3 DUP3 PUSH2 0x388 JUMP JUMPDEST SWAP1 POP SWAP2 SWAP1 POP JUMP JUMPDEST PUSH0 PUSH2 0x3C4 DUP3 PUSH2 0x3A9 JUMP JUMPDEST SWAP1 POP SWAP2 SWAP1 POP JUMP JUMPDEST PUSH2 0x3D4 DUP2 PUSH2 0x3BA JUMP JUMPDEST DUP3 MSTORE POP POP JUMP JUMPDEST PUSH0 PUSH1 0x20 DUP3 ADD SWAP1 POP PUSH2 0x3ED PUSH0 DUP4 ADD DUP5 PUSH2 0x3CB JUMP JUMPDEST SWAP3 SWAP2 POP POP JUMP JUMPDEST PUSH2 0x3FC DUP2 PUSH2 0x302 JUMP JUMPDEST DUP3 MSTORE POP POP JUMP JUMPDEST PUSH0 PUSH1 0x20 DUP3 ADD SWAP1 POP PUSH2 0x415 PUSH0 DUP4 ADD DUP5 PUSH2 0x3F3 JUMP JUMPDEST SWAP3 SWAP2 POP POP JUMP JUMPDEST PUSH0 DUP1 PUSH1 0x40 DUP4 DUP6 SUB SLT ISZERO PUSH2 0x431 JUMPI PUSH2 0x430 PUSH2 0x2FE JUMP JUMPDEST JUMPDEST PUSH0 PUSH2 0x43E DUP6 DUP3 DUP7 ADD PUSH2 0x321 JUMP JUMPDEST SWAP3 POP POP PUSH1 0x20 PUSH2 0x44F DUP6 DUP3 DUP7 ADD PUSH2 0x321 JUMP JUMPDEST SWAP2 POP POP SWAP3 POP SWAP3 SWAP1 POP JUMP JUMPDEST PUSH32 0x4E487B7100000000000000000000000000000000000000000000000000000000 PUSH0 MSTORE PUSH1 0x32 PUSH1 0x4 MSTORE PUSH1 0x24 PUSH0 REVERT JUMPDEST PUSH0 DUP2 MLOAD SWAP1 POP PUSH2 0x494 DUP2 PUSH2 0x30B JUMP JUMPDEST SWAP3 SWAP2 POP POP JUMP JUMPDEST PUSH0 PUSH1 0x20 DUP3 DUP5 SUB SLT ISZERO PUSH2 0x4AF JUMPI PUSH2 0x4AE PUSH2 0x2FE JUMP JUMPDEST JUMPDEST PUSH0 PUSH2 0x4BC DUP5 DUP3 DUP6 ADD PUSH2 0x486 JUMP JUMPDEST SWAP2 POP POP SWAP3 SWAP2 POP POP JUMP INVALID PUSH1 0x80 PUSH1 0x40 MSTORE CALLVALUE DUP1 ISZERO PUSH1 0xE JUMPI PUSH0 DUP1 REVERT JUMPDEST POP PUSH2 0x20D DUP1 PUSH2 0x1C PUSH0 CODECOPY PUSH0 RETURN INVALID PUSH1 0x80 PUSH1 0x40 MSTORE CALLVALUE DUP1 ISZERO PUSH2 0xF JUMPI PUSH0 DUP1 REVERT JUMPDEST POP PUSH1 0x4 CALLDATASIZE LT PUSH2 0x4A JUMPI PUSH0 CALLDATALOAD PUSH1 0xE0 SHR DUP1 PUSH4 0x1003E2D2 EQ PUSH2 0x4E JUMPI DUP1 PUSH4 0x471F7CDF EQ PUSH2 0x6A JUMPI DUP1 PUSH4 0x6057361D EQ PUSH2 0x88 JUMPI DUP1 PUSH4 0x67E0BADB EQ PUSH2 0xA4 JUMPI JUMPDEST PUSH0 DUP1 REVERT JUMPDEST PUSH2 0x68 PUSH1 0x4 DUP1 CALLDATASIZE SUB DUP2 ADD SWAP1 PUSH2 0x63 SWAP2 SWAP1 PUSH2 0x124 JUMP JUMPDEST PUSH2 0xC2 JUMP JUMPDEST STOP JUMPDEST PUSH2 0x72 PUSH2 0xD7 JUMP JUMPDEST PUSH1 0x40 MLOAD PUSH2 0x7F SWAP2 SWAP1 PUSH2 0x15E JUMP JUMPDEST PUSH1 0x40 MLOAD DUP1 SWAP2 SUB SWAP1 RETURN JUMPDEST PUSH2 0xA2 PUSH1 0x4 DUP1 CALLDATASIZE SUB DUP2 ADD SWAP1 PUSH2 0x9D SWAP2 SWAP1 PUSH2 0x124 JUMP JUMPDEST PUSH2 0xDC JUMP JUMPDEST STOP JUMPDEST PUSH2 0xAC PUSH2 0xE5 JUMP JUMPDEST PUSH1 0x40 MLOAD PUSH2 0xB9 SWAP2 SWAP1 PUSH2 0x15E JUMP JUMPDEST PUSH1 0x40 MLOAD DUP1 SWAP2 SUB SWAP1 RETURN JUMPDEST DUP1 PUSH0 SLOAD PUSH2 0xCF SWAP2 SWAP1 PUSH2 0x1A4 JUMP JUMPDEST PUSH0 DUP2 SWAP1 SSTORE POP POP JUMP JUMPDEST PUSH0 SLOAD DUP2 JUMP JUMPDEST DUP1 PUSH0 DUP2 SWAP1 SSTORE POP POP JUMP JUMPDEST PUSH0 DUP1 SLOAD SWAP1 POP SWAP1 JUMP JUMPDEST PUSH0 DUP1 REVERT JUMPDEST PUSH0 DUP2 SWAP1 POP SWAP2 SWAP1 POP JUMP JUMPDEST PUSH2 0x103 DUP2 PUSH2 0xF1 JUMP JUMPDEST DUP2 EQ PUSH2 0x10D JUMPI PUSH0 DUP1 REVERT JUMPDEST POP JUMP JUMPDEST PUSH0 DUP2 CALLDATALOAD SWAP1 POP PUSH2 0x11E DUP2 PUSH2 0xFA JUMP JUMPDEST SWAP3 SWAP2 POP POP JUMP JUMPDEST PUSH0 PUSH1 0x20 DUP3 DUP5 SUB SLT ISZERO PUSH2 0x139 JUMPI PUSH2 0x138 PUSH2 0xED JUMP JUMPDEST JUMPDEST PUSH0 PUSH2 0x146 DUP5 DUP3 DUP6 ADD PUSH2 0x110 JUMP JUMPDEST SWAP2 POP POP SWAP3 SWAP2 POP POP JUMP JUMPDEST PUSH2 0x158 DUP2 PUSH2 0xF1 JUMP JUMPDEST DUP3 MSTORE POP POP JUMP JUMPDEST PUSH0 PUSH1 0x20 DUP3 ADD SWAP1 POP PUSH2 0x171 PUSH0 DUP4 ADD DUP5 PUSH2 0x14F JUMP JUMPDEST SWAP3 SWAP2 POP POP JUMP JUMPDEST PUSH32 0x4E487B7100000000000000000000000000000000000000000000000000000000 PUSH0 MSTORE PUSH1 0x11 PUSH1 0x4 MSTORE PUSH1 0x24 PUSH0 REVERT JUMPDEST PUSH0 PUSH2 0x1AE DUP3 PUSH2 0xF1 JUMP JUMPDEST SWAP2 POP PUSH2 0x1B9 DUP4 PUSH2 0xF1 JUMP JUMPDEST SWAP3 POP DUP3 DUP3 ADD SWAP1 POP DUP1 DUP3 GT ISZERO PUSH2 0x1D1 JUMPI PUSH2 0x1D0 PUSH2 0x177 JUMP JUMPDEST JUMPDEST SWAP3 SWAP2 POP POP JUMP INVALID LOG2 PUSH5 0x6970667358 0x22 SLT KECCAK256 LOG4 0x21 MSTORE CALLDATACOPY 0xA8 0x4D MOD 0xBA 0xCC PUSH21 0x4217C9C2C518043DC33A6DE962A9730041E791DC7E 0xAE PUSH5 0x736F6C6343 STOP ADDMOD BYTE STOP CALLER LOG2 PUSH5 0x6970667358 0x22 SLT KECCAK256 SDIV 0xFC GASLIMIT 0x2B REVERT PUSH5 0x5716F94C38 0x4D 0xE2 MSIZE 0xDC BLOCKHASH 0xC1 0xCE SWAP5 SWAP14 PUSH10 0xDB7627F38FFC69C5A8B4 0xD4 PUSH5 0x736F6C6343 STOP ADDMOD BYTE STOP CALLER "
		},
		"gasEstimates": {
			"creation": {
				"codeDepositCost": "365600",
				"executionCost": "403",
				"totalCost": "366003"
			},
			"external": {
				"createSimpleStorageContract()": "infinite",
				"sfGetNum(uint256)": "infinite",
				"sfStorage(uint256,uint256)": "infinite",
				"simpleStorageArray(uint256)": "infinite"
			}
		},
		"methodIdentifiers": {
			"createSimpleStorageContract()": "1dda6541",
			"sfGetNum(uint256)": "7a429e18",
			"sfStorage(uint256,uint256)": "9399d560",
			"simpleStorageArray(uint256)": "64591bf1"
		}
	},
	"abi": [
		{
			"inputs": [],
			"name": "createSimpleStorageContract",
			"outputs": [],
			"stateMutability": "nonpayable",
			"type": "function"
		},
		{
			"inputs": [
				{
					"internalType": "uint256",
					"name": "_storageIndex",
					"type": "uint256"
				}
			],
			"name": "sfGetNum",
			"outputs": [
				{
					"internalType": "uint256",
					"name": "",
					"type": "uint256"
				}
			],
			"stateMutability": "view",
			"type": "function"
		},
		{
			"inputs": [
				{
					"internalType": "uint256",
					"name": "_storageIndex",
					"type": "uint256"
				},
				{
					"internalType": "uint256",
					"name": "_simpleStorageNumber",
					"type": "uint256"
				}
			],
			"name": "sfStorage",
			"outputs": [],
			"stateMutability": "nonpayable",
			"type": "function"
		},
		{
			"inputs": [
				{
					"internalType": "uint256",
					"name": "",
					"type": "uint256"
				}
			],
			"name": "simpleStorageArray",
			"outputs": [
				{
					"internalType": "contract SimpleStorage",
					"name": "",
					"type": "address"
				}
			],
			"stateMutability": "view",
			"type": "function"
		}
	]
}